:020000040000FA
:06000000F6EF29F01200EA
:020006001200E6
:060008005DEF27F012007D
:02000E000000F0
:0400100000000000EC
:020014000000EA
:06001800EBEF26F01200E0
:02001E000700D9
:10002000725400008000000070000000485400007E
:10003000000F00002A000000140000007E0F0000E6
:100040000200000010000000780F00000400000013
:10005000285400004A0F0000200000000E0000009D
:100060007C0F000002000000085400002A0F00006E
:04007000200000006C
:0C0074000A0E0F017E1901E17F5101E12D
:10008000E2D3090E7E1901E17F5101E133D3080E5D
:100090007E1901E17F5101E195D2070E7E1901E140
:1000A0007F5101E1F7D1060E7E1901E17F5101E197
:1000B00048D1050E7E1901E17F5101E19ED0040E69
:1000C0007E1901E17F5101E01200000EE66EE66A42
:1000D000ABEC26F0E552E552F3CF00F0F4CF01F09F
:1000E000F350F41001E0BDD3010EE66EE66AABEC0E
:1000F00026F0E552E552F3CF00F0F4CF01F0F350D3
:10010000F4100AE0050E0F017E6F7F6BF1EC1CF01E
:100110007C0EE66E500ED6D3020EE66EE66AABECAF
:1001200026F0E552E552F3CF00F0F4CF01F0F350A2
:10013000F41002E0100ED9D30F01E70ED88000555D
:10014000030E01551DE200CF00F001CF01F0640E57
:10015000256E266A00CF20F001CF21F0D0EC29F0E7
:1001600020C000F021C001F0026A036A20C0E6FF4F
:1001700021C0E6FF02C0E6FF03C0E6FF050E29D05E
:10018000760EE66E500EE66E050EE66EE66A61ECE1
:100190001BF0E552E552E552E55200CF00F001CFE9
:1001A00001F0640E256E266A00CF20F001CF21F009
:1001B000D0EC29F020C000F021C001F0026A036AEF
:1001C00020C0E6FF21C0E6FF02C0E6FF03C0E6FF55
:1001D000060EE66EE66A8CEC1BF0046E060EE15E1F
:1001E000045000CF00F001CF01F0640E256E266AA6
:1001F00000CF20F001CF21F097D0000EE66EE66A26
:10020000ABEC26F0E552E552F3CF00F0F4CF01F06D
:10021000F350F41001E025D3010EE66EE66AABEC74
:1002200026F0E552E552F3CF00F0F4CF01F0F350A1
:10023000F4100AE0060E0F017E6F7F6BF1EC1CF0EC
:10024000650EE66E500E3ED3020EE66EE66AABEC2D
:1002500026F0E552E552F3CF00F0F4CF01F0F35071
:10026000F41002E0110E41D30F01E70ED8800255C1
:10027000030E03551DE202CF00F003CF01F0640E20
:10028000256E266A02CF20F003CF21F0D0EC29F0B2
:1002900020C000F021C001F0026A036A20C0E6FF1E
:1002A00021C0E6FF02C0E6FF03C0E6FF050E29D02D
:1002B000760EE66E500EE66E050EE66EE66A61ECB0
:1002C0001BF0E552E552E552E55202CF00F003CFB4
:1002D00001F0640E256E266A02CF20F003CF21F0D4
:1002E000D0EC29F020C000F021C001F0026A036ABE
:1002F00020C0E6FF21C0E6FF02C0E6FF03C0E6FF24
:10030000060EE66EE66A8CEC1BF0046E060EE15EED
:10031000045002CF00F003CF01F0640E256E266A70
:1003200002CF20F003CF21F0D0EC29F01CC000F068
:100330001DC001F0026A036A1CC0E6FF1DC0E6FF93
:100340002DD3000EE66EE66AABEC26F0E552E552E0
:10035000F3CF00F0F4CF01F0F350F41001E081D2BC
:10036000010EE66EE66AABEC26F0E552E552F3CFFD
:1003700000F0F4CF01F0F350F4100AE0070E0F0183
:100380007E6F7F6BF1EC1CF0580EE66E500E9AD229
:10039000020EE66EE66AABEC26F0E552E552F3CFCC
:1003A00000F0F4CF01F0F350F41002E0120E9DD2F1
:1003B0000F010F0ED8800455270E05551DE204CFFE
:1003C00000F005CF01F0640E256E266A04CF20F000
:1003D00005CF21F0D0EC29F020C000F021C001F0C1
:1003E000026A036A20C0E6FF21C0E6FF02C0E6FF02
:1003F00003C0E6FF060E29D0760EE66E500EE66EBE
:10040000060EE66EE66A61EC1BF0E552E552E55237
:10041000E55204CF00F005CF01F0640E256E266A88
:1004200004CF20F005CF21F0D0EC29F020C000F05F
:1004300021C001F0026A036A20C0E6FF21C0E6FF86
:1004400002C0E6FF03C0E6FF070EE66EE66A8CEC2C
:100450001BF0046E060EE15E045004CF00F005CFE1
:1004600001F0640E256E266A04CF20F005CF21F03E
:10047000D0EC29F01CC000F01DC001F0026A036A34
:100480001CC0E6FF1DC0E6FF02C0E6FF03C0E6FF9A
:100490000A0E89D2000EE66EE66AABEC26F0E55253
:1004A000E552F3CF00F0F4CF01F0F350F41001E087
:1004B000D8D1010EE66EE66AABEC26F0E552E552C5
:1004C000F3CF00F0F4CF01F0F350F4100AE0080E7F
:1004D0000F017E6F7F6BF1EC1CF0480EE66E500E44
:1004E000F1D1020EE66EE66AABEC26F0E552E5527B
:1004F000F3CF00F0F4CF01F0F350F41002E0130E4C
:10050000F4D10F01E70ED8800655030E07551DE202
:1005100006CF00F007CF01F0640E256E266A06CFE5
:1005200020F007CF21F0D0EC29F020C000F021C04E
:1005300001F0026A036A20C0E6FF21C0E6FF02C0A4
:10054000E6FF03C0E6FF060E29D0760EE66E500EDB
:10055000E66E060EE66EE66A61EC1BF0E552E552C9
:10056000E552E55206CF00F007CF01F0640E256E8C
:10057000266A06CF20F007CF21F0D0EC29F020C06A
:1005800000F021C001F0026A036A20C0E6FF21C02A
:10059000E6FF02C0E6FF03C0E6FF070EE66EE66A6E
:1005A0008CEC1BF0046E060EE15E045006CF00F0EA
:1005B00007CF01F0640E256E266A06CF20F007CF24
:1005C00021F02FD1000EE66EE66AABEC26F0E55284
:1005D000E552F3CF00F0F4CF01F0F350F41001E056
:1005E00040D1010EE66EE66AABEC26F0E552E5522C
:1005F000F3CF00F0F4CF01F0F350F4100AE0090E4D
:100600000F017E6F7F6BF1EC1CF0380EE66E500E22
:1006100059D1020EE66EE66AABEC26F0E552E552E1
:10062000F3CF00F0F4CF01F0F350F41002E0140E19
:100630005CD10F01E70ED8800855030E09551DE265
:1006400008CF00F009CF01F0640E256E266A08CFAE
:1006500020F009CF21F0D0EC29F020C000F021C01B
:1006600001F0026A036A20C0E6FF21C0E6FF02C073
:10067000E6FF03C0E6FF060E29D0760EE66E500EAA
:10068000E66E060EE66EE66A61EC1BF0E552E55298
:10069000E552E55208CF00F009CF01F0640E256E57
:1006A000266A08CF20F009CF21F0D0EC29F020C035
:1006B00000F021C001F0026A036A20C0E6FF21C0F9
:1006C000E6FF02C0E6FF03C0E6FF070EE66EE66A3D
:1006D0008CEC1BF0046E060EE15E045008CF00F0B7
:1006E00009CF01F0640E256E266A08CF20F009CFED
:1006F00021F097D0000EE66EE66AABEC26F0E552EC
:10070000E552F3CF00F0F4CF01F0F350F41001E024
:10071000A8D0010EE66EE66AABEC26F0E552E55293
:10072000F3CF00F0F4CF01F0F350F4100AE00A0E1A
:100730000F017E6F7F6BF1EC1CF0280EE66E500E01
:10074000C1D0020EE66EE66AABEC26F0E552E55249
:10075000F3CF00F0F4CF01F0F350F41002E0150EE7
:10076000C4D00F01E70ED8800A55030E0B551DE2C9
:100770000ACF00F00BCF01F0640E256E266A0ACF77
:1007800020F00BCF21F0D0EC29F020C000F021C0E8
:1007900001F0026A036A20C0E6FF21C0E6FF02C042
:1007A000E6FF03C0E6FF060E29D0760EE66E500E79
:1007B000E66E060EE66EE66A61EC1BF0E552E55267
:1007C000E552E5520ACF00F00BCF01F0640E256E22
:1007D000266A0ACF20F00BCF21F0D0EC29F020C000
:1007E00000F021C001F0026A036A20C0E6FF21C0C8
:1007F000E6FF02C0E6FF03C0E6FF070EE66EE66A0C
:100800008CEC1BF0046E060EE15E04500ACF00F083
:100810000BCF01F0640E256E266A0ACF20F00BCFB5
:1008200021F0D0EC29F01CC000F01DC001F0026ADC
:10083000036A1CC0E6FF1DC0E6FF02C0E6FF03C05E
:10084000E6FF090EB0D0000EE66EE66AABEC26F0CD
:10085000E552E552F3CF00F0F4CF01F0F350F4107D
:100860001AE0010E0F017E6F7F6B8B0EE66E500E4D
:10087000E66EE66AE66A61EC1BF0E552E552E55287
:10088000E552B2EC1CF0C80EE66EE66A7DEC14F0A0
:10089000E552E5521200010EE66EE66AABEC26F078
:1008A000E552E552F3CF00F0F4CF01F0F350F4102D
:1008B0000DE0040E0F017E6F7F6BF1EC1CF01F0E3C
:1008C000E66E500EE66EE66AE66A19D0020EE66E35
:1008D000E66AABEC26F0E552E552F3CF00F0F4CF38
:1008E00001F0F350F41012E0160E0F017E6F7F6BD3
:1008F000780EE66E500EE66EE66A010EE66E61EC6C
:100900001BF0E552E552E552E55255D00F010F0EAE
:10091000D8800C55270E0D551DE20CCF00F00DCFE1
:1009200001F0640E256E266A0CCF20F00DCF21F069
:10093000D0EC29F020C000F021C001F0026A036A67
:1009400020C0E6FF21C0E6FF02C0E6FF03C0E6FFCD
:10095000070E29D0760EE66E500EE66E070EE66E96
:10096000E66A61EC1BF0E552E552E552E5520CCF28
:1009700000F00DCF01F0640E256E266A0CCF20F03A
:100980000DCF21F0D0EC29F020C000F021C001F003
:10099000026A036A20C0E6FF21C0E6FF02C0E6FF4C
:1009A00003C0E6FF080EE66EE66A8CEC1BF0046EF0
:1009B000060EE15E0450B2EF1CF01A0E0F017E1914
:1009C00001E17F5101E11BD1100E7E1901E17F5140
:1009D00001E01200000EE66EE66AABEC26F0E5528E
:1009E000E552F3CF00F0F4CF01F0F350F4101AE029
:1009F000010E0F017E6F7F6B8B0EE66E500EE66E62
:100A0000E66AE66A61EC1BF0E552E552E552E55212
:100A1000B2EC1CF0C80EE66EE66A7DEC14F0E5520E
:100A2000E5521200010EE66EE66AABEC26F0E552E6
:100A3000E552F3CF00F0F4CF01F0F350F4100DE0E5
:100A4000050E0F017E6F7F6BF1EC1CF0160EE66E4B
:100A5000500EE66EE66AE66A19D0020EE66EE66AA7
:100A6000ABEC26F0E552E552F3CF00F0F4CF01F005
:100A7000F350F41013E01A0E0F017E6F7F6B120E0D
:100A8000E66E500EE66EE66A010EE66E61EC1BF055
:100A9000E552E552E552E552B2EF1CF0030EE66E68
:100AA000E66AABEC26F0E552E552F3CF00F0F4CF66
:100AB00001F0F350F4100DE00F016E0ED8800E55CA
:100AC000050E0F5501E29AD00A0E0E27000E0F23D5
:100AD0001200070EE66EE66AABEC26F0E552E55230
:100AE000F3CF00F0F4CF01F0F350F4100CE00F015D
:100AF0000A0E0E5D000E0F5901E280D00A0E0E5F45
:100B0000000E0F5B12000F01E70ED8800E55030E8A
:100B10000F551DE20ECF00F00FCF01F0640E256ED1
:100B2000266A0ECF20F00FCF21F0D0EC29F020C0A4
:100B300000F021C001F0026A036A20C0E6FF21C074
:100B4000E6FF02C0E6FF03C0E6FF050E29D0760EE1
:100B5000E66E500EE66E050EE66EE66A61EC1BF080
:100B6000E552E552E552E5520ECF00F00FCF01F00D
:100B7000640E256E266A0ECF20F00FCF21F0D0EC48
:100B800029F020C000F021C001F0026A036A20C0F1
:100B9000E6FF21C0E6FF02C0E6FF03C0E6FF060E47
:100BA000E66EE66A8CEC1BF0046E060EE15E045005
:100BB0000ECF00F00FCF01F0640E256E266A0ECF27
:100BC00020F00FCF21F0D0EC29F01CC000F01DC0A8
:100BD00001F0026A036A1CC0E6FF1DC0E6FF02C006
:100BE000E6FF03C0E6FF080EE66EE66A8CEC1BF03B
:100BF000046E060EE15E0450B2EC1CF01200000E12
:100C0000E66EE66AABEC26F0E552E552F3CF00F073
:100C1000F4CF01F0F350F4101AE0010E0F017E6FD3
:100C20007F6B8B0EE66E500EE66EE66AE66A61EC4E
:100C30001BF0E552E552E552E552B2EC1CF0C80E4D
:100C4000E66EE66A7DEC14F0E552E5521200010E04
:100C5000E66EE66AABEC26F0E552E552F3CF00F023
:100C6000F4CF01F0F350F4100DE0050E0F017E6F8C
:100C70007F6BF1EC1CF07C0EE66E500EE66EE66AC1
:100C8000E66A19D0020EE66EE66AABEC26F0E55293
:100C9000E552F3CF00F0F4CF01F0F350F41013E07D
:100CA000100E0F017E6F7F6B780EE66E500EE66EB3
:100CB000E66A010EE66E61EC1BF0E552E552E55284
:100CC000E552B2EF1CF0030EE66EE66AABEC26F0DE
:100CD000E552E552F3CF00F0F4CF01F0F350F410F9
:100CE0000DE00F016E0ED8801055050E115501E272
:100CF0009AD00A0E1027000E11231200070EE66E7E
:100D0000E66AABEC26F0E552E552F3CF00F0F4CF03
:100D100001F0F350F4100CE00F010A0E105D000E0C
:100D2000115901E280D00A0E105F000E115B120013
:100D30000F01E70ED8801055030E11551DE210CF9C
:100D400000F011CF01F0640E256E266A10CF20F05E
:100D500011CF21F0D0EC29F020C000F021C001F02B
:100D6000026A036A20C0E6FF21C0E6FF02C0E6FF78
:100D700003C0E6FF050E29D0760EE66E500EE66E35
:100D8000050EE66EE66A61EC1BF0E552E552E552AF
:100D9000E55210CF00F011CF01F0640E256E266AE7
:100DA00010CF20F011CF21F0D0EC29F020C000F0BE
:100DB00021C001F0026A036A20C0E6FF21C0E6FFFD
:100DC00002C0E6FF03C0E6FF060EE66EE66A8CECA4
:100DD0001BF0046E060EE15E045010CF00F011CF40
:100DE00001F0640E256E266A10CF20F011CF21F09D
:100DF000D0EC29F01CC000F01DC001F0026A036AAB
:100E00001CC0E6FF1DC0E6FF02C0E6FF03C0E6FF10
:100E1000080EE66EE66A8CEC1BF0046E060EE15ED0
:100E20000450B2EC1CF012001B0E0F017E1901E100
:100E30007F5101E11BD1110E7E1901E17F5101E0CB
:100E40001200000EE66EE66AABEC26F0E552E552C3
:100E5000F3CF00F0F4CF01F0F350F4101AE0010EDC
:100E60000F017E6F7F6B8B0EE66E500EE66EE66AAC
:100E7000E66A61EC1BF0E552E552E552E552B2EC50
:100E80001CF0C80EE66EE66A7DEC14F0E552E55201
:100E90001200010EE66EE66AABEC26F0E552E55272
:100EA000F3CF00F0F4CF01F0F350F4100DE0060E94
:100EB0000F017E6F7F6BF1EC1CF0650EE66E500E3D
:100EC000E66EE66AE66A19D0020EE66EE66AABECFA
:100ED00026F0E552E552F3CF00F0F4CF01F0F350E5
:100EE000F41013E01B0E0F017E6F7F6B120EE66E87
:100EF000500EE66EE66A010EE66E61EC1BF0E552FE
:100F0000E552E552E552B2EF1CF0030EE66EE66ADA
:100F1000ABEC26F0E552E552F3CF00F0F4CF01F050
:100F2000F350F4100DE00F01480ED8801255260E34
:100F3000135501E29AD0640E1227000E13231200FB
:100F4000070EE66EE66AABEC26F0E552E552F3CF0B
:100F500000F0F4CF01F0F350F4100CE00F01640E38
:100F6000125D000E135901E280D0640E125F000E74
:100F7000135B12000F01E70ED8801255030E1355B4
:100F80001DE212CF00F013CF01F0640E256E266A29
:100F900012CF20F013CF21F0D0EC29F020C000F0C8
:100FA00021C001F0026A036A20C0E6FF21C0E6FF0B
:100FB00002C0E6FF03C0E6FF050E29D0760EE66EFE
:100FC000500EE66E050EE66EE66A61EC1BF0E55229
:100FD000E552E552E55212CF00F013CF01F0640E56
:100FE000256E266A12CF20F013CF21F0D0EC29F025
:100FF00020C000F021C001F0026A036A20C0E6FFB1
:1010000021C0E6FF02C0E6FF03C0E6FF060EE66E63
:10101000E66A8CEC1BF0046E060EE15E045012CF03
:1010200000F013CF01F0640E256E266A12CF20F077
:1010300013CF21F0D0EC29F01CC000F01DC001F04E
:10104000026A036A1CC0E6FF1DC0E6FF02C0E6FF9D
:1010500003C0E6FF080EE66EE66A8CEC1BF0046E39
:10106000060EE15E0450B2EC1CF01200000EE66EBB
:10107000E66AABEC26F0E552E552F3CF00F0F4CF90
:1010800001F0F350F4101AE0010E0F017E6F7F6B38
:101090008B0EE66E500EE66EE66AE66A61EC1BF0B9
:1010A000E552E552E552E552B2EC1CF0C80EE66E90
:1010B000E66A7DEC14F0E552E5521200010EE66E90
:1010C000E66AABEC26F0E552E552F3CF00F0F4CF40
:1010D00001F0F350F4100DE0060E0F017E6F7F6BF0
:1010E000F1EC1CF0650EE66E500EE66EE66AE66AFE
:1010F00019D0020EE66EE66AABEC26F0E552E55238
:10110000F3CF00F0F4CF01F0F350F41013E0110E20
:101110000F017E6F7F6B780EE66E500EE66EE66A0C
:10112000010EE66E61EC1BF0E552E552E552E55228
:10113000B2EF1CF0030EE66EE66AABEC26F0E55269
:10114000E552F3CF00F0F4CF01F0F350F4100DE0CE
:101150000F01480ED8801455260E155501E29AD07D
:10116000640E1427000E15231200070EE66EE66AC1
:10117000ABEC26F0E552E552F3CF00F0F4CF01F0EE
:10118000F350F4100CE00F01640E145D000E1559BD
:1011900001E280D0640E145F000E155B12000F0197
:1011A000E70ED8801455030E15551DE214CF00F03C
:1011B00015CF01F0640E256E266A14CF20F015CFEE
:1011C00021F0D0EC29F020C000F021C001F0026A2B
:1011D000036A20C0E6FF21C0E6FF02C0E6FF03C0AD
:1011E000E6FF050E29D0760EE66E500EE66E050E71
:1011F000E66EE66A61EC1BF0E552E552E552E55217
:1012000014CF00F015CF01F0640E256E266A14CFBE
:1012100020F015CF21F0D0EC29F020C000F021C043
:1012200001F0026A036A20C0E6FF21C0E6FF02C0A7
:10123000E6FF03C0E6FF060EE66EE66A8CEC1BF0E6
:10124000046E060EE15E045014CF00F015CF01F0DD
:10125000640E256E266A14CF20F015CF21F0D0EC55
:1012600029F01CC000F01DC001F0026A036A1CC016
:10127000E6FF1DC0E6FF02C0E6FF03C0E6FF080E62
:10128000E66EE66A8CEC1BF0046E060EE15E04501E
:10129000B2EC1CF012001C0E0F017E1901E17F510F
:1012A00001E126D1120E7E1901E17F5101E0120009
:1012B000000EE66EE66AABEC26F0E552E552F3CF9F
:1012C00000F0F4CF01F0F350F4101AE0010E0F011A
:1012D0007E6F7F6B8B0EE66E500EE66EE66AE66AF8
:1012E00061EC1BF0E552E552E552E552B2EC1CF020
:1012F000C80EE66EE66A7DEC14F0E552E552120087
:10130000010EE66EE66AABEC26F0E552E552F3CF4D
:1013100000F0F4CF01F0F350F4100DE0070E0F01D0
:101320007E6F7F6BF1EC1CF0580EE66E500EE66E91
:10133000E66AE66A19D0020EE66EE66AABEC26F0C3
:10134000E552E552F3CF00F0F4CF01F0F350F41082
:1013500013E01C0E0F017E6F7F6B120EE66E500EB7
:10136000E66EE66A010EE66E61EC1BF0E552E552B0
:10137000E552E552B2EF1CF0030EE66EE66AABEC06
:1013800026F0E552E552F3CF00F0F4CF01F0F35030
:10139000F41018E016CF00F017CF01F0026A023403
:1013A000010E021807E6D880D80E0054850E0154AD
:1013B000010E025401E29BD0640E0F011627000EAD
:1013C00017231200070EE66EE66AABEC26F0E55234
:1013D000E552F3CF00F0F4CF01F0F350F4100CE03D
:1013E0000F014C0E165D040E175901E280D0640EF9
:1013F000165F000E175B12000F010F0ED8801655F6
:10140000270E17551DE216CF00F017CF01F0640E1E
:10141000256E266A16CF20F017CF21F0D0EC29F0E8
:1014200020C000F021C001F0026A036A20C0E6FF7C
:1014300021C0E6FF02C0E6FF03C0E6FF060E29D08A
:10144000760EE66E500EE66E060EE66EE66A61EC0D
:101450001BF0E552E552E552E55216CF00F017CFEA
:1014600001F0640E256E266A16CF20F017CF21F00A
:10147000D0EC29F020C000F021C001F0026A036A1C
:1014800020C0E6FF21C0E6FF02C0E6FF03C0E6FF82
:10149000070EE66EE66A8CEC1BF0046E060EE15E4B
:1014A000045016CF00F017CF01F0640E256E266AA7
:1014B00016CF20F017CF21F0D0EC29F01CC000F09F
:1014C0001DC001F0026A036A1CC0E6FF1DC0E6FFF2
:1014D00002C0E6FF03C0E6FF0A0EE66EE66A8CEC89
:1014E0001BF0046E060EE15E0450B2EC1CF012001C
:1014F000000EE66EE66AABEC26F0E552E552F3CF5D
:1015000000F0F4CF01F0F350F4101AE0010E0F01D7
:101510007E6F7F6B8B0EE66E500EE66EE66AE66AB5
:1015200061EC1BF0E552E552E552E552B2EC1CF0DD
:10153000C80EE66EE66A7DEC14F0E552E552120044
:10154000010EE66EE66AABEC26F0E552E552F3CF0B
:1015500000F0F4CF01F0F350F4100DE0070E0F018E
:101560007E6F7F6BF1EC1CF0580EE66E500EE66E4F
:10157000E66AE66A19D0020EE66EE66AABEC26F081
:10158000E552E552F3CF00F0F4CF01F0F350F41040
:1015900013E0120E0F017E6F7F6B780EE66E500E19
:1015A000E66EE66A010EE66E61EC1BF0E552E5526E
:1015B000E552E552B2EF1CF0030EE66EE66AABECC4
:1015C00026F0E552E552F3CF00F0F4CF01F0F350EE
:1015D000F41018E018CF00F019CF01F0026A0234BD
:1015E000010E021807E6D880D80E0054850E01546B
:1015F000010E025401E29BD0640E0F011827000E69
:1016000019231200070EE66EE66AABEC26F0E552EF
:10161000E552F3CF00F0F4CF01F0F350F4100CE0FA
:101620000F014C0E185D040E195901E280D0640EB2
:10163000185F000E195B12000F010F0ED8801855AD
:10164000270E19551DE218CF00F019CF01F0640ED6
:10165000256E266A18CF20F019CF21F0D0EC29F0A2
:1016600020C000F021C001F0026A036A20C0E6FF3A
:1016700021C0E6FF02C0E6FF03C0E6FF060E29D048
:10168000760EE66E500EE66E060EE66EE66A61ECCB
:101690001BF0E552E552E552E55218CF00F019CFA4
:1016A00001F0640E256E266A18CF20F019CF21F0C4
:1016B000D0EC29F020C000F021C001F0026A036ADA
:1016C00020C0E6FF21C0E6FF02C0E6FF03C0E6FF40
:1016D000070EE66EE66A8CEC1BF0046E060EE15E09
:1016E000045018CF00F019CF01F0640E256E266A61
:1016F00018CF20F019CF21F0D0EC29F01CC000F059
:101700001DC001F0026A036A1CC0E6FF1DC0E6FFAF
:1017100002C0E6FF03C0E6FF0A0EE66EE66A8CEC46
:101720001BF0046E060EE15E0450B2EC1CF01200D9
:101730001D0E0F017E1901E17F5101E11BD1130E36
:101740007E1901E17F5101E01200000EE66EE66AAB
:10175000ABEC26F0E552E552F3CF00F0F4CF01F008
:10176000F350F4101AE0010E0F017E6F7F6B8B0EA9
:10177000E66E500EE66EE66AE66A61EC1BF0E55234
:10178000E552E552E552B2EC1CF0C80EE66EE66A90
:101790007DEC14F0E552E5521200010EE66EE66AA9
:1017A000ABEC26F0E552E552F3CF00F0F4CF01F0B8
:1017B000F350F4100DE0080E0F017E6F7F6BF1EC1B
:1017C0001CF0480EE66E500EE66EE66AE66A19D028
:1017D000020EE66EE66AABEC26F0E552E552F3CF78
:1017E00000F0F4CF01F0F350F41013E01D0E0F01E0
:1017F0007E6F7F6B120EE66E500EE66EE66A010E8D
:10180000E66E61EC1BF0E552E552E552E552B2EFAF
:101810001CF0030EE66EE66AABEC26F0E552E552EC
:10182000F3CF00F0F4CF01F0F350F4100DE00F010E
:10183000480ED8801A55260E1B5501E29AD0640E28
:101840001A27000E1B231200070EE66EE66AABECA9
:1018500026F0E552E552F3CF00F0F4CF01F0F3505B
:10186000F4100CE00F01640E1A5D000E1B5901E22A
:1018700080D0640E1A5F000E1B5B12000F01E70E92
:10188000D8801A55030E1B551DE21ACF00F01BCF4E
:1018900001F0640E256E266A1ACF20F01BCF21F0CE
:1018A000D0EC29F020C000F021C001F0026A036AE8
:1018B00020C0E6FF21C0E6FF02C0E6FF03C0E6FF4E
:1018C000060E29D0760EE66E500EE66E060EE66E19
:1018D000E66A61EC1BF0E552E552E552E5521ACF9B
:1018E00000F01BCF01F0640E256E266A1ACF20F09F
:1018F0001BCF21F0D0EC29F020C000F021C001F076
:10190000026A036A20C0E6FF21C0E6FF02C0E6FFCC
:1019100003C0E6FF070EE66EE66A8CEC1BF0046E71
:10192000060EE15E04501ACF00F01BCF01F0640EEA
:10193000256E266A1ACF20F01BCF21F0D0EC29F0BB
:101940001CC000F01DC001F0026A036A1CC0E6FF63
:101950001DC0E6FF02C0E6FF03C0E6FF090EE66E0B
:10196000E66A8CEC1BF0046E060EE15E0450B2ECED
:101970001CF01200000EE66EE66AABEC26F0E552B3
:10198000E552F3CF00F0F4CF01F0F350F4101AE079
:10199000010E0F017E6F7F6B8B0EE66E500EE66EB2
:1019A000E66AE66A61EC1BF0E552E552E552E55263
:1019B000B2EC1CF0C80EE66EE66A7DEC14F0E5525F
:1019C000E5521200010EE66EE66AABEC26F0E55237
:1019D000E552F3CF00F0F4CF01F0F350F4100DE036
:1019E000080E0F017E6F7F6BF1EC1CF0480EE66E67
:1019F000500EE66EE66AE66A19D0020EE66EE66AF8
:101A0000ABEC26F0E552E552F3CF00F0F4CF01F055
:101A1000F350F41013E0130E0F017E6F7F6B780EFE
:101A2000E66E500EE66EE66A010EE66E61EC1BF0A5
:101A3000E552E552E552E552B2EF1CF0030EE66EB8
:101A4000E66AABEC26F0E552E552F3CF00F0F4CFB6
:101A500001F0F350F4100DE00F01480ED8801C5532
:101A6000260E1D5501E29AD0640E1C27000E1D2380
:101A70001200070EE66EE66AABEC26F0E552E55280
:101A8000F3CF00F0F4CF01F0F350F4100CE00F01AD
:101A9000640E1C5D000E1D5901E280D0640E1C5FB7
:101AA000000E1D5B12000F01E70ED8801A55030EC1
:101AB0001B551DE21CCF00F01DCF01F0640E256EFA
:101AC000266A1CCF20F01DCF21F0D0EC29F020C0D9
:101AD00000F021C001F0026A036A20C0E6FF21C0C5
:101AE000E6FF02C0E6FF03C0E6FF060E29D0760E31
:101AF000E66E500EE66E060EE66EE66A61EC1BF0D0
:101B0000E552E552E552E5521CCF00F01DCF01F041
:101B1000640E256E266A1CCF20F01DCF21F0D0EC7C
:101B200029F020C000F021C001F0026A036A20C041
:101B3000E6FF21C0E6FF02C0E6FF03C0E6FF070E96
:101B4000E66EE66A8CEC1BF0046E060EE15E045055
:101B50001CCF00F01DCF01F0640E256E266A1CCF4D
:101B600020F01DCF21F0D0EC29F01CC000F01DC0EA
:101B700001F0026A036A1CC0E6FF1DC0E6FF02C056
:101B8000E6FF03C0E6FF090EE66EE66A8CEC1BF08A
:101B9000046E060EE15E0450B2EC1CF012001E0E44
:101BA0000F017E1901E17F5101E11BD1140E7E1955
:101BB00001E17F5101E01200000EE66EE66AABEC37
:101BC00026F0E552E552F3CF00F0F4CF01F0F350E8
:101BD000F4101AE0010E0F017E6F7F6B8B0EE66E24
:101BE000500EE66EE66AE66A61EC1BF0E552E552DD
:101BF000E552E552B2EC1CF0C80EE66EE66A7DECEA
:101C000014F0E552E5521200010EE66EE66AABEC06
:101C100026F0E552E552F3CF00F0F4CF01F0F35097
:101C2000F4100DE0090E0F017E6F7F6BF1EC1CF0DC
:101C3000380EE66E500EE66EE66AE66A19D0020EBF
:101C4000E66EE66AABEC26F0E552E552F3CF00F023
:101C5000F4CF01F0F350F41013E01E0E0F017E6F6D
:101C60007F6B120EE66E500EE66EE66A010EE66EB1
:101C700061EC1BF0E552E552E552E552B2EF1CF083
:101C8000030EE66EE66AABEC26F0E552E552F3CFC2
:101C900000F0F4CF01F0F350F4100DE00F01C60E88
:101CA000D8801E55070E1F5501E29AD00A0E1E2736
:101CB000000E1F231200070EE66EE66AABEC26F05C
:101CC000E552E552F3CF00F0F4CF01F0F350F410F9
:101CD0000CE00F010A0E1E5D000E1F5901E280D0BC
:101CE0000A0E1E5F000E1F5B12000F01E70ED88068
:101CF0001E55030E1F551DE21ECF00F01FCF01F031
:101D0000640E256E266A1ECF20F01FCF21F0D0EC86
:101D100029F020C000F021C001F0026A036A20C04F
:101D2000E6FF21C0E6FF02C0E6FF03C0E6FF060EA5
:101D300029D0760EE66E500EE66E060EE66EE66A68
:101D400061EC1BF0E552E552E552E5521ECF00F082
:101D50001FCF01F0640E256E266A1ECF20F01FCF24
:101D600021F0D0EC29F020C000F021C001F0026A7F
:101D7000036A20C0E6FF21C0E6FF02C0E6FF03C001
:101D8000E6FF070EE66EE66A8CEC1BF0046E060EAC
:101D9000E15E04501ECF00F01FCF01F0640E256EEF
:101DA000266A1ECF20F01FCF21F0D0EC29F01CC0F6
:101DB00000F01DC001F0026A036A1CC0E6FF1DC0EE
:101DC000E6FF02C0E6FF03C0E6FF090EE66EE66A24
:101DD0008CEC1BF0046E060EE15E0450B2EC1CF0BD
:101DE0001200000EE66EE66AABEC26F0E552E55214
:101DF000F3CF00F0F4CF01F0F350F4101AE0010E2D
:101E00000F017E6F7F6B8B0EE66E500EE66EE66AFC
:101E1000E66A61EC1BF0E552E552E552E552B2ECA0
:101E20001CF0C80EE66EE66A7DEC14F0E552E55251
:101E30001200010EE66EE66AABEC26F0E552E552C2
:101E4000F3CF00F0F4CF01F0F350F4100DE0090EE1
:101E50000F017E6F7F6BF1EC1CF0380EE66E500EBA
:101E6000E66EE66AE66A19D0020EE66EE66AABEC4A
:101E700026F0E552E552F3CF00F0F4CF01F0F35035
:101E8000F41013E0140E0F017E6F7F6B780EE66E78
:101E9000500EE66EE66A010EE66E61EC1BF0E5524E
:101EA000E552E552E552B2EF1CF0030EE66EE66A2B
:101EB000ABEC26F0E552E552F3CF00F0F4CF01F0A1
:101EC000F350F4100DE00F01C60ED8802055070E18
:101ED000215501E29AD00A0E2027000E212312007C
:101EE000070EE66EE66AABEC26F0E552E552F3CF5C
:101EF00000F0F4CF01F0F350F4100CE00F010A0EE3
:101F0000205D000E215901E280D00A0E205F000EF4
:101F1000215B12000F01E70ED8802055030E2155DA
:101F20001DE220CF00F021CF01F0640E256E266A5D
:101F300020CF20F021CF21F0D0EC29F020C000F0FC
:101F400021C001F0026A036A20C0E6FF21C0E6FF5B
:101F500002C0E6FF03C0E6FF060E29D0760EE66E4D
:101F6000500EE66E060EE66EE66A61EC1BF0E55278
:101F7000E552E552E55220CF00F021CF01F0640E8A
:101F8000256E266A20CF20F021CF21F0D0EC29F059
:101F900020C000F021C001F0026A036A20C0E6FF01
:101FA00021C0E6FF02C0E6FF03C0E6FF070EE66EB3
:101FB000E66A8CEC1BF0046E060EE15E045020CF46
:101FC00000F021CF01F0640E256E266A20CF20F0AC
:101FD00021CF21F0D0EC29F01CC000F01DC001F091
:101FE000026A036A1CC0E6FF1DC0E6FF02C0E6FFEE
:101FF00003C0E6FF090EE66EE66A8CEC1BF0046E89
:10200000060EE15E0450B2EC1CF012001F0E0F0130
:102010007E1901E17F5101E11BD1150E7E1901E10D
:102020007F5101E01200000EE66EE66AABEC26F08E
:10203000E552E552F3CF00F0F4CF01F0F350F41085
:102040001AE0010E0F017E6F7F6B8B0EE66E500E55
:10205000E66EE66AE66A61EC1BF0E552E552E5528F
:10206000E552B2EC1CF0C80EE66EE66A7DEC14F0A8
:10207000E552E5521200010EE66EE66AABEC26F080
:10208000E552E552F3CF00F0F4CF01F0F350F41035
:102090000DE00A0E0F017E6F7F6BF1EC1CF0280E35
:1020A000E66E500EE66EE66AE66A19D0020EE66E3D
:1020B000E66AABEC26F0E552E552F3CF00F0F4CF40
:1020C00001F0F350F41013E01F0E0F017E6F7F6BD1
:1020D000120EE66E500EE66EE66A010EE66E61ECDA
:1020E0001BF0E552E552E552E552B2EF1CF0030E4B
:1020F000E66EE66AABEC26F0E552E552F3CF00F06F
:10210000F4CF01F0F350F4100DE00F01C60ED880AB
:102110002255070E235501E29AD00A0E2227000EFF
:1021200023231200070EE66EE66AABEC26F0E552BA
:10213000E552F3CF00F0F4CF01F0F350F4100CE0CF
:102140000F010A0E225D000E235901E280D00A0E13
:10215000225F000E235B12000F01E70ED88022558C
:10216000030E23551DE222CF00F023CF01F0640EB1
:10217000256E266A22CF20F023CF21F0D0EC29F063
:1021800020C000F021C001F0026A036A20C0E6FF0F
:1021900021C0E6FF02C0E6FF03C0E6FF060E29D01D
:1021A000760EE66E500EE66E060EE66EE66A61ECA0
:1021B0001BF0E552E552E552E55222CF00F023CF65
:1021C00001F0640E256E266A22CF20F023CF21F085
:1021D000D0EC29F020C000F021C001F0026A036AAF
:1021E00020C0E6FF21C0E6FF02C0E6FF03C0E6FF15
:1021F000070EE66EE66A8CEC1BF0046E060EE15EDE
:10220000045022CF00F023CF01F0640E256E266A21
:1022100022CF20F023CF21F0D0EC29F01CC000F019
:102220001DC001F0026A036A1CC0E6FF1DC0E6FF84
:1022300002C0E6FF03C0E6FF090EE66EE66A8CEC1C
:102240001BF0046E060EE15E0450B2EC1CF01200AE
:10225000000EE66EE66AABEC26F0E552E552F3CFEF
:1022600000F0F4CF01F0F350F4101AE0010E0F016A
:102270007E6F7F6B8B0EE66E500EE66EE66AE66A48
:1022800061EC1BF0E552E552E552E552B2EC1CF070
:10229000C80EE66EE66A7DEC14F0E552E5521200D7
:1022A000010EE66EE66AABEC26F0E552E552F3CF9E
:1022B00000F0F4CF01F0F350F4100DE00A0E0F011E
:1022C0007E6F7F6BF1EC1CF0280EE66E500EE66E12
:1022D000E66AE66A19D0020EE66EE66AABEC26F014
:1022E000E552E552F3CF00F0F4CF01F0F350F410D3
:1022F00013E0150E0F017E6F7F6B780EE66E500EA9
:10230000E66EE66A010EE66E61EC1BF0E552E55200
:10231000E552E552B2EF1CF0030EE66EE66AABEC56
:1023200026F0E552E552F3CF00F0F4CF01F0F35080
:10233000F4100DE00F01C60ED8802455070E255568
:1023400001E29AD00A0E2427000E25231200070E60
:10235000E66EE66AABEC26F0E552E552F3CF00F00C
:10236000F4CF01F0F350F4100CE00F010A0E245DDD
:10237000000E255901E280D00A0E245F000E255B75
:1023800012000F01E70ED8802455030E25551DE2DB
:1023900024CF00F025CF01F0640E256E266A24CFED
:1023A00020F025CF21F0D0EC29F020C000F021C092
:1023B00001F0026A036A20C0E6FF21C0E6FF02C006
:1023C000E6FF03C0E6FF060E29D0760EE66E500E3D
:1023D000E66E060EE66EE66A61EC1BF0E552E5522B
:1023E000E552E55224CF00F025CF01F0640E256EB2
:1023F000266A24CF20F025CF21F0D0EC29F020C090
:1024000000F021C001F0026A036A20C0E6FF21C08B
:10241000E6FF02C0E6FF03C0E6FF070EE66EE66ACF
:102420008CEC1BF0046E060EE15E045024CF00F02D
:1024300025CF01F0640E256E266A24CF20F025CF2B
:1024400021F0D0EC29F01CC000F01DC001F0026AA0
:10245000036A1CC0E6FF1DC0E6FF02C0E6FF03C022
:10246000E6FF090EE66EE66A8CEC1BF0046E060EC3
:10247000E15E0450B2EC1CF01200200E0F017E1938
:1024800001E17F5101E100D1160E7E1901E17F517A
:1024900001E01200000EE66EE66AABEC26F0E552B3
:1024A000E552F3CF00F0F4CF01F0F350F4101AE04E
:1024B000010E0F017E6F7F6B8B0EE66E500EE66E87
:1024C000E66AE66A61EC1BF0E552E552E552E55238
:1024D000B2EC1CF0C80EE66EE66A7DEC14F0E55234
:1024E000E5521200010EE66EE66AABEC26F0E5520C
:1024F000E552F3CF00F0F4CF01F0F350F4100DE00B
:10250000040E0F017E6F7F6BF1EC1CF01F0EE66E68
:10251000500EE66EE66AE66A19D0020EE66EE66ACC
:10252000ABEC26F0E552E552F3CF00F0F4CF01F02A
:10253000F350F41013E0200E0F017E6F7F6B120E2C
:10254000E66E500EE66EE66A010EE66E61EC1BF07A
:10255000E552E552E552E552B2EF1CF0030EE66E8D
:10256000E66AABEC26F0E552E552F3CF00F0F4CF8B
:1025700001F0F350F41017E026CF00F027CF01F060
:10258000026A0234010E021807E6D880D80E005401
:10259000850E0154010E025476E3640E0F012627C6
:1025A000000E27231200070EE66EE66AABEC26F05B
:1025B000E552E552F3CF00F0F4CF01F0F350F41000
:1025C0000BE00F014C0E265D040E27595CE3640EF0
:1025D000265F000E275B12000F010F0ED8802655D4
:1025E000270E27551DE226CF00F027CF01F0640EFD
:1025F000256E266A26CF20F027CF21F0D0EC29F0D7
:1026000020C000F021C001F0026A036A20C0E6FF8A
:1026100021C0E6FF02C0E6FF03C0E6FF070E29D097
:10262000760EE66E500EE66E070EE66EE66A61EC1A
:102630001BF0E552E552E552E55226CF00F027CFD8
:1026400001F0640E256E266A26CF20F027CF21F0F8
:10265000D0EC29F020C000F021C001F0026A036A2A
:1026600020C0E6FF21C0E6FF02C0E6FF03C0E6FF90
:10267000080EE66EE66A8CEC1BF0046E060EE15E58
:102680000450B2EC1CF01200000EE66EE66AABECF1
:1026900026F0E552E552F3CF00F0F4CF01F0F3500D
:1026A000F4101AE0010E0F017E6F7F6B8B0EE66E49
:1026B000500EE66EE66AE66A61EC1BF0E552E55202
:1026C000E552E552B2EC1CF0C80EE66EE66A7DEC0F
:1026D00014F0E552E5521200010EE66EE66AABEC2C
:1026E00026F0E552E552F3CF00F0F4CF01F0F350BD
:1026F000F4100DE0040E0F017E6F7F6BF1EC1CF007
:102700001F0EE66E500EE66EE66AE66A19D0020EFD
:10271000E66EE66AABEC26F0E552E552F3CF00F048
:10272000F4CF01F0F350F41013E0160E0F017E6F9A
:102730007F6B780EE66E500EE66EE66A010EE66E70
:1027400061EC1BF0E552E552E552E552B2EF1CF0A8
:10275000030EE66EE66AABEC26F0E552E552F3CFE7
:1027600000F0F4CF01F0F350F41017E028CF00F0A0
:1027700029CF01F0026A0234010E021807E6D88060
:10278000D80E0054850E0154010E025476E3640EF7
:102790000F012827000E29231200070EE66EE66AB5
:1027A000ABEC26F0E552E552F3CF00F0F4CF01F0A8
:1027B000F350F4100BE00F014C0E285D040E295964
:1027C0005CE3640E285F000E295B12000F010F0E00
:1027D000D8802855270E29551DE228CF00F029CF93
:1027E00001F0640E256E266A28CF20F029CF21F053
:1027F000D0EC29F020C000F021C001F0026A036A89
:1028000020C0E6FF21C0E6FF02C0E6FF03C0E6FFEE
:10281000070E29D0760EE66E500EE66E070EE66EB7
:10282000E66A61EC1BF0E552E552E552E55228CF2D
:1028300000F029CF01F0640E256E266A28CF20F023
:1028400029CF21F0D0EC29F020C000F021C001F008
:10285000026A036A20C0E6FF21C0E6FF02C0E6FF6D
:1028600003C0E6FF080EE66EE66A8CEC1BF0046E11
:0C287000060EE15E0450B2EC1CF01200F9
:04287C0019D80F0157
:102880003551FDE0356B05EC25F04CEC28F03AECC9
:1028900000F0DDEC04F014EC07F04BEC09F098ECE0
:1028A0000BF0CFEC0DF006EC10F03DEC12F0E7D79A
:1028B000936AFAEC18F0E7EC1CF0F1EC1CF0E3EC96
:1028C00026F011EC29F0660EE66EB70EE66ED1EC3E
:1028D00023F0E552E552320EE66EE66ADDEC24F0B6
:1028E000E552E552CEEC1FF0FCEC24F0C80EE66E8B
:1028F000E66A03D8E552E5521200D9CFE6FFE1CFF0
:10290000D9FF040EE126DE6ADD6ADECF00F0DDCFFE
:1029100001F0FD0EDBCF02F0FE0EDBCF03F0015025
:102920000318E8AE02D0033404D00250005C035018
:1029300001581DE2020EDB6A030EDB6A020EDBCFDA
:1029400000F0030EDBCF01F0D890015004E6EE0E4C
:10295000005C000E015806E2020EDB2A030EEEE3D5
:10296000DB2AECD7DF2A010ED0E3DB2ACED7040E18
:10297000E15C02E2E16AE552E16EE552E7CFD9FFA0
:102980001200D9CFE6FFE1CFD9FF020EE126DE6AC1
:10299000DD6ADECF00F0DDCF01F0D890015004E613
:1029A000070E005C000E015823E2DFCFE6FF18ECB3
:1029B00029F0E552F3CF00F0F4CF01F0DECFE9FFCC
:1029C000DDCFEAFFD890E936EA36F00EE926000EB0
:1029D000EA22F3CFEEFF01C0EDFF140EE66EE66AC9
:1029E0008CDFE552E552DF2A010ED3E3DB2AD1D793
:1029F000020EE15C02E2E16AE552E16EE552E7CFE8
:102A0000D9FF1200CD0E046ECC0E056EDC0E066EE4
:102A1000400E076EF0C014F0F1C015F0166A176A88
:102A2000F0C01EF0F1C01FF016C020F017C021F05A
:102A300022EC1DF01FC010F020C011F021C012F0D8
:102A400022C013F0680E246E660E256E266E3F0EB1
:102A5000276E25EC1EF01FC00CF020C00DF021C029
:102A60000EF022C00FF0246AC00E256E7F0E266E77
:102A7000440E276ED2EC1DF01FC008F020C009F0F4
:102A800021C00AF022C00BF01FC024F020C025F0A6
:102A900021C026F022C027F004C01FF005C020F09E
:102AA00006C021F007C022F03CEC1DF01FC000F072
:102AB00020C001F021C002F022C003F0246A256A80
:102AC000C80E266E420E276E25EC1EF019EC1FF084
:102AD00020C000FF21C001FF046A056AE00E066EF7
:102AE000410E076EF2C014F0F3C015F0166A176AB3
:102AF000F2C01EF0F3C01FF016C020F017C021F086
:102B000022EC1DF01FC010F020C011F021C012F007
:102B100022C013F0246A256A880E266E410E276EA5
:102B200025EC1EF01FC00CF020C00DF021C00EF0EF
:102B300022C00FF0246AC00E256E7F0E266E440E52
:102B4000276ED2EC1DF01FC008F020C009F021C094
:102B50000AF022C00BF01FC024F020C025F021C0D5
:102B600026F022C027F004C01FF005C020F006C0E8
:102B700021F007C022F03CEC1DF01FC000F020C087
:102B800001F021C002F022C003F0246A256AC80EB9
:102B9000266E420E276E25EC1EF019EC1FF020C0A9
:102BA00002FF21C003FF046A056AB40E066E420EDE
:102BB000076EF4C014F0F5C015F0166A176AF4C079
:102BC0001EF0F5C01FF016C020F017C021F022EC57
:102BD0001DF01FC010F020C011F021C012F022C063
:102BE00013F0246A256AB40E266E420E276E25EC79
:102BF0001EF01FC00CF020C00DF021C00EF022C04E
:102C00000FF0246AC00E256E7F0E266E440E276ECE
:102C1000D2EC1DF01FC008F020C009F021C00AF05E
:102C200022C00BF01FC024F020C025F021C026F0E8
:102C300022C027F004C01FF005C020F006C021F01C
:102C400007C022F03CEC1DF01FC000F020C001F0D6
:102C500021C002F022C003F0246A256AC80E266E45
:102C6000420E276E25EC1EF019EC1FF020C004FF69
:102C700021C005FF046A056AC80E066E410E076E84
:102C8000F6C014F0F7C015F0166A176AF6C01EF009
:102C9000F7C01FF016C020F017C021F022EC1DF085
:102CA0001FC010F020C011F021C012F022C013F09C
:102CB000246A256A266A410E276E25EC1EF01FC085
:102CC0000CF020C00DF021C00EF022C00FF0246ADD
:102CD000C00E256E7F0E266E440E276ED2EC1DF0C0
:102CE0001FC008F020C009F021C00AF022C00BF07C
:102CF0001FC024F020C025F021C026F022C027F0FC
:102D000004C01FF005C020F006C021F007C022F06B
:102D10003CEC1DF01FC000F020C001F021C002F00B
:102D200022C003F0246A256AC80E266E420E276E62
:102D300025EC1EF019EC1FF020C006FF21C007FF94
:102D4000660E046E056E060E066E400E076EF8C027
:102D500014F0F9C015F0166A176AF8C01EF0F9C031
:102D60001FF016C020F017C021F022EC1DF01FC08C
:102D700010F020C011F021C012F022C013F0340E68
:102D8000246E330E256E530E266E400E276E25ECF4
:102D90001EF01FC00CF020C00DF021C00EF022C0AC
:102DA0000FF0246A256AAC0E266E420E276ED2EC16
:102DB0001DF01FC008F020C009F021C00AF022C099
:102DC0000BF01FC024F020C025F021C026F022C047
:102DD00027F004C01FF005C020F006C021F007C096
:102DE00022F03CEC1DF01FC000F020C001F021C01B
:102DF00002F022C003F0246A256AC80E266E420E35
:102E0000276E25EC1EF019EC1FF020C008FF21C032
:102E100009FF046A056AC00E066E3F0E076EFAC00F
:102E200014F0FBC015F0166A176AFAC01EF0FBC05A
:102E30001FF016C020F017C021F022EC1DF01FC0BB
:102E400010F020C011F021C012F022C013F0246A4B
:102E5000256A800E266E400E276E25EC1EF01FC0E0
:102E60000CF020C00DF021C00EF022C00FF0246A3B
:102E7000C00E256E7F0E266E440E276ED2EC1DF01E
:102E80001FC008F020C009F021C00AF022C00BF0DA
:102E90001FC024F020C025F021C026F022C027F05A
:102EA00004C01FF005C020F006C021F007C022F0CA
:102EB0003CEC1DF01FC000F020C001F021C002F06A
:102EC00022C003F0246A256AC80E266E420E276EC1
:102ED00025EC1EF019EC1FF020C00AFF21C00BFFEB
:102EE000046A056A200E066E430E076EFCC014F0DD
:102EF000FDC015F0166A176AFCC01EF0FDC01FF079
:102F000016C020F017C021F022EC1DF01FC010F0F9
:102F100020C011F021C012F022C013F0246A256AEB
:102F2000B40E266E420E276E25EC1EF01FC00CF06C
:102F300020C00DF021C00EF022C00FF0246AC00E98
:102F4000256E7F0E266E440E276ED2EC1DF01FC03C
:102F500008F020C009F021C00AF022C00BF01FC009
:102F600024F020C025F021C026F022C027F004C0A4
:102F70001FF005C020F006C021F007C022F03CEC95
:102F80001DF01FC000F020C001F021C002F022C0DF
:102F900003F0246A256AC80E266E420E276E25ECC1
:102FA0001EF019EC1FF020C00CFF21C00DFF120015
:102FB000010E0001FE25FE6F000EFF21FF6B030EC8
:102FC000FE17FE51FF1101E01200D60EE66E4F0E05
:102FD000E66E4FEC20F0E552E55200CF00F001CF55
:102FE00001F0026A036A00CFE6FF01CFE6FF02C0EC
:102FF000E6FF03C0E6FF01EC22F0E552E552E552A0
:10300000E552CD0EE66E4F0EE66E4FEC20F0E55227
:10301000E55202CF00F003CF01F0026A036A02CF4B
:10302000E6FF03CFE6FF02C0E6FF03C0E6FF01ECC8
:1030300022F0E552E552E552E552C10EE66E4F0E22
:10304000E66E4FEC20F0E552E55204CF00F005CFDC
:1030500001F0026A036A04CFE6FF05CFE6FF02C073
:10306000E6FF03C0E6FF01EC22F0E552E552E5522F
:10307000E552B50EE66E4F0EE66E4FEC20F0E552CF
:10308000E55206CF00F007CF01F0026A036A06CFCF
:10309000E6FF07CFE6FF02C0E6FF03C0E6FF01EC54
:1030A00022F0E552E552E552E552AC0EE66E4F0EC7
:1030B000E66E4FEC20F0E552E55208CF00F009CF64
:1030C00001F0026A036A08CFE6FF09CFE6FF02C0FB
:1030D000E6FF03C0E6FF01EC22F0E552E552E552BF
:1030E000E552A00EE66E4F0EE66E4FEC20F0E55274
:1030F000E5520ACF00F00BCF01F0026A036A0ACF53
:10310000E6FF0BCFE6FF02C0E6FF03C0E6FF01ECDF
:1031100022F0E552E552E552E552930EE66E4F0E6F
:10312000E66E4FEC20F0E552E5520CCF00F00DCFEB
:1031300001F0026A036A0CCFE6FF0DCFE6FF02C082
:10314000E6FF03C0E6FF01EC22F0E552E552E5524E
:10315000E5528A0EE66E4F0EE66E4FEC20F0E55219
:04316000E552120022
:0C316400D9CFE6FFE1CFD9FF040EE12631
:10317000DE6ADD6ADECF00F0DDCF01F0026A036AAD
:1031800001AE02D002680368D950FB0FE96EFF0E52
:10319000DA20EA6EEE50005CEE500158EE50025814
:1031A000EE5003581DE2020EDB6A030EDB6A020ECC
:1031B000DBCF00F0030EDBCF01F0D890015004E626
:1031C000EE0E005C000E015806E2020EDB2A030E32
:1031D000EEE3DB2AECD7DF2A010ECCE3DB2ACAD7E9
:1031E000040EE15C02E2E16AE552E16EE552E7CFEE
:1031F000D9FF1200D9CFE6FFE1CFD9FFE652190E71
:10320000E66EE66AE66AE66AADDFE552E552E55249
:10321000E5520F0E8116F80E81160F0E8116300E34
:1032200081128186010EE66EE66AE66AE66A9ADF38
:10323000E552E552E552E5528196010EE66EE66AE8
:10324000E66AE66A8FDFE552E552E552E5520F0E77
:103250008116300E81128186010EE66EE66AE66AFC
:10326000E66A80DFE552E552E552E5528196010EAD
:10327000E66EE66AE66AE66A75DFE552E552E55211
:10328000E5520F0E8116300E81128186010EE66E18
:10329000E66AE66AE66A66DFE552E552E552E5521D
:1032A0008196010EE66EE66AE66AE66A5BDFE55243
:1032B000E552E552E5520F0E8116818A8186010E94
:1032C000E66EE66AE66AE66A4DDFE552E552E552E9
:1032D000E5528196010EE66EE66AE66AE66A42DF2C
:1032E000E552E552E552E552280EE66E0AD8E5525F
:1032F0000C0EE66E06D8E552E552E552E7CFD9FF4F
:103300001200D9CFE6FFE1CFD9FF0F0E8116FE0ED6
:10331000DB50F00B81128186010EE66EE66AE66AEA
:10332000E66A20DFE552E552E552E5528196010E4C
:10333000E66EE66AE66AE66A15DFE552E552E552B0
:10334000E5520F0E8116FE0EDB38F00B81128186DE
:10335000010EE66EE66AE66AE66A04DFE552E552C9
:10336000E552E5528196010EE66EE66AE66AE66A85
:10337000F9DEE552E552E552E552E552E7CFD9FFD5
:103380001200D9CFE6FFE1CFD9FF050EE126010EED
:10339000F36EDB6E020EDB6A030EDB6A040EDB6A81
:1033A000DF6ADFCF00F0016A00BE0168FB0EDBCFF1
:1033B00002F0FC0EDBCF03F001500318E8AE02D0A0
:1033C000033404D00250005C035001582DE2FD0E7E
:1033D000DBCF00F0FE0EDBCF01F0026A036A01AE24
:1033E00002D002680368D950010FE96EDACFEAFF14
:1033F00000C023F001C024F002C025F003C026F075
:10340000EECF1EF0EECF1FF0EECF20F0EFCF21F089
:1034100057EC29F01DC0EDFF1CC0EDFF1BC0EDFFF8
:103420001AC0EFFFDF2ABDD7010EDBCF00F0020E7E
:10343000DBCF01F0030EDBCF02F0040EDBCF03F095
:1034400000C01EF001C01FF002C020F003C021F038
:10345000050EE15C02E2E16AE552E16EE552E7CF7A
:10346000D9FF1200D9CFE6FFE1CFD9FF040EE12644
:10347000DE6ADD6ADECF00F0DDCF01F0026A036AAA
:1034800001AE02D002680368D950FB0FE96EFF0E4F
:10349000DA20EA6EEE50005CEE500158EE50025811
:1034A000EE5003581DE2020EDB6A030EDB6A020EC9
:1034B000DBCF00F0030EDBCF01F0D890015004E623
:1034C000060E005C000E015806E2020EDB2A030E17
:1034D000EEE3DB2AECD7DF2A010ECCE3DB2ACAD7E6
:1034E000040EE15C02E2E16AE552E16EE552E7CFEB
:1034F000D9FF1200D9CFE6FFE1CFD9FF0F0E811619
:10350000FE0EDB5081128186050EE66EE66AE66AE3
:10351000E66AA8DFE552E552E552E5528196050ECE
:10352000E66EE66AE66AE66A9DDFE552E552E55236
:10353000E552E552E7CFD9FF1200D9CFE6FFE1CF40
:10354000D9FF8184050EE66EE66AE66AE66A8ADFDE
:10355000E552E552E552E552FE0EDBCFE6FFCADF4B
:10356000E552FE0EDB38F00BE66EC4DFE5528194C7
:10357000E552E7CFD9FF1200D9CFE6FFE1CFD9FF5F
:103580008194050EE66EE66AE66AE66A6BDFE5524E
:10359000E552E552E552FE0EDBCFE6FFABDFE5522A
:1035A000FE0EDB38F00BE66EA5DFE552E552E7CF05
:1035B000D9FF1200D9CFE6FFE1CFD9FFE652FD0EC9
:1035C000DB500F0B006EFE0EDB50010B400DF35075
:1035D0000024DF6E7F0EDF14800FDF6EDFCFE6FF8B
:1035E000CBDFE552E552E552E7CFD9FF1200D9CF44
:1035F000E6FFE1CFD9FFFE0EDBCFE6FF9EDFE5520F
:10360000E552E7CFD9FF1200D9CFE6FFE1CFD9FFCE
:1036100074CF00F075CF01F0040ED890003601365B
:10362000E806FBE14A0E00260F0E012200500F01B2
:103630007625E96E01507721EA6EFE0EDBCFEFFFB3
:10364000762B000E7723E552E7CFD9FF1200D9CFB2
:10365000E6FFE1CFD9FFFD0EDBCFF6FFFE0EDBCF9D
:10366000F7FF0800F5500FE0FD0EDBCFF6FFDB2A79
:10367000FE0EDBCFF7FF01E3DB2A0800F550E66E14
:10368000B6DFE552E8D7E552E7CFD9FF1200D9CF30
:10369000E6FFE1CFD9FFFD0EDBCFE6FFFE0EDBCF6D
:1036A000E6FF88DFE552E552FB0EDBCFE6FFFC0EBE
:1036B000DBCFE6FFCCDFE552E552E552E7CFD9FF9D
:1036C0001200D9CFE6FFE1CFD9FFFE0EDB50010B90
:1036D0000F01746F756BFD0EDB500F0B766F776B00
:1036E000FB0EDBCFF6FFFC0EDBCFF7FF0800F5503B
:1036F0000FE0FB0EDBCFF6FFDB2AFC0EDBCFF7FF84
:1037000001E3DB2A0800F550E66E7EDFE552E8D7DC
:10371000E552E7CFD9FF1200D9CFE6FFE1CFD9FFBD
:10372000020EE126DF6AFE0EDB50010B0F01746F03
:10373000756BFD0EDB500F0B766F776BF90EDBCFE1
:1037400000F0FA0EDBCF01F0FB0EDBCF02F0FC0E37
:10375000DBCF03F0005001100210031005E1300E22
:10376000E66E52DFE552F4D0D950F90FE96EFF0E44
:10377000DA20EA6ED890030EEB50000A08E6000E3D
:10378000EE5C000EEE58000EEE58000EEE5815E2FC
:103790002D0EE66E39DFE552D950F90FE96EFF0EB6
:1037A000DA20EA6E000EEE6CEF1EEE22EF1EEE2225
:1037B000EF1EEF22ED52ED52ED52DE52070EDD6E9E
:1037C000010EDBCF00F0000EE76E0018E8AE02D06D
:1037D000003403D0E750D880005401E3B9D0010E83
:1037E000DB04046E056A04BE056804C0E6FF05C07C
:1037F000E6FF0A0EE66EE66AC4DDE552E552E552E2
:10380000E5521EC000F01FC001F020C002F021C030
:1038100003F01EC023F01FC024F020C025F021C0FB
:1038200026F0F90EDBCF1EF0FA0EDBCF1FF0FB0EF9
:10383000DBCF20F0FC0EDBCF21F08FEC29F01E5007
:103840001F102010211041E0010EDF6EDB04086E16
:10385000096A08BE096808C0E6FF09C0E6FF0A0E4B
:10386000E66EE66A8EDDE552E552E552E5521EC08F
:1038700004F01FC005F020C006F021C007F01EC0F4
:1038800023F01FC024F020C025F021C026F0F90E3F
:10389000DBCF1EF0FA0EDBCF1FF0FB0EDBCF20F0EC
:1038A000FC0EDBCF21F08FEC29F01EC000F01FC012
:1038B00001F020C002F021C003F0300E0026000EFF
:1038C000012202220322005003D0DF5004E0300E18
:1038D000E66E9ADEE552010EDB04046E056A04BE54
:1038E000056804C0E6FF05C0E6FF0A0EE66EE66A5C
:1038F00048DDE552E552E552E5521EC000F01FC01A
:1039000001F020C002F021C003F0D950F90FE96E98
:10391000FF0EDA20EA6E1EC023F01FC024F020C084
:1039200025F021C026F0EECF1EF0EECF1FF0EECF37
:1039300020F0EFCF21F08FEC29F01DC0EDFF1CC06F
:10394000EDFF1BC0EDFF1AC0EFFF010EDB0638D7FD
:10395000020EE15C02E2E16AE552E16EE552E7CF78
:10396000D9FF1200D9CFE6FFE1CFD9FFE652E66AD0
:10397000E66A20DEE552E552DF6A100EDF5C0CE2FB
:10398000DF50EA6A4A0FE96E0F0EEA22EF50E66E48
:103990002EDEE552DF2AF1D7E66A010EE66E0ADE78
:1039A000E552E552DF6A100EDF5C0CE2DF50EA6A96
:1039B0005A0FE96E0F0EEA22EF50E66E18DEE5525E
:1039C000DF2AF1D7E552E552E7CFD9FF1200010E09
:1039D000E66ED2DDE552E66AE66AECDDE552E552D6
:1039E0001200D9CFE6FFE1CFD9FFE652DF6ADFCF81
:1039F00000F0100EE76E0018E8AE02D0E73402D0F7
:103A0000E750005C18E2DFCFE9FFEA6AE9BEEA6846
:103A10004A0EE9260F0EEA22200EEF6EDFCFE9FFF5
:103A2000EA6AE9BEEA685A0EE9260F0EEA22200E7B
:103A3000EF6EDF2ADCD7E552E552E7CFD9FF12005F
:103A4000199E0CD0199E21AE09D01E6C1F1E201E7F
:103A5000211EE86A1F2220222122198E21C01BF07C
:103A600020C01AF01FC02BF01EC02AF09E0E1C6E44
:103A70001D6A64EF1FF0277E196AA0EC1FF0B8ECF6
:103A80001FF019B648EF1FF019A20AD019AA03D0E7
:103A900019BE48EF1FF019A454EF1FF051EF1FF0AB
:103AA00019AA05D019AC54EF1FF051EF1FF019A05F
:103AB0000AD019A808D019BE04D019A402D05DEF0D
:103AC0001FF061EF1FF02A6A1D6A2750225C296EE1
:103AD00010E31FC02BF020C01AF021C01BF022C041
:103AE00028F024C01FF025C020F026C021F0193A8C
:103AF00009D024C02BF025C01AF026C01BF027C027
:103B000028F0296C199E19BC198E28C01CF019B018
:103B100090EF1FF01A0E296090EF1FF01C6A226AC6
:103B200019A408D01F6C201E211E221EE86A202224
:103B30002122222219AC08D02B6C1A1E1B1E1C1E1F
:103B4000E86A1A221B221C221E6A295207E022342C
:103B5000213220321F321E32292EF9D71F502B2638
:103B600020501A2221501B2222501C221EC02AF053
:103B7000199E1CAE0BD02A6C2B1E1A1E1B1E1C1E5F
:103B8000E86A2B221A221B221C22198E1CA006D0A6
:103B9000D8801B321A322B322A32282A28C01CF035
:103BA00064EF1FF0196AA0EC1FF0B8EC1FF019B613
:103BB00048EF1FF019A205D019BA48EF1FF04FEFD8
:103BC0001FF019BA5BEF1FF019A005D019B848EF24
:103BD0001FF05BEF1FF019B84FEF1FF01D6A7F0E4B
:103BE00022241C6EE86A1D2227501C5EE86A1D5ABA
:103BF0001A0E286E226A2A6A2B6A1A6A1B6A2450D5
:103C00001F5E2550205A2650215A000E225A09E7DD
:103C100024501F262550202226502122000E222229
:103C200001D02A8AD8901F36203621362236D890E5
:103C30002A362B361A361B36282EE1D72150201073
:103C40001F10D8A42A8A64EF1FF0196AA0EC1FF095
:103C5000B8EC1FF019B648EF1FF019A205D019B83B
:103C600048EF1FF04FEF1FF019AA05D019B048EF29
:103C70001FF04FEF1FF019B002D019A802D05BEF70
:103C80001FF01D6A275022241C6EE86A1D227E0E3A
:103C90001C5EE86A1D5A2A6A2B6A1A6A1B6A265039
:103CA0002102F4CF1BF0F3CF1AF025502102F3507C
:103CB0002B26F4501A22000E1B2226502002F3500D
:103CC0002B26F4501A22000E1B2224502102F350FE
:103CD0002A26F4502B22000E1A221B2225502002E5
:103CE000F3502A26F4502B22000E1A221B222650B3
:103CF0001F02F3502A26F4502B22000E1A221B22F8
:103D000024502002F4502A26000E2B221A221B22B5
:103D100025501F02F4502A26000E2B221A221B22A5
:103D200064EF1FF0186A26AE9BEF1EF0256C261E6E
:103D3000E86A2622181E21AEA3EF1EF0206C211E79
:103D4000E86A2122181ED0EC29F021BEB3EF1EF044
:103D500018AE000C206C211EE86A21221C6C1D1E6E
:103D6000E86A1D22000C18BEAAEF1EF01988FF0C8D
:103D7000186A26AEC3EF1EF0246C251E261EE86AC4
:103D800025222622181E21AECDEF1EF01F6C201E0C
:103D9000211EE86A20222122181EB3EC29F021BE40
:103DA000E0EF1EF018AE000C1F6C201E211EE86A0A
:103DB000202221221B6C1C1E1D1E1C221D22000CF9
:103DC00018BED4EF1EF01988FF0C186AE86A26AEF8
:103DD000F2EF1EF0236C241E251E261E242225220F
:103DE0002622181E21AEFDEF1EF01E6C1F1E201E87
:103DF000211E1F2220222122181E8FEC29F021BE15
:103E000014EF1FF018AE000C1E6C1F1E201E211E8A
:103E1000E86A1F22202221221A6C1B1E1C1E1D1E56
:103E20001B221C221D22000C18BE04EF1FF0198853
:103E3000FF0C196AA0EC1FF019B623EF1FF019A2AE
:103E40000ED019B405D07F0E216EFF0E206E1FD04C
:103E5000800E216E206A1BD0216A206A18D019B00A
:103E6000FBD78F0E2260EDD77E0E2264F5D78E0E23
:103E7000225C05E0D89021322032222AF8D719A4FA
:103E800006D0206C211EE86A212221AEE5D712005F
:103E90007F0E226EFF0E216E206E1F6E12007F0EAF
:103EA00019BEFF0E226E02D07F0E226E800E216E92
:103EB000206A1F6AF3D719AE04D0800E226E216AE1
:103EC000F7D7226A216AF4D71B501A102B102A1038
:103ED000F8E01DBEF0D71BBE0CD01C501D10EBE04F
:103EE000D8902A362B361A361B361C06D8A01D064B
:103EF000F2D71D50D4E11C28D2E02AAE11D07F0E9B
:103F00002A1402E12BA00CD02B2AE86A1A221B22C9
:103F100007E3D8801B321A322B321C2A1C28BFE040
:103F20001C50C9E02BC01FF01AC020F01B34216EBA
:103F30001C30226E2132229E19BE228E4EEF1FF0BF
:103F40002136223602E31984197E06E11980226A9D
:103F5000216A206A1F6A1200222803E0D8802132D9
:103F60001200D890213202E1198212001986120043
:103F70002636273602E3198C197E06E11988276A4E
:103F8000266A256A246A1200272803E0D880263290
:0C3F90001200D8902632EAE1198A1200D3
:043F9C00B06A810E78
:103FA000AF6EAC8AAC94B886AC98AB8EAB889E9A58
:103FB0009D8A9F9A949C948E1200D9CFE6FFE1CF00
:103FC000D9FF040EE126DE6ADD6ADECF00F0DDCF28
:103FD00001F0FD0EDBCF02F0FE0EDBCF03F001504F
:103FE0000318E8AE02D0033404D00250005C035042
:103FF00001581DE2020EDB6A030EDB6A020EDBCF04
:1040000000F0030EDBCF01F0D890015004E6EE0E75
:10401000005C000E015806E2020EDB2A030EEEE3FE
:10402000DB2AECD7DF2A010ED0E3DB2ACED7040E41
:10403000E15C02E2E16AE552E16EE552E7CFD9FFC9
:104040001200D9CFE6FFE1CFD9FF9EA8FED7FE0E22
:10405000DB50AD6E9E98E552E7CFD9FF1200D9CF65
:10406000E6FFE1CFD9FFFD0EDBCFE9FFFE0EDBCF90
:10407000EAFFEF5010E0FD0EDBCFE9FFFE0EDBCFD5
:10408000EAFFEF50E66EDDDFE552FD0EDB2AFE0EA5
:10409000EAE3DB2AE8D7E552E7CFD9FF1200D9CF10
:1040A000E6FFE1CFD9FFFD0EDBCFF6FFFE0EDBCF43
:1040B000F7FF0800F55015E0FD0EDBCFF6FFFE0E12
:1040C000DBCFF7FF0800F550E66EBBDFE552FD0ED3
:1040D000DBCFF6FFDB2AFE0EDBCFF7FFE4E3DB2AC4
:1040E000E2D7E552E7CFD9FF1200D9CFE6FFE1CF03
:1040F000D9FF050EE126010EF36EDB6E020EDB6AC0
:10410000030EDB6A040EDB6ADF6ADFCF00F0016AB0
:1041100000BE0168FB0EDBCF02F0FC0EDBCF03F02C
:1041200001500318E8AE02D0033404D00250005C02
:10413000035001582DE2FD0EDBCF00F0FE0EDBCF69
:1041400001F0026A036A01AE02D002680368D95026
:10415000010FE96EDACFEAFF00C023F001C024F0BE
:1041600002C025F003C026F0EECF1EF0EECF1FF008
:10417000EECF20F0EFCF21F057EC29F01DC0EDFF7E
:104180001CC0EDFF1BC0EDFF1AC0EFFFDF2ABDD73B
:10419000010EDBCF00F0020EDBCF01F0030EDBCF10
:1041A00002F0040EDBCF03F000C01EF001C01FF0D0
:1041B00002C020F003C021F0050EE15C02E2E16ADA
:1041C000E552E16EE552E7CFD9FF1200D9CFE6FF05
:1041D000E1CFD9FF020EE126DF6AFB0EDBCF00F054
:1041E000FC0EDBCF01F0FD0EDBCF02F0FE0EDBCFCD
:1041F00003F0005001100210031005E1300EE66ECE
:1042000020DFE552F4D0D950FB0FE96EFF0EDA2023
:10421000EA6ED890030EEB50000A08E6000EEE5C42
:10422000000EEE58000EEE58000EEE5815E22D0E60
:10423000E66E07DFE552D950FB0FE96EFF0EDA207C
:10424000EA6E000EEE6CEF1EEE22EF1EEE22EF1E67
:10425000EF22ED52ED52ED52DE520A0EDD6E010EEE
:10426000DBCF00F0000EE76E0018E8AE02D000349D
:1042700003D0E750D880005401E3B9D0010EDB042D
:10428000046E056A04BE056804C0E6FF05C0E6FFCB
:104290000A0EE66EE66A29DFE552E552E552E5527E
:1042A0001EC000F01FC001F020C002F021C003F0CA
:1042B0001EC023F01FC024F020C025F021C026F02E
:1042C000FB0EDBCF1EF0FC0EDBCF1FF0FD0EDBCFB5
:1042D00020F0FE0EDBCF21F08FEC29F01E501F10D6
:1042E0002010211041E0010EDF6EDB04086E096A28
:1042F00008BE096808C0E6FF09C0E6FF0A0EE66EC0
:10430000E66AF3DEE552E552E552E5521EC004F0DE
:104310001FC005F020C006F021C007F01EC023F02A
:104320001FC024F020C025F021C026F0FB0EDBCFFB
:104330001EF0FC0EDBCF1FF0FD0EDBCF20F0FE0EDB
:10434000DBCF21F08FEC29F01EC000F01FC001F080
:1043500020C002F021C003F0300E0026000E012222
:1043600002220322005003D0DF5004E0300EE66E3C
:1043700068DEE552010EDB04046E056A04BE0568C2
:1043800004C0E6FF05C0E6FF0A0EE66EE66AADDE93
:10439000E552E552E552E5521EC000F01FC001F0A3
:1043A00020C002F021C003F0D950FB0FE96EFF0ED0
:1043B000DA20EA6E1EC023F01FC024F020C025F0D2
:1043C00021C026F0EECF1EF0EECF1FF0EECF20F092
:1043D000EFCF21F08FEC29F01DC0EDFF1CC0EDFFE9
:1043E0001BC0EDFF1AC0EFFF010EDB0638D7020E2F
:1043F000E15C02E2E16AE552E16EE552E7CFD9FF06
:104400001200D9CFE6FFE1CFD9FFFB0EDBCF00F0E2
:10441000FC0EDBCF01F0FD0EDBCF02F0FE0EDBCF9A
:1044200003F0640E236E246A256A266A00C01EF01B
:1044300001C01FF002C020F003C021F0E5EC1EF027
:104440001EC000F01FC001F020C002F021C003F028
:104450001EC0E6FF1FC0E6FF20C0E6FF21C0E6FF4A
:10446000B5DEE552E552E552E5522E0EE66EE9DD87
:10447000E552FB0EDBCF00F0FC0EDBCF01F0FD0EB2
:10448000DBCF02F0FE0EDBCF03F0640E236E246A56
:10449000256A266A00C01EF001C01FF002C020F08D
:1044A00003C021F0E5EC1EF01AC000F01BC001F0C3
:1044B0001CC002F01DC003F01AC0E6FF1BC0E6FFDF
:1044C0001CC0E6FF1DC0E6FF81DEE552E552E55265
:0C44D000E552E552E7CFD9FF12001200C0
:0444DC00D9CFE6FF4F
:1044E000E1CFD9FFD59EFD0EDBCF2AFFFE0EDBCF3D
:1044F0002BFFD59C03680468056A2ACF06F02BCFF2
:1045000007F0086A0650035C006E07500458016EFD
:1045100008500558026E246A010E256E266A00C0F6
:104520001FF001C020F002C021F0B8EC1EF01B50BB
:10453000D66E03680468056A2ACF06F02BCF07F011
:10454000086A0650035C006E07500458016E08505C
:104550000558026E246A010E256E266A00C01FF0FF
:1045600001C020F002C021F0B8EC1EF01FC000F026
:1045700020C001F021C002F01F50D76ED59AD58619
:10458000F28AF294F184D58EE552E7CFD9FF12007A
:10459000D59E120003680468056A2ACF06F02BCF67
:1045A00007F0086A0650035C006E07500458016E5D
:1045B00008500558026E246A010E256E266A00C056
:1045C0001FF001C020F002C021F0B8EC1EF01B501B
:1045D000D66E03680468056A2ACF06F02BCF07F071
:1045E000086A0650035C006E07500458016E0850BC
:1045F0000558026E246A010E256E266A00C01FF05F
:1046000001C020F002C021F0B8EC1EF01FC000F085
:1046100020C001F021C002F01F50D76ED58E1200CD
:10462000D9CFE6FFE1CFD9FFCD90FD0EDBCF2CFF38
:10463000FE0EDBCF2DFF03680468056A2CCF06F061
:104640002DCF07F0086A0650035C006E075004582F
:10465000016E08500558026E246A010E256E266A06
:1046600000C01FF001C020F002C021F0B8EC1EF025
:104670001F50CF6E03680468056A2CCF06F02DCF5B
:1046800007F0086A0650035C006E07500458016E7C
:1046900008500558026E246A010E256E266A00C075
:1046A0001FF001C020F002C021F0B8EC1EF01BC0CA
:1046B00000F01CC001F01DC002F01B50CE6E9D80AA
:1046C0009E909F90CD8ECD8CCD98CD9ACD96CD924B
:1046D000CD80E552E7CFD9FF120003680468056A70
:1046E0002CCF06F02DCF07F0086A0650035C006E51
:1046F00007500458016E08500558026E246A010ED6
:10470000256E266A00C01FF001C020F002C021F013
:10471000B8EC1EF01F50CF6E03680468056A2CCFFA
:1047200006F02DCF07F0086A0650035C006E0750B4
:104730000458016E08500558026E246A010E256E59
:10474000266A00C01FF001C020F002C021F0B8ECC2
:104750001EF01BC000F01CC001F01DC002F01B5079
:10476000CE6ECD801200CD901200D9CFE6FFE1CF02
:10477000D9FFCA94CC6AFE0EDB500F012E6F2F6B4F
:10478000CB6E9D829E929F92CA90CA92CA84E55235
:10479000E7CFD9FF12002ECFCBFFCA841200CA94F4
:1047A0001200D9CFE6FFE1CFD9FFB190FD0EDBCFEC
:1047B00030FFFE0EDBCF31FF03680468056A30CF9F
:1047C00006F031CF07F0086A0650035C006E075010
:1047D0000458016E08500558026E246A010E256EB9
:1047E000266A00C01FF001C020F002C021F0B8EC22
:1047F0001EF01F50B36E03680468056A30CF06F0E0
:1048000031CF07F0086A0650035C006E0750045869
:10481000016E08500558026E246A010E256E266A44
:1048200000C01FF001C020F002C021F0B8EC1EF063
:104830001BC000F01CC001F01DC002F01B50B26E86
:10484000A082A192A292B18EB198B19AB192B18098
:10485000E552E7CFD9FF120003680468056A30CF3C
:1048600006F031CF07F0086A0650035C006E07506F
:104870000458016E08500558026E246A010E256E18
:10488000266A00C01FF001C020F002C021F0B8EC81
:104890001EF01B50B26E03680468056A30CF06F044
:1048A00031CF07F0086A0650035C006E07500458C9
:1048B000016E08500558026E246A010E256E266AA4
:1048C00000C01FF001C020F002C021F0B8EC1EF0C3
:1048D0001FC000F020C001F021C002F01F50B36ED5
:1048E000B1801200B19012000F013A2B000E3B2351
:1048F00042513A5D43513B5904E33A6B3B6B010E25
:10490000326F12000F013C2B000E3D2344513C5DE1
:1049100045513D5904E33C6B3D6B010E336F120072
:104920000F013E2B000E3F2346513E5D47513F593C
:1049300004E33E6B3F6B010E346F12000F01402BFE
:10494000000E41234851405D4951415904E3406BF9
:10495000416B010E356F1200D9CFE6FFE1CFD9FFD1
:10496000FD0EDBCF42FFFE0EDBCF43FF0F013A6BA4
:104970003B6B326BE552E7CFD9FF1200D9CFE6FF90
:10498000E1CFD9FFFD0EDBCF44FFFE0EDBCF45FFAD
:10499000050E256E266A44CF20F045CF21F092EC1B
:1049A0001EF020C044FF21C045FF0F013C6B3D6B52
:1049B000336BE552E7CFD9FF1200D9CFE6FFE1CF45
:1049C000D9FFFD0EDBCF48FFFE0EDBCF49FF0A0EFD
:1049D000256E266A48CF20F049CF21F092EC1EF0D8
:1049E00020C048FF21C049FF0F01406B416B356B70
:0849F000E552E7CFD9FF1200E8
:0849F8000F0E946E826812009C
:104A0000CF0E9414946E82681200D9CFE6FFE1CFE6
:104A1000D9FF040EE126DE6ADD6ADECF00F0DDCFCD
:104A200001F0D890015004E6040E005C000E01581D
:104A300001E390D0DECFE9FFDDCFEAFFE00EE9260B
:104A4000000EEA22EF1C826E020EDB6A030EDB6AA6
:104A5000020EDBCF00F0030EDBCF01F0D890015047
:104A600004E6040E005C000E01586EE2020EDBCF7D
:104A7000E9FF030EDBCFEAFFE40EE926000EEA228F
:104A8000EF5082143FE1DECF04F0DDCF05F0D89087
:104A900004360536D89004360536020EDB50042461
:104AA000E96E030EDB500520EA6ED890E936EA364F
:104AB000800EE926000EEA22EECF02F0EFCF03F0DF
:104AC000010E0226000E0322DECF00F0DDCF01F042
:104AD000D89000360136D89000360136020EDB50F1
:104AE0000024E96E030EDB500120EA6ED890E9360F
:104AF000EA36800EE926000EEA2202C0EEFF03C06D
:104B0000EDFF1BD0DECF00F0DDCF01F0D8900036F6
:104B10000136D89000360136020EDB500024E96ED3
:104B2000030EDB500120EA6ED890E936EA36800E9B
:104B3000E926000EEA22EE6AED6A020EDB2A030E77
:104B400001E286D7DB2A84D7DF2A010E01E265D78E
:104B5000DB2A63D7040EE15C02E2E16AE552E16E12
:104B6000E552E7CFD9FF1200D9CFE6FFE1CFD9FF59
:104B7000040EE126DE6ADD6ADECF00F0DDCF01F053
:104B8000D890015004E6020E005C000E015801E3CB
:104B900094D0DECFE9FFDDCFEAFFE00EE926000E7C
:104BA000EA22EF1C8214826E0F0E8210826E020EB9
:104BB000DB6A030EDB6A020EDBCF00F0030EDBCFF5
:104BC00001F0D890015004E6040E005C000E01587C
:104BD0006EE2020EDBCFE9FF030EDBCFEAFFE40E4D
:104BE000E926000EEA22EF5082143FE1DECF04F006
:104BF000DDCF05F0D89004360536D890043605365A
:104C0000020EDB500424E96E030EDB500520EA6E31
:104C1000D890E936EA36800EE926000EEA22EECF79
:104C200002F0EFCF03F0010E0226000E0322DECFCA
:104C300000F0DDCF01F0D89000360136D890003674
:104C40000136020EDB500024E96E030EDB5001201A
:104C5000EA6ED890E936EA36800EE926000EEA229E
:104C600002C0EEFF03C0EDFF1BD0DECF00F0DDCFB2
:104C700001F0D89000360136D89000360136020E89
:104C8000DB500024E96E030EDB500120EA6ED89061
:104C9000E936EA36800EE926000EEA22EE6AED6A6F
:104CA000020EDB2A030E01E286D7DB2A84D7DF2A35
:104CB000010E01E261D7DB2A5FD7040EE15C02E25C
:104CC000E16AE552E16EE552E7CFD9FF1200D9CF94
:104CD000E6FFE1CFD9FF040EE126DE6ADD6ADECF12
:104CE00000F0DDCF01F0FD0EDBCF02F0FE0EDBCFDA
:104CF00003F001500318E8AE02D0033404D0025090
:104D0000005C035001581DE2020EDB6A030EDB6AF1
:104D1000020EDBCF00F0030EDBCF01F0D890015084
:104D200004E6EE0E005C000E015806E2020EDB2ADD
:104D3000030EEEE3DB2AECD7DF2A010ED0E3DB2AF9
:104D4000CED7040EE15C02E2E16AE552E16EE55283
:104D5000E7CFD9FF1200D9CFE6FFE1CFD9FFFD0E93
:104D6000DBCFE9FFFE0EDBCFEAFF010ED890E9367C
:104D7000EA36E806FBE1800EE926000EEA22EE5054
:104D8000ED101BE0FD0EDBCFE9FFFE0EDBCFEAFFEF
:104D9000010ED890E936EA36E806FBE1800EE926F6
:104DA000000EEA22EE6AED6A640EE66EE66A8FDFB6
:104DB000E552E552010EF36E01D0F36AF46AE55252
:064DC000E7CFD9FF12004D
:0A4DC600F28ED08EF28C1200F19CE8
:104DD000F292F2881200D8CFE4FFE0CFE4FFE46E55
:104DE000DACFE4FFE2CFDAFFE9CFE4FFEACFE4FF76
:104DF000F6CFE4FFF7CFE4FFF5CFE4FFF3CFE4FF16
:104E0000F4CFE4FFFACFE4FF00EE18F0140EE8044C
:104E100003E3EECFE4FFFBD700EE00F0180EE8044A
:104E200003E3EECFE4FFFBD7E652F2A407D0C8ECD1
:104E300022F0F294CAEC22F074EC24F09EA007D089
:104E4000B3EC23F09E906DEC23F082EC24F0A1A251
:104E500007D072EC24F0A1922CEC24F09EEC24F00C
:104E6000F2B2F2929EBA9E9AE55200EE17F0180E38
:104E7000E80403E3E5CFEDFFFBD700EE2BF0140EC3
:104E8000E80403E3E5CFEDFFFBD7E5CFFAFFE5CF7D
:104E9000F4FFE5CFF3FFE5CFF5FFE5CFF7FFE5CF73
:104EA000F6FFE5CFEAFFE5CFE9FFE5CFDAFFE55012
:104EB000E5CFE0FFE5CFD8FF1000DACFE4FFE2CF87
:104EC000DAFFE9CFE4FFEACFE4FFF6CFE4FFF7CF64
:104ED000E4FFF5CFE4FFF3CFE4FFF4CFE4FFFACF34
:104EE000E4FF00EE18F0140EE80403E3EECFE4FF55
:104EF000FBD700EE00F0180EE80403E3EECFE4FF6A
:104F0000FBD7E652F2A407D0C8EC22F0F294CAEC28
:104F100022F074EC24F09EA007D0B3EC23F09E9016
:104F20006DEC23F082EC24F0A1A207D072EC24F007
:104F3000A1922CEC24F09EEC24F0F2B2F2929EBAF4
:104F40009E9AE55200EE17F0180EE80403E3E5CF51
:104F5000EDFFFBD700EE2BF0140EE80403E3E5CFE2
:104F6000EDFFFBD7E5CFFAFFE5CFF4FFE5CFF3FF89
:104F7000E5CFF5FFE5CFF7FFE5CFF6FFE5CFEAFF99
:0A4F8000E5CFE9FFE5CFDAFF1100ED
:064F8A00206D332F6820AA
:104F90000D0A00206D672F6C20464C4F573D2000B6
:104FA000206D672F6C204E4F333D20002043204E54
:104FB00048343D2000206D672F6C20544D503D201B
:104FC00000206D672F6C204353423D200020704825
:104FD0002053533D200032302E30342E31362030D5
:104FE000393A31323A3037202070483D2020004491
:104FF0004953504C4159204D4F4445007048203D85
:105000002020202E005741524E494E47204D4F44FC
:1050100045006D6178005353203D2020202E007004
:1050200048203D2020202E00464C4F57203D202078
:105030002020206D332F68004E4F33203D2020204C
:105040002E20206D672F4C004E4834203D2020201C
:105050002E20206D672F4C00544D50203D202020E5
:105060002E20204300434F44203D202020202E208E
:10507000206D672F4C0020006D696E005353203D5A
:105080002020202E20206D672F4C005741524E4982
:085090004E47204D4F4445003E
:08509800020E0F017E1901E177
:1050A0007F511FE0010E7E1901E17F510BE07E511F
:1050B00001E17F5101E01200010E7E6F7F6BF1EC88
:1050C0001CF021D0000EE66EE66AABEC26F0E5524D
:1050D000E552F350F41055E0020E0F017E6F7F6B26
:1050E0001200000EE66EE66AABEC26F0E552E552E1
:1050F000F3CF00F0F4CF01F0F350F4101AE0010EFA
:105100000F017E6F7F6B050EE66E500EE66EE66A4F
:10511000E66A61EC1BF0E552E552E552E552B2EC6D
:105120001CF0C80EE66EE66A7DEC14F0E552E5521E
:105130001200010EE66EE66AABEC26F0E552E5528F
:10514000F3CF00F0F4CF01F0F350F4100AE0040EB6
:105150000F017E6F7F6BF1EC1CF0FC0EE66E4F0EC4
:1051600005D0F1EC1CF0EF0EE66E4F0EE66EE66A2F
:10517000E66A61EC1BF0E552E552E552E552B2EF0A
:045180001CF012000D
:0C5184001E0EF66E000EF76E000EF86EA8
:105190000F010900F5506F6F0900F550706F03E1C2
:1051A0006F6701D03DD00900F5506A6F0900F550D6
:1051B0006B6F0900F5506C6F09000900F550E96E3E
:1051C0000900F550EA6E090009000900F5506D6FFD
:1051D0000900F5506E6F09000900F6CF71FFF7CF97
:1051E00072FFF8CF73FF6ACFF6FF6BCFF7FF6CCF7C
:1051F000F8FF0F016D5302E16E5307E00900F5500F
:10520000EE6E6D07F8E26E07F9D771CFF6FF72CF39
:10521000F7FF73CFF8FF0F016F07000E705BBFD76A
:0252200012007A
:0E5222000F0E926E0B0EC16E040EC06E1200C7
:10523000D9CFE6FFE1CFD9FF020EE126FE0EDB500B
:10524000040DF350C26EC280C282C2B2FED7C450F7
:10525000DE6EDD6ADECF02F0DDCF03F0D8900236DD
:105260000336D89002360336060EC3CFE7FF070B8E
:1052700004E0E742E79EE806FCE1E7500224006E06
:10528000000E032000C0DEFFDD6EDECF00F0DDCFBC
:1052900001F000C0F3FF01C0F4FF020EE15C02E286
:0E52A000E16AE552E16EE552E7CFD9FF120058
:0252AE001E5090
:1052B0002302F3CF1AF0F4CF1BF02402F3501B2685
:1052C000000EF4201C6E1E502502F3501C26000E0A
:1052D000F4201D6E1E502602F3501D261F5023027F
:1052E000F3501B26F4501C22000E1D221F502402D6
:1052F000F3501C26F4501D221F502502F3501D268A
:1053000020502302F3501C26F4501D22205024026A
:0E531000F3501D2621502302F3501D261200DB
:02531E001D6A06
:105320001C6A1B6A1A6A200EE76ED8901E361F365A
:10533000203621361A361B361C361D3623501A5C91
:1053400024501B5825501C5826501D5809E3235043
:105350001A5E24501B5A25501C5A26501D5A1E2ACC
:06536000E72EE4D7120065
:0A5366001D6A1C6A1B6A180EE76E30
:10537000D8901F36203621361B361C361D36245059
:105380001B5C25501C5826501D5807E324501B5EFB
:1053900025501C5A26501D5A1F2AE72EEAD7120004
:1053A0001D6A1C6A100EE76ED890203621361C3616
:1053B0001D3625501C5C26501D5805E325501C5EEB
:0C53C00026501D5A202AE72EF0D71200BC
:0453CC00800EF36EEE
:1053D00000EE00F00F0E01D81200EA6002D0EE6A73
:0C53E000FCD7F350E9601200EE6AFCD725
:0453EC001EEE00F0C1
:1053F0002EEE00F0F86A199CC2EC28F003EC00F0E5
:085400003EEC14F0FBD7120092
:0854080000000000000000009C
:10541000000000000000000000000000000000008C
:08542000010001000100010080
:0854280020202020202020207C
:10543000202020202020202020202020202020206C
:08544000202020202020202064
:08544800EE02AC0DE02EB80BE2
:1054500090019001204EB2020C03F00A941128230F
:105460005046C409E40CD2001C0296002602803E7D
:02547000A86131
:0E54720000000000000000000000000000002C
:10548000000000000000000000000000000000001C
:10549000000000000000000000000000000000000C
:1054A00000000000000000000000000000000000FC
:1054B00000000000000000000000000000000000EC
:1054C00000000000000000000000000000000000DC
:1054D000000010204080010204080102040810208E
:0254E00040800A
:020000040030CA
:0100010002FC
:0100020003FA
:010003001EDE
:010005008179
:010006008178
:010008000FE8
:01000900C036
:01000A000FE6
:01000B00E014
:01000C000FE4
:01000D0040B2
:00000001FF
