:020000040000FA
:06000000B2EF2FF0120028
:020006001200E6
:06000800C0EF2CF0120015
:02000E000000F0
:0400100000000000EC
:020014000000EA
:0600180042EF2CF0120083
:02001E000900D7
:100020000A6000008000000070000000E05F000037
:10003000000100002A0000001400000082010000FE
:1000400002000000D85F00007401000008000000FA
:10005000C05F0000640F00001800000010000000E6
:100060007C01000004000000A05F00004A010000C5
:10007000200000000E0000008001000002000000CF
:0C008000805F00002A010000200000004A
:04008C000A0E010156
:10009000821901E1835101E1E2D3090E821901E1E4
:1000A000835101E133D3080E821901E1835101E14B
:1000B00095D2070E821901E1835101E1F7D1060EB5
:1000C000821901E1835101E148D1050E821901E154
:1000D000835101E19ED0040E821901E1835101E0B8
:1000E0001200000EE66EE66AF6EC2AF0E552E552E2
:1000F000F3CF00F0F4CF01F0F350F41001E0BDD3E2
:10010000010EE66EE66AF6EC2AF0E552E552F3CF10
:1001100000F0F4CF01F0F350F4100AE0050E0101F5
:10012000826F836BE9EC1DF05A0EE66E5B0ED8D33E
:10013000050EE66EE66AF6EC2AF0E552E552F3CFDC
:1001400000F0F4CF01F0F350F41002E0100EE3D30E
:100150000101E70ED8800055030E01551DE200C1D4
:1001600000F001C101F0640E256E266A00C120F086
:1001700001C121F08CEC2FF020C000F021C001F073
:10018000026A036A20C0E6FF21C0E6FF02C0E6FF64
:1001900003C0E6FF050E29D0540EE66E5B0EE66E38
:1001A000050EE66EE66A59EC1CF0E552E552E552A2
:1001B000E55200C100F001C101F0640E256E266A0F
:1001C00000C120F001C121F08CEC2FF020C000F024
:1001D00021C001F0026A036A20C0E6FF21C0E6FFE9
:1001E00002C0E6FF03C0E6FF060EE66EE66A84EC98
:1001F0001CF0046E060EE15E045000C100F001C167
:1002000001F0640E256E266A00C120F001C121F0C4
:1002100097D0000EE66EE66AF6EC2AF0E552E5525B
:10022000F3CF00F0F4CF01F0F350F41001E025D348
:10023000010EE66EE66AF6EC2AF0E552E552F3CFDF
:1002400000F0F4CF01F0F350F4100AE0060E0101C3
:10025000826F836BE9EC1DF0430EE66E5B0E40D3BC
:10026000050EE66EE66AF6EC2AF0E552E552F3CFAB
:1002700000F0F4CF01F0F350F41002E0110E4BD374
:100280000101E70ED8800255030E03551DE202C19D
:1002900000F003C101F0640E256E266A02C120F051
:1002A00003C121F08CEC2FF020C000F021C001F040
:1002B000026A036A20C0E6FF21C0E6FF02C0E6FF33
:1002C00003C0E6FF050E29D0540EE66E5B0EE66E07
:1002D000050EE66EE66A59EC1CF0E552E552E55271
:1002E000E55202C100F003C101F0640E256E266ADA
:1002F00002C120F003C121F08CEC2FF020C000F0EF
:1003000021C001F0026A036A20C0E6FF21C0E6FFB7
:1003100002C0E6FF03C0E6FF060EE66EE66A84EC66
:100320001CF0046E060EE15E045002C100F003C131
:1003300001F0640E256E266A02C120F003C121F08F
:100340008CEC2FF01CC000F01DC001F0026A036AA3
:100350001CC0E6FF1DC0E6FF37D3000EE66EE66A5E
:10036000F6EC2AF0E552E552F3CF00F0F4CF01F0BD
:10037000F350F41001E081D2010EE66EE66AF6EC6D
:100380002AF0E552E552F3CF00F0F4CF01F0F3503C
:10039000F4100AE0070E0101826F836BE9EC1DF097
:1003A000360EE66E5B0E9CD2050EE66EE66AF6EC45
:1003B0002AF0E552E552F3CF00F0F4CF01F0F3500C
:1003C000F41002E0120EA7D201010F0ED8800455DE
:1003D000270E05551DE204C100F005C101F0640EB1
:1003E000256E266A04C120F005C121F08CEC2FF0A7
:1003F00020C000F021C001F0026A036A20C0E6FFBD
:1004000021C0E6FF02C0E6FF03C0E6FF060E29D0CA
:10041000540EE66E5B0EE66E060EE66EE66A59EC6C
:100420001CF0E552E552E552E55204C100F005C169
:1004300001F0640E256E266A04C120F005C121F08A
:100440008CEC2FF020C000F021C001F0026A036A9A
:1004500020C0E6FF21C0E6FF02C0E6FF03C0E6FFC2
:10046000070EE66EE66A84EC1CF0046E060EE15E92
:10047000045004C100F005C101F0640E256E266A27
:1004800004C120F005C121F08CEC2FF01CC000F05D
:100490001DC001F0026A036A1CC0E6FF1DC0E6FF32
:1004A00002C0E6FF03C0E6FF0A0E93D2000EE66E1E
:1004B000E66AF6EC2AF0E552E552F3CF00F0F4CF0D
:1004C00001F0F350F41001E0D8D1010EE66EE66AB7
:1004D000F6EC2AF0E552E552F3CF00F0F4CF01F04C
:1004E000F350F4100AE0080E0101826F836BE9EC0F
:1004F0001DF0260EE66E5B0EF3D1050EE66EE66A83
:10050000F6EC2AF0E552E552F3CF00F0F4CF01F01B
:10051000F350F41002E0130EFED10101E70ED88073
:100520000655030E07551DE206C100F007C101F094
:10053000640E256E266A06C120F007C121F08CECFE
:100540002FF020C000F021C001F0026A036A20C031
:10055000E6FF21C0E6FF02C0E6FF03C0E6FF060E8D
:1005600029D0540EE66E5B0EE66E060EE66EE66A67
:1005700059EC1CF0E552E552E552E55206C100F097
:1005800007C101F0640E256E266A06C120F007C17E
:1005900021F08CEC2FF020C000F021C001F0026AA5
:1005A000036A20C0E6FF21C0E6FF02C0E6FF03C0E9
:1005B000E6FF070EE66EE66A84EC1CF0046E060E9B
:1005C000E15E045006C100F007C101F0640E256E23
:1005D000266A06C120F007C121F02FD1000EE66E79
:1005E000E66AF6EC2AF0E552E552F3CF00F0F4CFDC
:1005F00001F0F350F41001E040D1010EE66EE66A1E
:10060000F6EC2AF0E552E552F3CF00F0F4CF01F01A
:10061000F350F4100AE0090E0101826F836BE9ECDC
:100620001DF0160EE66E5B0E5BD1050EE66EE66AF9
:10063000F6EC2AF0E552E552F3CF00F0F4CF01F0EA
:10064000F350F41002E0140E66D10101E70ED880D9
:100650000855030E09551DE208C100F009C101F05B
:10066000640E256E266A08C120F009C121F08CECC9
:100670002FF020C000F021C001F0026A036A20C000
:10068000E6FF21C0E6FF02C0E6FF03C0E6FF060E5C
:1006900029D0540EE66E5B0EE66E060EE66EE66A36
:1006A00059EC1CF0E552E552E552E55208C100F064
:1006B00009C101F0640E256E266A08C120F009C147
:1006C00021F08CEC2FF020C000F021C001F0026A74
:1006D000036A20C0E6FF21C0E6FF02C0E6FF03C0B8
:1006E000E6FF070EE66EE66A84EC1CF0046E060E6A
:1006F000E15E045008C100F009C101F0640E256EEE
:10070000266A08C120F009C121F097D0000EE66EDC
:10071000E66AF6EC2AF0E552E552F3CF00F0F4CFAA
:1007200001F0F350F41001E0A8D0010EE66EE66A85
:10073000F6EC2AF0E552E552F3CF00F0F4CF01F0E9
:10074000F350F4100AE00A0E0101826F836BE9ECAA
:100750001DF0060EE66E5B0EC3D0050EE66EE66A71
:10076000F6EC2AF0E552E552F3CF00F0F4CF01F0B9
:10077000F350F41002E0150ECED00101E70ED88040
:100780000A55030E0B551DE20AC100F00BC101F022
:10079000640E256E266A0AC120F00BC121F08CEC94
:1007A0002FF020C000F021C001F0026A036A20C0CF
:1007B000E6FF21C0E6FF02C0E6FF03C0E6FF060E2B
:1007C00029D0540EE66E5B0EE66E060EE66EE66A05
:1007D00059EC1CF0E552E552E552E5520AC100F031
:1007E0000BC101F0640E256E266A0AC120F00BC110
:1007F00021F08CEC2FF020C000F021C001F0026A43
:10080000036A20C0E6FF21C0E6FF02C0E6FF03C086
:10081000E6FF070EE66EE66A84EC1CF0046E060E38
:10082000E15E04500AC100F00BC101F0640E256EB8
:10083000266A0AC120F00BC121F08CEC2FF01CC0FD
:1008400000F01DC001F0026A036A1CC0E6FF1DC073
:10085000E6FF02C0E6FF03C0E6FF090EBAD0000EB5
:10086000E66EE66AF6EC2AF0E552E552F3CF00F0C8
:10087000F4CF01F0F350F4101CE0010E0101826F7F
:10088000836BE9EC1DF0690EE66E5B0EE66EE66AC0
:10089000E66A59EC1CF0E552E552E552E552AAEC45
:1008A0001DF0C80EE66EE66A27EC15F0E552E5523B
:1008B0001200010EE66EE66AF6EC2AF0E552E55209
:1008C000F3CF00F0F4CF01F0F350F41015E0040E74
:1008D0000101826F836BE9EC1DF0FD0EE66E5A0E8E
:1008E000E66EE66AE66A59EC1CF0E552E552E5521E
:1008F000E552B9EC2BF075D0050EE66EE66AF6EC23
:100900002AF0E552E552F3CF00F0F4CF01F0F350B6
:10091000F41012E0160E0101826F836B560EE66E24
:100920005B0EE66EE66A010EE66E59EC1CF0E552CF
:10093000E552E552E55255D001010F0ED8800C5515
:10094000270E0D551DE20CC100F00DC101F0640E23
:10095000256E266A0CC120F00DC121F08CEC2FF021
:1009600020C000F021C001F0026A036A20C0E6FF47
:1009700021C0E6FF02C0E6FF03C0E6FF070E29D054
:10098000540EE66E5B0EE66E070EE66EE66A59ECF6
:100990001CF0E552E552E552E5520CC100F00DC1E4
:1009A00001F0640E256E266A0CC120F00DC121F005
:1009B0008CEC2FF020C000F021C001F0026A036A25
:1009C00020C0E6FF21C0E6FF02C0E6FF03C0E6FF4D
:1009D000080EE66EE66A84EC1CF0046E060EE15E1C
:1009E0000450AAEF1DF01A0E0101821901E1835192
:1009F00001E125D1100E821901E1835101E01200BD
:100A0000000EE66EE66AF6EC2AF0E552E552F3CF08
:100A100000F0F4CF01F0F350F4101CE0010E0101DE
:100A2000826F836BE9EC1DF0690EE66E5B0EE66E7D
:100A3000E66AE66A59EC1CF0E552E552E552E552E9
:100A4000AAEC1DF0C80EE66EE66A27EC15F0E5523A
:100A5000E5521200010EE66EE66AF6EC2AF0E55267
:100A6000E552F3CF00F0F4CF01F0F350F41015E0AD
:100A7000050E0101826F836BE9EC1DF0F40EE66E4A
:100A80005A0EE66EE66AE66A59EC1CF0E552E5524B
:100A9000E552E552B9EC2BF01FD0050EE66EE66A82
:100AA000F6EC2AF0E552E552F3CF00F0F4CF01F076
:100AB000F350F41013E01A0E0101826F836BF00EF5
:100AC000E66E5A0EE66EE66A010EE66E59EC1CF012
:100AD000E552E552E552E552AAEF1DF0030EE66E2F
:100AE000E66AF6EC2AF0E552E552F3CF00F0F4CFD7
:100AF00001F0F350F4100DE001016E0ED8800E5598
:100B0000050E0F5501E29AD00A0E0E27000E0F2394
:100B10001200070EE66EE66AF6EC2AF0E552E552A0
:100B2000F3CF00F0F4CF01F0F350F4100CE001012A
:100B30000A0E0E5D000E0F5901E280D00A0E0E5F04
:100B4000000E0F5B12000101E70ED8800E55030E58
:100B50000F551DE20EC100F00FC101F0640E256EAD
:100B6000266A0EC120F00FC121F08CEC2FF020C0BE
:100B700000F021C001F0026A036A20C0E6FF21C034
:100B8000E6FF02C0E6FF03C0E6FF050E29D0540EC3
:100B9000E66E5B0EE66E050EE66EE66A59EC1CF03C
:100BA000E552E552E552E5520EC100F00FC101F0E9
:100BB000640E256E266A0EC120F00FC121F08CEC68
:100BC0002FF020C000F021C001F0026A036A20C0AB
:100BD000E6FF21C0E6FF02C0E6FF03C0E6FF060E07
:100BE000E66EE66A84EC1CF0046E060EE15E0450CC
:100BF0000EC100F00FC101F0640E256E266A0EC111
:100C000020F00FC121F08CEC2FF01CC000F01DC0B3
:100C100001F0026A036A1CC0E6FF1DC0E6FF02C0C5
:100C2000E6FF03C0E6FF080EE66EE66A84EC1CF001
:100C3000046E060EE15E0450AAEC1DF01200000ED8
:100C4000E66EE66AF6EC2AF0E552E552F3CF00F0E4
:100C5000F4CF01F0F350F4101CE0010E0101826F9B
:100C6000836BE9EC1DF0690EE66E5B0EE66EE66ADC
:100C7000E66A59EC1CF0E552E552E552E552AAEC61
:100C80001DF0C80EE66EE66A27EC15F0E552E55257
:100C90001200010EE66EE66AF6EC2AF0E552E55225
:100CA000F3CF00F0F4CF01F0F350F41015E0050E8F
:100CB0000101826F836BE9EC1DF05A0EE66E5B0E4C
:100CC000E66EE66AE66A59EC1CF0E552E552E5523A
:100CD000E552B9EC2BF01FD0050EE66EE66AF6EC95
:100CE0002AF0E552E552F3CF00F0F4CF01F0F350D3
:100CF000F41013E0100E0101826F836B560EE66E46
:100D00005B0EE66EE66A010EE66E59EC1CF0E552EB
:100D1000E552E552E552AAEF1DF0030EE66EE66AD3
:100D2000F6EC2AF0E552E552F3CF00F0F4CF01F0F3
:100D3000F350F4100DE001016E0ED8801055050E31
:100D4000115501E29AD00A0E1027000E112312004D
:100D5000070EE66EE66AF6EC2AF0E552E552F3CFAE
:100D600000F0F4CF01F0F350F4100CE001010A0E92
:100D7000105D000E115901E280D00A0E105F000EC6
:100D8000115B12000101E70ED8801055030E1155BA
:100D90001DE210C100F011C101F0640E256E266A3B
:100DA00010C120F011C121F08CEC2FF020C000F018
:100DB00021C001F0026A036A20C0E6FF21C0E6FFFD
:100DC00002C0E6FF03C0E6FF050E29D0540EE66E12
:100DD0005B0EE66E050EE66EE66A59EC1CF0E55217
:100DE000E552E552E55210C100F011C101F0640E68
:100DF000256E266A10C120F011C121F08CEC2FF075
:100E000020C000F021C001F0026A036A20C0E6FFA2
:100E100021C0E6FF02C0E6FF03C0E6FF060EE66E55
:100E2000E66A84EC1CF0046E060EE15E045010C10C
:100E300000F011C101F0640E256E266A10C120F089
:100E400011C121F08CEC2FF01CC000F01DC001F08E
:100E5000026A036A1CC0E6FF1DC0E6FF02C0E6FF8F
:100E600003C0E6FF080EE66EE66A84EC1CF0046E32
:100E7000060EE15E0450AAEC1DF012001B0E0101EB
:100E8000821901E1835101E125D1110E821901E19D
:100E9000835101E01200000EE66EE66AF6EC2AF0DD
:100EA000E552E552F3CF00F0F4CF01F0F350F41027
:100EB0001CE0010E0101826F836BE9EC1DF0690EED
:100EC000E66E5B0EE66EE66AE66A59EC1CF0E552E9
:100ED000E552E552E552AAEC1DF0C80EE66EE66A50
:100EE00027EC15F0E552E5521200010EE66EE66AB7
:100EF000F6EC2AF0E552E552F3CF00F0F4CF01F022
:100F0000F350F41015E0060E0101826F836BE9ECDB
:100F10001DF0430EE66E5B0EE66EE66AE66A59EC7D
:100F20001CF0E552E552E552E552B9EC2BF01FD02A
:100F3000050EE66EE66AF6EC2AF0E552E552F3CFCE
:100F400000F0F4CF01F0F350F41013E01B0E010198
:100F5000826F836BF00EE66E5A0EE66EE66A010E45
:100F6000E66E59EC1CF0E552E552E552E552AAEF67
:100F70001DF0030EE66EE66AF6EC2AF0E552E55245
:100F8000F3CF00F0F4CF01F0F350F4100DE00101C5
:100F9000480ED8801255260E135501E29AD0640EE1
:100FA0001227000E13231200070EE66EE66AF6EC17
:100FB0002AF0E552E552F3CF00F0F4CF01F0F35000
:100FC000F4100CE00101640E125D000E135901E2F1
:100FD00080D0640E125F000E135B12000101E70E59
:100FE000D8801255030E13551DE212C100F013C133
:100FF00001F0640E256E266A12C120F013C121F0A3
:101000008CEC2FF020C000F021C001F0026A036ACE
:1010100020C0E6FF21C0E6FF02C0E6FF03C0E6FFF6
:10102000050E29D0540EE66E5B0EE66E050EE66EDA
:10103000E66A59EC1CF0E552E552E552E55212C160
:1010400000F013C101F0640E256E266A12C120F073
:1010500013C121F08CEC2FF020C000F021C001F072
:10106000026A036A20C0E6FF21C0E6FF02C0E6FF75
:1010700003C0E6FF060EE66EE66A84EC1CF0046E22
:10108000060EE15E045012C100F013C101F0640EBF
:10109000256E266A12C120F013C121F08CEC2FF0CE
:1010A0001CC000F01DC001F0026A036A1CC0E6FF0C
:1010B0001DC0E6FF02C0E6FF03C0E6FF080EE66EB5
:1010C000E66A84EC1CF0046E060EE15E0450AAECA5
:1010D0001DF01200000EE66EE66AF6EC2AF0E5520C
:1010E000E552F3CF00F0F4CF01F0F350F4101CE020
:1010F000010E0101826F836BE9EC1DF0690EE66E53
:101100005B0EE66EE66AE66A59EC1CF0E552E552C3
:10111000E552E552AAEC1DF0C80EE66EE66A27EC31
:1011200015F0E552E5521200010EE66EE66AF6ECA5
:101130002AF0E552E552F3CF00F0F4CF01F0F3507E
:10114000F41015E0060E0101826F836BE9EC1DF0CF
:10115000430EE66E5B0EE66EE66AE66A59EC1CF03C
:10116000E552E552E552E552B9EC2BF01FD0050EE1
:10117000E66EE66AF6EC2AF0E552E552F3CF00F0AF
:10118000F4CF01F0F350F41013E0110E0101826F5F
:10119000836B560EE66E5B0EE66EE66A010EE66E39
:1011A00059EC1CF0E552E552E552E552AAEF1DF06C
:1011B000030EE66EE66AF6EC2AF0E552E552F3CF4E
:1011C00000F0F4CF01F0F350F4100DE00101480EEF
:1011D000D8801455260E155501E29AD0640E1427B6
:1011E000000E15231200070EE66EE66AF6EC2AF0F2
:1011F000E552E552F3CF00F0F4CF01F0F350F410D4
:101200000CE00101640E145D000E155901E280D05E
:10121000640E145F000E155B12000101E70ED8800A
:101220001455030E15551DE214C100F015C101F04F
:10123000640E256E266A14C120F015C121F08CECD5
:101240002FF020C000F021C001F0026A036A20C024
:10125000E6FF21C0E6FF02C0E6FF03C0E6FF050E81
:1012600029D0540EE66E5B0EE66E050EE66EE66A5B
:1012700059EC1CF0E552E552E552E55214C100F07C
:1012800015C101F0640E256E266A14C120F015C147
:1012900021F08CEC2FF020C000F021C001F0026A98
:1012A000036A20C0E6FF21C0E6FF02C0E6FF03C0DC
:1012B000E6FF060EE66EE66A84EC1CF0046E060E8F
:1012C000E15E045014C100F015C101F0640E256EFA
:1012D000266A14C120F015C121F08CEC2FF01CC03F
:1012E00000F01DC001F0026A036A1CC0E6FF1DC0C9
:1012F000E6FF02C0E6FF03C0E6FF080EE66EE66A00
:1013000084EC1CF0046E060EE15E0450AAEC1DF0A5
:1013100012001C0E0101821901E1835101E130D15B
:10132000120E821901E1835101E01200000EE66EF7
:10133000E66AF6EC2AF0E552E552F3CF00F0F4CF7E
:1013400001F0F350F4101CE0010E0101826F836B79
:10135000E9EC1DF0690EE66E5B0EE66EE66AE66A83
:1013600059EC1CF0E552E552E552E552AAEC1DF0AD
:10137000C80EE66EE66A27EC15F0E552E55212005B
:10138000010EE66EE66AF6EC2AF0E552E552F3CF7E
:1013900000F0F4CF01F0F350F41015E0070E010156
:1013A000826F836BE9EC1DF0360EE66E5B0EE66E27
:1013B000E66AE66A59EC1CF0E552E552E552E55260
:1013C000B9EC2BF01FD0050EE66EE66AF6EC2AF0BB
:1013D000E552E552F3CF00F0F4CF01F0F350F410F2
:1013E00013E01C0E0101826F836BF00EE66E5A0E45
:1013F000E66EE66A010EE66E59EC1CF0E552E55227
:10140000E552E552AAEF1DF0030EE66EE66AF6EC31
:101410002AF0E552E552F3CF00F0F4CF01F0F3509B
:10142000F41018E016C100F017C101F0026A02348E
:10143000010E021807E6D880D80E0054850E01541C
:10144000010E025401E29BD0640E01011627000E2A
:1014500017231200070EE66EE66AF6EC2AF0E55254
:10146000E552F3CF00F0F4CF01F0F350F4100CE0AC
:1014700001014C0E165D040E175901E280D0640E76
:10148000165F000E175B120001010F0ED880165573
:10149000270E17551DE216C100F017C101F0640EAA
:1014A000256E266A16C120F017C121F08CEC2FF0B2
:1014B00020C000F021C001F0026A036A20C0E6FFEC
:1014C00021C0E6FF02C0E6FF03C0E6FF060E29D0FA
:1014D000540EE66E5B0EE66E060EE66EE66A59EC9C
:1014E0001CF0E552E552E552E55216C100F017C175
:1014F00001F0640E256E266A16C120F017C121F096
:101500008CEC2FF020C000F021C001F0026A036AC9
:1015100020C0E6FF21C0E6FF02C0E6FF03C0E6FFF1
:10152000070EE66EE66A84EC1CF0046E060EE15EC1
:10153000045016C100F017C101F0640E256E266A32
:1015400016C120F017C121F08CEC2FF01CC000F068
:101550001DC001F0026A036A1CC0E6FF1DC0E6FF61
:1015600002C0E6FF03C0E6FF0A0EE66EE66A84EC00
:101570001CF0046E060EE15E0450AAEC1DF0120091
:10158000000EE66EE66AF6EC2AF0E552E552F3CF7D
:1015900000F0F4CF01F0F350F4101CE0010E010153
:1015A000826F836BE9EC1DF0690EE66E5B0EE66EF2
:1015B000E66AE66A59EC1CF0E552E552E552E5525E
:1015C000AAEC1DF0C80EE66EE66A27EC15F0E552AF
:1015D000E5521200010EE66EE66AF6EC2AF0E552DC
:1015E000E552F3CF00F0F4CF01F0F350F41015E022
:1015F000070E0101826F836BE9EC1DF0360EE66E7B
:101600005B0EE66EE66AE66A59EC1CF0E552E552BE
:10161000E552E552B9EC2BF01FD0050EE66EE66AF6
:10162000F6EC2AF0E552E552F3CF00F0F4CF01F0EA
:10163000F350F41013E0120E0101826F836B560E0B
:10164000E66E5B0EE66EE66A010EE66E59EC1CF085
:10165000E552E552E552E552AAEF1DF0030EE66EA3
:10166000E66AF6EC2AF0E552E552F3CF00F0F4CF4B
:1016700001F0F350F41018E018C100F019C101F0A6
:10168000026A0234010E021807E6D880D80E005410
:10169000850E0154010E025401E29BD0640E01013B
:1016A0001827000E19231200070EE66EE66AF6EC04
:1016B0002AF0E552E552F3CF00F0F4CF01F0F350F9
:1016C000F4100CE001014C0E185D040E195901E2F2
:1016D00080D0640E185F000E195B120001010F0E1E
:1016E000D8801855270E19551DE218C100F019C1F0
:1016F00001F0640E256E266A18C120F019C121F090
:101700008CEC2FF020C000F021C001F0026A036AC7
:1017100020C0E6FF21C0E6FF02C0E6FF03C0E6FFEF
:10172000060E29D0540EE66E5B0EE66E060EE66ED1
:10173000E66A59EC1CF0E552E552E552E55218C153
:1017400000F019C101F0640E256E266A18C120F060
:1017500019C121F08CEC2FF020C000F021C001F065
:10176000026A036A20C0E6FF21C0E6FF02C0E6FF6E
:1017700003C0E6FF070EE66EE66A84EC1CF0046E1A
:10178000060EE15E045018C100F019C101F0640EAC
:10179000256E266A18C120F019C121F08CEC2FF0BB
:1017A0001CC000F01DC001F0026A036A1CC0E6FF05
:1017B0001DC0E6FF02C0E6FF03C0E6FF0A0EE66EAC
:1017C000E66A84EC1CF0046E060EE15E0450AAEC9E
:1017D0001DF012001D0E0101821901E1835101E18A
:1017E00025D1130E821901E1835101E01200000E90
:1017F000E66EE66AF6EC2AF0E552E552F3CF00F029
:10180000F4CF01F0F350F4101CE0010E0101826FDF
:10181000836BE9EC1DF0690EE66E5B0EE66EE66A20
:10182000E66A59EC1CF0E552E552E552E552AAECA5
:101830001DF0C80EE66EE66A27EC15F0E552E5529B
:101840001200010EE66EE66AF6EC2AF0E552E55269
:10185000F3CF00F0F4CF01F0F350F41015E0080ED0
:101860000101826F836BE9EC1DF0260EE66E5B0EC4
:10187000E66EE66AE66A59EC1CF0E552E552E5527E
:10188000E552B9EC2BF01FD0050EE66EE66AF6ECD9
:101890002AF0E552E552F3CF00F0F4CF01F0F35017
:1018A000F41013E01D0E0101826F836BF00EE66EE3
:1018B0005A0EE66EE66A010EE66E59EC1CF0E55231
:1018C000E552E552E552AAEF1DF0030EE66EE66A18
:1018D000F6EC2AF0E552E552F3CF00F0F4CF01F038
:1018E000F350F4100DE00101480ED8801A55260E71
:1018F0001B5501E29AD0640E1A27000E1B2312001A
:10190000070EE66EE66AF6EC2AF0E552E552F3CFF2
:1019100000F0F4CF01F0F350F4100CE00101640E7C
:101920001A5D000E1B5901E280D0640E1A5F000E92
:101930001B5B12000101E70ED8801A55030E1B55E0
:101940001DE21AC100F01BC101F0640E256E266A6B
:101950001AC120F01BC121F08CEC2FF020C000F048
:1019600021C001F0026A036A20C0E6FF21C0E6FF41
:1019700002C0E6FF03C0E6FF060E29D0540EE66E55
:101980005B0EE66E060EE66EE66A59EC1CF0E5525A
:10199000E552E552E5521AC100F01BC101F0640E98
:1019A000256E266A1AC120F01BC121F08CEC2FF0A5
:1019B00020C000F021C001F0026A036A20C0E6FFE7
:1019C00021C0E6FF02C0E6FF03C0E6FF070EE66E99
:1019D000E66A84EC1CF0046E060EE15E04501AC147
:1019E00000F01BC101F0640E256E266A1AC120F0BA
:1019F0001BC121F08CEC2FF01CC000F01DC001F0C9
:101A0000026A036A1CC0E6FF1DC0E6FF02C0E6FFD3
:101A100003C0E6FF090EE66EE66A84EC1CF0046E75
:101A2000060EE15E0450AAEC1DF01200000EE66EF8
:101A3000E66AF6EC2AF0E552E552F3CF00F0F4CF77
:101A400001F0F350F4101CE0010E0101826F836B72
:101A5000E9EC1DF0690EE66E5B0EE66EE66AE66A7C
:101A600059EC1CF0E552E552E552E552AAEC1DF0A6
:101A7000C80EE66EE66A27EC15F0E552E552120054
:101A8000010EE66EE66AF6EC2AF0E552E552F3CF77
:101A900000F0F4CF01F0F350F41015E0080E01014E
:101AA000826F836BE9EC1DF0260EE66E5B0EE66E30
:101AB000E66AE66A59EC1CF0E552E552E552E55259
:101AC000B9EC2BF01FD0050EE66EE66AF6EC2AF0B4
:101AD000E552E552F3CF00F0F4CF01F0F350F410EB
:101AE00013E0130E0101826F836B560EE66E5B0EE0
:101AF000E66EE66A010EE66E59EC1CF0E552E55220
:101B0000E552E552AAEF1DF0030EE66EE66AF6EC2A
:101B10002AF0E552E552F3CF00F0F4CF01F0F35094
:101B2000F4100DE00101480ED8801C55260E1D55FD
:101B300001E29AD0640E1C27000E1D231200070E2E
:101B4000E66EE66AF6EC2AF0E552E552F3CF00F0D5
:101B5000F4CF01F0F350F4100CE00101640E1C5DB1
:101B6000000E1D5901E280D0640E1C5F000E1D5B4B
:101B700012000101E70ED8801A55030E1B551DE215
:101B80001CC100F01DC101F0640E256E266A1CC147
:101B900020F01DC121F08CEC2FF020C000F021C0FE
:101BA00001F0026A036A20C0E6FF21C0E6FF02C01E
:101BB000E6FF03C0E6FF060E29D0540EE66E5B0E6C
:101BC000E66E060EE66EE66A59EC1CF0E552E5524A
:101BD000E552E5521CC100F01DC101F0640E256EF6
:101BE000266A1CC120F01DC121F08CEC2FF020C012
:101BF00000F021C001F0026A036A20C0E6FF21C0A4
:101C0000E6FF02C0E6FF03C0E6FF070EE66EE66AE7
:101C100084EC1CF0046E060EE15E04501CC100F062
:101C20001DC101F0640E256E266A1CC120F01DC185
:101C300021F08CEC2FF01CC000F01DC001F0026AF6
:101C4000036A1CC0E6FF1DC0E6FF02C0E6FF03C03A
:101C5000E6FF090EE66EE66A84EC1CF0046E060EE2
:101C6000E15E0450AAEC1DF012001E0E0101821963
:101C700001E1835101E125D1140E821901E1835163
:101C800001E01200000EE66EE66AF6EC2AF0E5527C
:101C9000E552F3CF00F0F4CF01F0F350F4101CE064
:101CA000010E0101826F836BE9EC1DF0690EE66E97
:101CB0005B0EE66EE66AE66A59EC1CF0E552E55208
:101CC000E552E552AAEC1DF0C80EE66EE66A27EC76
:101CD00015F0E552E5521200010EE66EE66AF6ECEA
:101CE0002AF0E552E552F3CF00F0F4CF01F0F350C3
:101CF000F41015E0090E0101826F836BE9EC1DF011
:101D0000160EE66E5B0EE66EE66AE66A59EC1CF0AD
:101D1000E552E552E552E552B9EC2BF01FD0050E25
:101D2000E66EE66AF6EC2AF0E552E552F3CF00F0F3
:101D3000F4CF01F0F350F41013E01E0E0101826F96
:101D4000836BF00EE66E5A0EE66EE66A010EE66EE4
:101D500059EC1CF0E552E552E552E552AAEF1DF0B0
:101D6000030EE66EE66AF6EC2AF0E552E552F3CF92
:101D700000F0F4CF01F0F350F4100DE00101C60EB5
:101D8000D8801E55070E1F5501E29AD00A0E1E2755
:101D9000000E1F231200070EE66EE66AF6EC2AF02C
:101DA000E552E552F3CF00F0F4CF01F0F350F41018
:101DB0000CE001010A0E1E5D000E1F5901E280D0E9
:101DC0000A0E1E5F000E1F5B12000101E70ED88095
:101DD0001E55030E1F551DE21EC100F01FC101F06C
:101DE000640E256E266A1EC120F01FC121F08CEC06
:101DF0002FF020C000F021C001F0026A036A20C069
:101E0000E6FF21C0E6FF02C0E6FF03C0E6FF060EC4
:101E100029D0540EE66E5B0EE66E060EE66EE66A9E
:101E200059EC1CF0E552E552E552E5521EC100F0B6
:101E30001FC101F0640E256E266A1EC120F01FC16D
:101E400021F08CEC2FF020C000F021C001F0026ADC
:101E5000036A20C0E6FF21C0E6FF02C0E6FF03C020
:101E6000E6FF070EE66EE66A84EC1CF0046E060ED2
:101E7000E15E04501EC100F01FC101F0640E256E2A
:101E8000266A1EC120F01FC121F08CEC2FF01CC06F
:101E900000F01DC001F0026A036A1CC0E6FF1DC00D
:101EA000E6FF02C0E6FF03C0E6FF090EE66EE66A43
:101EB00084EC1CF0046E060EE15E0450AAEC1DF0EA
:101EC0001200000EE66EE66AF6EC2AF0E552E552E4
:101ED000F3CF00F0F4CF01F0F350F4101CE0010E4A
:101EE0000101826F836BE9EC1DF0690EE66E5B0EFB
:101EF000E66EE66AE66A59EC1CF0E552E552E552F8
:101F0000E552AAEC1DF0C80EE66EE66A27EC15F065
:101F1000E552E5521200010EE66EE66AF6EC2AF092
:101F2000E552E552F3CF00F0F4CF01F0F350F41096
:101F300015E0090E0101826F836BE9EC1DF0160EAE
:101F4000E66E5B0EE66EE66AE66A59EC1CF0E55258
:101F5000E552E552E552B9EC2BF01FD0050EE66EC6
:101F6000E66AF6EC2AF0E552E552F3CF00F0F4CF42
:101F700001F0F350F41013E0140E0101826F836B33
:101F8000560EE66E5B0EE66EE66A010EE66E59ECE4
:101F90001CF0E552E552E552E552AAEF1DF0030EA2
:101FA000E66EE66AF6EC2AF0E552E552F3CF00F071
:101FB000F4CF01F0F350F4100DE00101C60ED8800B
:101FC0002055070E215501E29AD00A0E2027000E57
:101FD00021231200070EE66EE66AF6EC2AF0E552BF
:101FE000E552F3CF00F0F4CF01F0F350F4100CE021
:101FF00001010A0E205D000E215901E280D00A0E77
:10200000205F000E215B12000101E70ED8802055F1
:10201000030E21551DE220C100F021C101F0640E24
:10202000256E266A20C120F021C121F08CEC2FF012
:1020300020C000F021C001F0026A036A20C0E6FF60
:1020400021C0E6FF02C0E6FF03C0E6FF060E29D06E
:10205000540EE66E5B0EE66E060EE66EE66A59EC10
:102060001CF0E552E552E552E55220C100F021C1D5
:1020700001F0640E256E266A20C120F021C121F0F6
:102080008CEC2FF020C000F021C001F0026A036A3E
:1020900020C0E6FF21C0E6FF02C0E6FF03C0E6FF66
:1020A000070EE66EE66A84EC1CF0046E060EE15E36
:1020B000045020C100F021C101F0640E256E266A93
:1020C00020C120F021C121F08CEC2FF01CC000F0C9
:1020D0001DC001F0026A036A1CC0E6FF1DC0E6FFD6
:1020E00002C0E6FF03C0E6FF090EE66EE66A84EC76
:1020F0001CF0046E060EE15E0450AAEC1DF0120006
:102100001F0E0101821901E1835101E125D1150E54
:10211000821901E1835101E01200000EE66EE66AC9
:10212000F6EC2AF0E552E552F3CF00F0F4CF01F0DF
:10213000F350F4101CE0010E0101826F836BE9EC97
:102140001DF0690EE66E5B0EE66EE66AE66A59EC15
:102150001CF0E552E552E552E552AAEC1DF0C80E1E
:10216000E66EE66A27EC15F0E552E5521200010E24
:10217000E66EE66AF6EC2AF0E552E552F3CF00F09F
:10218000F4CF01F0F350F41015E00A0E0101826F54
:10219000836BE9EC1DF0060EE66E5B0EE66EE66AFA
:1021A000E66A59EC1CF0E552E552E552E552B9EC0D
:1021B0002BF01FD0050EE66EE66AF6EC2AF0E5522B
:1021C000E552F3CF00F0F4CF01F0F350F41013E038
:1021D0001F0E0101826F836BF00EE66E5A0EE66EE3
:1021E000E66A010EE66E59EC1CF0E552E552E55246
:1021F000E552AAEF1DF0030EE66EE66AF6EC2AF051
:10220000E552E552F3CF00F0F4CF01F0F350F410B3
:102210000DE00101C60ED8802255070E235501E2BC
:102220009AD00A0E2227000E23231200070EE66E14
:10223000E66AF6EC2AF0E552E552F3CF00F0F4CF6F
:1022400001F0F350F4100CE001010A0E225D000EC3
:10225000235901E280D00A0E225F000E235B120098
:102260000101E70ED8802255030E23551DE222C13D
:1022700000F023C101F0640E256E266A22C120F011
:1022800023C121F08CEC2FF020C000F021C001F020
:10229000026A036A20C0E6FF21C0E6FF02C0E6FF33
:1022A00003C0E6FF060E29D0540EE66E5B0EE66E06
:1022B000060EE66EE66A59EC1CF0E552E552E55270
:1022C000E55222C100F023C101F0640E256E266A9A
:1022D00022C120F023C121F08CEC2FF020C000F0AF
:1022E00021C001F0026A036A20C0E6FF21C0E6FFB8
:1022F00002C0E6FF03C0E6FF070EE66EE66A84EC66
:102300001CF0046E060EE15E045022C100F023C1F1
:1023100001F0640E256E266A22C120F023C121F04F
:102320008CEC2FF01CC000F01DC001F0026A036AA3
:102330001CC0E6FF1DC0E6FF02C0E6FF03C0E6FFCB
:10234000090EE66EE66A84EC1CF0046E060EE15E91
:102350000450AAEC1DF01200000EE66EE66AF6ECE0
:102360002AF0E552E552F3CF00F0F4CF01F0F3503C
:10237000F4101CE0010E0101826F836BE9EC1DF08B
:10238000690EE66E5B0EE66EE66AE66A59EC1CF0D4
:10239000E552E552E552E552AAEC1DF0C80EE66E94
:1023A000E66A27EC15F0E552E5521200010EE66EE2
:1023B000E66AF6EC2AF0E552E552F3CF00F0F4CFEE
:1023C00001F0F350F41015E00A0E0101826F836BE7
:1023D000E9EC1DF0060EE66E5B0EE66EE66AE66A56
:1023E00059EC1CF0E552E552E552E552B9EC2BF000
:1023F0001FD0050EE66EE66AF6EC2AF0E552E552CD
:10240000F3CF00F0F4CF01F0F350F41013E0150E09
:102410000101826F836B560EE66E5B0EE66EE66A16
:10242000010EE66E59EC1CF0E552E552E552E5521C
:10243000AAEF1DF0030EE66EE66AF6EC2AF0E5520E
:10244000E552F3CF00F0F4CF01F0F350F4100DE0BB
:102450000101C60ED8802455070E255501E29AD0F9
:102460000A0E2427000E25231200070EE66EE66AE8
:10247000F6EC2AF0E552E552F3CF00F0F4CF01F08C
:10248000F350F4100CE001010A0E245D000E2559F2
:1024900001E280D00A0E245F000E255B12000101CC
:1024A000E70ED8802455030E25551DE224C100F007
:1024B00025C101F0640E256E266A24C120F025C1D5
:1024C00021F08CEC2FF020C000F021C001F0026A56
:1024D000036A20C0E6FF21C0E6FF02C0E6FF03C09A
:1024E000E6FF060E29D0540EE66E5B0EE66E060E73
:1024F000E66EE66A59EC1CF0E552E552E552E5520B
:1025000024C100F025C101F0640E256E266A24C1A5
:1025100020F025C121F08CEC2FF020C000F021C06C
:1025200001F0026A036A20C0E6FF21C0E6FF02C094
:10253000E6FF03C0E6FF070EE66EE66A84EC1CF0D9
:10254000046E060EE15E045024C100F025C101F0C6
:10255000640E256E266A24C120F025C121F08CEC82
:102560002FF01CC000F01DC001F0026A036A1CC0FD
:10257000E6FF1DC0E6FF02C0E6FF03C0E6FF090E4E
:10258000E66EE66A84EC1CF0046E060EE15E045012
:10259000AAEC1DF01200200E0101821901E1835105
:1025A00001E10AD1160E821901E1835101E0120006
:1025B000000EE66EE66AF6EC2AF0E552E552F3CF3D
:1025C00000F0F4CF01F0F350F4101CE0010E010113
:1025D000826F836BE9EC1DF0690EE66E5B0EE66EB2
:1025E000E66AE66A59EC1CF0E552E552E552E5521E
:1025F000AAEC1DF0C80EE66EE66A27EC15F0E5526F
:10260000E5521200010EE66EE66AF6EC2AF0E5529B
:10261000E552F3CF00F0F4CF01F0F350F41015E0E1
:10262000040E0101826F836BE9EC1DF0FD0EE66E76
:102630005A0EE66EE66AE66A59EC1CF0E552E5527F
:10264000E552E552B9EC2BF01FD0050EE66EE66AB6
:10265000F6EC2AF0E552E552F3CF00F0F4CF01F0AA
:10266000F350F41013E0200E0101826F836BF00E23
:10267000E66E5A0EE66EE66A010EE66E59EC1CF046
:10268000E552E552E552E552AAEF1DF0030EE66E63
:10269000E66AF6EC2AF0E552E552F3CF00F0F4CF0B
:1026A00001F0F350F41017E026C100F027C101F04B
:1026B000026A0234010E021807E6D880D80E0054D0
:1026C000850E0154010E025476E3640E01012627A3
:1026D000000E27231200070EE66EE66AF6EC2AF0DB
:1026E000E552E552F3CF00F0F4CF01F0F350F410CF
:1026F0000BE001014C0E265D040E27595CE3640ECD
:10270000265F000E275B120001010F0ED8802655B0
:10271000270E27551DE226C100F027C101F0640EE7
:10272000256E266A26C120F027C121F08CEC2FF0FF
:1027300020C000F021C001F0026A036A20C0E6FF59
:1027400021C0E6FF02C0E6FF03C0E6FF070E29D066
:10275000540EE66E5B0EE66E070EE66EE66A59EC08
:102760001CF0E552E552E552E55226C100F027C1C2
:1027700001F0640E256E266A26C120F027C121F0E3
:102780008CEC2FF020C000F021C001F0026A036A37
:1027900020C0E6FF21C0E6FF02C0E6FF03C0E6FF5F
:1027A000080EE66EE66A84EC1CF0046E060EE15E2E
:1027B0000450AAEC1DF01200000EE66EE66AF6EC7C
:1027C0002AF0E552E552F3CF00F0F4CF01F0F350D8
:1027D000F4101CE0010E0101826F836BE9EC1DF027
:1027E000690EE66E5B0EE66EE66AE66A59EC1CF070
:1027F000E552E552E552E552AAEC1DF0C80EE66E30
:10280000E66A27EC15F0E552E5521200010EE66E7D
:10281000E66AF6EC2AF0E552E552F3CF00F0F4CF89
:1028200001F0F350F41015E0040E0101826F836B88
:10283000E9EC1DF0FD0EE66E5A0EE66EE66AE66AFB
:1028400059EC1CF0E552E552E552E552B9EC2BF09B
:102850001FD0050EE66EE66AF6EC2AF0E552E55268
:10286000F3CF00F0F4CF01F0F350F41013E0160EA4
:102870000101826F836B560EE66E5B0EE66EE66AB2
:10288000010EE66E59EC1CF0E552E552E552E552B8
:10289000AAEF1DF0030EE66EE66AF6EC2AF0E552AA
:1028A000E552F3CF00F0F4CF01F0F350F41017E04D
:1028B00028C100F029C101F0026A0234010E021899
:1028C00007E6D880D80E0054850E0154010E02543C
:1028D00076E3640E01012827000E29231200070E5B
:1028E000E66EE66AF6EC2AF0E552E552F3CF00F028
:1028F000F4CF01F0F350F4100BE001014C0E285D11
:10290000040E29595CE3640E285F000E295B120057
:1029100001010F0ED8802855270E29551DE228C128
:1029200000F029C101F0640E256E266A28C120F04E
:1029300029C121F08CEC2FF020C000F021C001F063
:10294000026A036A20C0E6FF21C0E6FF02C0E6FF7C
:1029500003C0E6FF070E29D0540EE66E5B0EE66E4E
:10296000070EE66EE66A59EC1CF0E552E552E552B8
:10297000E55228C100F029C101F0640E256E266AD7
:1029800028C120F029C121F08CEC2FF020C000F0EC
:1029900021C001F0026A036A20C0E6FF21C0E6FF01
:1029A00002C0E6FF03C0E6FF080EE66EE66A84ECAE
:1029B0001CF0046E060EE15E0450AAEC1DF012003D
:1029C0001FD801013551FDE0356B85D8C5D8F5DA42
:1029D000CEDB50EC29F0E5EC2DF046EC00F018ECE5
:1029E0001EF0F3EC04F03EEC07F089EC09F0EAECA1
:1029F0000BF035EC0EF080EC10F0CBEC12F0E1D7E0
:102A0000936AF2EC19F0DFEC1DF0E9EC1DF03AEC02
:102A10002CF0B2EC2EF0660EE66EB70EE66E1CECF5
:102A200028F0E552E552320EE66EE66A28EC29F00F
:102A3000E552E55218EC24F04BEC29F071EC2FF044
:102A4000C80EE66EE66A03D8E552E5521200D9CF09
:102A5000E6FFE1CFD9FF040EE126DE6ADD6ADECFB4
:102A600000F0DDCF01F0FD0EDBCF02F0FE0EDBCF7C
:102A700003F001500318E8AE02D0033404D0025032
:102A8000005C035001581DE2020EDB6A030EDB6A94
:102A9000020EDBCF00F0030EDBCF01F0D890015027
:102AA00004E6EE0E005C000E015806E2020EDB2A80
:102AB000030EEEE3DB2AECD7DF2A010ED0E3DB2A9C
:102AC000CED7040EE15C02E2E16AE552E16EE55226
:102AD000E7CFD9FF1200D9CFE6FFE1CFD9FF020E31
:102AE000E126DE6ADD6ADECF00F0DDCF01F0D890AE
:102AF000015004E6070E005C000E015823E2DFCF10
:102B0000E6FFB9EC2EF0E552F3CF00F0F4CF01F080
:102B1000DECFE9FFDDCFEAFFD890E936EA36F00EE6
:102B2000E926000EEA22F3CFEEFF01C0EDFF140EFE
:102B3000E66EE66A8CDFE552E552DF2A010ED3E34A
:102B4000DB2AD1D7020EE15C02E2E16AE552E16ED6
:102B5000E552E7CFD9FF1200F0C00CF0F1C00DF044
:102B60000E6A0F6AF0C01EF0F1C01FF00EC020F018
:102B70000FC021F04EEC21F01FC008F020C009F07A
:102B800021C00AF022C00BF0246A256A600E266E6E
:102B9000410E276E51EC22F01FC004F020C005F05A
:102BA00021C006F022C007F0246AC00E256E7F0EF9
:102BB000266E440E276EFEEC21F01FC000F020C0F0
:102BC00001F021C002F022C003F0246A256AC80E79
:102BD000266E420E276E51EC22F063EC23F020C0EB
:102BE00000F121C001F1F2C00CF0F3C00DF00E6A4B
:102BF0000F6AF2C01EF0F3C01FF00EC020F00FC02D
:102C000021F04EEC21F01FC008F020C009F021C0D7
:102C10000AF022C00BF0246A256AA00E266E420E2E
:102C2000276E51EC22F01FC004F020C005F021C037
:102C300006F022C007F0246AC00E256E7F0E266EB5
:102C4000440E276EFEEC21F01FC000F020C001F002
:102C500021C002F022C003F0246A256AC80E266E45
:102C6000420E276E51EC22F063EC23F020C002F1FB
:102C700021C003F1046A056A200E066E420E076E3B
:102C8000F4C014F0F5C015F0166A176AF4C01EF00F
:102C9000F5C01FF016C020F017C021F04EEC21F057
:102CA0001FC010F020C011F021C012F022C013F09C
:102CB000246A256A520E266E430E276E51EC22F0CE
:102CC0001FC00CF020C00DF021C00EF022C00FF08C
:102CD000246AC00E256E7F0E266E440E276EFEEC13
:102CE00021F01FC008F020C009F021C00AF022C066
:102CF0000BF01FC024F020C025F021C026F022C018
:102D000027F004C01FF005C020F006C021F007C066
:102D100022F068EC21F01FC000F020C001F021C0BB
:102D200002F022C003F0246A256AC80E266E420E05
:102D3000276E51EC22F063EC23F020C004F121C097
:102D400005F1F6C00CF0F7C00DF00E6A0F6AF6C080
:102D50001EF0F7C01FF00EC020F00FC021F04EECA7
:102D600021F01FC008F020C009F021C00AF022C0E5
:102D70000BF0246A256A700E266E420E276E51EC07
:102D800022F01FC004F020C005F021C006F022C0D0
:102D900007F0246AC00E256E7F0E266E440E276E45
:102DA000FEEC21F01FC000F020C001F021C002F0B5
:102DB00022C003F0246A256AC80E266E420E276ED2
:102DC00051EC22F063EC23F020C006F121C007F1A2
:102DD000F8C00CF0F9C00DF00E6A0F6AF8C01EF0D2
:102DE000F9C01FF00EC020F00FC021F04EEC21F012
:102DF0001FC008F020C009F021C00AF022C00BF06B
:102E0000246A256A400E266E410E276E51EC22F090
:102E10001FC004F020C005F021C006F022C007F05A
:102E2000246A256AAC0E266E420E276EFEEC21F057
:102E30001FC000F020C001F021C002F022C003F04A
:102E4000246A256AC80E266E420E276E51EC22F0C7
:102E500063EC23F020C008F121C009F1FAC00CF0A6
:102E6000FBC00DF00E6A0F6AFAC01EF0FBC01FF027
:102E70000EC020F00FC021F04EEC21F01FC008F072
:102E800020C009F021C00AF022C00BF0246A256A94
:102E9000400E266E410E276E51EC22F01FC004F04A
:102EA00020C005F021C006F022C007F0246AC00E41
:102EB000256E7F0E266E440E276EFEEC21F01FC09D
:102EC00000F020C001F021C002F022C003F0246A0B
:102ED000256AC80E266E420E276E51EC22F063EC76
:102EE00023F020C00AF121C00BF1046A056AB40E78
:102EF000066E420E076EFCC014F0FDC015F0166A97
:102F0000176AFCC01EF0FDC01FF016C020F017C0ED
:102F100021F04EEC21F01FC010F020C011F021C0B4
:102F200012F022C013F0246A256A9B0E266E430E0F
:102F3000276E51EC22F01FC00CF020C00DF021C014
:102F40000EF022C00FF0246AC00E256E7F0E266E92
:102F5000440E276EFEEC21F01FC008F020C009F0DF
:102F600021C00AF022C00BF01FC024F020C025F0C1
:102F700021C026F022C027F004C01FF005C020F0B9
:102F800006C021F007C022F068EC21F01FC000F05D
:102F900020C001F021C002F022C003F0246A256A9B
:102FA000C80E266E420E276E51EC22F063EC23F021
:102FB00020C00CF121C00DF11200010E0001FE2510
:102FC000FE6F000EFF21FF6B030EFE17FE51FF1177
:102FD00001E01200B40EE66E5A0EE66E99EC24F093
:102FE000E552E55200C100F001C101F0026A036A36
:102FF00000C1E6FF01C1E6FF02C0E6FF03C0E6FF35
:103000004BEC26F0E552E552E552E552AB0EE66E8A
:103010005A0EE66E99EC24F0E552E55202C100F03A
:1030200003C101F0026A036A02C1E6FF03C1E6FFC1
:1030300002C0E6FF03C0E6FF4BEC26F0E552E55286
:10304000E552E5529F0EE66E5A0EE66E99EC24F0BC
:10305000E552E55204C100F005C101F0026A036ABD
:1030600004C1E6FF05C1E6FF02C0E6FF03C0E6FFBC
:103070004BEC26F0E552E552E552E552930EE66E32
:103080005A0EE66E99EC24F0E552E55206C100F0C6
:1030900007C101F0026A036A06C1E6FF07C1E6FF45
:1030A00002C0E6FF03C0E6FF4BEC26F0E552E55216
:1030B000E552E5528A0EE66E5A0EE66E99EC24F061
:1030C000E552E55208C100F009C101F0026A036A45
:1030D00008C1E6FF09C1E6FF02C0E6FF03C0E6FF44
:1030E0004BEC26F0E552E552E552E5527E0EE66ED7
:1030F0005A0EE66E99EC24F0E552E5520AC100F052
:103100000BC101F0026A036A0AC1E6FF0BC1E6FFC8
:1031100002C0E6FF03C0E6FF4BEC26F0E552E552A5
:10312000E552E552710EE66E5A0EE66E99EC24F009
:10313000E552E5520CC100F00DC101F0026A036ACC
:103140000CC1E6FF0DC1E6FF02C0E6FF03C0E6FFCB
:103150004BEC26F0E552E552E552E552680EE66E7C
:103160005A0EE66E99EC24F0E552E5521200010188
:10317000010E761901E0EDD0775101E0EAD0766BCF
:10318000776B0F010851091101E0E3D0060E001919
:1031900001E1015101E1C2D0050E001901E1015127
:1031A00001E1A1D0040E001901E1015101E180D03B
:1031B000030E001901E1015160E0020E001901E166
:1031C000015140E0010E001901E1015120E00051E0
:1031D00001E1015101E012000A0E206E216A02CFC6
:1031E00025F003CF26F045EC23F01EC00EF11FC0E2
:1031F0000FF10A0E206E216A04CF25F005CF26F0CC
:1032000045EC23F01EC010F11FC011F11200640E36
:10321000206E216A02CF25F003CF26F045EC23F083
:103220001EC012F11FC013F1640E206E216A04CF7C
:1032300025F005CF26F045EC23F01EC014F11FC089
:1032400015F11200640E206E216A02CF25F003CF23
:1032500026F045EC23F01EC016F11FC017F1640ED6
:10326000206E216A04CF25F005CF26F045EC23F02F
:103270001EC018F11FC019F11200640E206E216AE1
:1032800002CF25F003CF26F045EC23F01EC01AF143
:103290001FC01BF1640E206E216A04CF25F005CFFC
:1032A00026F045EC23F01EC01CF11FC01DF11200DA
:1032B0000A0E206E216A02CF25F003CF26F045ECDE
:1032C00023F01EC01EF11FC01FF10A0E206E216ADE
:1032D00004CF25F005CF26F045EC23F01EC020F1E9
:1032E0001FC021F112000A0E206E216A02CF25F0C4
:1032F00003CF26F045EC23F01EC022F11FC023F1BE
:103300000A0E206E216A04CF25F005CF26F045EC89
:1033100023F01EC024F11FC025F11200640E206EA0
:10332000216A02CF25F003CF26F045EC23F01EC022
:1033300026F11FC027F1640E206E216A04CF25F00C
:1033400005CF26F045EC23F01EC028F11FC029F15F
:043350001200120055
:0C335400D9CFE6FFE1CFD9FF040EE1263F
:10336000DE6ADD6ADECF00F0DDCF01F0026A036ABB
:1033700001AE02D002680368D950FB0FE96EFF0E60
:10338000DA20EA6EEE50005CEE500158EE50025822
:10339000EE5003581DE2020EDB6A030EDB6A020EDA
:1033A000DBCF00F0030EDBCF01F0D890015004E634
:1033B000EE0E005C000E015806E2020EDB2A030E40
:1033C000EEE3DB2AECD7DF2A010ECCE3DB2ACAD7F7
:1033D000040EE15C02E2E16AE552E16EE552E7CFFC
:1033E000D9FF1200D9CFE6FFE1CFD9FFE652190E7F
:1033F000E66EE66AE66AE66AADDFE552E552E55258
:10340000E5520F0E8116F80E81160F0E8116300E42
:1034100081128186010EE66EE66AE66AE66A9ADF46
:10342000E552E552E552E5528196010EE66EE66AF6
:10343000E66AE66A8FDFE552E552E552E5520F0E85
:103440008116300E81128186010EE66EE66AE66A0A
:10345000E66A80DFE552E552E552E5528196010EBB
:10346000E66EE66AE66AE66A75DFE552E552E5521F
:10347000E5520F0E8116300E81128186010EE66E26
:10348000E66AE66AE66A66DFE552E552E552E5522B
:103490008196010EE66EE66AE66AE66A5BDFE55251
:1034A000E552E552E5520F0E8116818A8186010EA2
:1034B000E66EE66AE66AE66A4DDFE552E552E552F7
:1034C000E5528196010EE66EE66AE66AE66A42DF3A
:1034D000E552E552E552E552280EE66E0AD8E5526D
:1034E0000C0EE66E06D8E552E552E552E7CFD9FF5D
:1034F0001200D9CFE6FFE1CFD9FF0F0E8116FE0EE5
:10350000DB50F00B81128186010EE66EE66AE66AF8
:10351000E66A20DFE552E552E552E5528196010E5A
:10352000E66EE66AE66AE66A15DFE552E552E552BE
:10353000E5520F0E8116FE0EDB38F00B81128186EC
:10354000010EE66EE66AE66AE66A04DFE552E552D7
:10355000E552E5528196010EE66EE66AE66AE66A93
:10356000F9DEE552E552E552E552E552E7CFD9FFE3
:103570001200D9CFE6FFE1CFD9FF050EE126010EFB
:10358000F36EDB6E020EDB6A030EDB6A040EDB6A8F
:10359000DF6ADFCF00F0016A00BE0168FB0EDBCFFF
:1035A00002F0FC0EDBCF03F001500318E8AE02D0AE
:1035B000033404D00250005C035001582DE2FD0E8C
:1035C000DBCF00F0FE0EDBCF01F0026A036A01AE32
:1035D00002D002680368D950010FE96EDACFEAFF22
:1035E00000C023F001C024F002C025F003C026F083
:1035F000EECF1EF0EECF1FF0EECF20F0EFCF21F098
:10360000F8EC2EF01DC0EDFF1CC0EDFF1BC0EDFF60
:103610001AC0EFFFDF2ABDD7010EDBCF00F0020E8C
:10362000DBCF01F0030EDBCF02F0040EDBCF03F0A3
:1036300000C01EF001C01FF002C020F003C021F046
:10364000050EE15C02E2E16AE552E16EE552E7CF88
:10365000D9FF1200D9CFE6FFE1CFD9FF040EE12652
:10366000DE6ADD6ADECF00F0DDCF01F0026A036AB8
:1036700001AE02D002680368D950FB0FE96EFF0E5D
:10368000DA20EA6EEE50005CEE500158EE5002581F
:10369000EE5003581DE2020EDB6A030EDB6A020ED7
:1036A000DBCF00F0030EDBCF01F0D890015004E631
:1036B000060E005C000E015806E2020EDB2A030E25
:1036C000EEE3DB2AECD7DF2A010ECCE3DB2ACAD7F4
:1036D000040EE15C02E2E16AE552E16EE552E7CFF9
:1036E000D9FF1200D9CFE6FFE1CFD9FF0F0E811627
:1036F000FE0EDB5081128186050EE66EE66AE66AF2
:10370000E66AA8DFE552E552E552E5528196050EDC
:10371000E66EE66AE66AE66A9DDFE552E552E55244
:10372000E552E552E7CFD9FF1200D9CFE6FFE1CF4E
:10373000D9FF8184050EE66EE66AE66AE66A8ADFEC
:10374000E552E552E552E552FE0EDBCFE6FFCADF59
:10375000E552FE0EDB38F00BE66EC4DFE5528194D5
:10376000E552E7CFD9FF1200D9CFE6FFE1CFD9FF6D
:103770008194050EE66EE66AE66AE66A6BDFE5525C
:10378000E552E552E552FE0EDBCFE6FFABDFE55238
:10379000FE0EDB38F00BE66EA5DFE552E552E7CF13
:1037A000D9FF1200D9CFE6FFE1CFD9FFE652FD0ED7
:1037B000DB500F0B006EFE0EDB50010B400DF35083
:1037C0000024DF6E7F0EDF14800FDF6EDFCFE6FF99
:1037D000CBDFE552E552E552E7CFD9FF1200D9CF52
:1037E000E6FFE1CFD9FFFE0EDBCFE6FF9EDFE5521D
:1037F000E552E7CFD9FF1200D9CFE6FFE1CFD9FFDD
:103800007CCF00F07DCF01F0040ED8900036013659
:10381000E806FBE14A0E0026010E012200500F01CE
:103820007E25E96E01507F21EA6EFE0EDBCFEFFFB1
:103830007E2B000E7F23E552E7CFD9FF1200D9CFB0
:10384000E6FFE1CFD9FFFD0EDBCFF6FFFE0EDBCFAB
:10385000F7FF0800F5500FE0FD0EDBCFF6FFDB2A87
:10386000FE0EDBCFF7FF01E3DB2A0800F550E66E22
:10387000B6DFE552E8D7E552E7CFD9FF1200D9CF3E
:10388000E6FFE1CFD9FFFD0EDBCFE6FFFE0EDBCF7B
:10389000E6FF88DFE552E552FB0EDBCFE6FFFC0ECC
:1038A000DBCFE6FFCCDFE552E552E552E7CFD9FFAB
:1038B0001200D9CFE6FFE1CFD9FFFE0EDB50010B9E
:1038C0000F017C6F7D6BFD0EDB500F0B7E6F7F6BEE
:1038D000FB0EDBCFF6FFFC0EDBCFF7FF0800F55049
:1038E0000FE0FB0EDBCFF6FFDB2AFC0EDBCFF7FF92
:1038F00001E3DB2A0800F550E66E7EDFE552E8D7EB
:10390000E552E7CFD9FF1200D9CFE6FFE1CFD9FFCB
:10391000020EE126DF6AFE0EDB50010B0F017C6F09
:103920007D6BFD0EDB500F0B7E6F7F6BF90EDBCFD7
:1039300000F0FA0EDBCF01F0FB0EDBCF02F0FC0E45
:10394000DBCF03F0005001100210031005E1300E30
:10395000E66E52DFE552F4D0D950F90FE96EFF0E52
:10396000DA20EA6ED890030EEB50000A08E6000E4B
:10397000EE5C000EEE58000EEE58000EEE5815E20A
:103980002D0EE66E39DFE552D950F90FE96EFF0EC4
:10399000DA20EA6E000EEE6CEF1EEE22EF1EEE2233
:1039A000EF1EEF22ED52ED52ED52DE52070EDD6EAC
:1039B000010EDBCF00F0000EE76E0018E8AE02D07B
:1039C000003403D0E750D880005401E3B9D0010E91
:1039D000DB04046E056A04BE056804C0E6FF05C08A
:1039E000E6FF0A0EE66EE66AC4DDE552E552E552F0
:1039F000E5521EC000F01FC001F020C002F021C03F
:103A000003F01EC023F01FC024F020C025F021C009
:103A100026F0F90EDBCF1EF0FA0EDBCF1FF0FB0E07
:103A2000DBCF20F0FC0EDBCF21F030EC2FF01E506E
:103A30001F102010211041E0010EDF6EDB04086E24
:103A4000096A08BE096808C0E6FF09C0E6FF0A0E59
:103A5000E66EE66A8EDDE552E552E552E5521EC09D
:103A600004F01FC005F020C006F021C007F01EC002
:103A700023F01FC024F020C025F021C026F0F90E4D
:103A8000DBCF1EF0FA0EDBCF1FF0FB0EDBCF20F0FA
:103A9000FC0EDBCF21F030EC2FF01EC000F01FC079
:103AA00001F020C002F021C003F0300E0026000E0D
:103AB000012202220322005003D0DF5004E0300E26
:103AC000E66E9ADEE552010EDB04046E056A04BE62
:103AD000056804C0E6FF05C0E6FF0A0EE66EE66A6A
:103AE00048DDE552E552E552E5521EC000F01FC028
:103AF00001F020C002F021C003F0D950F90FE96EA7
:103B0000FF0EDA20EA6E1EC023F01FC024F020C092
:103B100025F021C026F0EECF1EF0EECF1FF0EECF45
:103B200020F0EFCF21F030EC2FF01DC0EDFF1CC0D6
:103B3000EDFF1BC0EDFF1AC0EFFF010EDB0638D70B
:103B4000020EE15C02E2E16AE552E16EE552E7CF86
:103B5000D9FF1200D9CFE6FFE1CFD9FFE652E66ADE
:103B6000E66A20DEE552E552DF6A100EDF5C0CE209
:103B7000DF50EA6A4A0FE96E010EEA22EF50E66E64
:103B80002EDEE552DF2AF1D7E66A010EE66E0ADE86
:103B9000E552E552DF6A100EDF5C0CE2DF50EA6AA4
:103BA0005A0FE96E010EEA22EF50E66E18DEE5527A
:103BB000DF2AF1D7E552E552E7CFD9FF1200010E17
:103BC000E66ED2DDE552E66AE66AECDDE552E552E4
:103BD0001200D9CFE6FFE1CFD9FFE652DF6ADFCF8F
:103BE00000F0100EE76E0018E8AE02D0E73402D005
:103BF000E750005C18E2DFCFE9FFEA6AE9BEEA6855
:103C00004A0EE926010EEA22200EEF6EDFCFE9FF11
:103C1000EA6AE9BEEA685A0EE926010EEA22200E97
:103C2000EF6EDF2ADCD7E552E552E7CFD9FF12006D
:103C3000240E0101821901E1835140E0230E821913
:103C400001E1835101E01200000EE66EE66AF6EC37
:103C50002AF0E552E552F3CF00F0F4CF01F0F35033
:103C6000F4100BE0020E0101826F836B0F017A6B7F
:103C70007B6BE66A81EC2FF0E55232D9F3CF00F08E
:103C8000F4CF01F0F350F41009E0240E0101826F2B
:103C9000836B010E0F017A6F7B6B1200E9EC1DF054
:103CA0009E0EE66E5B0EE66EE66AE66A59EC1CF066
:103CB000E552E552E552E552AAEF1DF0000EE66E20
:103CC000E66AF6EC2AF0E552E552F3CF00F0F4CFC5
:103CD00001F0F350F4100BE0020E0101826F836BD0
:103CE0000F017A6B7B6BE66A81EC2FF0E552F8D816
:103CF000F3CF00F0F4CF01F0F350F4100FE1230EF6
:103D00000101826F836B0F01746B756B726B736B48
:103D10007A6B7B6BE66A81EC2FF0E552ACDA0F012F
:103D20007A517B1103E0190EE66E01D0E66A81EC50
:103D30002FF0E552D5D8F3CF00F0F4CF01F0010E0B
:103D4000F31801E101500AE0CBD8F3CF02F0F4CF31
:103D500003F0030EF31858E1035056E1E9EC1DF0AF
:103D6000970EE66E5B0EE66EE66AE66A59EC1CF0AC
:103D7000E552E552E552E552060E0F01746F756B80
:103D8000726B736B766B776B070E765D000E7759EF
:103D900019E276CFE9FF77CFEAFF010ED890E93636
:103DA000EA36E806FBE1640EE9260F0EEA22010E70
:103DB000EE1803E1ED5001E1ECD90F01762B000E76
:103DC0007723E2D7AAEC1DF00F01786B796B100E08
:103DD000785DE50E795918E2000EE66EE66AF6ECBB
:103DE0002AF0E552E552F3CF00F0F4CF01F0F350A2
:103DF000F41005E0020E0101826F836B05D00F0104
:103E0000782B000E7923E3D76BD8F3CF00F0F4CFF3
:103E100001F0020EF31801E101500AE061D8F3CF7E
:103E200002F0F4CF03F0030EF31858E1035057E10A
:103E3000E9EC1DF0910EE66E5B0EE66EE66AE66A50
:103E400059EC1CF0E552E552E552E552050E0F0122
:103E5000746F756B726B736B766B776B070E765D39
:103E6000000E775919E276CFE9FF77CFEAFF010E0E
:103E7000D890E936EA36E806FBE1640EE9260F0E33
:103E8000EA22020EEE1803E1ED5001E182D90F01A2
:103E9000762B000E7723E2D7AAEC1DF00F01786B8A
:103EA000796B100E785DE50E795919E2000EE66E19
:103EB000E66AF6EC2AF0E552E552F3CF00F0F4CFD3
:103EC00001F0F350F41005E0020E0101826F836BE4
:103ED00012000F01782B000E7923E3D71200120095
:103EE000D9CFE6FFE1CFD9FF020EE126DE6ADD6A17
:103EF000010100510101105D010101510101115940
:103F000002E2010E0AD001010E510101005D010122
:103F10000F510101015904E2020E0F01646F02D03A
:103F20000F01646B656B010102510101145D010118
:103F300003510101155902E2010E0AD0010112518B
:103F40000101025D010113510101035904E2020E56
:103F50000F01666F02D00F01666B676B01010451A0
:103F60000101185D010105510101195902E2010E1B
:103F70000AD0010116510101045D0101175101012F
:103F8000055904E2020E0F01686F02D00F01686B41
:103F9000696B0101065101011C5D0101075101011D
:103FA0001D5902E2010E0AD001011A510101065DFC
:103FB00001011B510101075904E2020E0F016A6F52
:103FC00002D00F016A6B6B6B010108510101205D8A
:103FD000010109510101215902E2010E0AD001013A
:103FE0001E510101085D01011F510101095904E23F
:103FF000020E0F016C6F02D00F016C6B6D6B010133
:104000000A510101245D01010B510101255902E210
:10401000010E0AD00101225101010A5D0101235163
:1040200001010B5904E2020E0F016E6F02D00F0165
:104030006E6B6F6B01010C510101285D01010D5187
:104040000101295902E2010E0AD0010126510101A4
:104050000C5D0101275101010D5904E2020E0F010F
:10406000706F02D00F01706B716B766B776B070E00
:10407000765D000E775901E37AD076CFE9FF77CFEE
:10408000EAFF010ED890E936EA36E806FBE1640E55
:10409000E9260F0EEA22010EEE180BE1ED5009E1C0
:1040A000D9CFE9FFDACFEAFFEE50ED1002E1010EC1
:1040B00057D076CFE9FF77CFEAFF010ED890E936E7
:1040C000EA36E806FBE1640EE9260F0EEA22010E4D
:1040D000EE180DE1ED500BE1D9CFE9FFDACFEAFFA1
:1040E000020EEE1804E1ED5002E1030E39D076CF56
:1040F000E9FF77CFEAFF010ED890E936EA36E80605
:10410000FBE1640EE9260F0EEA22020EEE180BE127
:10411000ED5009E1D9CFE9FFDACFEAFFEE50ED101B
:1041200002E1020E1DD076CFE9FF77CFEAFF010E44
:10413000D890E936EA36E806FBE1640EE9260F0E70
:10414000EA22020EEE180EE1ED500CE1D9CFE9FFA4
:10415000DACFEAFF010EEE1805E1ED5003E1030EA0
:10416000DE6EDD6A0F01762B000E772380D7DECF5F
:1041700000F0DDCF01F000C0F3FF01C0F4FF020E3C
:10418000E15C02E2E16AE552E16EE552E7CFD9FF78
:104190001200060E0F01761901E177514DE0050E70
:1041A000761901E1775138E0040E761901E1775173
:1041B0002FE0030E761901E1775126E0020E761901
:1041C00001E177511DE0010E761901E1775108E018
:1041D000765145E1775143E18E0EE66E5B0E03D0DA
:1041E0008B0EE66E5B0EE66E74CFE6FF72CFE6FFD7
:1041F00059EC1CF0E552E552E552E552030E2BD086
:10420000870EE66E5B0E0BD0830EE66E5B0E07D05C
:104210007F0EE66E5B0E03D07B0EE66E5B0EE66EE7
:1042200074CFE6FF72CFE6FF59EC1CF0E552E55281
:10423000E552E552040E0FD0760EE66E5B0EE66E8A
:1042400074CFE6FF72CFE6FF59EC1CF0E552E55261
:10425000E552E552050E0F017427000E75230F0E6F
:10426000D8807455000E755503E2010E726F01D0AF
:10427000726B736B1200040EE66EE66AF6EC2AF0BF
:10428000E552E552F350F41006E00F01010ED8801C
:084290007A57000E7B57120063
:08429800199E0CD0199E21AE05
:1042A00009D01E6C1F1E201E211EE86A1F2220221C
:1042B0002122198E21C01BF020C01AF01FC02BF044
:1042C0001EC02AF09E0E1C6E1D6AAEEF23F0277EE4
:1042D000196AEAEC23F002EC24F019B692EF23F00D
:1042E00019A20AD019AA03D019BE92EF23F019A47B
:1042F0009EEF23F09BEF23F019AA05D019AC9EEF97
:1043000023F09BEF23F019A00AD019A808D019BEFA
:1043100004D019A402D0A7EF23F0ABEF23F02A6A50
:104320001D6A2750225C296E10E31FC02BF020C0AD
:104330001AF021C01BF022C028F024C01FF025C0B5
:1043400020F026C021F0193A09D024C02BF025C056
:104350001AF026C01BF027C028F0296C199E19BC42
:10436000198E28C01CF019B0DAEF23F01A0E29605C
:10437000DAEF23F01C6A226A19A408D01F6C201EF1
:10438000211E221EE86A20222122222219AC08D0F6
:104390002B6C1A1E1B1E1C1EE86A1A221B221C22D2
:1043A0001E6A295207E02234213220321F321E3287
:1043B000292EF9D71F502B2620501A2221501B22BC
:1043C00022501C221EC02AF0199E1CAE0BD02A6C53
:1043D0002B1E1A1E1B1E1C1EE86A2B221A221B22D1
:1043E0001C22198E1CA006D0D8801B321A322B3208
:1043F0002A32282A28C01CF0AEEF23F0196AEAEC12
:1044000023F002EC24F019B692EF23F019A205D0A4
:1044100019BA92EF23F099EF23F019BAA5EF23F020
:1044200019A005D019B892EF23F0A5EF23F019B821
:1044300099EF23F01D6A7F0E22241C6EE86A1D226C
:1044400027501C5EE86A1D5A1A0E286E226A2A6AD4
:104450002B6A1A6A1B6A24501F5E2550205A265068
:10446000215A000E225A09E724501F2625502022E7
:1044700026502122000E222201D02A8AD8901F36EF
:10448000203621362236D8902A362B361A361B365D
:10449000282EE1D7215020101F10D8A42A8AAEEF71
:1044A00023F0196AEAEC23F002EC24F019B692EF3B
:1044B00023F019A205D019B892EF23F099EF23F059
:1044C00019AA05D019B092EF23F099EF23F019B093
:1044D00002D019A802D0A5EF23F01D6A275022248C
:1044E0001C6EE86A1D227E0E1C5EE86A1D5A2A6A4E
:1044F0002B6A1A6A1B6A26502102F4CF1BF0F3CFF5
:104500001AF025502102F3502B26F4501A22000EE7
:104510001B2226502002F3502B26F4501A22000EA4
:104520001B2224502102F3502A26F4502B22000E85
:104530001A221B2225502002F3502A26F4502B2247
:10454000000E1A221B2226501F02F3502A26F45076
:104550002B22000E1A221B2224502002F4502A265D
:10456000000E2B221A221B2225501F02F4502A264D
:10457000000E2B221A221B22AEEF23F0186A26AE61
:10458000C7EF22F0256C261EE86A2622181E21AEEF
:10459000CFEF22F0206C211EE86A2122181E8CEC3D
:1045A0002FF021BEDFEF22F018AE000C206C211E90
:1045B000E86A21221C6C1D1EE86A1D22000C18BE30
:1045C000D6EF22F01988FF0C186A26AEEFEF22F022
:1045D000246C251E261EE86A25222622181E21AEDE
:1045E000F9EF22F01F6C201E211EE86A20222122F2
:1045F000181E54EC2FF021BE0CEF23F018AE000C67
:104600001F6C201E211EE86A202221221B6C1C1E0A
:104610001D1E1C221D22000C18BE00EF23F019885D
:10462000FF0C186AE86A26AE1EEF23F0236C241EE6
:10463000251E261E242225222622181E21AE29EF01
:1046400023F01E6C1F1E201E211E1F22202221224D
:10465000181E30EC2FF021BE40EF23F018AE000CF6
:104660001E6C1F1E201E211EE86A1F2220222122EE
:104670001A6C1B1E1C1E1D1E1B221C221D22000C40
:1046800018BE30EF23F01988FF0C20C02AF020500C
:104690002502F4CF1FF0F3CF1EF021502602F4CFF5
:1046A00021F0F3CF20F02502F3501F26F4502022F2
:1046B000E86A21222A502602F3501F26F4502022B5
:1046C000E86A2122000C196AEAEC23F019B66DEFB2
:1046D00023F019A20ED019B405D07F0E216EFF0E63
:1046E000206E1FD0800E216E206A1BD0216A206AA6
:1046F00018D019B0FBD78F0E2260EDD77E0E226442
:10470000F5D78E0E225C05E0D89021322032222A85
:10471000F8D719A406D0206C211EE86A212221AE08
:10472000E5D712007F0E226EFF0E216E206E1F6EE7
:1047300012007F0E19BEFF0E226E02D07F0E226E77
:10474000800E216E206A1F6AF3D719AE04D0800E46
:10475000226E216AF7D7226A216AF4D71B501A10F9
:104760002B102A10F8E01DBEF0D71BBE0CD01C5039
:104770001D10EBE0D8902A362B361A361B361C0655
:10478000D8A01D06F2D71D50D4E11C28D2E02AAED5
:1047900011D07F0E2A1402E12BA00CD02B2AE86A3C
:1047A0001A221B2207E3D8801B321A322B321C2A12
:1047B0001C28BFE01C50C9E02BC01FF01AC020F01D
:1047C0001B34216E1C30226E2132229E19BE228E95
:1047D00098EF23F02136223602E31984197E06E190
:1047E0001980226A216A206A1F6A1200222803E0C7
:1047F000D88021321200D890213202E119821200B1
:10480000198612002636273602E3198C197E06E136
:104810001988276A266A256A246A1200272803E075
:10482000D88026321200D8902632EAE1198A120086
:10483000B06A810EAF6EAC8AAC94B886AC98AB8E81
:10484000AB889E9A9D8A9F9A949C948E1200D9CF91
:10485000E6FFE1CFD9FF040EE126DE6ADD6ADECF96
:1048600000F0DDCF01F0FD0EDBCF02F0FE0EDBCF5E
:1048700003F001500318E8AE02D0033404D0025014
:10488000005C035001581DE2020EDB6A030EDB6A76
:10489000020EDBCF00F0030EDBCF01F0D890015009
:1048A00004E6EE0E005C000E015806E2020EDB2A62
:1048B000030EEEE3DB2AECD7DF2A010ED0E3DB2A7E
:1048C000CED7040EE15C02E2E16AE552E16EE55208
:1048D000E7CFD9FF1200D9CFE6FFE1CFD9FF9EA8DD
:1048E000FED7FE0EDB50AD6E9E98E552E7CFD9FFA6
:1048F0001200D9CFE6FFE1CFD9FFFD0EDBCFE9FFF4
:10490000FE0EDBCFEAFFEF5010E0FD0EDBCFE9FF3C
:10491000FE0EDBCFEAFFEF50E66EDDDFE552FD0E67
:10492000DB2AFE0EEAE3DB2AE8D7E552E7CFD9FF20
:104930001200D9CFE6FFE1CFD9FFFD0EDBCFF6FFA6
:10494000FE0EDBCFF7FF0800F55015E0FD0EDBCFC4
:10495000F6FFFE0EDBCFF7FF0800F550E66EBBDF7B
:10496000E552FD0EDBCFF6FFDB2AFE0EDBCFF7FFB5
:10497000E4E3DB2AE2D7E552E7CFD9FF1200D9CF33
:10498000E6FFE1CFD9FF050EE126010EF36EDB6EE7
:10499000020EDB6A030EDB6A040EDB6ADF6ADFCF1E
:1049A00000F0016A00BE0168FB0EDBCF02F0FC0ED6
:1049B000DBCF03F001500318E8AE02D0033404D07B
:1049C0000250005C035001582DE2FD0EDBCF00F0D9
:1049D000FE0EDBCF01F0026A036A01AE02D002686C
:1049E0000368D950010FE96EDACFEAFF00C023F067
:1049F00001C024F002C025F003C026F0EECF1EF067
:104A0000EECF1FF0EECF20F0EFCF21F0F8EC2EF03C
:104A10001DC0EDFF1CC0EDFF1BC0EDFF1AC0EFFF76
:104A2000DF2ABDD7010EDBCF00F0020EDBCF01F095
:104A3000030EDBCF02F0040EDBCF03F000C01EF04C
:104A400001C01FF002C020F003C021F0050EE15CA0
:104A500002E2E16AE552E16EE552E7CFD9FF1200CA
:104A6000D9CFE6FFE1CFD9FF020EE126DF6AFB0EC8
:104A7000DBCF00F0FC0EDBCF01F0FD0EDBCF02F050
:104A8000FE0EDBCF03F0005001100210031005E111
:104A9000300EE66E20DFE552F4D0D950FB0FE96E00
:104AA000FF0EDA20EA6ED890030EEB50000A08E6FB
:104AB000000EEE5C000EEE58000EEE58000EEE58A2
:104AC00015E22D0EE66E07DFE552D950FB0FE96EB9
:104AD000FF0EDA20EA6E000EEE6CEF1EEE22EF1EE5
:104AE000EE22EF1EEF22ED52ED52ED52DE520A0E93
:104AF000DD6E010EDBCF00F0000EE76E0018E8AEB1
:104B000002D0003403D0E750D880005401E3B9D07C
:104B1000010EDB04046E056A04BE056804C0E6FFEE
:104B200005C0E6FF0A0EE66EE66A29DFE552E552A9
:104B3000E552E5521EC000F01FC001F020C002F097
:104B400021C003F01EC023F01FC024F020C025F0B8
:104B500021C026F0FB0EDBCF1EF0FC0EDBCF1FF0DA
:104B6000FD0EDBCF20F0FE0EDBCF21F030EC2FF07E
:104B70001E501F102010211041E0010EDF6EDB04DB
:104B8000086E096A08BE096808C0E6FF09C0E6FFAA
:104B90000A0EE66EE66AF3DEE552E552E552E552AC
:104BA0001EC004F01FC005F020C006F021C007F0B1
:104BB0001EC023F01FC024F020C025F021C026F025
:104BC000FB0EDBCF1EF0FC0EDBCF1FF0FD0EDBCFAC
:104BD00020F0FE0EDBCF21F030EC2FF01EC000F0F5
:104BE0001FC001F020C002F021C003F0300E0026EB
:104BF000000E012202220322005003D0DF5004E005
:104C0000300EE66E68DEE552010EDB04046E056AC6
:104C100004BE056804C0E6FF05C0E6FF0A0EE66EA6
:104C2000E66AADDEE552E552E552E5521EC000F0FF
:104C30001FC001F020C002F021C003F0D950FB0FCB
:104C4000E96EFF0EDA20EA6E1EC023F01FC024F0CA
:104C500020C025F021C026F0EECF1EF0EECF1FF0D1
:104C6000EECF20F0EFCF21F030EC2FF01DC0EDFFA4
:104C70001CC0EDFF1BC0EDFF1AC0EFFF010EDB06ED
:104C800038D7020EE15C02E2E16AE552E16EE552DC
:104C9000E7CFD9FF1200D9CFE6FFE1CFD9FFFB0E56
:104CA000DBCF00F0FC0EDBCF01F0FD0EDBCF02F01E
:104CB000FE0EDBCF03F0640E236E246A256A266A9B
:104CC00000C01EF001C01FF002C020F003C021F0A0
:104CD00011EC23F01EC000F01FC001F020C002F054
:104CE00021C003F01EC0E6FF1FC0E6FF20C0E6FFA4
:104CF00021C0E6FFB5DEE552E552E552E5522E0E43
:104D0000E66EE9DDE552FB0EDBCF00F0FC0EDBCFFB
:104D100001F0FD0EDBCF02F0FE0EDBCF03F0640EE0
:104D2000236E246A256A266A00C01EF001C01FF0A7
:104D300002C020F003C021F011EC23F01AC000F0F3
:104D40001BC001F01CC002F01DC003F01AC0E6FF3A
:104D50001BC0E6FF1CC0E6FF1DC0E6FF81DEE5527A
:104D6000E552E552E552E552E7CFD9FF12002EEFAA
:024D70002BF026
:0E4D7200D9CFE6FFE1CFD9FFD59EFD0EDBCFF6
:104D80002AF1FE0EDBCF2BF1D59C03680468056A7F
:104D90002AC106F02BC107F0086A0650035C006EBA
:104DA00007500458016E08500558026E246A010E1F
:104DB000256E266A00C01FF001C020F002C021F05D
:104DC000E4EC22F01B50D66E03680468056A2AC121
:104DD00006F02BC107F0086A0650035C006E07500E
:104DE0000458016E08500558026E246A010E256EA3
:104DF000266A00C01FF001C020F002C021F0E4ECE0
:104E000022F01FC000F020C001F021C002F01F50AE
:104E1000D76ED59AD586F28AF294F184D58EE55272
:104E2000E7CFD9FF1200D59E120003680468056A17
:104E30002AC106F02BC107F0086A0650035C006E19
:104E400007500458016E08500558026E246A010E7E
:104E5000256E266A00C01FF001C020F002C021F0BC
:104E6000E4EC22F01B50D66E03680468056A2AC180
:104E700006F02BC107F0086A0650035C006E07506D
:104E80000458016E08500558026E246A010E256E02
:104E9000266A00C01FF001C020F002C021F0E4EC3F
:104EA00022F01FC000F020C001F021C002F01F500E
:104EB000D76ED58E1200D9CFE6FFE1CFD9FFCD90C6
:104EC000FD0EDBCF2CF1FE0EDBCF2DF10368046865
:104ED000056A2CC106F02DC107F0086A0650035C74
:104EE000006E07500458016E08500558026E246A7F
:104EF000010E256E266A00C01FF001C020F002C01E
:104F000021F0E4EC22F01F50CF6E03680468056ABC
:104F10002CC106F02DC107F0086A0650035C006E34
:104F200007500458016E08500558026E246A010E9D
:104F3000256E266A00C01FF001C020F002C021F0DB
:104F4000E4EC22F01BC000F01CC001F01DC002F018
:104F50001B50CE6E9D809E909F90CD8ECD8CCD9817
:104F6000CD9ACD96CD92CD80E552E7CFD9FF1200F4
:104F700003680468056A2CC106F02DC107F0086AB1
:104F80000650035C006E07500458016E0850055827
:104F9000026E246A010E256E266A00C01FF001C051
:104FA00020F002C021F0E4EC22F01F50CF6E036825
:104FB0000468056A2CC106F02DC107F0086A065086
:104FC000035C006E07500458016E08500558026ECD
:104FD000246A010E256E266A00C01FF001C020F071
:104FE00002C021F0E4EC22F01BC000F01CC001F074
:104FF0001DC002F01B50CE6ECD801200CD9012006D
:10500000D9CFE6FFE1CFD9FFCA94CC6AFE0EDB50C0
:1050100001012E6F2F6BCB6E9D829E929F92CA9044
:10502000CA92CA84E552E7CFD9FF12002EC1CBFF46
:10503000CA841200CA941200D9CFE6FFE1CFD9FF8B
:10504000B190FD0EDBCF30F1FE0EDBCF31F1036806
:105050000468056A30C106F031C107F0086A0650DD
:10506000035C006E07500458016E08500558026E2C
:10507000246A010E256E266A00C01FF001C020F0D0
:1050800002C021F0E4EC22F01F50B36E0368046804
:10509000056A30C106F031C107F0086A0650035CAA
:1050A000006E07500458016E08500558026E246ABD
:1050B000010E256E266A00C01FF001C020F002C05C
:1050C00021F0E4EC22F01BC000F01CC001F01DC078
:1050D00002F01B50B26EA082A192A292B18EB19842
:1050E000B19AB192B180E552E7CFD9FF12000368BF
:1050F0000468056A30C106F031C107F0086A06503D
:10510000035C006E07500458016E08500558026E8B
:10511000246A010E256E266A00C01FF001C020F02F
:1051200002C021F0E4EC22F01B50B26E0368046868
:10513000056A30C106F031C107F0086A0650035C09
:10514000006E07500458016E08500558026E246A1C
:10515000010E256E266A00C01FF001C020F002C0BB
:1051600021F0E4EC22F01FC000F020C001F021C0CB
:1051700002F01F50B36EB1801200B1901200010115
:105180003A2B000E3B2342513A5D43513B5904E315
:105190003A6B3B6B010E326F120001013C2B000E8B
:1051A0003D2344513C5D45513D5904E33C6B3D6B0F
:1051B000010E336F120001013E2B000E3F234651BA
:1051C0003E5D47513F5904E33E6B3F6B010E346F28
:1051D00012000101402B000E41234851405D49510E
:1051E000415904E3406B416B010E356F1200D9CF7A
:1051F000E6FFE1CFD9FFFD0EDBCF42F1FE0EDBCFA4
:1052000043F101013A6B3B6B326BE552E7CFD9FFBB
:105210001200D9CFE6FFE1CFD9FFFD0EDBCF44F17D
:10522000FE0EDBCF45F1050E256E266A44C120F047
:1052300045C121F0BEEC22F020C044F121C045F16F
:1052400001013C6B3D6B336BE552E7CFD9FF120098
:10525000D9CFE6FFE1CFD9FFFD0EDBCF48F1FE0E3F
:10526000DBCF49F10A0E256E266A48C120F049C1FC
:1052700021F0BEEC22F020C048F121C049F101012B
:0E528000406B416B356BE552E7CFD9FF120052
:02528E000F0E01
:10529000946E82681200CF0E9414946E826812008D
:1052A000D9CFE6FFE1CFD9FF040EE126DE6ADD6A41
:1052B000DECF00F0DDCF01F0D890015004E6040EFF
:1052C000005C000E015801E390D0DECFE9FFDDCF96
:1052D000EAFFE00EE926000EEA22EF1C826E020EC3
:1052E000DB6A030EDB6A020EDBCF00F0030EDBCFBE
:1052F00001F0D890015004E6040E005C000E015845
:105300006EE2020EDBCFE9FF030EDBCFEAFFE40E15
:10531000E926000EEA22EF5082143FE1DECF04F0CE
:10532000DDCF05F0D89004360536D8900436053622
:10533000020EDB500424E96E030EDB500520EA6EFA
:10534000D890E936EA36800EE926000EEA22EECF42
:1053500002F0EFCF03F0010E0226000E0322DECF93
:1053600000F0DDCF01F0D89000360136D89000363D
:105370000136020EDB500024E96E030EDB500120E3
:10538000EA6ED890E936EA36800EE926000EEA2267
:1053900002C0EEFF03C0EDFF1BD0DECF00F0DDCF7B
:1053A00001F0D89000360136D89000360136020E52
:1053B000DB500024E96E030EDB500120EA6ED8902A
:1053C000E936EA36800EE926000EEA22EE6AED6A38
:1053D000020EDB2A030E01E286D7DB2A84D7DF2AFE
:1053E000010E01E265D7DB2A63D7040EE15C02E21D
:1053F000E16AE552E16EE552E7CFD9FF1200D9CF5D
:10540000E6FFE1CFD9FF040EE126DE6ADD6ADECFDA
:1054100000F0DDCF01F0D890015004E6020E005CF0
:10542000000E015801E394D0DECFE9FFDDCFEAFFA3
:10543000E00EE926000EEA22EF1C8214826E0F0EA7
:105440008210826E020EDB6A030EDB6A020EDBCF75
:1054500000F0030EDBCF01F0D890015004E6040EFB
:10546000005C000E01586EE2020EDBCFE9FF030E76
:10547000DBCFEAFFE40EE926000EEA22EF508214A9
:105480003FE1DECF04F0DDCF05F0D89004360536DD
:10549000D89004360536020EDB500424E96E030E64
:1054A000DB500520EA6ED890E936EA36800EE92610
:1054B000000EEA22EECF02F0EFCF03F0010E02263B
:1054C000000E0322DECF00F0DDCF01F0D8900036D1
:1054D0000136D89000360136020EDB500024E96E0A
:1054E000030EDB500120EA6ED890E936EA36800ED2
:1054F000E926000EEA2202C0EEFF03C0EDFF1BD03A
:10550000DECF00F0DDCF01F0D89000360136D89024
:1055100000360136020EDB500024E96E030EDB502C
:105520000120EA6ED890E936EA36800EE926000EB0
:10553000EA22EE6AED6A020EDB2A030E01E286D74A
:10554000DB2A84D7DF2A010E01E261D7DB2A5FD78D
:10555000040EE15C02E2E16AE552E16EE552E7CF5A
:10556000D9FF1200D9CFE6FFE1CFD9FF040EE12623
:10557000DE6ADD6ADECF00F0DDCF01F0FD0EDBCFAD
:1055800002F0FE0EDBCF03F001500318E8AE02D0AC
:10559000033404D00250005C035001581DE2020E97
:1055A000DB6A030EDB6A020EDBCF00F0030EDBCFFB
:1055B00001F0D890015004E6EE0E005C000E015898
:1055C00006E2020EDB2A030EEEE3DB2AECD7DF2A2B
:1055D000010ED0E3DB2ACED7040EE15C02E2E16AE1
:1055E000E552E16EE552E7CFD9FF1200D9CFE6FFD1
:1055F000E1CFD9FFFD0EDBCFE9FFFE0EDBCFEAFFE7
:10560000010ED890E936EA36E806FBE1800EE9267D
:10561000000EEA22EE50ED101BE0FD0EDBCFE9FF9D
:10562000FE0EDBCFEAFF010ED890E936EA36E80637
:10563000FBE1800EE926000EEA22EE6AED6AC80E52
:10564000E66EE66A8FDFE552E552010EF36E01D099
:0C565000F36AF46AE552E7CFD9FF1200BC
:04565C00D9CFE6FFBD
:10566000E1CFD9FF020EE126AE50DE6EDD6ADFCF5C
:10567000E6FF6BEC24F0E552050E0101741901E11F
:1056800075515AE0040E741901E1755148E0030E9A
:10569000741901E1755126E0020E741901E175518A
:1056A00016E0745101E1755105E0010E741955E1E0
:1056B000755153E1D9CFE9FFDACFEAFFFE0EEE18BC
:1056C0004EE1ED504CE1786B796B020E44D0D9CFAE
:1056D000E9FFDACFEAFFFE0EEE182CE1ED502AE1E9
:1056E000030E39D078C1E9FF79C1EAFF010ED890E5
:1056F000E936EA36E806FBE1000EE9260F0EEA225B
:10570000DECFEEFFDDCFEDFF0101782B000E792318
:105710007A51785D7B51795922E3040E1CD0D9CFA0
:10572000E9FFDACFEAFFFF0EEE1804E1ED5002E1E7
:10573000050E11D0010E0FD0D9CFE9FFDACFEAFF65
:10574000FF0EEE1807E1ED5005E1010E766F776B65
:10575000746B04D0010E746F01D0746B756B020E04
:10576000E15C02E2E16AE552E16EE552E7CFD9FF82
:105770001200D9CFE6FFE1CFD9FF020EE1260101E9
:10578000010E76196DE177516BE1B90EE66E5B0E95
:10579000E66E050EE66E010EE66E59EC1CF0E55263
:1057A000E552E552E552DE6ADD6ADECF00F0DDCF7C
:1057B00001F001017A51005C7B51015839E2DECFE2
:1057C000E9FFDDCFEAFF010ED890E936EA36E806B8
:1057D000FBE1000EE9260F0EEA22EECF00F0EFCF3C
:1057E00001F0026A036A00C0E6FF01C0E6FF02C0E2
:1057F000E6FF03C0E6FF030E206E216ADECF25F030
:10580000DDCF26F045EC23F01EC004F01FC005F0EC
:10581000040E1E24E66E010EE66E84EC1CF0066E8D
:10582000060EE15E0650DF2A010EBFE3DB2ABDD77C
:1058300074C100F075C101F0026A036A74C1E6FF29
:1058400075C1E6FF02C0E6FF03C0E6FF0F0EE66E7D
:10585000010EE66E84EC1CF0046E060EE15E045050
:10586000020EE15C02E2E16AE552E16EE552E7CF49
:04587000D9FF12004A
:0C587400F28ED08EF28C1200F19CF292A9
:10588000F2881200D8CFE4FFE0CFE4FFE46EDACF75
:10589000E4FFE2CFDAFFE9CFE4FFEACFE4FFF6CF9F
:1058A000E4FFF7CFE4FFF5CFE4FFF3CFE4FFF4CF5D
:1058B000E4FFFACFE4FF00EE18F0140EE80403E36F
:1058C000EECFE4FFFBD700EE00F0180EE80403E390
:1058D000EECFE4FFFBD7E652F2A407D013EC27F09B
:1058E000F29415EC27F0BFEC28F09EA007D0FEEC58
:1058F00027F09E90B8EC27F0CDEC28F09EA207D0C0
:105900001AEC28F09E9216EC28F0DBEC28F0A1A20D
:1059100007D0BDEC28F0A19277EC28F0E9EC28F054
:10592000F2B2F2929EAA03D09E9AB7EC26F0E5520C
:1059300000EE17F0180EE80403E3E5CFEDFFFBD708
:1059400000EE2BF0140EE80403E3E5CFEDFFFBD7E8
:10595000E5CFFAFFE5CFF4FFE5CFF3FFE5CFF5FFA5
:10596000E5CFF7FFE5CFF6FFE5CFEAFFE5CFE9FFAB
:10597000E5CFDAFFE550E5CFE0FFE5CFD8FF100037
:10598000DACFE4FFE2CFDAFFE9CFE4FFEACFE4FFCA
:10599000F6CFE4FFF7CFE4FFF5CFE4FFF3CFE4FF6A
:1059A000F4CFE4FFFACFE4FF00EE18F0140EE804A1
:1059B00003E3EECFE4FFFBD700EE00F0180EE8049F
:1059C00003E3EECFE4FFFBD7E652F2A407D013ECDB
:1059D00027F0F29415EC27F0BFEC28F09EA007D03A
:1059E000FEEC27F09E90B8EC27F0CDEC28F09EA2BC
:1059F00007D01AEC28F09E9216EC28F0DBEC28F089
:105A0000A1A207D0BDEC28F0A19277EC28F0E9EC38
:105A100028F0F2B2F2929EAA03D09E9AB7EC26F03A
:105A2000E55200EE17F0180EE80403E3E5CFEDFFB2
:105A3000FBD700EE2BF0140EE80403E3E5CFEDFFF7
:105A4000FBD7E5CFFAFFE5CFF4FFE5CFF3FFE5CFD6
:105A5000F5FFE5CFF7FFE5CFF6FFE5CFEAFFE5CFAE
:085A6000E9FFE5CFDAFF1100B8
:085A6800206D332F68200D0AA8
:105A700000206D672F6C20464C4F573D2000206D55
:105A8000672F6C204E4F333D20002043204E48347A
:105A90003D2000206D672F6C20544D503D2000208C
