:020000040000FA
:0600000076EF02F0120091
:0A00060001000C050000800000005E
:0400100020000000CC
:0C001400F1D8D59EFD0EDBCF80F0FE0E73
:10002000DBCF81F0D59C05D9D59AD586F28AF2949A
:10003000F184D58EE6D0D59E1200FBD8D58E120065
:10004000DBD8CD90FD0EDBCF82F0FE0EDBCF83F050
:10005000F7D89D809E909F90CD8ECD8CCD98CD9AD7
:10006000CD96CD92CD80CDD0EBD8CD801200CD9065
:100070001200C2D8CA94CC6AFE0EDB500001846F15
:10008000856BCB6E9D829E929F92CA90CA92CA84C3
:10009000B8D084C0CBFFCA841200CA941200ACD876
:1000A000B190FD0EDBCF86F0FE0EDBCF87F0CFD810
:1000B0000750B36ECCD8B5D8B26EA082A192A292EE
:1000C000B18EB198B19AB192B1809BD0C0D8035093
:1000D000B26EBDD89ED8B36EB1801200B19012003E
:1000E0000001902B000E91239851905D99519159E8
:1000F00004E3906B916B010E886F12000001922B4C
:10010000000E93239A51925D9B51935904E3926B95
:10011000936B010E896F12000001942B000E952342
:100120009C51945D9D51955904E3946B956B010E20
:100130008A6F12000001962B000E97239E51965D48
:100140009F51975904E3966B976B010E8B6F1200CA
:1001500053D8FD0EDBCF98F0FE0EDBCF99F00001F7
:10016000906B916B886B4DD047D8FD0EDBCF9AF02A
:10017000FE0EDBCF9BF0050E0D6E0E6A9AC008F0E6
:100180009BC009F03CEC01F008C09AF009C09BF05C
:100190000001926B936B896B34D02ED8FD0EDBCFB0
:1001A0009EF0FE0EDBCF9FF00A0E0D6E0E6A9EC013
:1001B00008F09FC009F03CEC01F008C09EF009C0B7
:1001C0009FF00001966B976B8B6B1BD0186A1650D3
:1001D000135C106E17501458116E18501558126E8B
:1001E0000C6A010E0D6E0E6A10C007F011C008F007
:1001F00012C009F062EF01F0D9CFE6FFE1CFD9FFDD
:100200001200E552E7CFD9FF120013681468156A8F
:10021000120007C010F008C011F009C012F007501A
:10022000120003C010F004C011F005C012F003501A
:10023000120014D80350D66E11D8EBDFD76E12001F
:1002400014D80750CF6E11D8ECDFCE6E1200DDDF70
:1002500086C016F087C017F0E6EF00F0D6DF80C04A
:1002600016F081C017F0E6EF00F0CFDF82C016F085
:0802700083C017F0E6EF00F077
:08027800006A0EAE45EF01F033
:100280000D6C0E1EE86A0E22001E09AE4DEF01F045
:10029000086C091EE86A0922001E41EC02F009BE42
:1002A0005DEF01F000AE000C086C091EE86A09223F
:1002B000046C051EE86A0522000C00BE54EF01F034
:1002C0000188FF0C006A0EAE6DEF01F00C6C0D1E84
:1002D0000E1EE86A0D220E22001E09AE77EF01F015
:1002E000076C081E091EE86A08220922001E24EC79
:1002F00002F009BE8AEF01F000AE000C076C081E88
:10030000091EE86A08220922036C041E051E042245
:0E0310000522000C00BE7EEF01F00188FF0CFC
:02031E00060EC9
:10032000F66E000EF76E000EF86E00010900F55033
:10033000BF6F0900F550C06F03E1BF6701D03DD02A
:100340000900F550BA6F0900F550BB6F0900F55070
:10035000BC6F09000900F550E96E0900F550EA6E1E
:10036000090009000900F550BD6F0900F550BE6F86
:1003700009000900F6CFC1F0F7CFC2F0F8CFC3F003
:10038000BAC0F6FFBBC0F7FFBCC0F8FF0001BD5309
:1003900002E1BE5307E00900F550EE6EBD07F8E23A
:1003A000BE07F9D7C1C0F6FFC2C0F7FFC3C0F8FF50
:0C03B0000001BF07000EC05BBFD71200A9
:0403BC000F0E926E20
:1003C0000B0EC16E040EC06E1200D9CFE6FFE1CF56
:1003D000D9FF020EE126FE0EDB50040DF350C26E73
:1003E000C280C282C2B2FED7C450DE6EDD6ADECFEA
:1003F00012F0DDCF13F0D89012361336D8901236A3
:100400001336060EC3CFE7FF070B04E0E742E79E73
:10041000E806FCE1E7501224106E000E132010C015
:10042000DEFFDD6EDECF10F0DDCF11F010C0F3FF88
:1004300011C0F4FF020EE15C02E2E16AE552E16EF6
:08044000E552E7CFD9FF1200DD
:08044800056A046A036A180E3C
:10045000E76ED89007360836093603360436053677
:100460000C50035C0D5004580E50055807E30C5017
:10047000035E0D50045A0E50055A072AE72EEAD79C
:02048000120068
:0E048200056A046A100EE76ED8900836093637
:10049000043605360D50045C0E50055805E30D502A
:0E04A000045E0E50055A082AE72EF0D712000F
:0204AE00800EBE
:1004B000F36E00EE00F00F0E01D81200EA6002D0D9
:0E04C000EE6AFCD7F350E9601200EE6AFCD73A
:0204CE00B06A12
:1004D000810EAF6EAC8AAC94B886AC98AB8EAB880C
:0C04E0009E9A9D8A9F9A949C948E120014
:0404EC001EEE00F010
:1004F0002EEE00F0F86A019C8FEC01F085EC02F022
:0805000084EC02F0FBD71200AD
:02050800FFD71B
:02050A001200DD
:04050C0000000000EB
:1005100000000000000000000000000000000000DB
:0C052000000000000100010001000100CB
:020000040030CA
:0100010002FC
:0100020003FA
:010003001EDE
:010005008179
:010006008178
:010008000FE8
:01000900C036
:01000A000FE6
:01000B00E014
:01000C000FE4
:01000D0040B2
:00000001FF
