:020000040000FA
:06000000C7EF36F012000C
:020006001200E6
:0600080086EF34F0120047
:02000E000000F0
:0400100000000000EC
:020014000000EA
:0600180008EF34F01200B5
:02001E000900D7
:10002000366E000080000000700000000C6E0000C2
:10003000000100002A0000001400000084010000FC
:1000400002000000046E00007401000008000000BF
:10005000EA6D0000640F00001A00000010000000AC
:100060008001000004000000CA6D00004A01000089
:10007000200000000E0000007E0F000002000000C3
:0C008000AA6D00002A0100002000000012
:04008C000A0E010156
:10009000841901E1855102E1F3EF04F0090E84199E
:1000A00001E1855101E1D6D3080E841901E18551A2
:1000B00001E118D3070E841901E1855101E15AD2FB
:1000C000060E841901E1855101E18BD1050E8419D9
:1000D00001E1855101E1C1D0040E841901E185518E
:1000E00001E01200000EE66EE66AAEEC31F0E55279
:1000F000E552F3CF00F0F4CF01F0F350F41002E03A
:1001000001EF05F0010EE66EE66AAEEC31F0E55265
:10011000E552F3CF00F0F4CF01F0F350F4100BE010
:10012000050E0101846F856BD5EC27F0130EE66E8A
:10013000650E34EF05F0050EE66EE66AAEEC31F0C2
:10014000E552E552F3CF00F0F4CF01F0F350F41094
:1001500023E0100E0101846F856BD5EC27F00C0EA7
:10016000E66E650EE66EE66AE66A45EC26F0E55256
:10017000E552E552E55296EC27F0E80EE66E030EE6
:10018000E66E17EC1FF0E552E552D5EC27F0030EB2
:10019000E66E650E67EF05F0F90EE66E640EE66E2C
:1001A000050EE66EE66A45EC26F0E552E552E552AC
:1001B000E5520101E70ED8800055030E01551DE2FE
:1001C00000C100F001C101F0640E256E266A00C175
:1001D00020F001C121F0A1EC36F020C000F021C0D8
:1001E00001F0026A036A20C0E6FF21C0E6FF02C0F8
:1001F000E6FF03C0E6FF050E1CD000C100F001C100
:1002000001F0640E256E266A00C120F001C121F0C4
:10021000A1EC36F020C000F021C001F0026A036AB0
:1002200020C0E6FF21C0E6FF02C0E6FF03C0E6FFF4
:10023000060EE66EE66A70EC26F0046E060EE15ECF
:10024000045000C100F001C101F0640E256E266A61
:1002500000C120F001C121F0B7D0000EE66EE66AC1
:10026000AEEC31F0E552E552F3CF00F0F4CF01F0FF
:10027000F350F41001E0C5D3010EE66EE66AAEEC71
:1002800031F0E552E552F3CF00F0F4CF01F0F35036
:10029000F4100AE0060E0101846F856BD5EC27F09F
:1002A000E80EE66E640EE0D3050EE66EE66AAEEC8E
:1002B00031F0E552E552F3CF00F0F4CF01F0F35006
:1002C000F41022E0110E0101846F856BD5EC27F04C
:1002D000E10EE66E640EE66EE66AE66A45EC26F02E
:1002E000E552E552E552E55296EC27F0E80EE66E4F
:1002F000030EE66E17EC1FF0E552E552D5EC27F041
:10030000130EE66E650EE3D3F90EE66E640EE66E2E
:10031000050EE66EE66A45EC26F0E552E552E5523A
:10032000E5520101E70ED8800255030E03551DE288
:1003300002C100F003C101F0640E256E266A02C1FD
:1003400020F003C121F0A1EC36F020C000F021C064
:1003500001F0026A036A20C0E6FF21C0E6FF02C086
:10036000E6FF03C0E6FF050E1CD002C100F003C18A
:1003700001F0640E256E266A02C120F003C121F04F
:10038000A1EC36F020C000F021C001F0026A036A3F
:1003900020C0E6FF21C0E6FF02C0E6FF03C0E6FF83
:1003A000060EE66EE66A70EC26F0046E060EE15E5E
:1003B000045002C100F003C101F0640E256E266AEC
:1003C00002C120F003C121F0A1EC36F01CC000F006
:1003D0001DC001F0026A036A1CC0E6FF1DC0E6FFF3
:1003E000D5D3000EE66EE66AAEEC31F0E552E5528A
:1003F000F3CF00F0F4CF01F0F350F41001E001D39B
:10040000010EE66EE66AAEEC31F0E552E552F3CF4E
:1004100000F0F4CF01F0F350F4100AE0070E0101F0
:10042000846F856BD5EC27F0D40EE66E640E1CD37A
:10043000050EE66EE66AAEEC31F0E552E552F3CF1A
:1004400000F0F4CF01F0F350F41022E0120E01019D
:10045000846F856BD5EC27F0CC0EE66E640EE66EED
:10046000E66AE66A45EC26F0E552E552E552E552C9
:1004700096EC27F0E80EE66E030EE66E17EC1FF022
:10048000E552E552D5EC27F0E80EE66E640E1FD378
:10049000C50EE66E640EE66E060EE66EE66A45EC86
:1004A00026F0E552E552E552E55201010F0ED880E3
:1004B0000455270E05551DE204C100F005C101F0E9
:1004C000640E256E266A04C120F005C121F0A1EC5E
:1004D00036F020C000F021C001F0026A036A20C09B
:1004E000E6FF21C0E6FF02C0E6FF03C0E6FF060EFE
:1004F0001CD004C100F005C101F0640E256E266A0F
:1005000004C120F005C121F0A1EC36F020C000F0BC
:1005100021C001F0026A036A20C0E6FF21C0E6FFA5
:1005200002C0E6FF03C0E6FF070EE66EE66A70EC67
:1005300026F0046E060EE15E045004C100F005C111
:1005400001F0640E256E266A04C120F005C121F079
:10055000A1EC36F01CC000F01DC001F0026A036A75
:100560001CC0E6FF1DC0E6FF02C0E6FF03C0E6FFB9
:100570000A0E11D3000EE66EE66AAEEC31F0E552DB
:10058000E552F3CF00F0F4CF01F0F350F41001E0A6
:1005900038D2010EE66EE66AAEEC31F0E552E55275
:1005A000F3CF00F0F4CF01F0F350F4100AE0080E9E
:1005B0000101846F856BD5EC27F0B50EE66E640EF5
:1005C00053D2050EE66EE66AAEEC31F0E552E55226
:1005D000F3CF00F0F4CF01F0F350F41022E0130E4B
:1005E0000101846F856BD5EC27F0AD0EE66E640ECD
:1005F000E66EE66AE66A45EC26F0E552E552E5521B
:10060000E55296EC27F0E80EE66E030EE66E17EC68
:100610001FF0E552E552D5EC27F0D40EE66E640EDD
:1006200056D2F90EE66E640EE66E060EE66EE66AC9
:1006300045EC26F0E552E552E552E5520101E70EA0
:10064000D8800655030E07551DE206C100F007C10C
:1006500001F0640E256E266A06C120F007C121F064
:10066000A1EC36F020C000F021C001F0026A036A5C
:1006700020C0E6FF21C0E6FF02C0E6FF03C0E6FFA0
:10068000060E1CD006C100F007C101F0640E256EF5
:10069000266A06C120F007C121F0A1EC36F020C087
:1006A00000F021C001F0026A036A20C0E6FF21C009
:1006B000E6FF02C0E6FF03C0E6FF070EE66EE66A4D
:1006C00070EC26F0046E060EE15E045006C100F0E8
:1006D00007C101F0640E256E266A06C120F007C12D
:1006E00021F06FD1000EE66EE66AAEEC31F0E55215
:1006F000E552F3CF00F0F4CF01F0F350F41001E035
:1007000080D1010EE66EE66AAEEC31F0E552E552BC
:10071000F3CF00F0F4CF01F0F350F4100AE0090E2B
:100720000101846F856BD5EC27F09D0EE66E640E9B
:100730009BD1050EE66EE66AAEEC31F0E552E5526D
:10074000F3CF00F0F4CF01F0F350F41022E0140ED8
:100750000101846F856BD5EC27F0950EE66E640E73
:10076000E66EE66AE66A45EC26F0E552E552E552A9
:10077000E55296EC27F0E80EE66E030EE66E17ECF7
:100780001FF0E552E552D5EC27F0B50EE66E640E8B
:100790009ED1F90EE66E640EE66E060EE66EE66A11
:1007A00045EC26F0E552E552E552E5520101E70E2F
:1007B000D8800855030E09551DE208C100F009C193
:1007C00001F0640E256E266A08C120F009C121F0EF
:1007D000A1EC36F020C000F021C001F0026A036AEB
:1007E00020C0E6FF21C0E6FF02C0E6FF03C0E6FF2F
:1007F000060E1CD008C100F009C101F0640E256E80
:10080000266A08C120F009C121F0A1EC36F020C011
:1008100000F021C001F0026A036A20C0E6FF21C097
:10082000E6FF02C0E6FF03C0E6FF070EE66EE66ADB
:1008300070EC26F0046E060EE15E045008C100F074
:1008400009C101F0640E256E266A08C120F009C1B5
:1008500021F0B7D0000EE66EE66AAEEC31F0E5525C
:10086000E552F3CF00F0F4CF01F0F350F41001E0C3
:10087000C8D0010EE66EE66AAEEC31F0E552E55204
:10088000F3CF00F0F4CF01F0F350F4100AE00A0EB9
:100890000101846F856BD5EC27F0860EE66E640E41
:1008A000E3D0050EE66EE66AAEEC31F0E552E552B5
:1008B000F3CF00F0F4CF01F0F350F41022E0150E66
:1008C0000101846F856BD5EC27F07E0EE66E640E19
:1008D000E66EE66AE66A45EC26F0E552E552E55238
:1008E000E55296EC27F0E80EE66E030EE66E17EC86
:1008F0001FF0E552E552D5EC27F09D0EE66E640E32
:10090000E6D0F90EE66E640EE66E060EE66EE66A58
:1009100045EC26F0E552E552E552E5520101E70EBD
:10092000D8800A55030E0B551DE20AC100F00BC119
:1009300001F0640E256E266A0AC120F00BC121F079
:10094000A1EC36F020C000F021C001F0026A036A79
:1009500020C0E6FF21C0E6FF02C0E6FF03C0E6FFBD
:10096000060E1CD00AC100F00BC101F0640E256E0A
:10097000266A0AC120F00BC121F0A1EC36F020C09C
:1009800000F021C001F0026A036A20C0E6FF21C026
:10099000E6FF02C0E6FF03C0E6FF070EE66EE66A6A
:1009A00070EC26F0046E060EE15E04500AC100F001
:1009B0000BC101F0640E256E266A0AC120F00BC13E
:1009C00021F0A1EC36F01CC000F01DC001F0026A5D
:1009D000036A1CC0E6FF1DC0E6FF02C0E6FF03C0BD
:1009E000E6FF090ED8D0000EE66EE66AAEEC31F0F6
:1009F000E552E552F3CF00F0F4CF01F0F350F410DC
:100A00001CE0010E0101846F856BD5EC27F0220EEE
:100A1000E66E650EE66EE66AE66A45EC26F0E5529D
:100A2000E552E552E55296EC27F0C80EE66EE66A0E
:100A300017EC1FF0E552E5521200010EE66EE66A71
:100A4000AEEC31F0E552E552F3CF00F0F4CF01F017
:100A5000F350F4100DE0040E0101846F856BD5ECAA
:100A600027F0030EE66E650EE66EE66AE66A3FD094
:100A7000050EE66EE66AAEEC31F0E552E552F3CFD4
:100A800000F0F4CF01F0F350F41038E0160E01013D
:100A9000846F856BD5EC27F0750EE66E640EE66EFE
:100AA000E66AE66A45EC26F0E552E552E552E55283
:100AB00096EC27F0E80EE66E030EE66E17EC1FF0DC
:100AC000E552E552D5EC27F0860EE66E640EE66E32
:100AD000E66AE66A45EC26F0E552E552E552E55253
:100AE000FF0EE66E640EE66EE66A010EE66E45ECFB
:100AF00026F0E552E552E552E55255D0710EE66E0C
:100B0000640EE66E070EE66EE66A45EC26F0E552E8
:100B1000E552E552E55201010F0ED8800C55270E23
:100B20000D551DE20CC100F00DC101F0640E256EE3
:100B3000266A0CC120F00DC121F0A1EC36F020C0D6
:100B400000F021C001F0026A036A20C0E6FF21C064
:100B5000E6FF02C0E6FF03C0E6FF070E1CD00CC193
:100B600000F00DC101F0640E256E266A0CC120F064
:100B70000DC121F0A1EC36F020C000F021C001F041
:100B8000026A036A20C0E6FF21C0E6FF02C0E6FF5A
:100B900003C0E6FF080EE66EE66A70EC26F0046E0F
:100BA000060EE15E045096EF27F01A0E010184193B
:100BB00001E1855101E11DD1100E841901E185513A
:100BC00001E01200000EE66EE66AAEEC31F0E5528E
:100BD000E552F3CF00F0F4CF01F0F350F4101CE035
:100BE000010E0101846F856BD5EC27F0220EE66EB5
:100BF000650EE66EE66AE66A45EC26F0E552E552D9
:100C0000E552E55296EC27F0C80EE66EE66A17EC60
:100C10001FF0E552E5521200010EE66EE66AAEECF8
:100C200031F0E552E552F3CF00F0F4CF01F0F3508C
:100C3000F4100DE0050E0101846F856BD5EC27F0F3
:100C4000680EE66E640EE66EE66AE66A19D0050E78
:100C5000E66EE66AAEEC31F0E552E552F3CF00F015
:100C6000F4CF01F0F350F41013E01A0E0101846F79
:100C7000856B640EE66E640EE66EE66A010EE66E45
:100C800045EC26F0E552E552E552E55296EF27F0A5
:100C9000030EE66EE66AAEEC31F0E552E552F3CFB4
:100CA00000F0F4CF01F0F350F4100DE001016E0EEE
:100CB000D8800E55050E0F5501E29AD00A0E0E2768
:100CC000000E0F231200070EE66EE66AAEEC31F05E
:100CD000E552E552F3CF00F0F4CF01F0F350F410F9
:100CE0000CE001010A0E0E5D000E0F5901E280D0EA
:100CF0000A0E0E5F000E0F5B1200F90EE66E640E18
:100D0000E66E050EE66EE66A45EC26F0E552E55223
:100D1000E552E5520101E70ED8800E55030E0F553E
:100D20001DE20EC100F00FC101F0640E256E266AAF
:100D30000EC120F00FC121F0A1EC36F020C000F070
:100D400021C001F0026A036A20C0E6FF21C0E6FF6D
:100D500002C0E6FF03C0E6FF050E1CD00EC100F086
:100D60000FC101F0640E256E266A0EC120F00FC17E
:100D700021F0A1EC36F020C000F021C001F0026AA1
:100D8000036A20C0E6FF21C0E6FF02C0E6FF03C001
:100D9000E6FF060EE66EE66A70EC26F0046E060EBE
:100DA000E15E04500EC100F00FC101F0640E256E2B
:100DB000266A0EC120F00FC121F0A1EC36F01CC054
:100DC00000F01DC001F0026A036A1CC0E6FF1DC0EE
:100DD000E6FF02C0E6FF03C0E6FF080EE66EE66A25
:100DE00070EC26F0046E060EE15E045096EC27F0DF
:100DF0001200000EE66EE66AAEEC31F0E552E55206
:100E0000F3CF00F0F4CF01F0F350F4101CE0010E2A
:100E10000101846F856BD5EC27F0220EE66E650E1E
:100E2000E66EE66AE66A45EC26F0E552E552E552E2
:100E3000E55296EC27F0C80EE66EE66A17EC1FF056
:100E4000E552E5521200010EE66EE66AAEEC31F0B4
:100E5000E552E552F3CF00F0F4CF01F0F350F41077
:100E60000DE0050E0101846F856BD5EC27F0130EA4
:100E7000E66E650EE66EE66AE66A19D0050EE66E67
:100E8000E66AAEEC31F0E552E552F3CF00F0F4CF74
:100E900001F0F350F41013E0100E0101846F856B24
:100EA000FF0EE66E640EE66EE66A010EE66E45EC37
:100EB00026F0E552E552E552E55296EF27F0030E93
:100EC000E66EE66AAEEC31F0E552E552F3CF00F0A3
:100ED000F4CF01F0F350F4100DE001016E0ED88054
:100EE0001055050E115501E29AD00A0E1027000E7A
:100EF00011231200070EE66EE66AAEEC31F0E55201
:100F0000E552F3CF00F0F4CF01F0F350F4100CE011
:100F100001010A0E105D000E115901E280D00A0E87
:100F2000105F000E115B1200F90EE66E640EE66EA5
:100F3000050EE66EE66A45EC26F0E552E552E5520E
:100F4000E5520101E70ED8801055030E11551DE240
:100F500010C100F011C101F0640E256E266A10C1A7
:100F600020F011C121F0A1EC36F020C000F021C02A
:100F700001F0026A036A20C0E6FF21C0E6FF02C05A
:100F8000E6FF03C0E6FF050E1CD010C100F011C142
:100F900001F0640E256E266A10C120F011C121F007
:100FA000A1EC36F020C000F021C001F0026A036A13
:100FB00020C0E6FF21C0E6FF02C0E6FF03C0E6FF57
:100FC000060EE66EE66A70EC26F0046E060EE15E32
:100FD000045010C100F011C101F0640E256E266AA4
:100FE00010C120F011C121F0A1EC36F01CC000F0BE
:100FF0001DC001F0026A036A1CC0E6FF1DC0E6FFC7
:1010000002C0E6FF03C0E6FF080EE66EE66A70EC7B
:1010100026F0046E060EE15E045096EC27F01200F6
:101020001B0E0101841901E1855101E11DD1110E51
:10103000841901E1855101E01200000EE66EE66AB6
:10104000AEEC31F0E552E552F3CF00F0F4CF01F011
:10105000F350F4101CE0010E0101846F856BD5EC98
:1010600027F0220EE66E650EE66EE66AE66A45EC4D
:1010700026F0E552E552E552E55296EC27F0C80E0F
:10108000E66EE66A17EC1FF0E552E5521200010E1B
:10109000E66EE66AAEEC31F0E552E552F3CF00F0D1
:1010A000F4CF01F0F350F4100DE0060E0101846F4F
:1010B000856BD5EC27F0E80EE66E640EE66EE66A08
:1010C000E66A19D0050EE66EE66AAEEC31F0E5523E
:1010D000E552F3CF00F0F4CF01F0F350F41013E039
:1010E0001B0E0101846F856B640EE66E640EE66E66
:1010F000E66A010EE66E45EC26F0E552E552E55251
:10110000E55296EF27F0030EE66EE66AAEEC31F09C
:10111000E552E552F3CF00F0F4CF01F0F350F410B4
:101120000DE00101480ED8801255260E135501E23C
:101130009AD0640E1227000E13231200070EE66EDB
:10114000E66AAEEC31F0E552E552F3CF00F0F4CFB1
:1011500001F0F350F4100CE00101640E125D000E7A
:10116000135901E280D0640E125F000E135B12006F
:10117000F90EE66E640EE66E050EE66EE66A45EC66
:1011800026F0E552E552E552E5520101E70ED8801E
:101190001255030E13551DE212C100F013C101F0E8
:1011A000640E256E266A12C120F013C121F0A1EC55
:1011B00036F020C000F021C001F0026A036A20C0AE
:1011C000E6FF21C0E6FF02C0E6FF03C0E6FF050E12
:1011D0001CD012C100F013C101F0640E256E266A06
:1011E00012C120F013C121F0A1EC36F020C000F0B4
:1011F00021C001F0026A036A20C0E6FF21C0E6FFB9
:1012000002C0E6FF03C0E6FF060EE66EE66A70EC7B
:1012100026F0046E060EE15E045012C100F013C108
:1012200001F0640E256E266A12C120F013C121F070
:10123000A1EC36F01CC000F01DC001F0026A036A88
:101240001CC0E6FF1DC0E6FF02C0E6FF03C0E6FFCC
:10125000080EE66EE66A70EC26F0046E060EE15E9D
:10126000045096EC27F01200000EE66EE66AAEEC33
:1012700031F0E552E552F3CF00F0F4CF01F0F35036
:10128000F4101CE0010E0101846F856BD5EC27F092
:10129000220EE66E650EE66EE66AE66A45EC26F01C
:1012A000E552E552E552E55296EC27F0C80EE66E9F
:1012B000E66A17EC1FF0E552E5521200010EE66EE9
:1012C000E66AAEEC31F0E552E552F3CF00F0F4CF30
:1012D00001F0F350F4100DE0060E0101846F856BF0
:1012E000D5EC27F0E80EE66E640EE66EE66AE66A76
:1012F00019D0050EE66EE66AAEEC31F0E552E55225
:10130000F3CF00F0F4CF01F0F350F41013E0110E1E
:101310000101846F856BFF0EE66E640EE66EE66A71
:10132000010EE66E45EC26F0E552E552E552E55237
:1013300096EF27F0030EE66EE66AAEEC31F0E5526A
:10134000E552F3CF00F0F4CF01F0F350F4100DE0CC
:101350000101480ED8801455260E155501E29AD089
:10136000640E1427000E15231200070EE66EE66ABF
:10137000AEEC31F0E552E552F3CF00F0F4CF01F0DE
:10138000F350F4100CE00101640E145D000E1559C9
:1013900001E280D0640E145F000E155B1200F90E9E
:1013A000E66E640EE66E050EE66EE66A45EC26F025
:1013B000E552E552E552E5520101E70ED880145599
:1013C000030E15551DE214C100F015C101F0640EA5
:1013D000256E266A14C120F015C121F0A1EC36F06B
:1013E00020C000F021C001F0026A036A20C0E6FFBD
:1013F00021C0E6FF02C0E6FF03C0E6FF050E1CD0D9
:1014000014C100F015C101F0640E256E266A14C1E6
:1014100020F015C121F0A1EC36F020C000F021C071
:1014200001F0026A036A20C0E6FF21C0E6FF02C0A5
:10143000E6FF03C0E6FF060EE66EE66A70EC26F0F5
:10144000046E060EE15E045014C100F015C101F0F7
:10145000640E256E266A14C120F015C121F0A1EC9E
:1014600036F01CC000F01DC001F0026A036A1CC007
:10147000E6FF1DC0E6FF02C0E6FF03C0E6FF080E60
:10148000E66EE66A70EC26F0046E060EE15E04502D
:1014900096EC27F012001C0E0101841901E1855120
:1014A00001E128D1120E841901E1855101E01200F9
:1014B000000EE66EE66AAEEC31F0E552E552F3CF8F
:1014C00000F0F4CF01F0F350F4101CE0010E010124
:1014D000846F856BD5EC27F0220EE66E650EE66E06
:1014E000E66AE66A45EC26F0E552E552E552E55239
:1014F00096EC27F0C80EE66EE66A17EC1FF0E55290
:10150000E5521200010EE66EE66AAEEC31F0E552ED
:10151000E552F3CF00F0F4CF01F0F350F4100DE0FA
:10152000070E0101846F856BD5EC27F0D40EE66EB3
:10153000640EE66EE66AE66A19D0050EE66EE66AA5
:10154000AEEC31F0E552E552F3CF00F0F4CF01F00C
:10155000F350F41013E01C0E0101846F856B640ED0
:10156000E66E640EE66EE66A010EE66E45EC26F067
:10157000E552E552E552E55296EF27F0030EE66E8E
:10158000E66AAEEC31F0E552E552F3CF00F0F4CF6D
:1015900001F0F350F41018E016C100F017C101F08B
:1015A000026A0234010E021807E6D880D80E0054F1
:1015B000850E0154010E025401E29BD0640E01011C
:1015C0001627000E17231200070EE66EE66AAEEC31
:1015D00031F0E552E552F3CF00F0F4CF01F0F350D3
:1015E000F4100CE001014C0E165D040E175901E2D7
:1015F00080D0640E165F000E175B1200C50EE66EFB
:10160000640EE66E060EE66EE66A45EC26F0E552DE
:10161000E552E552E55201010F0ED8801655270E0E
:1016200017551DE216C100F017C101F0640E256EBA
:10163000266A16C120F017C121F0A1EC36F020C0B7
:1016400000F021C001F0026A036A20C0E6FF21C059
:10165000E6FF02C0E6FF03C0E6FF060E1CD016C17F
:1016600000F017C101F0640E256E266A16C120F045
:1016700017C121F0A1EC36F020C000F021C001F02C
:10168000026A036A20C0E6FF21C0E6FF02C0E6FF4F
:1016900003C0E6FF070EE66EE66A70EC26F0046E05
:1016A000060EE15E045016C100F017C101F0640E91
:1016B000256E266A16C120F017C121F0A1EC36F084
:1016C0001CC000F01DC001F0026A036A1CC0E6FFE6
:1016D0001DC0E6FF02C0E6FF03C0E6FF0A0EE66E8D
:1016E000E66A70EC26F0046E060EE15E045096EC9D
:1016F00027F01200000EE66EE66AAEEC31F0E5521D
:10170000E552F3CF00F0F4CF01F0F350F4101CE0F9
:10171000010E0101846F856BD5EC27F0220EE66E79
:10172000650EE66EE66AE66A45EC26F0E552E5529D
:10173000E552E55296EC27F0C80EE66EE66A17EC25
:101740001FF0E552E5521200010EE66EE66AAEECBD
:1017500031F0E552E552F3CF00F0F4CF01F0F35051
:10176000F4100DE0070E0101846F856BD5EC27F0B6
:10177000D40EE66E640EE66EE66AE66A19D0050ED1
:10178000E66EE66AAEEC31F0E552E552F3CF00F0DA
:10179000F4CF01F0F350F41013E0120E0101846F46
:1017A000856BFF0EE66E640EE66EE66A010EE66E6F
:1017B00045EC26F0E552E552E552E55296EF27F06A
:1017C000030EE66EE66AAEEC31F0E552E552F3CF79
:1017D00000F0F4CF01F0F350F41018E018C100F05D
:1017E00019C101F0026A0234010E021807E6D8801E
:1017F000D80E0054850E0154010E025401E29BD014
:10180000640E01011827000E19231200070EE66E60
:10181000E66AAEEC31F0E552E552F3CF00F0F4CFDA
:1018200001F0F350F4100CE001014C0E185D040EB1
:10183000195901E280D0640E185F000E195B120086
:10184000C50EE66E640EE66E060EE66EE66A45ECC2
:1018500026F0E552E552E552E55201010F0ED8801F
:101860001855270E19551DE218C100F019C101F0D5
:10187000640E256E266A18C120F019C121F0A1EC72
:1018800036F020C000F021C001F0026A036A20C0D7
:10189000E6FF21C0E6FF02C0E6FF03C0E6FF060E3A
:1018A0001CD018C100F019C101F0640E256E266A23
:1018B00018C120F019C121F0A1EC36F020C000F0D1
:1018C00021C001F0026A036A20C0E6FF21C0E6FFE2
:1018D00002C0E6FF03C0E6FF070EE66EE66A70ECA4
:1018E00026F0046E060EE15E045018C100F019C126
:1018F00001F0640E256E266A18C120F019C121F08E
:10190000A1EC36F01CC000F01DC001F0026A036AB1
:101910001CC0E6FF1DC0E6FF02C0E6FF03C0E6FFF5
:101920000A0EE66EE66A70EC26F0046E060EE15EC4
:10193000045096EC27F012001D0E0101841901E1FC
:10194000855101E11DD1130E841901E1855101E09A
:101950001200000EE66EE66AAEEC31F0E552E5529A
:10196000F3CF00F0F4CF01F0F350F4101CE0010EBF
:101970000101846F856BD5EC27F0220EE66E650EB3
:10198000E66EE66AE66A45EC26F0E552E552E55277
:10199000E55296EC27F0C80EE66EE66A17EC1FF0EB
:1019A000E552E5521200010EE66EE66AAEEC31F049
:1019B000E552E552F3CF00F0F4CF01F0F350F4100C
:1019C0000DE0080E0101846F856BD5EC27F0B50E94
:1019D000E66E640EE66EE66AE66A19D0050EE66EFD
:1019E000E66AAEEC31F0E552E552F3CF00F0F4CF09
:1019F00001F0F350F41013E01D0E0101846F856BAC
:101A0000640EE66E640EE66EE66A010EE66E45EC66
:101A100026F0E552E552E552E55296EF27F0030E27
:101A2000E66EE66AAEEC31F0E552E552F3CF00F037
:101A3000F4CF01F0F350F4100DE00101480ED8800E
:101A40001A55260E1B5501E29AD0640E1A27000E75
:101A50001B231200070EE66EE66AAEEC31F0E5528B
:101A6000E552F3CF00F0F4CF01F0F350F4100CE0A6
:101A70000101640E1A5D000E1B5901E280D0640E54
:101A80001A5F000E1B5B1200F90EE66E640EE66E26
:101A9000060EE66EE66A45EC26F0E552E552E552A2
:101AA000E5520101E70ED8801A55030E1B551DE2C1
:101AB0001AC100F01BC101F0640E256E266A1AC11E
:101AC00020F01BC121F0A1EC36F020C000F021C0B5
:101AD00001F0026A036A20C0E6FF21C0E6FF02C0EF
:101AE000E6FF03C0E6FF060E1CD01AC100F01BC1C2
:101AF00001F0640E256E266A1AC120F01BC121F088
:101B0000A1EC36F020C000F021C001F0026A036AA7
:101B100020C0E6FF21C0E6FF02C0E6FF03C0E6FFEB
:101B2000070EE66EE66A70EC26F0046E060EE15EC5
:101B300004501AC100F01BC101F0640E256E266A24
:101B40001AC120F01BC121F0A1EC36F01CC000F03E
:101B50001DC001F0026A036A1CC0E6FF1DC0E6FF5B
:101B600002C0E6FF03C0E6FF090EE66EE66A70EC0F
:101B700026F0046E060EE15E045096EC27F012008B
:101B8000000EE66EE66AAEEC31F0E552E552F3CFB8
:101B900000F0F4CF01F0F350F4101CE0010E01014D
:101BA000846F856BD5EC27F0220EE66E650EE66E2F
:101BB000E66AE66A45EC26F0E552E552E552E55262
:101BC00096EC27F0C80EE66EE66A17EC1FF0E552B9
:101BD000E5521200010EE66EE66AAEEC31F0E55217
:101BE000E552F3CF00F0F4CF01F0F350F4100DE024
:101BF000080E0101846F856BD5EC27F0B50EE66EFB
:101C0000640EE66EE66AE66A19D0050EE66EE66ACE
:101C1000AEEC31F0E552E552F3CF00F0F4CF01F035
:101C2000F350F41013E0130E0101846F856BFF0E67
:101C3000E66E640EE66EE66A010EE66E45EC26F090
:101C4000E552E552E552E55296EF27F0030EE66EB7
:101C5000E66AAEEC31F0E552E552F3CF00F0F4CF96
:101C600001F0F350F4100DE00101480ED8801C552E
:101C7000260E1D5501E29AD0640E1C27000E1D236E
:101C80001200070EE66EE66AAEEC31F0E552E55260
:101C9000F3CF00F0F4CF01F0F350F4100CE00101A9
:101CA000640E1C5D000E1D5901E280D0640E1C5FA5
:101CB000000E1D5B1200F90EE66E640EE66E060E57
:101CC000E66EE66A45EC26F0E552E552E552E5524D
:101CD0000101E70ED8801A55030E1B551DE21CC1E9
:101CE00000F01DC101F0640E256E266A1CC120F0B3
:101CF0001DC121F0A1EC36F020C000F021C001F0A0
:101D0000026A036A20C0E6FF21C0E6FF02C0E6FFC8
:101D100003C0E6FF060E1CD01CC100F01DC101F07F
:101D2000640E256E266A1CC120F01DC121F0A1ECB5
:101D300036F020C000F021C001F0026A036A20C022
:101D4000E6FF21C0E6FF02C0E6FF03C0E6FF070E84
:101D5000E66EE66A70EC26F0046E060EE15E045054
:101D60001CC100F01DC101F0640E256E266A1CC165
:101D700020F01DC121F0A1EC36F01CC000F01DC008
:101D800001F0026A036A1CC0E6FF1DC0E6FF02C044
:101D9000E6FF03C0E6FF090EE66EE66A70EC26F089
:101DA000046E060EE15E045096EC27F012001E0E43
:101DB0000101841901E1855101E11DD1140E84193D
:101DC00001E1855101E01200000EE66EE66AAEEC1C
:101DD00031F0E552E552F3CF00F0F4CF01F0F350CB
:101DE000F4101CE0010E0101846F856BD5EC27F027
:101DF000220EE66E650EE66EE66AE66A45EC26F0B1
:101E0000E552E552E552E55296EC27F0C80EE66E33
:101E1000E66A17EC1FF0E552E5521200010EE66E7D
:101E2000E66AAEEC31F0E552E552F3CF00F0F4CFC4
:101E300001F0F350F4100DE0090E0101846F856B81
:101E4000D5EC27F09D0EE66E640EE66EE66AE66A55
:101E500019D0050EE66EE66AAEEC31F0E552E552B9
:101E6000F3CF00F0F4CF01F0F350F41013E01E0EA6
:101E70000101846F856B640EE66E640EE66EE66AA1
:101E8000010EE66E45EC26F0E552E552E552E552CC
:101E900096EF27F0030EE66EE66AAEEC31F0E552FF
:101EA000E552F3CF00F0F4CF01F0F350F4100DE061
:101EB0000101C60ED8801E55070E1F5501E29AD0AB
:101EC0000A0E1E27000E1F231200070EE66EE66A9A
:101ED000AEEC31F0E552E552F3CF00F0F4CF01F073
:101EE000F350F4100CE001010A0E1E5D000E1F59A4
:101EF00001E280D00A0E1E5F000E1F5B1200F90E79
:101F0000E66E640EE66E060EE66EE66A45EC26F0B8
:101F1000E552E552E552E5520101E70ED8801E5523
:101F2000030E1F551DE21EC100F01FC101F0640E1B
:101F3000256E266A1EC120F01FC121F0A1EC36F0EB
:101F400020C000F021C001F0026A036A20C0E6FF51
:101F500021C0E6FF02C0E6FF03C0E6FF060E1CD06C
:101F60001EC100F01FC101F0640E256E266A1EC15D
:101F700020F01FC121F0A1EC36F020C000F021C0FC
:101F800001F0026A036A20C0E6FF21C0E6FF02C03A
:101F9000E6FF03C0E6FF070EE66EE66A70EC26F089
:101FA000046E060EE15E04501EC100F01FC101F078
:101FB000640E256E266A1EC120F01FC121F0A1EC1F
:101FC00036F01CC000F01DC001F0026A036A1CC09C
:101FD000E6FF1DC0E6FF02C0E6FF03C0E6FF090EF4
:101FE000E66EE66A70EC26F0046E060EE15E0450C2
:101FF00096EC27F01200000EE66EE66AAEEC31F0C9
:10200000E552E552F3CF00F0F4CF01F0F350F410B5
:102010001CE0010E0101846F856BD5EC27F0220EC8
:10202000E66E650EE66EE66AE66A45EC26F0E55277
:10203000E552E552E55296EC27F0C80EE66EE66AE8
:1020400017EC1FF0E552E5521200010EE66EE66A4B
:10205000AEEC31F0E552E552F3CF00F0F4CF01F0F1
:10206000F350F4100DE0090E0101846F856BD5EC7F
:1020700027F09D0EE66E640EE66EE66AE66A19D0FB
:10208000050EE66EE66AAEEC31F0E552E552F3CFAE
:1020900000F0F4CF01F0F350F41013E0140E01013E
:1020A000846F856BFF0EE66E640EE66EE66A010EC7
:1020B000E66E45EC26F0E552E552E552E55296EF24
:1020C00027F0030EE66EE66AAEEC31F0E552E5521B
:1020D000F3CF00F0F4CF01F0F350F4100DE0010164
:1020E000C60ED8802055070E215501E29AD00A0E5F
:1020F0002027000E21231200070EE66EE66AAEECE2
:1021000031F0E552E552F3CF00F0F4CF01F0F35097
:10211000F4100CE001010A0E205D000E215901E2CD
:1021200080D00A0E205F000E215B1200F90EE66ED1
:10213000640EE66E060EE66EE66A45EC26F0E552A3
:10214000E552E552E5520101E70ED8802055030E15
:1021500021551DE220C100F021C101F0640E256E61
:10216000266A20C120F021C121F0A1EC36F020C068
:1021700000F021C001F0026A036A20C0E6FF21C01E
:10218000E6FF02C0E6FF03C0E6FF060E1CD020C13A
:1021900000F021C101F0640E256E266A20C120F0F6
:1021A00021C121F0A1EC36F020C000F021C001F0E7
:1021B000026A036A20C0E6FF21C0E6FF02C0E6FF14
:1021C00003C0E6FF070EE66EE66A70EC26F0046ECA
:1021D000060EE15E045020C100F021C101F0640E42
:1021E000256E266A20C120F021C121F0A1EC36F035
:1021F0001CC000F01DC001F0026A036A1CC0E6FFAB
:102200001DC0E6FF02C0E6FF03C0E6FF090EE66E52
:10221000E66A70EC26F0046E060EE15E045096EC61
:1022200027F012001F0E0101841901E1855101E11F
:102230001DD1150E841901E1855101E01200000E37
:10224000E66EE66AAEEC31F0E552E552F3CF00F00F
:10225000F4CF01F0F350F4101CE0010E0101846F83
:10226000856BD5EC27F0220EE66E650EE66EE66A0B
:10227000E66A45EC26F0E552E552E552E55296EC69
:1022800027F0C80EE66EE66A17EC1FF0E552E5523D
:102290001200010EE66EE66AAEEC31F0E552E55250
:1022A000F3CF00F0F4CF01F0F350F4100DE00A0E7C
:1022B0000101846F856BD5EC27F0540EE66E640E39
:1022C000E66EE66AE66A19D0050EE66EE66AAEECE0
:1022D00031F0E552E552F3CF00F0F4CF01F0F350C6
:1022E000F41013E01F0E0101846F856B640EE66E1F
:1022F000640EE66EE66A010EE66E45EC26F0E552E7
:10230000E552E552E55296EF27F0030EE66EE66AD7
:10231000AEEC31F0E552E552F3CF00F0F4CF01F02E
:10232000F350F4100DE00101C60ED8802255070EBF
:10233000235501E29AD00A0E2227000E2323120011
:10234000070EE66EE66AAEEC31F0E552E552F3CFE9
:1023500000F0F4CF01F0F350F4100CE001010A0E8C
:10236000225D000E235901E280D00A0E225F000E8A
:10237000235B1200F90EE66E640EE66E060EE66E44
:10238000E66A45EC26F0E552E552E552E5520101D8
:10239000E70ED8802255030E23551DE222C100F01E
:1023A00023C101F0640E256E266A22C120F023C1EC
:1023B00021F0A1EC36F020C000F021C001F0026A4B
:1023C000036A20C0E6FF21C0E6FF02C0E6FF03C0AB
:1023D000E6FF060E1CD022C100F023C101F0640EFE
:1023E000256E266A22C120F023C121F0A1EC36F02F
:1023F00020C000F021C001F0026A036A20C0E6FF9D
:1024000021C0E6FF02C0E6FF03C0E6FF070EE66E4E
:10241000E66A70EC26F0046E060EE15E045022C1FE
:1024200000F023C101F0640E256E266A22C120F05F
:1024300023C121F0A1EC36F01CC000F01DC001F05A
:10244000026A036A1CC0E6FF1DC0E6FF02C0E6FF89
:1024500003C0E6FF090EE66EE66A70EC26F0046E35
:10246000060EE15E045096EC27F01200000EE66EB8
:10247000E66AAEEC31F0E552E552F3CF00F0F4CF6E
:1024800001F0F350F4101CE0010E0101846F856B24
:10249000D5EC27F0220EE66E650EE66EE66AE66A79
:1024A00045EC26F0E552E552E552E55296EC27F070
:1024B000C80EE66EE66A17EC1FF0E552E552120010
:1024C000010EE66EE66AAEEC31F0E552E552F3CF6E
:1024D00000F0F4CF01F0F350F4100DE00A0E01010A
:1024E000846F856BD5EC27F0540EE66E640EE66EB5
:1024F000E66AE66A19D0050EE66EE66AAEEC31F0E1
:10250000E552E552F3CF00F0F4CF01F0F350F410B0
:1025100013E0150E0101846F856BFF0EE66E640EED
:10252000E66EE66A010EE66E45EC26F0E552E552EF
:10253000E552E55296EF27F0030EE66EE66AAEEC42
:1025400031F0E552E552F3CF00F0F4CF01F0F35053
:10255000F4100DE00101C60ED8802455070E255554
:1025600001E29AD00A0E2427000E25231200070E3E
:10257000E66EE66AAEEC31F0E552E552F3CF00F0DC
:10258000F4CF01F0F350F4100CE001010A0E245DC9
:10259000000E255901E280D00A0E245F000E255B53
:1025A0001200F90EE66E640EE66E060EE66EE66A40
:1025B00045EC26F0E552E552E552E5520101E70E01
:1025C000D8802455030E25551DE224C100F025C1F5
:1025D00001F0640E256E266A24C120F025C121F089
:1025E000A1EC36F020C000F021C001F0026A036ABD
:1025F00020C0E6FF21C0E6FF02C0E6FF03C0E6FF01
:10260000060E1CD024C100F025C101F0640E256E19
:10261000266A24C120F025C121F0A1EC36F020C0AB
:1026200000F021C001F0026A036A20C0E6FF21C069
:10263000E6FF02C0E6FF03C0E6FF070EE66EE66AAD
:1026400070EC26F0046E060EE15E045024C100F02A
:1026500025C101F0640E256E266A24C120F025C133
:1026600021F0A1EC36F01CC000F01DC001F0026AA0
:10267000036A1CC0E6FF1DC0E6FF02C0E6FF03C000
:10268000E6FF090EE66EE66A70EC26F0046E060EB2
:10269000E15E045096EC27F01200200E010184192F
:1026A00001E1855101E102D1160E841901E1855144
:1026B00001E01200000EE66EE66AAEEC31F0E55283
:1026C000E552F3CF00F0F4CF01F0F350F4101CE02A
:1026D000010E0101846F856BD5EC27F0220EE66EAA
:1026E000650EE66EE66AE66A45EC26F0E552E552CE
:1026F000E552E55296EC27F0C80EE66EE66A17EC56
:102700001FF0E552E5521200010EE66EE66AAEECED
:1027100031F0E552E552F3CF00F0F4CF01F0F35081
:10272000F4100DE0040E0101846F856BD5EC27F0E9
:10273000030EE66E650EE66EE66AE66A19D0050ED1
:10274000E66EE66AAEEC31F0E552E552F3CF00F00A
:10275000F4CF01F0F350F41013E0200E0101846F68
:10276000856B640EE66E640EE66EE66A010EE66E3A
:1027700045EC26F0E552E552E552E55296EF27F09A
:10278000030EE66EE66AAEEC31F0E552E552F3CFA9
:1027900000F0F4CF01F0F350F41017E026C100F080
:1027A00027C101F0026A0234010E021807E6D88040
:1027B000D80E0054850E0154010E025476E3640EC7
:1027C00001012627000E27231200070EE66EE66A97
:1027D000AEEC31F0E552E552F3CF00F0F4CF01F06A
:1027E000F350F4100BE001014C0E265D040E275946
:1027F0005CE3640E265F000E275B1200710EE66E2E
:10280000640EE66E070EE66EE66A45EC26F0E552CB
:10281000E552E552E55201010F0ED8802655270EEC
:1028200027551DE226C100F027C101F0640E256E78
:10283000266A26C120F027C121F0A1EC36F020C085
:1028400000F021C001F0026A036A20C0E6FF21C047
:10285000E6FF02C0E6FF03C0E6FF070E1CD026C15C
:1028600000F027C101F0640E256E266A26C120F013
:1028700027C121F0A1EC36F020C000F021C001F00A
:10288000026A036A20C0E6FF21C0E6FF02C0E6FF3D
:1028900003C0E6FF080EE66EE66A70EC26F0046EF2
:1028A000060EE15E045096EC27F01200000EE66E74
:1028B000E66AAEEC31F0E552E552F3CF00F0F4CF2A
:1028C00001F0F350F4101CE0010E0101846F856BE0
:1028D000D5EC27F0220EE66E650EE66EE66AE66A35
:1028E00045EC26F0E552E552E552E55296EC27F02C
:1028F000C80EE66EE66A17EC1FF0E552E5521200CC
:10290000010EE66EE66AAEEC31F0E552E552F3CF29
:1029100000F0F4CF01F0F350F4100DE0040E0101CB
:10292000846F856BD5EC27F0030EE66E650EE66EC0
:10293000E66AE66A19D0050EE66EE66AAEEC31F09C
:10294000E552E552F3CF00F0F4CF01F0F350F4106C
:1029500013E0160E0101846F856BFF0EE66E640EA8
:10296000E66EE66A010EE66E45EC26F0E552E552AB
:10297000E552E55296EF27F0030EE66EE66AAEECFE
:1029800031F0E552E552F3CF00F0F4CF01F0F3500F
:10299000F41017E028C100F029C101F0026A0234E6
:1029A000010E021807E6D880D80E0054850E015497
:1029B000010E025476E3640E01012827000E29233C
:1029C0001200070EE66EE66AAEEC31F0E552E55213
:1029D000F3CF00F0F4CF01F0F350F4100BE001015D
:1029E0004C0E285D040E29595CE3640E285F000E2E
:1029F000295B1200710EE66E640EE66E070EE66E3F
:102A0000E66A45EC26F0E552E552E552E552010151
:102A10000F0ED8802855270E29551DE228C100F039
:102A200029C101F0640E256E266A28C120F029C153
:102A300021F0A1EC36F020C000F021C001F0026AC4
:102A4000036A20C0E6FF21C0E6FF02C0E6FF03C024
:102A5000E6FF070E1CD028C100F029C101F0640E6A
:102A6000256E266A28C120F029C121F0A1EC36F09C
:102A700020C000F021C001F0026A036A20C0E6FF16
:102A800021C0E6FF02C0E6FF03C0E6FF080EE66EC7
:102A9000E66A70EC26F0046E060EE15E045096ECD9
:042AA00027F0120009
:0C2AA400240E0101841901E1855139E084
:102AB000230E841901E1855101E01200000EE66E3B
:102AC000E66AAEEC31F0E552E552F3CF00F0F4CF18
:102AD00001F0F350F4100EE0020E0101846F856BDB
:102AE0000F017A6B7B6BE66A96EC36F0E5520F01CC
:102AF0007C6B7D6BF4EC1CF0F3CF00F0F4CF01F0B5
:102B0000F350F41009E0240E0101846F856B010E6F
:102B10000F017A6F7B6B1200D5EC27F01CD996EF72
:102B200027F0000EE66EE66AAEEC31F0E552E552B3
:102B3000F3CF00F0F4CF01F0F350F4100BE0020EED
:102B40000101846F856B0F017A6B7B6BE66A96ECF3
:102B500036F0E552F4EC1CF0F3CF00F0F4CF01F0C6
:102B6000F350F4100FE1230E0101846F856B0F0108
:102B7000746B756B726B736B7A6B7B6BE66A96EC3E
:102B800036F0E552BFEC1EF00F017A517B1103E0E5
:102B9000190EE66E01D0E66A96EC36F0E552F4ECDA
:102BA0001CF0F3CF00F0F4CF01F0010EF31801E1B7
:102BB00001500BE0F4EC1CF0F3CF02F0F4CF03F083
:102BC000030EF31859E1035057E1D5EC27F0D00E6E
:102BD000E66E650EE66EE66AE66A45EC26F0E552BC
:102BE000E552E552E552060E0F01746F756B726B7C
:102BF000736B766B776B070E765D000E77591AE272
:102C000076CFE9FF77CFEAFF010ED890E936EA36B2
:102C1000E806FBE1640EE9260F0EEA22010EEE182B
:102C200004E1ED5002E14DEC1EF00F01762B000E99
:102C30007723E1D796EC27F00F01786B796B100EB4
:102C4000785DE50E795918E2000EE66EE66AAEECA4
:102C500031F0E552E552F3CF00F0F4CF01F0F3503C
:102C6000F41005E0020E0101846F856B05D00F01A1
:102C7000782B000E7923E3D7F4EC1CF0F3CF00F0AF
:102C8000F4CF01F0020EF31801E101500BE0F4EC77
:102C90001CF0F3CF02F0F4CF03F0030EF31859E168
:102CA000035058E1D5EC27F0CA0EE66E650EE66ECD
:102CB000E66AE66A45EC26F0E552E552E552E55251
:102CC000050E0F01746F756B726B736B766B776BA0
:102CD000070E765D000E77591AE276CFE9FF77CFBF
:102CE000EAFF010ED890E936EA36E806FBE1640E09
:102CF000E9260F0EEA22020EEE1804E1ED5002E181
:102D00004DEC1EF00F01762B000E7723E1D796ECE9
:102D100027F00F01786B796B100E785DE50E79590D
:102D200019E2000EE66EE66AAEEC31F0E552E552CD
:102D3000F3CF00F0F4CF01F0F350F41005E0020EF1
:102D40000101846F856B12000F01782B000E79232F
:102D5000E3D7120012000F010A0E7C5D000E7D59B0
:102D600010E27C2B000E7D23AF0EE66E650EE66E44
:102D7000E66AE66A45EC26F0E552E552E552E55290
:102D800012000F0E7C5D000E7D595EE27C2B000E62
:102D90007D23A60EE66E650EE66EE66A010EE66E11
:102DA00045EC26F0E552E552E552E5520101E70E09
:102DB000D8800055030E01551DE200C100F001C18D
:102DC00001F0640E256E266A00C120F001C121F0D9
:102DD000A1EC36F020C000F021C001F0026A036AC5
:102DE00020C0E6FF21C0E6FF02C0E6FF03C0E6FF09
:102DF000050E1CD000C100F001C101F0640E256E6B
:102E0000266A00C120F001C121F0A1EC36F020C0FB
:102E100000F021C001F0026A036A20C0E6FF21C071
:102E2000E6FF02C0E6FF03C0E6FF060EE66E010EF7
:102E3000E66E70EC26F0046E060EE15E045000C1F2
:102E400000F001C101F0DBD0140E7C5D000E7D5955
:102E500001E3EAD07C2B000E7D23A60EE66E650E04
:102E6000E66EE66AE66A45EC26F0E552E552E55282
:102E7000E5520101E70ED8800055030E01551DE211
:102E800000C100F001C101F0640E256E266A00C188
:102E900020F001C121F0A1EC36F020C000F021C0EB
:102EA00001F0026A036A20C0E6FF21C0E6FF02C00B
:102EB000E6FF03C0E6FF050E1CD000C100F001C113
:102EC00001F0640E256E266A00C120F001C121F0D8
:102ED000A1EC36F020C000F021C001F0026A036AC4
:102EE00020C0E6FF21C0E6FF02C0E6FF03C0E6FF08
:102EF000060EE66EE66A70EC26F0046E060EE15EE3
:102F0000045000C100F001C101F0640E256E266A74
:102F100000C120F001C121F0A1EC36F01CC000F08E
:102F20001DC001F0026A036A1CC0E6FF1DC0E6FF77
:102F300002C0E6FF03C0E6FF080EE66EE66A70EC2C
:102F400026F0046E060EE15E0450970EE66E650EE6
:102F5000E66EE66A010EE66E45EC26F0E552E552B5
:102F6000E552E5520101E70ED8800255030E0355E4
:102F70001DE202C100F003C101F0640E256E266A55
:102F800002C120F003C121F0A1EC36F020C000F016
:102F900021C001F0026A036A20C0E6FF21C0E6FFFB
:102FA00002C0E6FF03C0E6FF050E1CD002C100F020
:102FB00003C101F0640E256E266A02C120F003C130
:102FC00021F0A1EC36F020C000F021C001F0026A2F
:102FD000036A20C0E6FF21C0E6FF02C0E6FF03C08F
:102FE000E6FF060EE66E010EE66E70EC26F0046E4D
:102FF000060EE15E045002C100F003C101F0640E50
:10300000256E266A00C020F001C021F0A1EC36F048
:103010001CC000F01DC001F0026A036A1CC0E6FF7C
:103020001DC0E6FF8BEF1CF0190E7C5D000E7D5974
:1030300001E3EED07C2B000E7D23970EE66E650E2D
:10304000E66EE66AE66A45EC26F0E552E552E552A0
:10305000E5520101E70ED8800255030E03551DE22B
:1030600002C100F003C101F0640E256E266A02C1A0
:1030700020F003C121F0A1EC36F020C000F021C007
:1030800001F0026A036A20C0E6FF21C0E6FF02C029
:10309000E6FF03C0E6FF050E1CD002C100F003C12D
:1030A00001F0640E256E266A02C120F003C121F0F2
:1030B000A1EC36F020C000F021C001F0026A036AE2
:1030C00020C0E6FF21C0E6FF02C0E6FF03C0E6FF26
:1030D000060EE66EE66A70EC26F0046E060EE15E01
:1030E000045002C100F003C101F0640E256E266A8F
:1030F00002C120F003C121F0A1EC36F01CC000F0A9
:103100001DC001F0026A036A1CC0E6FF1DC0E6FF95
:1031100002C0E6FF03C0E6FF080EE66EE66A70EC4A
:1031200026F0046E060EE15E0450860EE66E650E15
:10313000E66EE66A010EE66E45EC26F0E552E552D3
:10314000E552E55201010F0ED8800455270E0555B2
:103150001DE204C100F005C101F0640E256E266A6F
:1031600004C120F005C121F0A1EC36F020C000F030
:1031700021C001F0026A036A20C0E6FF21C0E6FF19
:1031800002C0E6FF03C0E6FF060E1CD004C100F03B
:1031900005C101F0640E256E266A04C120F005C148
:1031A00021F0A1EC36F020C000F021C001F0026A4D
:1031B000036A20C0E6FF21C0E6FF02C0E6FF03C0AD
:1031C000E6FF070EE66E010EE66E70EC26F0046E6A
:1031D000060EE15E045004C100F005C101F0640E6A
:1031E000256E266A04C120F005C121F0A1EC36F05D
:1031F0001CC000F01DC001F0026A036A1CC0E6FF9B
:103200001DC0E6FF02C0E6FF03C0E6FF0A0E88D33A
:103210001E0E7C5D000E7D5901E3DDD07C2B000E7F
:103220007D23860EE66E650EE66EE66AE66A45EC7E
:1032300026F0E552E552E552E55201010F0ED88025
:103240000455270E05551DE204C100F005C101F02B
:10325000640E256E266A04C120F005C121F0A1ECA0
:1032600036F020C000F021C001F0026A036A20C0DD
:10327000E6FF21C0E6FF02C0E6FF03C0E6FF060E40
:103280001CD004C100F005C101F0640E256E266A51
:1032900004C120F005C121F0A1EC36F020C000F0FF
:1032A00021C001F0026A036A20C0E6FF21C0E6FFE8
:1032B00002C0E6FF03C0E6FF070EE66EE66A70ECAA
:1032C00026F0046E060EE15E045004C100F005C154
:1032D00001F0640E256E266A04C120F005C121F0BC
:1032E000A1EC36F01CC000F01DC001F0026A036AB8
:1032F0001CC0E6FF1DC0E6FF02C0E6FF03C0E6FFFC
:103300000A0EE66EE66A70EC26F0046E060EE15ECA
:103310000450790EE66E650EE66EE66A010EE66E04
:1033200045EC26F0E552E552E552E5520101E70E83
:10333000D8800655030E07551DE206C100F007C1EF
:1033400001F0640E256E266A06C120F007C121F047
:10335000A1EC36F020C000F021C001F0026A036A3F
:1033600020C0E6FF21C0E6FF02C0E6FF03C0E6FF83
:10337000060E1CD006C100F007C101F0640E256ED8
:10338000266A06C120F007C121F0A1EC36F020C06A
:1033900000F021C001F0026A036A20C0E6FF21C0EC
:1033A000E6FF02C0E6FF03C0E6FF070EE66E010E71
:1033B000E66E70EC26F0046E060EE15E045006C167
:1033C00000F007C101F0640E256E266A06C120F0E8
:1033D00007C121F0C5D1230E7C5D000E7D5901E3AC
:1033E000DDD07C2B000E7D23790EE66E650EE66E39
:1033F000E66AE66A45EC26F0E552E552E552E5520A
:103400000101E70ED8800655030E07551DE206C1DF
:1034100000F007C101F0640E256E266A06C120F097
:1034200007C121F0A1EC36F020C000F021C001F06E
:10343000026A036A20C0E6FF21C0E6FF02C0E6FF81
:1034400003C0E6FF060E1CD006C100F007C101F064
:10345000640E256E266A06C120F007C121F0A1EC9A
:1034600036F020C000F021C001F0026A036A20C0DB
:10347000E6FF21C0E6FF02C0E6FF03C0E6FF070E3D
:10348000E66EE66A70EC26F0046E060EE15E04500D
:1034900006C100F007C101F0640E256E266A06C160
:1034A00020F007C121F0A1EC36F01CC000F01DC0D7
:1034B00001F0026A036A1CC0E6FF1DC0E6FF02C0FD
:1034C000E6FF03C0E6FF090EE66EE66A70EC26F042
:1034D000046E060EE15E0450690EE66E650EE66E41
:1034E000E66A010EE66E45EC26F0E552E552E5523D
:1034F000E5520101E70ED8800855030E09551DE27B
:1035000008C100F009C101F0640E256E266A08C1E9
:1035100020F009C121F0A1EC36F020C000F021C05C
:1035200001F0026A036A20C0E6FF21C0E6FF02C084
:10353000E6FF03C0E6FF060E1CD008C100F009C17B
:1035400001F0640E256E266A08C120F009C121F041
:10355000A1EC36F020C000F021C001F0026A036A3D
:1035600020C0E6FF21C0E6FF02C0E6FF03C0E6FF81
:10357000070EE66E010EE66E70EC26F0046E060E87
:10358000E15E045008C100F009C101F0640E256E2F
:10359000266A08C120F009C121F0E2D0280E7C5D26
:1035A000000E7D5901E3EED07C2B000E7D23690EC9
:1035B000E66E650EE66EE66AE66A45EC26F0E552D2
:1035C000E552E552E5520101E70ED8800855030E99
:1035D00009551DE208C100F009C101F0640E256E15
:1035E000266A08C120F009C121F0A1EC36F020C004
:1035F00000F021C001F0026A036A20C0E6FF21C08A
:10360000E6FF02C0E6FF03C0E6FF060E1CD008C1BD
:1036100000F009C101F0640E256E266A08C120F091
:1036200009C121F0A1EC36F020C000F021C001F06A
:10363000026A036A20C0E6FF21C0E6FF02C0E6FF7F
:1036400003C0E6FF070EE66EE66A70EC26F0046E35
:10365000060EE15E045008C100F009C101F0640EDD
:10366000256E266A08C120F009C121F0A1EC36F0D0
:103670001CC000F01DC001F0026A036A1CC0E6FF16
:103680001DC0E6FF02C0E6FF03C0E6FF090EE66EBE
:10369000E66A70EC26F0046E060EE15E0450590EE8
:1036A000E66E650EE66EE66A010EE66E45EC26F005
:1036B000E552E552E552E5520101E70ED880085582
:1036C000030E09551DE20AC100F00BC101F0640EA2
:1036D000256E266A0AC120F00BC121F0A1EC36F05C
:1036E00020C000F021C001F0026A036A20C0E6FF9A
:1036F00021C0E6FF02C0E6FF03C0E6FF060E1CD0B5
:103700000AC100F00BC101F0640E256E266A0AC1E1
:1037100020F00BC121F0A1EC36F020C000F021C058
:1037200001F0026A036A20C0E6FF21C0E6FF02C082
:10373000E6FF03C0E6FF070EE66E010EE66E70ECD4
:1037400026F0046E060EE15E04500AC100F00BC1C3
:1037500001F0640E256E266A0AC120F00BC121F02B
:10376000A1EC36F01CC000F01DC001F0026A036A33
:103770001CC0E6FF1DC0E6FF02C0E6FF03C0E6FF77
:10378000090ECED02D0E7C5D000E7D5901E3CCD00C
:103790007C2B000E7D23590EE66E650EE66EE66A02
:1037A000E66A45EC26F0E552E552E552E5520101A4
:1037B000E70ED8800855030E09551DE20AC100F036
:1037C0000BC101F0640E256E266A0AC120F00BC100
:1037D00021F0A1EC36F020C000F021C001F0026A17
:1037E000036A20C0E6FF21C0E6FF02C0E6FF03C077
:1037F000E6FF060E1CD00AC100F00BC101F0640EFA
:10380000256E266A0AC120F00BC121F0A1EC36F02A
:1038100020C000F021C001F0026A036A20C0E6FF68
:1038200021C0E6FF02C0E6FF03C0E6FF070EE66E1A
:10383000E66A70EC26F0046E060EE15E04500AC1E2
:1038400000F00BC101F0640E256E266A0AC120F05B
:103850000BC121F0A1EC36F01CC000F01DC001F03E
:10386000026A036A1CC0E6FF1DC0E6FF02C0E6FF55
:1038700003C0E6FF090EE66EE66A70EC26F0046E01
:10388000060EE15E04504A0EE66E650EE66EE66ACE
:10389000010EE66E45EC26F0E552E552E552E552A2
:1038A00001010F0ED8800C55270E0D551DE20CC1DD
:1038B00000F00DC101F0640E256E266A0CC120F0E7
:1038C0000DC121F0A1EC36F020C000F021C001F0C4
:1038D000026A036A20C0E6FF21C0E6FF02C0E6FFDD
:1038E00003C0E6FF070E1CD00CC100F00DC101F0B3
:1038F000640E256E266A0CC120F00DC121F0A1ECEA
:1039000036F020C000F021C001F0026A036A20C036
:10391000E6FF21C0E6FF02C0E6FF03C0E6FF080E97
:10392000E66E010EE66E56D0320E7C5D000E7D59BD
:1039300058E27C2B000E7D234A0EE66E650EE66E85
:10394000E66AE66A45EC26F0E552E552E552E552B4
:1039500001010F0ED8800C55270E0D551DE20CC12C
:1039600000F00DC101F0640E256E266A0CC120F036
:103970000DC121F0A1EC36F020C000F021C001F013
:10398000026A036A20C0E6FF21C0E6FF02C0E6FF2C
:1039900003C0E6FF070E1CD00CC100F00DC101F002
:1039A000640E256E266A0CC120F00DC121F0A1EC39
:1039B00036F020C000F021C001F0026A036A20C086
:1039C000E6FF21C0E6FF02C0E6FF03C0E6FF080EE7
:1039D000E66EE66A70EC26F0046E060EE15E0450B8
:1039E00012007C6B7D6B1200D9CFE6FFE1CFD9FFCF
:1039F000020EE126DE6ADD6A010100510101105D5F
:103A0000010101510101115902E2010E0AD0010127
:103A10000E510101005D01010F510101015904E244
:103A2000020E0F01646F02D00F01646B656B010120
:103A300002510101145D010103510101155902E216
:103A4000010E0AD0010112510101025D0101135161
:103A50000101035904E2020E0F01666F02D00F014B
:103A6000666B676B010104510101185D010105518D
:103A70000101195902E2010E0AD00101165101019A
:103A8000045D010117510101055904E2020E0F0105
:103A9000686F02D00F01686B696B0101065101016B
:103AA0001C5D0101075101011D5902E2010E0AD0FE
:103AB00001011A510101065D01011B510101075964
:103AC00004E2020E0F016A6F02D00F016A6B6B6B8A
:103AD000010108510101205D010109510101215934
:103AE00002E2010E0AD001011E510101085D01012F
:103AF0001F510101095904E2020E0F016C6F02D03F
:103B00000F016C6B6D6B01010A510101245D010114
:103B10000B510101255902E2010E0AD00101225187
:103B200001010A5D0101235101010B5904E2020E5A
:103B30000F016E6F02D00F016E6B6F6B01010C51A4
:103B40000101285D01010D510101295902E2010E17
:103B50000AD00101265101010C5D0101275101012B
:103B60000D5904E2020E0F01706F02D00F01706B4D
:103B7000716B766B776B070E765D000E775901E3FC
:103B80007AD076CFE9FF77CFEAFF010ED890E936F9
:103B9000EA36E806FBE1640EE9260F0EEA22010E82
:103BA000EE180BE1ED5009E1D9CFE9FFDACFEAFFDA
:103BB000EE50ED1002E1010E57D076CFE9FF77CF3E
:103BC000EAFF010ED890E936EA36E806FBE1640E1A
:103BD000E9260F0EEA22010EEE180DE1ED500BE181
:103BE000D9CFE9FFDACFEAFF020EEE1804E1ED507B
:103BF00002E1030E39D076CFE9FF77CFEAFF010E5D
:103C0000D890E936EA36E806FBE1640EE9260F0EA5
:103C1000EA22020EEE180BE1ED5009E1D9CFE9FFDF
:103C2000DACFEAFFEE50ED1002E1020E1DD076CFA2
:103C3000E9FF77CFEAFF010ED890E936EA36E806C9
:103C4000FBE1640EE9260F0EEA22020EEE180EE1E9
:103C5000ED500CE1D9CFE9FFDACFEAFF010EEE1803
:103C600005E1ED5003E1030EDE6EDD6A0F01762BF8
:103C7000000E772380D7DECF00F0DDCF01F000C04B
:103C8000F3FF01C0F4FF020EE15C02E2E16AE552DB
:103C9000E16EE552E7CFD9FF1200060E0F0176194B
:103CA00001E177514DE0050E761901E1775138E0D9
:103CB000040E761901E177512FE0030E761901E128
:103CC000775126E0020E761901E177511DE0010ED1
:103CD000761901E1775108E0765145E1775143E1EA
:103CE000470EE66E650E03D0440EE66E650EE66E78
:103CF00074CFE6FF72CFE6FF45EC26F0E552E552C1
:103D0000E552E552030E2BD0400EE66E650E0BD049
:103D10003C0EE66E650E07D0380EE66E650E03D0DB
:103D2000340EE66E650EE66E74CFE6FF72CFE6FFE8
:103D300045EC26F0E552E552E552E552040E0FD06F
:103D40002F0EE66E650EE66E74CFE6FF72CFE6FFCD
:103D500045EC26F0E552E552E552E552050E0F011D
:103D60007427000E75230F0ED8807455000E7555FC
:103D700003E2010E726F01D0726B736B1200040EBE
:103D8000E66EE66AAEEC31F0E552E552F350F4101F
:103D900006E00F01010ED8807A57000E7B57120003
:103DA0001FD801013551FDE0356B85D8C5D8F5DA4E
:103DB000CEDB08EC30F0FAEC34F046EC00F052ECDC
:103DC00015F0D5EC05F010EC08F04BEC0AF09CEC8B
:103DD0000CF0D7EC0EF012EC11F04DEC13F0E1D733
:103DE000936ADEEC23F0CBEC27F0D5EC27F000EC67
:103DF00034F0C7EC35F0660EE66EB70EE66ED4EC26
:103E00002EF0E552E552320EE66EE66AE0EC2FF057
:103E1000E552E552D0EC2AF003EC30F086EC36F0B7
:103E2000C80EE66EE66A03D8E552E5521200D9CF15
:103E3000E6FFE1CFD9FF040EE126DE6ADD6ADECFC0
:103E400000F0DDCF01F0FD0EDBCF02F0FE0EDBCF88
:103E500003F001500318E8AE02D0033404D002503E
:103E6000005C035001581DE2020EDB6A030EDB6AA0
:103E7000020EDBCF00F0030EDBCF01F0D890015033
:103E800004E6EE0E005C000E015806E2020EDB2A8C
:103E9000030EEEE3DB2AECD7DF2A010ED0E3DB2AA8
:103EA000CED7040EE15C02E2E16AE552E16EE55232
:103EB000E7CFD9FF1200D9CFE6FFE1CFD9FF020E3D
:103EC000E126DE6ADD6ADECF00F0DDCF01F0D890BA
:103ED000015004E6070E005C000E015823E2DFCF1C
:103EE000E6FFCEEC35F0E552F3CF00F0F4CF01F071
:103EF000DECFE9FFDDCFEAFFD890E936EA36F00EF3
:103F0000E926000EEA22F3CFEEFF01C0EDFF140E0A
:103F1000E66EE66A8CDFE552E552DF2A010ED3E356
:103F2000DB2AD1D7020EE15C02E2E16AE552E16EE2
:103F3000E552E7CFD9FF1200F0C00CF0F1C00DF050
:103F40000E6A0F6AF0C01EF0F1C01FF00EC020F024
:103F50000FC021F006EC28F01FC008F020C009F0C7
:103F600021C00AF022C00BF0246A256A600E266E7A
:103F7000410E276E09EC29F01FC004F020C005F0A7
:103F800021C006F022C007F0246AC00E256E7F0E05
:103F9000266E440E276EB6EC28F01FC000F020C03D
:103FA00001F021C002F022C003F0246A256AC80E85
:103FB000266E420E276E09EC29F01BEC2AF020C079
:103FC00000F121C001F1F2C00CF0F3C00DF00E6A57
:103FD0000F6AF2C01EF0F3C01FF00EC020F00FC039
:103FE00021F006EC28F01FC008F020C009F021C025
:103FF0000AF022C00BF0246A256AA00E266E420E3B
:10400000276E09EC29F01FC004F020C005F021C084
:1040100006F022C007F0246AC00E256E7F0E266EC1
:10402000440E276EB6EC28F01FC000F020C001F04F
:1040300021C002F022C003F0246A256AC80E266E51
:10404000420E276E09EC29F01BEC2AF020C002F189
:1040500021C003F1046A056A200E066E420E076E47
:10406000F4C014F0F5C015F0166A176AF4C01EF01B
:10407000F5C01FF016C020F017C021F006EC28F0A4
:104080001FC010F020C011F021C012F022C013F0A8
:10409000246A256A520E266E430E276E09EC29F01B
:1040A0001FC00CF020C00DF021C00EF022C00FF098
:1040B000246AC00E256E7F0E266E440E276EB6EC67
:1040C00028F01FC008F020C009F021C00AF022C06B
:1040D0000BF01FC024F020C025F021C026F022C024
:1040E00027F004C01FF005C020F006C021F007C073
:1040F00022F020EC28F01FC000F020C001F021C009
:1041000002F022C003F0246A256AC80E266E420E11
:10411000276E09EC29F01BEC2AF020C004F121C025
:1041200005F1F6C00CF0F7C00DF00E6A0F6AF6C08C
:104130001EF0F7C01FF00EC020F00FC021F006ECFB
:1041400028F01FC008F020C009F021C00AF022C0EA
:104150000BF0246A256A700E266E420E276E09EC5B
:1041600029F01FC004F020C005F021C006F022C0D5
:1041700007F0246AC00E256E7F0E266E440E276E51
:10418000B6EC28F01FC000F020C001F021C002F002
:1041900022C003F0246A256AC80E266E420E276EDE
:1041A00009EC29F01BEC2AF020C006F121C007F130
:1041B000F8C00CF0F9C00DF00E6A0F6AF8C01EF0DE
:1041C000F9C01FF00EC020F00FC021F006EC28F05F
:1041D0001FC008F020C009F021C00AF022C00BF077
:1041E000246A256A400E266E410E276E09EC29F0DE
:1041F0001FC004F020C005F021C006F022C007F067
:10420000246A256AAC0E266E420E276EB6EC28F0A4
:104210001FC000F020C001F021C002F022C003F056
:10422000246A256AC80E266E420E276E09EC29F014
:104230001BEC2AF020C008F121C009F1FAC00CF0F3
:10424000FBC00DF00E6A0F6AFAC01EF0FBC01FF033
:104250000EC020F00FC021F006EC28F01FC008F0BF
:1042600020C009F021C00AF022C00BF0246A256AA0
:10427000400E266E410E276E09EC29F01FC004F097
:1042800020C005F021C006F022C007F0246AC00E4D
:10429000256E7F0E266E440E276EB6EC28F01FC0EA
:1042A00000F020C001F021C002F022C003F0246A17
:1042B000256AC80E266E420E276E09EC29F01BEC0B
:1042C0002AF020C00AF121C00BF1046A056AB40E7D
:1042D000066E420E076EFCC014F0FDC015F0166AA3
:1042E000176AFCC01EF0FDC01FF016C020F017C0FA
:1042F00021F006EC28F01FC010F020C011F021C002
:1043000012F022C013F0246A256A9B0E266E430E1B
:10431000276E09EC29F01FC00CF020C00DF021C061
:104320000EF022C00FF0246AC00E256E7F0E266E9E
:10433000440E276EB6EC28F01FC008F020C009F02C
:1043400021C00AF022C00BF01FC024F020C025F0CD
:1043500021C026F022C027F004C01FF005C020F0C5
:1043600006C021F007C022F020EC28F01FC000F0AA
:1043700020C001F021C002F022C003F0246A256AA7
:10438000C80E266E420E276E09EC29F01BEC2AF0AF
:1043900020C00CF121C00DF11200010E0001FE251C
:1043A000FE6F000EFF21FF6B030EFE17FE51FF1183
:1043B00001E01200180EE66E640EE66E51EC2BF072
:1043C000E552E55200C100F001C101F0026A036A42
:1043D00000C1E6FF01C1E6FF02C0E6FF03C0E6FF41
:1043E00003EC2DF0E552E552E552E5520F0EE66E74
:1043F000640EE66E51EC2BF0E552E55202C100F07E
:1044000003C101F0026A036A02C1E6FF03C1E6FFCD
:1044100002C0E6FF03C0E6FF03EC2DF0E552E552D3
:10442000E552E552030EE66E640EE66E51EC2BF09B
:10443000E552E55204C100F005C101F0026A036AC9
:1044400004C1E6FF05C1E6FF02C0E6FF03C0E6FFC8
:1044500003EC2DF0E552E552E552E552F70EE66E1B
:10446000630EE66E51EC2BF0E552E55206C100F00A
:1044700007C101F0026A036A06C1E6FF07C1E6FF51
:1044800002C0E6FF03C0E6FF03EC2DF0E552E55263
:10449000E552E552EE0EE66E630EE66E51EC2BF041
:1044A000E552E55208C100F009C101F0026A036A51
:1044B00008C1E6FF09C1E6FF02C0E6FF03C0E6FF50
:1044C00003EC2DF0E552E552E552E552E20EE66EC0
:1044D000630EE66E51EC2BF0E552E5520AC100F096
:1044E0000BC101F0026A036A0AC1E6FF0BC1E6FFD5
:1044F00002C0E6FF03C0E6FF03EC2DF0E552E552F3
:10450000E552E552D50EE66E630EE66E51EC2BF0E9
:10451000E552E5520CC100F00DC101F0026A036AD8
:104520000CC1E6FF0DC1E6FF02C0E6FF03C0E6FFD7
:1045300003EC2DF0E552E552E552E552CC0EE66E65
:10454000630EE66E51EC2BF0E552E55212000101CC
:10455000010E761901E0E9D0775101E0E6D0766BE3
:10456000776B060E0F01001901E1015101E1C2D084
:10457000050E001901E1015101E1A1D0040E00195D
:1045800001E1015101E180D0030E001901E1015167
:1045900060E0020E001901E1015140E0010E001936
:1045A00001E1015120E0005101E1015101E012005F
:1045B0000A0E206E216A02CF25F003CF26F0FDEC13
:1045C00029F01EC00EF11FC00FF10A0E206E216AE5
:1045D00004CF25F005CF26F0FDEC29F01EC010F128
:1045E0001FC011F11200640E206E216A02CF25F067
:1045F00003CF26F0FDEC29F01EC012F11FC013F10D
:10460000640E206E216A04CF25F005CF26F0FDEC64
:1046100029F01EC014F11FC015F11200640E206EA7
:10462000216A02CF25F003CF26F0FDEC29F01EC051
:1046300016F11FC017F1640E206E216A04CF25F019
:1046400005CF26F0FDEC29F01EC018F11FC019F1AE
:104650001200640E206E216A02CF25F003CF26F0EF
:10466000FDEC29F01EC01AF11FC01BF1640E206E74
:10467000216A04CF25F005CF26F0FDEC29F01EC0FD
:104680001CF11FC01DF112000A0E206E216A02CF1C
:1046900025F003CF26F0FDEC29F01EC01EF11FC04F
:1046A0001FF10A0E206E216A04CF25F005CF26F0F7
:1046B000FDEC29F01EC020F11FC021F112000A0EEE
:1046C000206E216A02CF25F003CF26F0FDEC29F001
:1046D0001EC022F11FC023F10A0E206E216A04CFF2
:1046E00025F005CF26F0FDEC29F01EC024F11FC0F7
:1046F00025F11200640E206E216A02CF25F003CF4F
:1047000026F0FDEC29F01EC026F11FC027F1640E33
:10471000206E216A04CF25F005CF26F0FDEC29F0AC
:0C4720001EC028F11FC029F11200120079
:04472C00D9CFE6FFFC
:10473000E1CFD9FF040EE126DE6ADD6ADECF00F0AC
:10474000DDCF01F0026A036A01AE02D0026803689D
:10475000D950FB0FE96EFF0EDA20EA6EEE50005CD6
:10476000EE500158EE500258EE5003581DE2020E72
:10477000DB6A030EDB6A020EDBCF00F0030EDBCF39
:1047800001F0D890015004E6EE0E005C000E0158D6
:1047900006E2020EDB2A030EEEE3DB2AECD7DF2A69
:1047A000010ECCE3DB2ACAD7040EE15C02E2E16A27
:1047B000E552E16EE552E7CFD9FF1200D9CFE6FF0F
:1047C000E1CFD9FFE652190EE66EE66AE66AE66ABE
:1047D000ADDFE552E552E552E5520F0E8116F80EB7
:1047E00081160F0E8116300E81128186010EE66E43
:1047F000E66AE66AE66A9ADFE552E552E552E55274
:104800008196010EE66EE66AE66AE66A8FDFE55299
:10481000E552E552E5520F0E8116300E8112818667
:10482000010EE66EE66AE66AE66A80DFE552E55268
:10483000E552E5528196010EE66EE66AE66AE66AA0
:1048400075DFE552E552E552E5520F0E8116300E46
:1048500081128186010EE66EE66AE66AE66A66DF26
:10486000E552E552E552E5528196010EE66EE66AA2
:10487000E66AE66A5BDFE552E552E552E5520F0E65
:104880008116818A8186010EE66EE66AE66AE66A2C
:104890004DDFE552E552E552E5528196010EE66E96
:1048A000E66AE66AE66A42DFE552E552E552E5521B
:1048B000280EE66E0AD8E5520C0EE66E06D8E552D2
:1048C000E552E552E7CFD9FF1200D9CFE6FFE1CF9D
:1048D000D9FF0F0E8116FE0EDB50F00B8112818680
:1048E000010EE66EE66AE66AE66A20DFE552E55208
:1048F000E552E5528196010EE66EE66AE66AE66AE0
:1049000015DFE552E552E552E5520F0E8116FE0E17
:10491000DB38F00B81128186010EE66EE66AE66AEC
:10492000E66A04DFE552E552E552E5528196010E52
:10493000E66EE66AE66AE66AF9DEE552E552E552B7
:10494000E552E552E7CFD9FF1200D9CFE6FFE1CF1C
:10495000D9FF050EE126010EF36EDB6E020EDB6A57
:10496000030EDB6A040EDB6ADF6ADFCF00F0016A48
:1049700000BE0168FB0EDBCF02F0FC0EDBCF03F0C4
:1049800001500318E8AE02D0033404D00250005C9A
:10499000035001582DE2FD0EDBCF00F0FE0EDBCF01
:1049A00001F0026A036A01AE02D002680368D950BE
:1049B000010FE96EDACFEAFF00C023F001C024F056
:1049C00002C025F003C026F0EECF1EF0EECF1FF0A0
:1049D000EECF20F0EFCF21F00DEC36F01DC0EDFF53
:1049E0001CC0EDFF1BC0EDFF1AC0EFFFDF2ABDD7D3
:1049F000010EDBCF00F0020EDBCF01F0030EDBCFA8
:104A000002F0040EDBCF03F000C01EF001C01FF067
:104A100002C020F003C021F0050EE15C02E2E16A71
:104A2000E552E16EE552E7CFD9FF1200D9CFE6FF9C
:104A3000E1CFD9FF040EE126DE6ADD6ADECF00F0A9
:104A4000DDCF01F0026A036A01AE02D0026803689A
:104A5000D950FB0FE96EFF0EDA20EA6EEE50005CD3
:104A6000EE500158EE500258EE5003581DE2020E6F
:104A7000DB6A030EDB6A020EDBCF00F0030EDBCF36
:104A800001F0D890015004E6060E005C000E0158BB
:104A900006E2020EDB2A030EEEE3DB2AECD7DF2A66
:104AA000010ECCE3DB2ACAD7040EE15C02E2E16A24
:104AB000E552E16EE552E7CFD9FF1200D9CFE6FF0C
:104AC000E1CFD9FF0F0E8116FE0EDB5081128186D9
:104AD000050EE66EE66AE66AE66AA8DFE552E5528A
:104AE000E552E5528196050EE66EE66AE66AE66AEA
:104AF0009DDFE552E552E552E552E552E7CFD9FF99
:104B00001200D9CFE6FFE1CFD9FF8184050EE66E12
:104B1000E66AE66AE66A8ADFE552E552E552E55260
:104B2000FE0EDBCFE6FFCADFE552FE0EDB38F00BF0
:104B3000E66EC4DFE5528194E552E7CFD9FF12005B
:104B4000D9CFE6FFE1CFD9FF8194050EE66EE66A84
:104B5000E66AE66A6BDFE552E552E552E552FE0E83
:104B6000DBCFE6FFABDFE552FE0EDB38F00BE66E87
:104B7000A5DFE552E552E7CFD9FF1200D9CFE6FF16
:104B8000E1CFD9FFE652FD0EDB500F0B006EFE0E9B
:104B9000DB50010B400DF3500024DF6E7F0EDF145D
:104BA000800FDF6EDFCFE6FFCBDFE552E552E55247
:104BB000E7CFD9FF1200D9CFE6FFE1CFD9FFFE0E34
:104BC000DBCFE6FF9EDFE552E552E7CFD9FF1200CB
:104BD000D9CFE6FFE1CFD9FF7CC100F07DC101F064
:104BE000040ED89000360136E806FBE14A0E002696
:104BF000010E0122005001017E25E96E01507F2146
:104C0000EA6EFE0EDBCFEFFF7E2B000E7F23E55218
:104C1000E7CFD9FF1200D9CFE6FFE1CFD9FFFD0ED4
:104C2000DBCFF6FFFE0EDBCFF7FF0800F5500FE0FD
:104C3000FD0EDBCFF6FFDB2AFE0EDBCFF7FF01E335
:104C4000DB2A0800F550E66EB6DFE552E8D7E552FC
:104C5000E7CFD9FF1200D9CFE6FFE1CFD9FFFD0E94
:104C6000DBCFE6FFFE0EDBCFE6FF88DFE552E55245
:104C7000FB0EDBCFE6FFFC0EDBCFE6FFCCDFE55221
:104C8000E552E552E7CFD9FF1200D9CFE6FFE1CFD9
:104C9000D9FFFE0EDB50010B01017C6F7D6BFD0E19
:104CA000DB500F0B7E6F7F6BFB0EDBCFF6FFFC0E36
:104CB000DBCFF7FF0800F5500FE0FB0EDBCFF6FF70
:104CC000DB2AFC0EDBCFF7FF01E3DB2A0800F550FF
:104CD000E66E7EDFE552E8D7E552E7CFD9FF120056
:104CE000D9CFE6FFE1CFD9FF020EE126DF6AFE0E43
:104CF000DB50010B01017C6F7D6BFD0EDB500F0B58
:104D00007E6F7F6BF90EDBCF00F0FA0EDBCF01F088
:104D1000FB0EDBCF02F0FC0EDBCF03F000500110E6
:104D20000210031005E1300EE66E52DFE552F4D0BA
:104D3000D950F90FE96EFF0EDA20EA6ED890030E13
:104D4000EB50000A08E6000EEE5C000EEE58000E76
:104D5000EE58000EEE5815E22D0EE66E39DFE552E4
:104D6000D950F90FE96EFF0EDA20EA6E000EEE6CF4
:104D7000EF1EEE22EF1EEE22EF1EEF22ED52ED525D
:104D8000ED52DE52070EDD6E010EDBCF00F0000E9D
:104D9000E76E0018E8AE02D0003403D0E750D880A8
:104DA000005401E3B9D0010EDB04046E056A04BEB1
:104DB000056804C0E6FF05C0E6FF0A0EE66EE66A77
:104DC000C4DDE552E552E552E5521EC000F01FC0B9
:104DD00001F020C002F021C003F01EC023F01FC06C
:104DE00024F020C025F021C026F0F90EDBCF1EF004
:104DF000FA0EDBCF1FF0FB0EDBCF20F0FC0EDBCF7B
:104E000021F045EC36F01E501F102010211041E01B
:104E1000010EDF6EDB04086E096A08BE096808C06F
:104E2000E6FF09C0E6FF0A0EE66EE66A8EDDE55291
:104E3000E552E552E5521EC004F01FC005F020C047
:104E400006F021C007F01EC023F01FC024F020C0D0
:104E500025F021C026F0F90EDBCF1EF0FA0EDBCFD5
:104E60001FF0FB0EDBCF20F0FC0EDBCF21F045EC7A
:104E700036F01EC000F01FC001F020C002F021C0BB
:104E800003F0300E0026000E012202220322005001
:104E900003D0DF5004E0300EE66E9ADEE552010EDC
:104EA000DB04046E056A04BE056804C0E6FF05C0A5
:104EB000E6FF0A0EE66EE66A48DDE552E552E55287
:104EC000E5521EC000F01FC001F020C002F021C05A
:104ED00003F0D950F90FE96EFF0EDA20EA6E1EC01A
:104EE00023F01FC024F020C025F021C026F0EECF13
:104EF0001EF0EECF1FF0EECF20F0EFCF21F045EC0B
:104F000036F01DC0EDFF1CC0EDFF1BC0EDFF1AC049
:104F1000EFFF010EDB0638D7020EE15C02E2E16A28
:104F2000E552E16EE552E7CFD9FF1200D9CFE6FF97
:104F3000E1CFD9FFE652E66AE66A20DEE552E552A5
:104F4000DF6A100EDF5C0CE2DF50EA6A4A0FE96E9E
:104F5000010EEA22EF50E66E2EDEE552DF2AF1D78F
:104F6000E66A010EE66E0ADEE552E552DF6A100ED1
:104F7000DF5C0CE2DF50EA6A5A0FE96E010EEA22AA
:104F8000EF50E66E18DEE552DF2AF1D7E552E55222
:104F9000E7CFD9FF1200010EE66ED2DDE552E66AD8
:104FA000E66AECDDE552E5521200D9CFE6FFE1CF2B
:104FB000D9FFE652DF6ADFCF00F0100EE76E00186F
:104FC000E8AE02D0E73402D0E750005C18E2DFCF51
:104FD000E9FFEA6AE9BEEA684A0EE926010EEA221A
:104FE000200EEF6EDFCFE9FFEA6AE9BEEA685A0EEB
:104FF000E926010EEA22200EEF6EDF2ADCD7E55209
:08500000E552E7CFD9FF1200D1
:08500800199E0CD0199E21AE87
:1050100009D01E6C1F1E201E211EE86A1F2220229E
:105020002122198E21C01BF020C01AF01FC02BF0C6
:105030001EC02AF09E0E1C6E1D6A66EF2AF0277EA7
:10504000196AA2EC2AF0BAEC2AF019B64AEF2AF053
:1050500019A20AD019AA03D019BE4AEF2AF019A43E
:1050600056EF2AF053EF2AF019AA05D019AC56EFE3
:105070002AF053EF2AF019A00AD019A808D019BEB7
:1050800004D019A402D05FEF2AF063EF2AF02A6A55
:105090001D6A2750225C296E10E31FC02BF020C030
:1050A0001AF021C01BF022C028F024C01FF025C038
:1050B00020F026C021F0193A09D024C02BF025C0D9
:1050C0001AF026C01BF027C028F0296C199E19BCC5
:1050D000198E28C01CF019B092EF2AF01A0E296020
:1050E00092EF2AF01C6A226A19A408D01F6C201EB5
:1050F000211E221EE86A20222122222219AC08D079
:105100002B6C1A1E1B1E1C1EE86A1A221B221C2254
:105110001E6A295207E02234213220321F321E3209
:10512000292EF9D71F502B2620501A2221501B223E
:1051300022501C221EC02AF0199E1CAE0BD02A6CD5
:105140002B1E1A1E1B1E1C1EE86A2B221A221B2253
:105150001C22198E1CA006D0D8801B321A322B328A
:105160002A32282A28C01CF066EF2AF0196AA2EC1D
:105170002AF0BAEC2AF019B64AEF2AF019A205D0A3
:1051800019BA4AEF2AF051EF2AF019BA5DEF2AF066
:1051900019A005D019B84AEF2AF05DEF2AF019B826
:1051A00051EF2AF01D6A7F0E22241C6EE86A1D2230
:1051B00027501C5EE86A1D5A1A0E286E226A2A6A57
:1051C0002B6A1A6A1B6A24501F5E2550205A2650EB
:1051D000215A000E225A09E724501F26255020226A
:1051E00026502122000E222201D02A8AD8901F3672
:1051F000203621362236D8902A362B361A361B36E0
:10520000282EE1D7215020101F10D8A42A8A66EF3B
:105210002AF0196AA2EC2AF0BAEC2AF019B64AEF81
:105220002AF019A205D019B84AEF2AF051EF2AF056
:1052300019AA05D019B04AEF2AF051EF2AF019B097
:1052400002D019A802D05DEF2AF01D6A275022244F
:105250001C6EE86A1D227E0E1C5EE86A1D5A2A6AD0
:105260002B6A1A6A1B6A26502102F4CF1BF0F3CF77
:105270001AF025502102F3502B26F4501A22000E6A
:105280001B2226502002F3502B26F4501A22000E27
:105290001B2224502102F3502A26F4502B22000E08
:1052A0001A221B2225502002F3502A26F4502B22CA
:1052B000000E1A221B2226501F02F3502A26F450F9
:1052C0002B22000E1A221B2224502002F4502A26E0
:1052D000000E2B221A221B2225501F02F4502A26D0
:1052E000000E2B221A221B2266EF2AF0186A26AE25
:1052F0007FEF29F0256C261EE86A2622181E21AEB3
:1053000087EF29F0206C211EE86A2122181EA1ECEB
:1053100036F021BE97EF29F018AE000C206C211E4C
:10532000E86A21221C6C1D1EE86A1D22000C18BEB2
:105330008EEF29F01988FF0C186A26AEA7EF29F026
:10534000246C251E261EE86A25222622181E21AE60
:10535000B1EF29F01F6C201E211EE86A20222122B5
:10536000181E69EC36F021BEC4EF29F018AE000C0F
:105370001F6C201E211EE86A202221221B6C1C1E8D
:105380001D1E1C221D22000C18BEB8EF29F0198822
:10539000FF0C186AE86A26AED6EF29F0236C241EAB
:1053A000251E261E242225222622181E21AEE1EFCC
:1053B00029F01E6C1F1E201E211E1F2220222122CA
:1053C000181E45EC36F021BEF8EF29F018AE000C9F
:1053D0001E6C1F1E201E211EE86A1F222022212271
:1053E0001A6C1B1E1C1E1D1E1B221C221D22000CC3
:1053F00018BEE8EF29F01988FF0C20C02AF02050D1
:105400002502F4CF1FF0F3CF1EF021502602F4CF77
:1054100021F0F3CF20F02502F3501F26F450202274
:10542000E86A21222A502602F3501F26F450202237
:10543000E86A2122000C196AA2EC2AF019B625EFBD
:105440002AF019A20ED019B405D07F0E216EFF0EDE
:10545000206E1FD0800E216E206A1BD0216A206A28
:1054600018D019B0FBD78F0E2260EDD77E0E2264C4
:10547000F5D78E0E225C05E0D89021322032222A08
:10548000F8D719A406D0206C211EE86A212221AE8B
:10549000E5D712007F0E226EFF0E216E206E1F6E6A
:1054A00012007F0E19BEFF0E226E02D07F0E226EFA
:1054B000800E216E206A1F6AF3D719AE04D0800EC9
:1054C000226E216AF7D7226A216AF4D71B501A107C
:1054D0002B102A10F8E01DBEF0D71BBE0CD01C50BC
:1054E0001D10EBE0D8902A362B361A361B361C06D8
:1054F000D8A01D06F2D71D50D4E11C28D2E02AAE58
:1055000011D07F0E2A1402E12BA00CD02B2AE86ABE
:105510001A221B2207E3D8801B321A322B321C2A94
:105520001C28BFE01C50C9E02BC01FF01AC020F09F
:105530001B34216E1C30226E2132229E19BE228E17
:1055400050EF2AF02136223602E31984197E06E153
:105550001980226A216A206A1F6A1200222803E049
:10556000D88021321200D890213202E11982120033
:10557000198612002636273602E3198C197E06E1B9
:105580001988276A266A256A246A1200272803E0F8
:10559000D88026321200D8902632EAE1198A120009
:1055A000B06A810EAF6EAC8AAC94B886AC98AB8E04
:1055B000AB889E9A9D8A9F9A949C948E1200D9CF14
:1055C000E6FFE1CFD9FF040EE126DE6ADD6ADECF19
:1055D00000F0DDCF01F0FD0EDBCF02F0FE0EDBCFE1
:1055E00003F001500318E8AE02D0033404D0025097
:1055F000005C035001581DE2020EDB6A030EDB6AF9
:10560000020EDBCF00F0030EDBCF01F0D89001508B
:1056100004E6EE0E005C000E015806E2020EDB2AE4
:10562000030EEEE3DB2AECD7DF2A010ED0E3DB2A00
:10563000CED7040EE15C02E2E16AE552E16EE5528A
:10564000E7CFD9FF1200D9CFE6FFE1CFD9FF9EA85F
:10565000FED7FE0EDB50AD6E9E98E552E7CFD9FF28
:105660001200D9CFE6FFE1CFD9FFFD0EDBCFE9FF76
:10567000FE0EDBCFEAFFEF5010E0FD0EDBCFE9FFBF
:10568000FE0EDBCFEAFFEF50E66EDDDFE552FD0EEA
:10569000DB2AFE0EEAE3DB2AE8D7E552E7CFD9FFA3
:1056A0001200D9CFE6FFE1CFD9FFFD0EDBCFF6FF29
:1056B000FE0EDBCFF7FF0800F55015E0FD0EDBCF47
:1056C000F6FFFE0EDBCFF7FF0800F550E66EBBDFFE
:1056D000E552FD0EDBCFF6FFDB2AFE0EDBCFF7FF38
:1056E000E4E3DB2AE2D7E552E7CFD9FF1200D9CFB6
:1056F000E6FFE1CFD9FF050EE126010EF36EDB6E6A
:10570000020EDB6A030EDB6A040EDB6ADF6ADFCFA0
:1057100000F0016A00BE0168FB0EDBCF02F0FC0E58
:10572000DBCF03F001500318E8AE02D0033404D0FD
:105730000250005C035001582DE2FD0EDBCF00F05B
:10574000FE0EDBCF01F0026A036A01AE02D00268EE
:105750000368D950010FE96EDACFEAFF00C023F0E9
:1057600001C024F002C025F003C026F0EECF1EF0E9
:10577000EECF1FF0EECF20F0EFCF21F00DEC36F0A2
:105780001DC0EDFF1CC0EDFF1BC0EDFF1AC0EFFFF9
:10579000DF2ABDD7010EDBCF00F0020EDBCF01F018
:1057A000030EDBCF02F0040EDBCF03F000C01EF0CF
:1057B00001C01FF002C020F003C021F0050EE15C23
:1057C00002E2E16AE552E16EE552E7CFD9FF12004D
:1057D000D9CFE6FFE1CFD9FF020EE126DF6AFB0E4B
:1057E000DBCF00F0FC0EDBCF01F0FD0EDBCF02F0D3
:1057F000FE0EDBCF03F0005001100210031005E194
:10580000300EE66E20DFE552F4D0D950FB0FE96E82
:10581000FF0EDA20EA6ED890030EEB50000A08E67D
:10582000000EEE5C000EEE58000EEE58000EEE5824
:1058300015E22D0EE66E07DFE552D950FB0FE96E3B
:10584000FF0EDA20EA6E000EEE6CEF1EEE22EF1E67
:10585000EE22EF1EEF22ED52ED52ED52DE520A0E15
:10586000DD6E010EDBCF00F0000EE76E0018E8AE33
:1058700002D0003403D0E750D880005401E3B9D0FF
:10588000010EDB04046E056A04BE056804C0E6FF71
:1058900005C0E6FF0A0EE66EE66A29DFE552E5522C
:1058A000E552E5521EC000F01FC001F020C002F01A
:1058B00021C003F01EC023F01FC024F020C025F03B
:1058C00021C026F0FB0EDBCF1EF0FC0EDBCF1FF05D
:1058D000FD0EDBCF20F0FE0EDBCF21F045EC36F0E5
:1058E0001E501F102010211041E0010EDF6EDB045E
:1058F000086E096A08BE096808C0E6FF09C0E6FF2D
:105900000A0EE66EE66AF3DEE552E552E552E5522E
:105910001EC004F01FC005F020C006F021C007F033
:105920001EC023F01FC024F020C025F021C026F0A7
:10593000FB0EDBCF1EF0FC0EDBCF1FF0FD0EDBCF2E
:1059400020F0FE0EDBCF21F045EC36F01EC000F05B
:105950001FC001F020C002F021C003F0300E00266D
:10596000000E012202220322005003D0DF5004E087
:10597000300EE66E68DEE552010EDB04046E056A49
:1059800004BE056804C0E6FF05C0E6FF0A0EE66E29
:10599000E66AADDEE552E552E552E5521EC000F082
:1059A0001FC001F020C002F021C003F0D950FB0F4E
:1059B000E96EFF0EDA20EA6E1EC023F01FC024F04D
:1059C00020C025F021C026F0EECF1EF0EECF1FF054
:1059D000EECF20F0EFCF21F045EC36F01DC0EDFF0B
:1059E0001CC0EDFF1BC0EDFF1AC0EFFF010EDB0670
:1059F00038D7020EE15C02E2E16AE552E16EE5525F
:105A0000E7CFD9FF1200D9CFE6FFE1CFD9FFFB0ED8
:105A1000DBCF00F0FC0EDBCF01F0FD0EDBCF02F0A0
:105A2000FE0EDBCF03F0640E236E246A256A266A1D
:105A300000C01EF001C01FF002C020F003C021F022
:105A4000C9EC29F01EC000F01FC001F020C002F018
:105A500021C003F01EC0E6FF1FC0E6FF20C0E6FF26
:105A600021C0E6FFB5DEE552E552E552E5522E0EC5
:105A7000E66EE9DDE552FB0EDBCF00F0FC0EDBCF7E
:105A800001F0FD0EDBCF02F0FE0EDBCF03F0640E63
:105A9000236E246A256A266A00C01EF001C01FF02A
:105AA00002C020F003C021F0C9EC29F01AC000F0B8
