:020000040000FA
:060000004DEF0BF01200B1
:020006001200E6
:06000800F0EF08F0120009
:02000E000000F0
:020010000000EE
:06001800B7EF08F0120032
:02001E000300DD
:100020000E000000EA00000004000000D6160000E8
:10003000A000000020000000B616000080000000B4
:04004000200000009C
:0C004400B6DA76DA11AE02D0126813684A
:100050002DDA13E283DA4CDA04E6EE0E105C000EC1
:10006000115806E2020EDB2A030EF5E3DB2AF3D772
:10007000DF2A010EE8E3DB2AE6D7040EE15C02E2A8
:10008000E16AE552E16EF1D1EBD9E652190E6FDA71
:100090000F0E8116F80E81160F0E8116300E6DDAD6
:1000A000300E6BDA300E69DA818AD3D9280EE66E0B
:1000B00007D8E5520C0EE66E03D8E552E552D5D1CD
:1000C0007EDAF00B5ADAFE0EDB38F00B8112C1D962
:1000D000CCD1C6D9050EE126010EF36EDB6E3EDAF9
:1000E000040EDB6ADF6ADFCF10F0116A10BE116800
:1000F00028DA11501318E8AE02D0133404D012508D
:10010000105C135011581FE2FD0EDBCF10F0FE0EF5
:10011000DBCF11F0126A136A11AE02D012681368B5
:10012000D950010FE96EDACFEAFF10C00BF011C011
:100130000CF012C00DF013C00EF0E3D978EC0AF009
:10014000E9D9DF2AD0D7010EDBCF10F0020EDBCFCA
:1001500011F0030EDBCF12F0040EDBCF13F010C052
:1001600006F011C007F012C008F013C009F0050E28
:10017000E15C02E2E16AE552E16E77D11ADADAD99E
:1001800011AE02D01268136891D913E2E7D9B0D941
:1001900004E6060E105C000E115806E2020EDB2A81
:1001A000030EF5E3DB2AF3D7DF2A010EE8E3DB2AAF
:1001B000E6D7040EE15C02E2E16AE552E16E55D158
:1001C000FED98112818655D9819653D94ED148D90D
:1001D00081844FD97AD9819448D142D9819449D91F
:1001E00074D943D13DD9E652FD0EDB500F0B106E92
:1001F000FE0EDB50010B400DF3501024DF6E7F0E1E
:10020000DF14800FDF6EDFCFE6FFE7DFE552E55258
:100210002CD126D9FE0EDBCFE6FFD9DFE55225D162
:100220001FD9E6C010F0E7C011F0040ED8901036C8
:100230001136E806FBE1A00E1026000E1122105028
:100240000001E825E96E1150E921EA6EFE0EDBCFD0
:10025000EFFFE82B000EE92308D102D9FD0EDBCF1A
:10026000F6FFFE0EDBCFF7FF0800F5500FE0FD0EA6
:10027000DBCFF6FFDB2AFE0EDBCFF7FF01E3DB2A45
:100280000800F550E66EC5DFE552E8D7EED0E8D8B5
:10029000020EE126DF6AFE0EDB50010B0001E66F65
:1002A000E76BFD0EDB500F0BE86FE96BF90EDBCF50
:1002B00010F0FA0EDBCF11F044D9105011101210CB
:1002C000131003E1300E4FD96DD00BD9D890030E27
:1002D000EB50000A08E6000EEE5C000EEE58000E31
:1002E000EE58000EEE580EE22D0E3DD9FAD8000E53
:1002F000EE6CEF1EEE22EF1EEE22EF1EEF22ED520D
:10030000ED52ED52DE52070EDD6E010EDBCF10F026
:10031000000EE76E1018E8AE02D0103403D0E7509C
:10032000D88010543FE2010EDB04146E156A14BE2F
:100330001568B5D8A5D806500710081009101EE09A
:10034000010EDF6EDB04186E196A18BE196818C03A
:10035000E6FF19C0E6FF16D906C014F007C015F075
:1003600008C016F009C017F08BD811D9300E10262E
:10037000000E112212221322105003D0DF5002E08F
:10038000300EF1D8010EDB04146E156A14BE156828
:1003900086D8A7D805D9B5D8E6EC0AF0BBD8010EA7
:1003A000DB06B3D7020EE15C02E2E16AE552E16EE0
:1003B0005CD056D8E652CCD8DF6A100EDF5C07E27C
:1003C000DF50EA6AA00FE96E000EADD8F6D7E66AF4
:1003D000010EE66E07DFE552E552DF6A100EDF5CC4
:1003E00007E2DF50EA6AB00FE96E000E9CD8F6D73C
:1003F000E5523BD0010EE66EF0DEE552A8EF02F0CA
:100400002FD8E652DF6ADFCF10F0100EE76E10181B
:10041000E8AE02D0E73402D0E750105C18E2DFCF3C
:10042000E9FFEA6AE9BEEA68A00EE926000EEA22C0
:10043000200EEF6EDFCFE9FFEA6AE9BEEA68B00E90
:10044000E926000EEA22200EEF6EDF2ADCD7E55205
:100450000CD08186010E8BD88196010EB7EF02F089
:10046000D9CFE6FFE1CFD9FF1200E552E7CFD9FFA0
:100470001200050EE66EE66AE66AE66A7FDEA5D041
:100480008FD8F90EDBCF06F0FA0EDBCF07F0FB0EAC
:10049000DBCF08F0FC0EDBCF09F0E6EF0AF014C06A
:1004A000E6FF15C0E6FF6ED8C7EF02F0D950FB0F8C
:1004B000E96EFF0EDA20EA6EEE50105CEE50115835
:1004C000EE501258EE5013581200FE0EDBCFE6FF2E
:1004D00077DEE552FE0EDB38F00BE66E71DEE5529C
:1004E0001200D950F90FE96EFF0EDA20EA6E120001
:1004F000020EDBCF10F0030EDBCF11F0D8901150BD
:100500001200EECF06F0EECF07F0EECF08F0EFCFFF
:1005100009F0120005C0EDFF04C0EDFF03C0EDFFC0
:1005200002C0EFFF1200EA22EF50E66E72DEE552E3
:10053000DF2A1200DECF10F0DDCF11F0126A136A4D
:100540001200FB0EDBCF12F0FC0EDBCF13F012001B
:10055000E66AE66A47DEE552E5521200020EDB6A01
:10056000030EDB6A1200E66E5BDEE5521200E66EF9
:10057000E66AE66AE66A66DD28D081126ADF0F0E57
:10058000811612000A0EE66EE66AA3DD1ED006C0D2
:1005900010F007C011F008C012F009C013F01200EB
:1005A00006C00BF007C00CF008C00DF009C00EF03B
:1005B000120056DF040EE126DE6ADD6A120050DF0B
:1005C0000F0E8116FE0EDB501200E552E552E55289
:0405D000E5521200DE
:0C05D400B06A810EAF6EAC8AAC94B886A1
:1005E000AC98AB8EAB889E9A9D8A9F9A949C948E71
:1005F0001200D9CFE6FFE1CFD9FF040EE126DE6A73
:10060000DD6ADECF10F0DDCF11F0FD0EDBCF12F092
:10061000FE0EDBCF13F011501318E8AE02D01334E6
:1006200004D01250105C135011581DE2020EDB6A08
:10063000030EDB6A020EDBCF10F0030EDBCF11F0EE
:10064000D890115004E6EE0E105C000E115806E230
:10065000020EDB2A030EEEE3DB2AECD7DF2A010EC3
:10066000D0E3DB2ACED7040EE15C02E2E16AE55278
:10067000E16EE552E7CFD9FF1200D9CFE6FFE1CF17
:10068000D9FF9EA8FED7FE0EDB50AD6E9E98E552B8
:10069000E7CFD9FF1200D9CFE6FFE1CFD9FFFD0E9A
:1006A000DBCFE9FFFE0EDBCFEAFFEF5010E0FD0EDF
:1006B000DBCFE9FFFE0EDBCFEAFFEF50E66EDDDFBA
:1006C000E552FD0EDB2AFE0EEAE3DB2AE8D7E5520F
:1006D000E7CFD9FF1200D9CFE6FFE1CFD9FFFD0E5A
:1006E000DBCFF6FFFE0EDBCFF7FF0800F55015E07D
:1006F000FD0EDBCFF6FFFE0EDBCFF7FF0800F55057
:10070000E66EBBDFE552FD0EDBCFF6FFDB2AFE0E09
:10071000DBCFF7FFE4E3DB2AE2D7E552E7CFD9FFEF
:100720001200D9CFE6FFE1CFD9FF050EE126010E79
:10073000F36EDB6E020EDB6A030EDB6A040EDB6A0D
:10074000DF6ADFCF10F0116A10BE1168FB0EDBCF3D
:1007500012F0FC0EDBCF13F011501318E8AE02D0EC
:10076000133404D01250105C135011582DE2FD0EBA
:10077000DBCF10F0FE0EDBCF11F0126A136A11AE60
:1007800002D012681368D950010FE96EDACFEAFF80
:1007900010C00BF011C00CF012C00DF013C00EF021
:1007A000EECF06F0EECF07F0EECF08F0EFCF09F076
:1007B00078EC0AF005C0EDFF04C0EDFF03C0EDFFCB
:1007C00002C0EFFFDF2ABDD7010EDBCF10F0020E13
:1007D000DBCF11F0030EDBCF12F0040EDBCF13F0F2
:1007E00010C006F011C007F012C008F013C009F0E5
:1007F000050EE15C02E2E16AE552E16EE552E7CF07
:10080000D9FF1200D9CFE6FFE1CFD9FF020EE126D2
:10081000DF6AFB0EDBCF10F0FC0EDBCF11F0FD0E1C
:10082000DBCF12F0FE0EDBCF13F0105011101210C0
:10083000131005E1300EE66E20DFE552F4D0D950FA
:10084000FB0FE96EFF0EDA20EA6ED890030EEB5034
:10085000000A08E6000EEE5C000EEE58000EEE58A0
:10086000000EEE5815E22D0EE66E07DFE552D95068
:10087000FB0FE96EFF0EDA20EA6E000EEE6CEF1E43
:10088000EE22EF1EEE22EF1EEF22ED52ED52ED5260
:10089000DE520A0EDD6E010EDBCF10F0000EE76EA9
:1008A0001018E8AE02D0103403D0E750D8801054AE
:1008B00001E3B9D0010EDB04146E156A14BE15688D
:1008C00014C0E6FF15C0E6FF0A0EE66EE66A29DFF1
:1008D000E552E552E552E55206C010F007C011F0AE
:1008E00008C012F009C013F006C00BF007C00CF0EE
:1008F00008C00DF009C00EF0FB0EDBCF06F0FC0EB9
:10090000DBCF07F0FD0EDBCF08F0FE0EDBCF09F0EA
:10091000E6EC0AF0065007100810091041E0010E3D
:10092000DF6EDB04186E196A18BE196818C0E6FF7E
:1009300019C0E6FF0A0EE66EE66AF3DEE552E552FE
:10094000E552E55206C014F007C015F008C016F0D5
:1009500009C017F006C00BF007C00CF008C00DF07E
:1009600009C00EF0FB0EDBCF06F0FC0EDBCF07F06C
:10097000FD0EDBCF08F0FE0EDBCF09F0E6EC0AF04F
:1009800006C010F007C011F008C012F009C013F043
:10099000300E1026000E112212221322105003D006
:1009A000DF5004E0300EE66E68DEE552010EDB0437
:1009B000146E156A14BE156814C0E6FF15C0E6FF74
:1009C0000A0EE66EE66AADDEE552E552E552E55204
:1009D00006C010F007C011F008C012F009C013F0F3
:1009E000D950FB0FE96EFF0EDA20EA6E06C00BF05D
:1009F00007C00CF008C00DF009C00EF0EECF06F0F5
:100A0000EECF07F0EECF08F0EFCF09F0E6EC0AF0FA
:100A100005C0EDFF04C0EDFF03C0EDFF02C0EFFF16
:100A2000010EDB0638D7020EE15C02E2E16AE55214
:100A3000E16EE552E7CFD9FF1200D9CFE6FFE1CF53
:100A4000D9FFFB0EDBCF10F0FC0EDBCF11F0FD0E5B
:100A5000DBCF12F0FE0EDBCF13F0640E0B6E0C6AD0
:100A60000D6A0E6A10C006F011C007F012C008F03F
:100A700013C009F0AFEC09F006C010F007C011F088
:100A800008C012F009C013F006C0E6FF07C0E6FF79
:100A900008C0E6FF09C0E6FFB5DEE552E552E552C3
:100AA000E5522E0EE66EE9DDE552FB0EDBCF10F0CF
:100AB000FC0EDBCF11F0FD0EDBCF12F0FE0EDBCF14
:100AC00013F0640E0B6E0C6A0D6A0E6A10C006F00D
:100AD00011C007F012C008F013C009F0AFEC09F024
:100AE00002C010F003C011F004C012F005C013F0F2
:100AF00002C0E6FF03C0E6FF04C0E6FF05C0E6FF54
:100B000081DEE552E552E552E552E552E7CFD9FFE5
:040B100012001200BD
:0C0B14001CD8C50EE66E150EE66E2DEC2A
:100B200001F0E552E552E80EE66E030EE66E32D8AD
:100B3000E552E55200018B51FDE000EC02F00001AE
:100B40008B6B6CD8D9D8F3D8D9EC01F0F3D7936A72
:100B500044EC00F0FAEC01F000EC02F0F40EE66E6A
:100B6000010EE66E17D8E552E552AFEC08F032EC14
:100B70000AF0660EE66EB70EE66EC2EC07F0E552BE
:100B8000E552320EE66EE66A40EC08F0E552E552B8
:100B9000EAEF02F0D9CFE6FFE1CFD9FF040EE1265C
:100BA000DE6ADD6ADECF10F0DDCF11F0FD0EDBCFA7
:100BB00012F0FE0EDBCF13F011501318E8AE02D086
:100BC000133404D01250105C135011581DE2020E61
:100BD000DB6A030EDB6A020EDBCF10F0030EDBCF05
:100BE00011F0D890115004E6EE0E105C000E115872
:100BF00006E2020EDB2A030EEEE3DB2AECD7DF2A45
:100C0000010ED0E3DB2ACED7040EE15C02E2E16AFA
:100C1000E552E16EE552E7CFD9FF1200D9CFE6FFEA
:100C2000E1CFD9FF020EE126DE6ADD6ADECF10F0E9
:100C3000DDCF11F0D890115004E6020E105C000ECA
:100C4000115823E2DFCFE6FF39EC0AF0E552F3CF8B
:100C500010F0F4CF11F0DECFE9FFDDCFEAFFD8903E
:100C6000E936EA36C00EE926000EEA22F3CFEEFF9F
:100C700011C0EDFF140EE66EE66A8CDFE552E55218
:100C8000DF2A010ED3E3DB2AD1D7C0C010F0C1C0E8
:100C900011F0126A136AC0C0E6FFC1C0E6FF12C0BD
:100CA000E6FF13C0E6FFE66AE66A47EC01F0146E61
:100CB000060EE15E1450C2C010F0C3C011F0126AFB
:100CC000136AC2C0E6FFC3C0E6FF12C0E6FF13C04E
:100CD000E6FF060EE66EE66A47EC01F0146E060EBD
:100CE000E15E1450020EE15C02E2E16AE552E16E5F
:100CF000E552E7CFD9FF12000001BB0ECC6F010E09
:100D0000CD6FC2C0CEF0C3C0CFF0030ED06F0C0EBB
:100D1000D16F1B0ED26FD36B0C0ED46FD56BC0C0CE
:100D2000D8F0C1C0D9F0D66B140ED76F1200010EE7
:100D30000001DA25DA6F000EDB21DB6F280E0D6E65
:100D40000E6ADAC008F0DBC009F027EC0BF004C033
:100D5000DAF005C0DBF000010450051001E01200DC
:100D6000AC0EE66E150EE66E6BEC03F0E552E55246
:100D7000CCC010F0CDC011F0126A136ACCC0E6FFEF
:100D8000CDC0E6FF12C0E6FF13C0E6FF1DEC05F084
:100D9000E552E552E552E552A30EE66E150EE66EFB
:100DA0006BEC03F0E552E552CEC010F0CFC011F06D
:100DB000126A136ACEC0E6FFCFC0E6FF12C0E6FF9C
:100DC00013C0E6FF1DEC05F0E552E552E552E55291
:100DD000970EE66E150EE66E6BEC03F0E552E552EB
:100DE000D0C010F0D1C011F0126A136AD0C0E6FF73
:100DF000D1C0E6FF12C0E6FF13C0E6FF1DEC05F010
:100E0000E552E552E552E5528B0EE66E150EE66EA2
:100E10006BEC03F0E552E552D8C010F0D9C011F0E8
:100E2000126A136AD8C0E6FFD9C0E6FF12C0E6FF17
:100E300013C0E6FF1DEC05F0E552E552E552E55220
:100E4000820EE66E150EE66E6BEC03F0E552E5528F
:100E5000D2C010F0D3C011F0126A136AD2C0E6FFFC
:100E6000D3C0E6FF12C0E6FF13C0E6FF1DEC05F09D
:100E7000E552E552E552E552760EE66E150EE66E47
:100E80006BEC03F0E552E552D4C010F0D5C011F080
:100E9000126A136AD4C0E6FFD5C0E6FF12C0E6FFAF
:100EA00013C0E6FF1DEC05F0E552E552E552E552B0
:100EB000690EE66E150EE66E6BEC03F0E552E55238
:100EC000D6C010F0D7C011F0126A136AD6C0E6FF80
:100ED000D7C0E6FF12C0E6FF13C0E6FF1DEC05F029
:100EE000E552E552E552E552600EE66E150EE66EED
:0A0EF0006BEC03F0E552E55212002E
:060EFA00F1D8D59EFD0EAB
:100F0000DBCF80F0FE0EDBCF81F0D59C05D9D59AE2
:100F1000D586F28AF294F184D58EE6D0D59E120061
:100F2000FBD8D58E1200DBD8CD90FD0EDBCF82F042
:100F3000FE0EDBCF83F0F7D89D809E909F90CD8EE4
:100F4000CD8CCD98CD9ACD96CD92CD80CDD0EBD80D
:100F5000CD801200CD901200C2D8CA94CC6AFE0E89
:100F6000DB500001846F856BCB6E9D829E929F92B9
:100F7000CA90CA92CA84B8D084C0CBFFCA84120077
:100F8000CA941200ACD8B190FD0EDBCF86F0FE0EF5
:100F9000DBCF87F0CFD80750B36ECCD8B5D8B26EC0
:100FA000A082A192A292B18EB198B19AB192B18071
:100FB0009BD0C0D80350B26EBDD89ED8B36EB1805E
:100FC0001200B19012000001902B000E9123985155
:100FD000905D9951915904E3906B916B010E886F6C
:100FE00012000001922B000E93239A51925D9B51A7
:100FF000935904E3926B936B010E896F1200000109
:10100000942B000E95239C51945D9D51955904E3BA
:10101000946B956B010E8A6F12000001962B000EE7
:1010200097239E51965D9F51975904E3966B976B5A
:10103000010E8B6F120053D8FD0EDBCF98F0FE0E21
:10104000DBCF99F00001906B916B886B4DD047D846
:10105000FD0EDBCF9AF0FE0EDBCF9BF0050E0D6E82
:101060000E6A9AC008F09BC009F05CEC09F008C059
:101070009AF009C09BF00001926B936B896B34D09E
:101080002ED8FD0EDBCF9EF0FE0EDBCF9FF00A0EBA
:101090000D6E0E6A9EC008F09FC009F05CEC09F06E
:1010A00008C09EF009C09FF00001966B976B8B6B98
:1010B0001BD0186A1650135C106E17501458116E1E
:1010C00018501558126E0C6A010E0D6E0E6A10C083
:1010D00007F011C008F012C009F082EF09F0D9CF73
:1010E000E6FFE1CFD9FF1200E552E7CFD9FF1200AA
:1010F00013681468156A120007C010F008C011F0D8
:1011000009C012F00750120003C010F004C011F023
:1011100005C012F00350120014D80350D66E11D837
:10112000EBDFD76E120014D80750CF6E11D8ECDF6A
:10113000CE6E1200DDDF86C016F087C017F059EFC3
:1011400008F0D6DF80C016F081C017F059EF08F024
:0E115000CFDF82C016F083C017F059EF08F011
:02115E00F28E0F
:10116000D08EF28C1200F19CF292F2881200D8CF4D
:10117000E4FFE0CFE4FFE46E62D800EE00F0100E72
:10118000E80403E3EECFE4FFFBD700EE10F00A0E15
:10119000E80403E3EECFE4FFFBD7E652F2B477D8DE
:1011A0009EB07CD8A1B281D8F2B2F2929EBA9E9A39
:1011B000E55200EE19F00A0EE80403E3E5CFEDFF77
:1011C000FBD700EE0FF0100EE80403E3E5CFEDFFD0
:1011D000FBD74AD8E550E5CFE0FFE5CFD8FF1000B8
:1011E0002ED800EE00F0100EE80403E3EECFE4FF8B
:1011F000FBD700EE10F00A0EE80403E3EECFE4FFA5
:10120000FBD7E652F2B443D89EB048D8A1B24DD82D
:10121000F2B2F2929EBA9E9AE55200EE19F00A0ED0
:10122000E80403E3E5CFEDFFFBD700EE0FF0100E6F
:10123000E80403E3E5CFEDFFFBD716D81100DACFC2
:10124000E4FFE2CFDAFFE9CFE4FFEACFE4FFF6CF35
:10125000E4FFF7CFE4FFF5CFE4FFF3CFE4FFF4CFF3
:10126000E4FFFACFE4FF1200E5CFFAFFE5CFF4FF89
:10127000E5CFF3FFE5CFF5FFE5CFF7FFE5CFF6FFCD
:10128000E5CFEAFFE5CFE9FFE5CFDAFF12008EEC0C
:1012900007F0F29490EC07F0E3EF07F0AAEC07F008
:1012A0009E90A7EC07F0F1EF07F0E1EC07F0A192B8
:0812B000D9EC07F00DEF08F086
:0812B800006A0EAE65EF09F0BB
:1012C0000D6C0E1EE86A0E22001E09AE6DEF09F0CD
:1012D000086C091EE86A0922001E27EC0BF009BE03
:1012E0007DEF09F000AE000C086C091EE86A0922C7
:1012F000046C051EE86A0522000C00BE74EF09F0BC
:101300000188FF0C006A0EAE8DEF09F00C6C0D1E0B
:101310000E1EE86A0D220E22001E09AE97EF09F09C
:10132000076C081E091EE86A08220922001E0AEC42
:101330000BF009BEAAEF09F000AE000C076C081E06
:10134000091EE86A08220922036C041E051E0422F5
:101350000522000C00BE9EEF09F00188FF0C006A18
:10136000E86A0EAEBCEF09F00B6C0C1E0D1E0E1ED3
:101370000C220D220E22001E09AEC7EF09F0066CEA
:10138000071E081E091E072208220922001EE6EC7D
:101390000AF009BEDEEF09F000AE000C066C071E75
:1013A000081E091EE86A072208220922026C031E91
:1013B000041E051E032204220522000C00BECEEFEF
:0613C00009F00188FF0C9A
:0A13C6001E0EF66E000EF76E000E0C
:1013D000F86E00010900F550E16F0900F550E26F69
:1013E00003E1E16701D03DD00900F550DC6F090051
:1013F000F550DD6F0900F550DE6F09000900F5506A
:10140000E96E0900F550EA6E090009000900F5507F
:10141000DF6F0900F550E06F09000900F6CFE3F037
:10142000F7CFE4F0F8CFE5F0DCC0F6FFDDC0F7FF62
:10143000DEC0F8FF0001DF5302E1E05307E00900DE
:10144000F550EE6EDF07F8E2E007F9D7E3C0F6FFEC
:10145000E4C0F7FFE5C0F8FF0001E107000EE25B22
:04146000BFD71200E0
:0C1464000F0E926E0B0EC16E040EC06ED7
:101470001200D9CFE6FFE1CFD9FF020EE126FE0E22
:10148000DB50040DF350C26EC280C282C2B2FED7DE
:10149000C450DE6EDD6ADECF12F0DDCF13F0D890DF
:1014A00012361336D89012361336060EC3CFE7FF26
:1014B000070B04E0E742E79EE806FCE1E750122450
:1014C000106E000E132010C0DEFFDD6EDECF10F0B8
:1014D000DDCF11F010C0F3FF11C0F4FF020EE15C8C
:1014E00002E2E16AE552E16EE552E7CFD9FF120070
:1014F00006500B02F3CF02F0F4CF03F00C02F350CE
:101500000326000EF420046E06500D02F35004264C
:10151000000EF420056E06500E02F350052607500B
:101520000B02F3500326F4500422000E052207504C
:101530000C02F3500426F450052207500D02F3501C
:10154000052608500B02F3500426F45005220850DB
:101550000C02F350052609500B02F3500526120029
:10156000206D332F68200D0A00206D672F6C2046F8
:101570004C4F573D2000206D672F6C204E4F333D60
:1015800020002043204E48343D2000206D672F6C02
:1015900020544D503D2000206D672F6C2043534256
:1015A0003D20002070482053533D200032302E3023
:1015B000342E31362030393A31323A3037202070EB
:0B15C000483D20200048656C6C6F0067
:0415CC00056A046A3E
:1015D000036A026A200EE76ED89006360736083690
:1015E000093602360336043605360B50025C0C50C1
:1015F00003580D5004580E50055809E30B50025E75
:101600000C50035A0D50045A0E50055A062AE72E64
:04161000E4D7120009
:0C161400056A046A036A180EE76ED8909D
:101620000736083609360336043605360C50035C97
:101630000D5004580E50055807E30C50035E0D5032
:0E164000045A0E50055A072AE72EEAD7120068
:02164E00056A2B
:10165000046A100EE76ED89008360936043605364F
:101660000D50045C0E50055805E30D50045E0E50FD
:0A167000055A082AE72EF0D71200F1
:06167A00800EF36E00EE8D
:1016800000F00F0E01D81200EA6002D0EE6AFCD71B
:0A169000F350E9601200EE6AFCD787
:06169A001EEE00F02EEE32
:1016A00000F0F86A019CE3EC09F003EC00F08AEC2E
:0616B00005F0FBD712005B
:0A16B600000000000000000000002A
:1016C0000000000000000000000000000000010019
:0616D00001000100010011
:0A16D60020202020202020202020CA
:1016E00020202020202020202020202020202020FA
:0616F00020202020202034
:020000040030CA
:0100010002FC
:0100020003FA
:010003001EDE
:010005008179
:010006008178
:010008000FE8
:01000900C036
:01000A000FE6
:01000B00E014
:01000C000FE4
:01000D0040B2
:00000001FF
