:020000040000FA
:0600000020EF10F01200D9
:020006001200E6
:060008004AEF0EF01200A9
:02000E000000F0
:020010000000EE
:0600180011EF0EF01200D2
:02001E000300DD
:100020000E000000EA000000040000007C20000038
:10003000A0000000200000005C2000008000000004
:04004000200000009C
:0C0044001CD86B0EE66E1F0EE66ECCECB6
:1000500005F0E552E552E80EE66E030EE66E32D884
:10006000E552E55200018B51FDE09FEC06F00001E6
:100070008B6B6CD837D9ABDB78EC06F0F3D7936A8F
:10008000E3EC04F099EC06F09FEC06F0F40EE66E5B
:10009000010EE66E17D8E552E55209EC0EF005ECBC
:1000A0000FF0660EE66EB70EE66E1CEC0DF0E55234
:1000B000E552320EE66EE66A9AEC0DF0E552E55234
:1000C00037EF0AF0D9CFE6FFE1CFD9FF040EE126E2
:1000D000DE6ADD6ADECF00F0DDCF01F0FD0EDBCFA2
:1000E00002F0FE0EDBCF03F001500318E8AE02D0A1
:1000F000033404D00250005C035001581DE2020E8C
:10010000DB6A030EDB6A020EDBCF00F0030EDBCFEF
:1001100001F0D890015004E6EE0E005C000E01588C
:1001200006E2020EDB2A030EEEE3DB2AECD7DF2A1F
:10013000010ED0E3DB2ACED7040EE15C02E2E16AD5
:10014000E552E16EE552E7CFD9FF1200D9CFE6FFC5
:10015000E1CFD9FF020EE126DE6ADD6ADECF00F0D4
:10016000DDCF01F0D890015004E6060E005C000ED1
:10017000015823E2DFCFE6FF0CEC0FF0E552F3CF9E
:1001800000F0F4CF01F0DECFE9FFDDCFEAFFD89039
:10019000E936EA36C00EE926000EEA22F3CFEEFF7A
:1001A00001C0EDFF140EE66EE66A8CDFE552E55203
:1001B000DF2A010ED3E3DB2AD1D7C0C000F0C1C0D3
:1001C00001F0026A036AC0C0E6FFC1C0E6FF02C0D8
:1001D000E6FF03C0E6FFE66AE66AE6EC05F0046EB9
:1001E000060EE15E0450C2C000F0C3C001F0026A16
:1001F000036AC2C0E6FFC3C0E6FF02C0E6FF03C059
:10020000E6FF060EE66EE66AE6EC05F0046E060E04
:10021000E15E0450C4C000F0C5C001F0026A036A88
:10022000C4C0E6FFC5C0E6FF02C0E6FF03C0E6FFAC
:100230000C0EE66EE66AE6EC05F0046E060EE15E74
:100240000450C6C000F0C7C001F0026A036AC6C00D
:10025000E6FFC7C0E6FF02C0E6FF03C0E6FFE66AAE
:10026000010EE66EE6EC05F0046E060EE15E04504B
:10027000C8C000F0C9C001F0026A036AC8C0E6FF46
:10028000C9C0E6FF02C0E6FF03C0E6FF060EE66E49
:10029000010EE66EE6EC05F0046E060EE15E04501B
:1002A000CAC000F0CBC001F0026A036ACAC0E6FF10
:1002B000CBC0E6FF02C0E6FF03C0E6FF0C0EE66E11
:1002C000010EE66EE6EC05F0046E060EE15E0450EB
:1002D000020EE15C02E2E16AE552E16EE552E7CF2F
:1002E000D9FF1200CD0E046ECC0E056EDC0E066E2C
:1002F000400E076EC0C014F0C1C015F0166A176A30
:10030000C0C01EF0C1C01FF016C020F017C021F001
:100310008BEC07F01FC010F020C011F021C012F0CC
:1003200022C013F0680E246E660E256E266E3F0EF8
:10033000276E8EEC08F01FC00CF020C00DF021C01D
:100340000EF022C00FF0246AC00E256E7F0E266EBE
:10035000440E276E3BEC08F01FC008F020C009F0E7
:1003600021C00AF022C00BF01FC024F020C025F0ED
:1003700021C026F022C027F004C01FF005C020F0E5
:1003800006C021F007C022F0A5EC07F01FC000F066
:1003900020C001F021C002F022C003F0246A256AC7
:1003A000C80E266E420E276E8EEC08F082EC09F025
:1003B00020C0CCF021C0CDF0046A056AE00E066EC4
:1003C000410E076EC2C014F0C3C015F0166A176A5A
:1003D000C2C01EF0C3C01FF016C020F017C021F02D
:1003E0008BEC07F01FC010F020C011F021C012F0FC
:1003F00022C013F0246A256A880E266E410E276EED
:100400008EEC08F01FC00CF020C00DF021C00EF0E3
:1004100022C00FF0246AC00E256E7F0E266E440E99
:10042000276E3BEC08F01FC008F020C009F021C087
:100430000AF022C00BF01FC024F020C025F021C01C
:1004400026F022C027F004C01FF005C020F006C02F
:1004500021F007C022F0A5EC07F01FC000F020C07B
:1004600001F021C002F022C003F0246A256AC80E00
:10047000266E420E276E8EEC08F082EC09F020C04A
:10048000CEF021C0CFF0046A056AB40E066E420EAB
:10049000076EC4C014F0C5C015F0166A176AC4C050
:1004A0001EF0C5C01FF016C020F017C021F08BEC65
:1004B00007F01FC010F020C011F021C012F022C0C0
:1004C00013F0246A256AB40E266E420E276E8EEC57
:1004D00008F01FC00CF020C00DF021C00EF022C0AB
:1004E0000FF0246AC00E256E7F0E266E440E276E16
:1004F0003BEC08F01FC008F020C009F021C00AF052
:1005000022C00BF01FC024F020C025F021C026F02F
:1005100022C027F004C01FF005C020F006C021F063
:1005200007C022F0A5EC07F01FC000F020C001F0CA
:1005300021C002F022C003F0246A256AC80E266E8C
:10054000420E276E8EEC08F082EC09F020C0D0F04D
:1005500021C0D1F0660E046E056E060E066E400ECA
:10056000076EC6C014F0C7C015F0166A176AC6C079
:100570001EF0C7C01FF016C020F017C021F08BEC92
:1005800007F01FC010F020C011F021C012F022C0EF
:1005900013F0340E246E330E256E530E266E400E6D
:1005A000276E8EEC08F01FC00CF020C00DF021C0AB
:1005B0000EF022C00FF0246AC00E256E7F0E266E4C
:1005C000440E276E3BEC08F01FC008F020C009F075
:1005D00021C00AF022C00BF01FC024F020C025F07B
:1005E00021C026F022C027F004C01FF005C020F073
:1005F00006C021F007C022F0A5EC07F01FC000F0F4
:1006000020C001F021C002F022C003F0246A256A54
:10061000C80E266E420E276E8EEC08F082EC09F0B2
:1006200020C0D2F021C0D3F0046A056AC00E066E65
:100630003F0E076EC8C014F0C9C015F0166A176ADD
:10064000C8C01EF0C9C01FF016C020F017C021F0AE
:100650008BEC07F01FC010F020C011F021C012F089
:1006600022C013F0246A256A800E266E400E276E83
:100670008EEC08F01FC00CF020C00DF021C00EF071
:1006800022C00FF0246A256AAC0E266E420E276E39
:100690003BEC08F01FC008F020C009F021C00AF0B0
:1006A00022C00BF01FC024F020C025F021C026F08E
:1006B00022C027F004C01FF005C020F006C021F0C2
:1006C00007C022F0A5EC07F01FC000F020C001F029
:1006D00021C002F022C003F0246A256AC80E266EEB
:1006E000420E276E8EEC08F082EC09F020C0D4F0A8
:1006F00021C0D5F0046A056A200E066E430E076E0F
:10070000CAC014F0CBC015F0166A176ACAC01EF032
:10071000CBC01FF016C020F017C021F08BEC07F003
:100720001FC010F020C011F021C012F022C013F041
:10073000246A256AB40E266E420E276E8EEC08F0EF
:100740001FC00CF020C00DF021C00EF022C00FF031
:10075000246AC00E256E7F0E266E440E276E3BEC7B
:1007600008F01FC008F020C009F021C00AF022C024
:100770000BF01FC024F020C025F021C026F022C0BD
:1007800027F004C01FF005C020F006C021F007C00C
:1007900022F0A5EC07F01FC000F020C001F021C03E
:1007A00002F022C003F0246A256AC80E266E420EAB
:1007B000276E8EEC08F082EC09F020C0D6F021C044
:1007C000D7F00001C40ED86F090ED96F1200010EC8
:1007D0000001DA25DA6F000EDB21DB6B030EDA177E
:1007E000DA51DB1101E01200520EE66E1F0EE66ECA
:1007F000B8EC0AF0E552E552CCC000F0CDC001F0F3
:10080000026A036ACCC0E6FFCDC0E6FF02C0E6FF85
:1008100003C0E6FF6AEC0CF0E552E552E552E55202
:10082000490EE66E1F0EE66EB8EC0AF0E552E55290
:10083000CEC000F0CFC001F0026A036ACEC0E6FF6E
:10084000CFC0E6FF02C0E6FF03C0E6FF6AEC0CF093
:10085000E552E552E552E5523D0EE66E1F0EE66E9C
:10086000B8EC0AF0E552E552D0C000F0D1C001F07A
:10087000026A036AD0C0E6FFD1C0E6FF02C0E6FF0D
:1008800003C0E6FF6AEC0CF0E552E552E552E55292
:10089000310EE66E1F0EE66EB8EC0AF0E552E55238
:1008A000D8C000F0D9C001F0026A036AD8C0E6FFE0
:1008B000D9C0E6FF02C0E6FF03C0E6FF6AEC0CF019
:1008C000E552E552E552E552280EE66E1F0EE66E41
:1008D000B8EC0AF0E552E552D2C000F0D3C001F006
:1008E000026A036AD2C0E6FFD3C0E6FF02C0E6FF99
:1008F00003C0E6FF6AEC0CF0E552E552E552E55222
:100900001C0EE66E1F0EE66EB8EC0AF0E552E552DC
:10091000D4C000F0D5C001F0026A036AD4C0E6FF7B
:10092000D5C0E6FF02C0E6FF03C0E6FF6AEC0CF0AC
:10093000E552E552E552E5520F0EE66E1F0EE66EE9
:10094000B8EC0AF0E552E552D6C000F0D7C001F08D
:10095000026A036AD6C0E6FFD7C0E6FF02C0E6FF20
:1009600003C0E6FF6AEC0CF0E552E552E552E552B1
:10097000060EE66E1F0EE66EB8EC0AF0E552E55282
:02098000120063
:0E098200B6DA76DA01AE02D0026803682DDA2A
:1009900013E283DA4CDA04E6EE0E005C000E015836
:1009A00006E2020EDB2A030EF5E3DB2AF3D7DF2A89
:1009B000010EE8E3DB2AE6D7040EE15C02E2E16A1D
:1009C000E552E16EF1D1EBD9E652190E6FDA0F0E56
:1009D0008116F80E81160F0E8116300E6DDA300E6C
:1009E0006BDA300E69DA818AD3D9280EE66E07D821
:1009F000E5520C0EE66E03D8E552E552D5D17EDA0B
:100A0000F00B5ADAFE0EDB38F00B8112C1D9CCD1D3
:100A1000C6D9050EE126010EF36EDB6E3EDA040E3A
:100A2000DB6ADF6ADFCF00F0016A00BE016828DA06
:100A300001500318E8AE02D0033404D00250005C29
:100A4000035001581FE2FD0EDBCF00F0FE0EDBCF9E
:100A500001F0026A036A01AE02D002680368D9504D
:100A6000010FE96EDACFEAFF00C023F001C024F0E5
:100A700002C025F003C026F0E3D94BEC0FF0E9D912
:100A8000DF2AD0D7010EDBCF00F0020EDBCF01F062
:100A9000030EDBCF02F0040EDBCF03F000C01EF02C
:100AA00001C01FF002C020F003C021F0050EE15C80
:100AB00002E2E16AE552E16E77D11ADADAD901AEE3
:100AC00002D00268036891D913E2E7D9B0D904E6ED
:100AD000060E005C000E015806E2020EDB2A030E31
:100AE000F5E3DB2AF3D7DF2A010EE8E3DB2AE6D7BA
:100AF000040EE15C02E2E16AE552E16E55D1FED9F5
:100B00008112818655D9819653D94ED148D9818495
:100B10004FD97AD9819448D142D9819449D974D98D
:100B200043D13DD9E652FD0EDB500F0B006EFE0E99
:100B3000DB50010B400DF3500024DF6E7F0EDF14FD
:100B4000800FDF6EDFCFE6FFE7DFE552E5522CD105
:100B500026D9FE0EDBCFE6FFD9DFE55225D11FD91E
:100B6000E6C000F0E7C001F0040ED8900036013670
:100B7000E806FBE1A00E0026000E01220050000155
:100B8000E825E96E0150E921EA6EFE0EDBCFEFFFAA
:100B9000E82B000EE92308D102D9FD0EDBCFF6FFCA
:100BA000FE0EDBCFF7FF0800F5500FE0FD0EDBCFA8
:100BB000F6FFDB2AFE0EDBCFF7FF01E3DB2A08009E
:100BC000F550E66EC5DFE552E8D7EED0E8D8020E64
:100BD000E126DF6AFE0EDB50010B0001E66FE76BDA
:100BE000FD0EDB500F0BE86FE96BF90EDBCF00F069
:100BF000FA0EDBCF01F044D90050011002100310AF
:100C000003E1300E4FD96DD00BD9D890030EEB50C5
:100C1000000A08E6000EEE5C000EEE58000EEE58DC
:100C2000000EEE580EE22D0E3DD9FAD8000EEE6CF5
:100C3000EF1EEE22EF1EEE22EF1EEF22ED52ED52DE
:100C4000ED52DE52070EDD6E010EDBCF00F0000E1E
:100C5000E76E0018E8AE02D0003403D0E750D88029
:100C600000543FE2010EDB04046E056A04BE056811
:100C7000B5D8A5D81E501F10201021101EE0010E5F
:100C8000DF6EDB04086E096A08BE096808C0E6FF6B
:100C900009C0E6FF16D91EC004F01FC005F020C031
:100CA00006F021C007F08BD811D9300E0026000EB7
:100CB000012202220322005003D0DF5002E0300E56
:100CC000F1D8010EDB04046E056A04BE056886D8FF
:100CD000A7D805D9B5D8B9EC0FF0BBD8010EDB0603
:100CE000B3D7020EE15C02E2E16AE552E16E5CD04C
:100CF00056D8E652CCD8DF6A100EDF5C07E2DF5030
:100D0000EA6AA00FE96E000EADD8F6D7E66A010ECA
:100D1000E66E07DFE552E552DF6A100EDF5C07E2A0
:100D2000DF50EA6AB00FE96E000E9CD8F6D7E552A4
:100D30003BD0010EE66EF0DEE55247EF07F02FD80C
:100D4000E652DF6ADFCF00F0100EE76E0018E8AE63
:100D500002D0E73402D0E750005C18E2DFCFE9FFB1
:100D6000EA6AE9BEEA68A00EE926000EEA22200E31
:100D7000EF6EDFCFE9FFEA6AE9BEEA68B00EE92666
:100D8000000EEA22200EEF6EDF2ADCD7E5520CD0EF
:100D90008186010E8BD88196010E56EF07F0D9CFD0
:100DA000E6FFE1CFD9FF1200E552E7CFD9FF1200ED
:100DB000050EE66EE66AE66AE66A7FDEA5D08FD8A3
:100DC000F90EDBCF1EF0FA0EDBCF1FF0FB0EDBCFF0
:100DD00020F0FC0EDBCF21F0B9EF0FF004C0E6FFEE
:100DE00005C0E6FF6ED866EF07F0D950FB0FE96E3D
:100DF000FF0EDA20EA6EEE50005CEE500158EE5025
:100E00000258EE5003581200FE0EDBCFE6FF77DEED
:100E1000E552FE0EDB38F00BE66E71DEE552120095
:100E2000D950F90FE96EFF0EDA20EA6E1200020EB9
:100E3000DBCF00F0030EDBCF01F0D89001501200A1
:100E4000EECF1EF0EECF1FF0EECF20F0EFCF21F06F
:100E500012001DC0EDFF1CC0EDFF1BC0EDFF1AC04E
:100E6000EFFF1200EA22EF50E66E72DEE552DF2A53
:100E70001200DECF00F0DDCF01F0026A036A12003B
:100E8000FB0EDBCF02F0FC0EDBCF03F01200E66AB4
:100E9000E66A47DEE552E5521200020EDB6A030EF7
:100EA000DB6A1200E66E5BDEE5521200E66EE66A71
:100EB000E66AE66A66DD28D081126ADF0F0E8116C7
:100EC00012000A0EE66EE66AA3DD1ED01EC000F018
:100ED0001FC001F020C002F021C003F012001EC0AC
:100EE00023F01FC024F020C025F021C026F01200FE
:100EF00056DF040EE126DE6ADD6A120050DF0F0EB7
:100F00008116FE0EDB501200E552E552E552E55225
:020F10001200CD
:0E0F1200199E0CD0199E21AE09D01E6C1F1E18
:100F2000201E211EE86A1F2220222122198E21C0A4
:100F30001BF020C01AF01FC02BF01EC02AF09E0E1E
:100F40001C6E1D6ACDEF09F0277E196A09EC0AF0C4
:100F500021EC0AF019B6B1EF09F019A20AD019AACA
:100F600003D019BEB1EF09F019A4BDEF09F0BAEF33
:100F700009F019AA05D019ACBDEF09F0BAEF09F0D4
:100F800019A00AD019A808D019BE04D019A402D0FB
:100F9000C6EF09F0CAEF09F02A6A1D6A2750225CE1
:100FA000296E10E31FC02BF020C01AF021C01BF0E7
:100FB00022C028F024C01FF025C020F026C021F058
:100FC000193A09D024C02BF025C01AF026C01BF016
:100FD00027C028F0296C199E19BC198E28C01CF056
:100FE00019B0F9EF09F01A0E2960F9EF09F01C6A3F
:100FF000226A19A408D01F6C201E211E221EE86A36
:1010000020222122222219AC08D02B6C1A1E1B1E72
:101010001C1EE86A1A221B221C221E6A295207E0A3
:101020002234213220321F321E32292EF9D71F508E
:101030002B2620501A2221501B2222501C221EC077
:101040002AF0199E1CAE0BD02A6C2B1E1A1E1B1EDA
:101050001C1EE86A2B221A221B221C22198E1CA09D
:1010600006D0D8801B321A322B322A32282A28C0C6
:101070001CF0CDEF09F0196A09EC0AF021EC0AF036
:1010800019B6B1EF09F019A205D019BAB1EF09F0FC
:10109000B8EF09F019BAC4EF09F019A005D019B8D2
:1010A000B1EF09F0C4EF09F019B8B8EF09F01D6A03
:1010B0007F0E22241C6EE86A1D2227501C5EE86AFF
:1010C0001D5A1A0E286E226A2A6A2B6A1A6A1B6A2D
:1010D00024501F5E2550205A2650215A000E225AB5
:1010E00009E724501F262550202226502122000ED9
:1010F000222201D02A8AD8901F3620362136223665
:10110000D8902A362B361A361B36282EE1D7215096
:1011100020101F10D8A42A8ACDEF09F0196A09EC13
:101120000AF021EC0AF019B6B1EF09F019A205D0C6
:1011300019B8B1EF09F0B8EF09F019AA05D019B044
:10114000B1EF09F0B8EF09F019B002D019A802D038
:10115000C4EF09F01D6A275022241C6EE86A1D2284
:101160007E0E1C5EE86A1D5A2A6A2B6A1A6A1B6A7E
:1011700026502102F4CF1BF0F3CF1AF025502102A4
:10118000F3502B26F4501A22000E1B222650200268
:10119000F3502B26F4501A22000E1B222450210259
:1011A000F3502A26F4502B22000E1A221B2225501F
:1011B0002002F3502A26F4502B22000E1A221B2262
:1011C00026501F02F3502A26F4502B22000E1A221A
:1011D0001B2224502002F4502A26000E2B221A2211
:1011E0001B2225501F02F4502A26000E2B221A2201
:1011F0001B22CDEF09F0186A26AE04EF09F0256C2A
:10120000261EE86A2622181E21AE0CEF09F0206C7B
:10121000211EE86A2122181EFAEC0FF021BE1CEFF5
:1012200009F018AE000C206C211EE86A21221C6C0B
:101230001D1EE86A1D22000C18BE13EF09F0198864
:10124000FF0C186A26AE2CEF09F0246C251E261E12
:10125000E86A25222622181E21AE36EF09F01F6CFF
:10126000201E211EE86A20222122181EDDEC0FF02C
:1012700021BE49EF09F018AE000C1F6C201E211E84
:10128000E86A202221221B6C1C1E1D1E1C221D220E
:10129000000C18BE3DEF09F01988FF0C186AE86AC7
:1012A00026AE5BEF09F0236C241E251E261E242289
:1012B00025222622181E21AE66EF09F01E6C1F1E85
:1012C000201E211E1F2220222122181EB9EC0FF001
:1012D00021BE7DEF09F018AE000C1E6C1F1E201EF3
:1012E000211EE86A1F22202221221A6C1B1E1C1EAE
:1012F0001D1E1B221C221D22000C18BE6DEF09F0C2
:101300001988FF0C196A09EC0AF019B68CEF09F07C
:1013100019A20ED019B405D07F0E216EFF0E206EDB
:101320001FD0800E216E206A1BD0216A206A18D03F
:1013300019B0FBD78F0E2260EDD77E0E2264F5D751
:101340008E0E225C05E0D89021322032222AF8D776
:1013500019A406D0206C211EE86A212221AEE5D70F
:1013600012007F0E226EFF0E216E206E1F6E120085
:101370007F0E19BEFF0E226E02D07F0E226E800EEF
:10138000216E206A1F6AF3D719AE04D0800E226E38
:10139000216AF7D7226A216AF4D71B501A102B1042
:1013A0002A10F8E01DBEF0D71BBE0CD01C501D103B
:1013B000EBE0D8902A362B361A361B361C06D8A0FE
:1013C0001D06F2D71D50D4E11C28D2E02AAE11D060
:1013D0007F0E2A1402E12BA00CD02B2AE86A1A22D5
:1013E0001B2207E3D8801B321A322B321C2A1C28FE
:1013F000BFE01C50C9E02BC01FF01AC020F01B3406
:10140000216E1C30226E2132229E19BE228EB7EF31
:1014100009F02136223602E31984197E06E119808B
:10142000226A216A206A1F6A1200222803E0D880FB
:1014300021321200D890213202E11982120019865D
:1014400012002636273602E3198C197E06E1198828
:10145000276A266A256A246A1200272803E0D880B2
:0E14600026321200D8902632EAE1198A1200D4
:02146E00B06A62
:10147000810EAF6EAC8AAC94B886AC98AB8EAB885C
:101480009E9A9D8A9F9A949C948E1200D9CFE6FFD3
:10149000E1CFD9FF040EE126DE6ADD6ADECF00F07F
:1014A000DDCF01F0FD0EDBCF02F0FE0EDBCF03F04F
:1014B00001500318E8AE02D0033404D00250005C9F
:1014C000035001581DE2020EDB6A030EDB6A020EB6
:1014D000DBCF00F0030EDBCF01F0D890015004E623
:1014E000EE0E005C000E015806E2020EDB2A030E2F
:1014F000EEE3DB2AECD7DF2A010ED0E3DB2ACED7DE
:10150000040EE15C02E2E16AE552E16EE552E7CFEA
:10151000D9FF1200D9CFE6FFE1CFD9FF9EA8FED7B1
:10152000FE0EDB50AD6E9E98E552E7CFD9FF12005C
:10153000D9CFE6FFE1CFD9FFFD0EDBCFE9FFFE0EED
:10154000DBCFEAFFEF5010E0FD0EDBCFE9FFFE0E30
:10155000DBCFEAFFEF50E66EDDDFE552FD0EDB2A62
:10156000FE0EEAE3DB2AE8D7E552E7CFD9FF120007
:10157000D9CFE6FFE1CFD9FFFD0EDBCFF6FFFE0EA0
:10158000DBCFF7FF0800F55015E0FD0EDBCFF6FFCF
:10159000FE0EDBCFF7FF0800F550E66EBBDFE5522D
:1015A000FD0EDBCFF6FFDB2AFE0EDBCFF7FFE4E319
:1015B000DB2AE2D7E552E7CFD9FF1200D9CFE6FF09
:1015C000E1CFD9FF050EE126010EF36EDB6E020EB0
:1015D000DB6A030EDB6A040EDB6ADF6ADFCF00F032
:1015E000016A00BE0168FB0EDBCF02F0FC0EDBCF10
:1015F00003F001500318E8AE02D0033404D00250C7
:10160000005C035001582DE2FD0EDBCF00F0FE0E12
:10161000DBCF01F0026A036A01AE02D00268036800
:10162000D950010FE96EDACFEAFF00C023F001C004
:1016300024F002C025F003C026F0EECF1EF0EECF5E
:101640001FF0EECF20F0EFCF21F04BEC0FF01DC0DC
:10165000EDFF1CC0EDFF1BC0EDFF1AC0EFFFDF2A3E
:10166000BDD7010EDBCF00F0020EDBCF01F0030E81
:10167000DBCF02F0040EDBCF03F000C01EF001C090
:101680001FF002C020F003C021F0050EE15C02E271
:10169000E16AE552E16EE552E7CFD9FF1200D9CFFA
:1016A000E6FFE1CFD9FF020EE126DF6AFB0EDBCFBA
:1016B00000F0FC0EDBCF01F0FD0EDBCF02F0FE0EE2
:1016C000DBCF03F0005001100210031005E1300ED3
:1016D000E66E20DFE552F4D0D950FB0FE96EFF0E25
:1016E000DA20EA6ED890030EEB50000A08E6000EEE
:1016F000EE5C000EEE58000EEE58000EEE5815E2AD
:101700002D0EE66E07DFE552D950FB0FE96EFF0E96
:10171000DA20EA6E000EEE6CEF1EEE22EF1EEE22D5
:10172000EF1EEF22ED52ED52ED52DE520A0EDD6E4B
:10173000010EDBCF00F0000EE76E0018E8AE02D01D
:10174000003403D0E750D880005401E3B9D0010E33
:10175000DB04046E056A04BE056804C0E6FF05C02C
:10176000E6FF0A0EE66EE66A29DFE552E552E5522B
:10177000E5521EC000F01FC001F020C002F021C0E1
:1017800003F01EC023F01FC024F020C025F021C0AC
:1017900026F0FB0EDBCF1EF0FC0EDBCF1FF0FD0EA4
:1017A000DBCF20F0FE0EDBCF21F0B9EC0FF01E50A6
:1017B0001F102010211041E0010EDF6EDB04086EC7
:1017C000096A08BE096808C0E6FF09C0E6FF0A0EFC
:1017D000E66EE66AF3DEE552E552E552E5521EC0DA
:1017E00004F01FC005F020C006F021C007F01EC0A5
:1017F00023F01FC024F020C025F021C026F0FB0EEE
:10180000DBCF1EF0FC0EDBCF1FF0FD0EDBCF20F098
:10181000FE0EDBCF21F0B9EC0FF01EC000F01FC0B0
:1018200001F020C002F021C003F0300E0026000EAF
:10183000012202220322005003D0DF5004E0300EC8
:10184000E66E68DEE552010EDB04046E056A04BE36
:10185000056804C0E6FF05C0E6FF0A0EE66EE66A0C
:10186000ADDEE552E552E552E5521EC000F01FC064
:1018700001F020C002F021C003F0D950FB0FE96E47
:10188000FF0EDA20EA6E1EC023F01FC024F020C035
:1018900025F021C026F0EECF1EF0EECF1FF0EECFE8
:1018A00020F0EFCF21F0B9EC0FF01DC0EDFF1CC010
:1018B000EDFF1BC0EDFF1AC0EFFF010EDB0638D7AE
:1018C000020EE15C02E2E16AE552E16EE552E7CF29
:1018D000D9FF1200D9CFE6FFE1CFD9FFFB0EDBCF56
:1018E00000F0FC0EDBCF01F0FD0EDBCF02F0FE0EB0
:1018F000DBCF03F0640E236E246A256A266A00C0DB
:101900001EF001C01FF002C020F003C021F04EEC19
:1019100009F01EC000F01FC001F020C002F021C07D
:1019200003F01EC0E6FF1FC0E6FF20C0E6FF21C097
:10193000E6FFB5DEE552E552E552E5522E0EE66EC3
:10194000E9DDE552FB0EDBCF00F0FC0EDBCF01F052
:10195000FD0EDBCF02F0FE0EDBCF03F0640E236E34
:10196000246A256A266A00C01EF001C01FF002C06A
:1019700020F003C021F04EEC09F01AC000F01BC0AB
:1019800001F01CC002F01DC003F01AC0E6FF1BC02E
:10199000E6FF1CC0E6FF1DC0E6FF81DEE552E55212
:0E19A000E552E552E552E7CFD9FF12001200E2
:0219AE00F1D86E
:1019B000D59EFD0EDBCF80F0FE0EDBCF81F0D59CF7
:1019C00005D9D59AD586F28AF294F184D58EE6D0DF
:1019D000D59E1200FBD8D58E1200DBD8CD90FD0E1F
:1019E000DBCF82F0FE0EDBCF83F0F7D89D809E9098
:1019F0009F90CD8ECD8CCD98CD9ACD96CD92CD8029
:101A0000CDD0EBD8CD801200CD901200C2D8CA94B0
:101A1000CC6AFE0EDB500001846F856BCB6E9D821D
:101A20009E929F92CA90CA92CA84B8D084C0CBFFBB
:101A3000CA841200CA941200ACD8B190FD0EDBCF5C
:101A400086F0FE0EDBCF87F0CFD81F50B36ECCD818
:101A5000B5D8B26EA082A192A292B18EB198B19A7D
:101A6000B192B1809BD0C0D81B50B26EBDD89ED869
:101A7000B36EB1801200B19012000001902B000EE5
:101A800091239851905D9951915904E3906B916B1A
:101A9000010E886F12000001922B000E93239A51C1
:101AA000925D9B51935904E3926B936B010E896F86
:101AB00012000001942B000E95239C51945D9D51C2
:101AC000955904E3946B956B010E8A6F1200000127
:101AD000962B000E97239E51965D9F51975904E3D4
:101AE000966B976B010E8B6F120053D8FD0EDBCFF8
:101AF00098F0FE0EDBCF99F00001906B916B886B34
:101B00004DD047D8FD0EDBCF9AF0FE0EDBCF9BF019
:101B1000050E256E266A9AC020F09BC021F0FBECD2
:101B200008F020C09AF021C09BF00001926B936BEB
:101B3000896B34D02ED8FD0EDBCF9EF0FE0EDBCFAE
:101B40009FF00A0E256E266A9EC020F09FC021F0ED
:101B5000FBEC08F020C09EF021C09FF00001966BC6
:101B6000976B8B6B1BD0086A0650035C006E0750A6
:101B70000458016E08500558026E246A010E256E45
:101B8000266A00C01FF001C020F002C021F021EF42
:101B900009F0D9CFE6FFE1CFD9FF1200E552E7CF38
:101BA000D9FF120003680468056A12001FC000F024
:101BB00020C001F021C002F01F5012001BC000F035
:101BC0001CC001F01DC002F01B50120014D81B50A5
:101BD000D66E11D8EBDFD76E120014D81F50CF6E1F
:101BE00011D8ECDFCE6E1200DDDF86C006F087C0B4
:101BF00007F0B3EF0DF0D6DF80C006F081C007F02C
:101C0000B3EF0DF0CFDF82C006F083C007F0B3EF73
:021C10000DF0D5
:0E1C1200F28ED08EF28C1200F19CF292F288CB
:101C20001200D8CFE4FFE0CFE4FFE46E62D800EE0C
:101C300018F0140EE80403E3EECFE4FFFBD700EE48
:101C400000F0180EE80403E3EECFE4FFFBD7E65202
:101C5000F2B477D89EB07CD8A1B281D8F2B2F29219
:101C60009EBA9E9AE55200EE17F0180EE80403E3C0
:101C7000E5CFEDFFFBD700EE2BF0140EE80403E3F5
:101C8000E5CFEDFFFBD74AD8E550E5CFE0FFE5CF44
:101C9000D8FF10002ED800EE18F0140EE80403E36D
:101CA000EECFE4FFFBD700EE00F0180EE80403E3EC
:101CB000EECFE4FFFBD7E652F2B443D89EB048D84B
:101CC000A1B24DD8F2B2F2929EBA9E9AE55200EEBF
:101CD00017F0180EE80403E3E5CFEDFFFBD700EEA5
:101CE0002BF0140EE80403E3E5CFEDFFFBD716D885
:101CF0001100DACFE4FFE2CFDAFFE9CFE4FFEACF69
:101D0000E4FFF6CFE4FFF7CFE4FFF5CFE4FFF3CF36
:101D1000E4FFF4CFE4FFFACFE4FF1200E5CFFAFFCF
:101D2000E5CFF4FFE5CFF3FFE5CFF5FFE5CFF7FF14
:101D3000E5CFF6FFE5CFEAFFE5CFE9FFE5CFDAFF34
:101D40001200E8EC0CF0F294EAEC0CF03DEF0DF030
:101D500004EC0DF09E9001EC0DF04BEF0DF03BEC20
:0C1D60000DF0A19233EC0DF067EF0DF0D8
:041D6C001E0EF66EE3
:101D7000000EF76E000EF86E00010900F550E16FDD
:101D80000900F550E26F03E1E16701D03DD00900A1
:101D9000F550DC6F0900F550DD6F0900F550DE6F7E
:101DA00009000900F550E96E0900F550EA6E0900D6
:101DB00009000900F550DF6F0900F550E06F0900D8
:101DC0000900F6CFE3F0F7CFE4F0F8CFE5F0DCC0A0
:101DD000F6FFDDC0F7FFDEC0F8FF0001DF5302E1D0
:101DE000E05307E00900F550EE6EDF07F8E2E00788
:101DF000F9D7E3C0F6FFE4C0F7FFE5C0F8FF000144
:0A1E0000E107000EE25BBFD71200FD
:061E0A000F0E926E0B0E9C
:101E1000C16E040EC06E1200D9CFE6FFE1CFD9FF2C
:101E2000020EE126FE0EDB50040DF350C26EC2809E
:101E3000C282C2B2FED7C450DE6EDD6ADECF02F0CF
:101E4000DDCF03F0D89002360336D8900236033641
:101E5000060EC3CFE7FF070B04E0E742E79EE80664
:101E6000FCE1E7500224006E000E032000C0DEFFFC
:101E7000DD6EDECF00F0DDCF01F000C0F3FF01C06A
:101E8000F4FF020EE15C02E2E16AE552E16EE55226
:061E9000E7CFD9FF1200AC
:0A1E96001E502302F3CF1AF0F4CF20
:101EA0001BF02402F3501B26000EF4201C6E1E5063
:101EB0002502F3501C26000EF4201D6E1E50260233
:101EC000F3501D261F502302F3501B26F4501C22F2
:101ED000000E1D221F502402F3501C26F4501D2218
:101EE0001F502502F3501D2620502302F3501C26BC
:101EF000F4501D2220502402F3501D2621502302AD
:061F0000F3501D26120043
:0A1F0600206D332F68200D0A002023
:101F10006D672F6C20464C4F573D2000206D672F7A
:101F20006C204E4F333D20002043204E48343D204E
:101F300000206D672F6C20544D503D2000206D67B0
:101F40002F6C204353423D20002070482053533DC6
:101F5000200032302E30342E31362030393A3132B2
:101F60003A3037202070483D20200048656C6C6F67
:011F70000070
:0E1F72001D6A1C6A1B6A1A6A200EE76ED89060
:101F80001E361F36203621361A361B361C361D36B5
:101F900023501A5C24501B5825501C5826501D589D
:101FA00009E323501A5E24501B5A25501C5A265010
:0A1FB0001D5A1E2AE72EE4D7120086
:061FBA001D6A1C6A1B6A8F
:101FC000180EE76ED8901F36203621361B361C3689
:101FD0001D3624501B5C25501C5826501D5807E305
:101FE00024501B5E25501C5A26501D5A1F2AE72ECE
:041FF000EAD712001A
:0C1FF4001D6A1C6A100EE76ED8902036A3
:1020000021361C361D3625501C5C26501D5805E314
:1020100025501C5E26501D5A202AE72EF0D71200AC
:10202000800EF36E00EE00F00F0E01D81200EA6091
:1020300002D0EE6AFCD7F350E9601200EE6AFCD7DA
:102040001EEE00F02EEE00F0F86A199CB6EC0EF0D1
:0C20500003EC00F022EC00F0FBD71200C3
:04205C000000000080
:102060000000000000000000000000000000000070
:0C20700000000000010001000100010060
:04207C0020202020E0
:102080002020202020202020202020202020202050
:0C209000202020202020202020202020C4
:020000040030CA
:0100010002FC
:0100020003FA
:010003001EDE
:010005008179
:010006008178
:010008000FE8
:01000900C036
:01000A000FE6
:01000B00E014
:01000C000FE4
:01000D0040B2
:00000001FF
