:020000040000FA
:06000000FCEF11F01200FC
:020006001200E6
:0600080026EF10F01200CB
:02000E000000F0
:020010000000EE
:06001800EDEF0FF01200F5
:02001E000300DD
:100020000E000000EC00000004000000342400007A
:10003000A000000020000000142400008000000048
:04004000200000009C
:0C0044001DD8230EE66E230EE66EB1EC14
:1000500007F0E552E552E80EE66E030EE66E33D881
:10006000E552E55200018B51FDE036EC09F000014C
:100070008B6B6DD851D962EC04F0F7EC08F0F2D735
:10008000936A84EC05F02CEC09F036EC09F0F40EE0
:10009000E66E010EE66E17D8E552E552E5EC0FF07C
:1000A000E1EC10F0660EE66EB70EE66EF8EC0EF0C0
:1000B000E552E552320EE66EE66A76EC0FF0E55256
:1000C000E55213EF0CF0D9CFE6FFE1CFD9FF040ED4
:1000D000E126DE6ADD6ADECF00F0DDCF01F0FD0E45
:1000E000DBCF02F0FE0EDBCF03F001500318E8AEC9
:1000F00002D0033404D00250005C035001581DE2CA
:10010000020EDB6A030EDB6A020EDBCF00F0030E89
:10011000DBCF01F0D890015004E6EE0E005C000E3B
:10012000015806E2020EDB2A030EEEE3DB2AECD7CF
:10013000DF2A010ED0E3DB2ACED7040EE15C02E217
:10014000E16AE552E16EE552E7CFD9FF1200D9CF5F
:10015000E6FFE1CFD9FF020EE126DE6ADD6ADECFDF
:1001600000F0DDCF01F0D890015004E6070E005CEE
:10017000000E015823E2DFCFE6FFE8EC10F0E55275
:10018000F3CF00F0F4CF01F0DECFE9FFDDCFEAFFDF
:10019000D890E936EA36C00EE926000EEA22F3CFFF
:1001A000EEFF01C0EDFF140EE66EE66A8CDFE5524D
:1001B000E552DF2A010ED3E3DB2AD1D7C0C000F01D
:1001C000C1C001F0026A036AC0C0E6FFC1C0E6FF19
:1001D00002C0E6FF03C0E6FF040EE66EE66AD1EC5D
:1001E00007F0046E060EE15E0450C2C000F0C3C00A
:1001F00001F0026A036AC2C0E6FFC3C0E6FF02C0A4
:10020000E6FF03C0E6FF080EE66EE66AD1EC07F0F3
:10021000046E060EE15E0450C4C000F0C5C001F0DB
:10022000026A036AC4C0E6FFC5C0E6FF02C0E6FF7B
:1002300003C0E6FF0C0EE66EE66AD1EC07F0046E32
:10024000060EE15E0450C6C000F0C7C001F0026AAD
:10025000036AC6C0E6FFC7C0E6FF02C0E6FF03C0F0
:10026000E6FFE66A010EE66ED1EC07F0046E060EBC
:10027000E15E0450C8C000F0C9C001F0026A036A20
:10028000C8C0E6FFC9C0E6FF02C0E6FF03C0E6FF44
:10029000040EE66E010EE66ED1EC07F0046E060E5B
:1002A000E15E0450CAC000F0CBC001F0026A036AEC
:1002B000CAC0E6FFCBC0E6FF02C0E6FF03C0E6FF10
:1002C000080EE66E010EE66ED1EC07F0046E060E27
:1002D000E15E0450CCC000F0CDC001F0026A036AB8
:1002E000CCC0E6FFCDC0E6FF02C0E6FF03C0E6FFDC
:1002F0000C0EE66E010EE66ED1EC07F0046E060EF3
:10030000E15E0450020EE15C02E2E16AE552E16E58
:10031000E552E7CFD9FF1200CD0E046ECC0E056E6C
:10032000DC0E066E400E076EC0C014F0C1C015F0A2
:10033000166A176AC0C01EF0C1C01FF016C020F0B8
:1003400017C021F067EC09F01FC010F020C011F0B9
:1003500021C012F022C013F0680E246E660E256EC6
:10036000266E3F0E276E6AEC0AF01FC00CF020C00C
:100370000DF021C00EF022C00FF0246AC00E256ED1
:100380007F0E266E440E276E17EC0AF01FC008F091
:1003900020C009F021C00AF022C00BF01FC024F0D9
:1003A00020C025F021C026F022C027F004C01FF095
:1003B00005C020F006C021F007C022F081EC09F052
:1003C0001FC000F020C001F021C002F022C003F0E5
:1003D000246A256AC80E266E420E276E6AEC0AF061
:1003E0005EEC0BF020C0CEF021C0CFF0046A056AAD
:1003F000E00E066E410E076EC2C014F0C3C015F0C9
:10040000166A176AC2C01EF0C3C01FF016C020F0E3
:1004100017C021F067EC09F01FC010F020C011F0E8
:1004200021C012F022C013F0246A256A880E266EBD
:10043000410E276E6AEC0AF01FC00CF020C00DF0D0
:1004400021C00EF022C00FF0246AC00E256E7F0E70
:10045000266E440E276E17EC0AF01FC008F020C06D
:1004600009F021C00AF022C00BF01FC024F020C008
:1004700025F021C026F022C027F004C01FF005C0DF
:1004800020F006C021F007C022F081EC09F01FC067
:1004900000F020C001F021C002F022C003F0246A65
:1004A000256AC80E266E420E276E6AEC0AF05EECD4
:1004B0000BF020C0D0F021C0D1F0046A056AB40E60
:1004C000066E420E076EC4C014F0C5C015F0166A61
:1004D000176AC4C01EF0C5C01FF016C020F017C0B8
:1004E00021F067EC09F01FC010F020C011F021C00E
:1004F00012F022C013F0246A256AB40E266E420E52
:10050000276E6AEC0AF01FC00CF020C00DF021C06D
:100510000EF022C00FF0246AC00E256E7F0E266EEC
:10052000440E276E17EC0AF01FC008F020C009F037
:1005300021C00AF022C00BF01FC024F020C025F01B
:1005400021C026F022C027F004C01FF005C020F013
:1005500006C021F007C022F081EC09F01FC000F0B6
:1005600020C001F021C002F022C003F0246A256AF5
:10057000C80E266E420E276E6AEC0AF05EEC0BF097
:1005800020C0D2F021C0D3F0046A056AC80E066EFE
:10059000410E076EC6C014F0C7C015F0166A176A80
:1005A000C6C01EF0C7C01FF016C020F017C021F053
:1005B00067EC09F01FC010F020C011F021C012F04C
:1005C00022C013F0246A256A266A410E276E6AEC5F
:1005D0000AF01FC00CF020C00DF021C00EF022C0A8
:1005E0000FF0246AC00E256E7F0E266E440E276E15
:1005F00017EC0AF01FC008F020C009F021C00AF073
:1006000022C00BF01FC024F020C025F021C026F02E
:1006100022C027F004C01FF005C020F006C021F062
:1006200007C022F081EC09F01FC000F020C001F0EB
:1006300021C002F022C003F0246A256AC80E266E8B
:10064000420E276E6AEC0AF05EEC0BF020C0D4F08C
:1006500021C0D5F0660E046E056E060E066E400EC5
:10066000076EC8C014F0C9C015F0166A176AC8C072
:100670001EF0C9C01FF016C020F017C021F067ECB3
:1006800009F01FC010F020C011F021C012F022C0EC
:1006900013F0340E246E330E256E530E266E400E6C
:1006A000276E6AEC0AF01FC00CF020C00DF021C0CC
:1006B0000EF022C00FF0246A256AAC0E266E420EA0
:1006C000276E17EC0AF01FC008F020C009F021C007
:1006D0000AF022C00BF01FC024F020C025F021C07A
:1006E00026F022C027F004C01FF005C020F006C08D
:1006F00021F007C022F081EC09F01FC000F020C0FB
:1007000001F021C002F022C003F0246A256AC80E5D
:10071000266E420E276E6AEC0AF05EEC0BF020C0EB
:10072000D6F021C0D7F0046A056AC00E066E3F0EEF
:10073000076ECAC014F0CBC015F0166A176ACAC09B
:100740001EF0CBC01FF016C020F017C021F067ECE0
:1007500009F01FC010F020C011F021C012F022C01B
:1007600013F0246A256A800E266E400E276E6AEC0E
:100770000AF01FC00CF020C00DF021C00EF022C006
:100780000FF0246AC00E256E7F0E266E440E276E73
:1007900017EC0AF01FC008F020C009F021C00AF0D1
:1007A00022C00BF01FC024F020C025F021C026F08D
:1007B00022C027F004C01FF005C020F006C021F0C1
:1007C00007C022F081EC09F01FC000F020C001F04A
:1007D00021C002F022C003F0246A256AC80E266EEA
:1007E000420E276E6AEC0AF05EEC0BF020C0D8F0E7
:1007F00021C0D9F0046A056A200E066E430E076E0A
:10080000CCC014F0CDC015F0166A176ACCC01EF02B
:10081000CDC01FF016C020F017C021F067EC09F022
:100820001FC010F020C011F021C012F022C013F040
:10083000246A256AB40E266E420E276E6AEC0AF010
:100840001FC00CF020C00DF021C00EF022C00FF030
:10085000246AC00E256E7F0E266E440E276E17EC9E
:100860000AF01FC008F020C009F021C00AF022C021
:100870000BF01FC024F020C025F021C026F022C0BC
:1008800027F004C01FF005C020F006C021F007C00B
:1008900022F081EC09F01FC000F020C001F021C05F
:1008A00002F022C003F0246A256AC80E266E420EAA
:1008B000276E6AEC0AF05EEC0BF020C0DAF021C083
:1008C000DBF01200010E0001DC25DC6F000EDD21E3
:1008D000DD6B030EDC17DC51DD1101E012000A0EA6
:1008E000E66E230EE66E94EC0CF0E552E552CEC0B7
:1008F00000F0CFC001F0026A036ACEC0E6FFCFC0AD
:10090000E6FF02C0E6FF03C0E6FF46EC0EF0E5524C
:10091000E552E552E552010EE66E230EE66E94ECCA
:100920000CF0E552E552D0C000F0D1C001F0026AEF
:10093000036AD0C0E6FFD1C0E6FF02C0E6FF03C0F5
:10094000E6FF46EC0EF0E552E552E552E552F50EB3
:10095000E66E220EE66E94EC0CF0E552E552D2C043
:1009600000F0D3C001F0026A036AD2C0E6FFD3C030
:10097000E6FF02C0E6FF03C0E6FF46EC0EF0E552DC
:10098000E552E552E552E90EE66E220EE66E94EC73
:100990000CF0E552E552D4C000F0D5C001F0026A77
:1009A000036AD4C0E6FFD5C0E6FF02C0E6FF03C07D
:1009B000E6FF46EC0EF0E552E552E552E552E00E58
:1009C000E66E220EE66E94EC0CF0E552E552D6C0CF
:1009D00000F0D7C001F0026A036AD6C0E6FFD7C0B4
:1009E000E6FF02C0E6FF03C0E6FF46EC0EF0E5526C
:1009F000E552E552E552D40EE66E220EE66E94EC18
:100A00000CF0E552E552D8C000F0D9C001F0026AFE
:100A1000036AD8C0E6FFD9C0E6FF02C0E6FF03C004
:100A2000E6FF46EC0EF0E552E552E552E552C70E00
:100A3000E66E220EE66E94EC0CF0E552E552DAC05A
:100A400000F0DBC001F0026A036ADAC0E6FFDBC037
:100A5000E6FF02C0E6FF03C0E6FF46EC0EF0E552FB
:100A6000E552E552E552BE0EE66E220EE66E94ECBD
:080A70000CF0E552E552120002
:080A7800D9CFE6FFE1CFD9FF61
:100A8000040EE126DE6ADD6ADECF00F0DDCF01F084
:100A9000026A036A01AE02D002680368D950FB0FF4
:100AA000E96EFF0EDA20EA6EEE50005CEE5001585F
:100AB000EE500258EE5003581DE2020EDB6A030EA0
:100AC000DB6A020EDBCF00F0030EDBCF01F0D89023
:100AD000015004E6EE0E005C000E015806E2020E24
:100AE000DB2A030EEEE3DB2AECD7DF2A010ECCE390
:100AF000DB2ACAD7040EE15C02E2E16AE552E16E4C
:100B0000E552E7CFD9FF1200D9CFE6FFE1CFD9FFF9
:100B1000E652190EE66EE66AE66AE66AADDFE5526F
:100B2000E552E552E5520F0E8116F80E81160F0EB2
:100B30008116300E81128186010EE66EE66AE66A43
:100B4000E66A9ADFE552E552E552E5528196010EDA
:100B5000E66EE66AE66AE66A8FDFE552E552E5523E
:100B6000E5520F0E8116300E81128186010EE66E5F
:100B7000E66AE66AE66A80DFE552E552E552E5524A
:100B80008196010EE66EE66AE66AE66A75DFE55270
:100B9000E552E552E5520F0E8116300E8112818624
:100BA000010EE66EE66AE66AE66A66DFE552E5523F
:100BB000E552E5528196010EE66EE66AE66AE66A5D
:100BC0005BDFE552E552E552E5520F0E8116818A50
:100BD0008186010EE66EE66AE66AE66A4DDFE55258
:100BE000E552E552E5528196010EE66EE66AE66A46
:100BF000E66A42DFE552E552E552E552280EE66E1E
:100C00000AD8E5520C0EE66E06D8E552E552E552DA
:100C1000E7CFD9FF1200D9CFE6FFE1CFD9FF0F0E02
:100C20008116FE0EDB50F00B81128186010EE66EFE
:100C3000E66AE66AE66A20DFE552E552E552E552E9
:100C40008196010EE66EE66AE66AE66A15DFE5520F
:100C5000E552E552E5520F0E8116FE0EDB38F00B21
:100C600081128186010EE66EE66AE66AE66A04DFB4
:100C7000E552E552E552E5528196010EE66EE66ACE
:100C8000E66AE66AF9DEE552E552E552E552E552DA
:100C9000E7CFD9FF1200D9CFE6FFE1CFD9FF050E8C
:100CA000E126010EF36EDB6E020EDB6A030EDB6AD9
:100CB000040EDB6ADF6ADFCF00F0016A00BE016864
:100CC000FB0EDBCF02F0FC0EDBCF03F0015003186C
:100CD000E8AE02D0033404D00250005C0350015847
:100CE0002DE2FD0EDBCF00F0FE0EDBCF01F0026A3D
:100CF000036A01AE02D002680368D950010FE96EA1
:100D0000DACFEAFF00C023F001C024F002C025F0D2
:100D100003C026F0EECF1EF0EECF1FF0EECF20F096
:100D2000EFCF21F027EC11F01DC0EDFF1CC0EDFF4F
:100D30001BC0EDFF1AC0EFFFDF2ABDD7010EDBCFCE
:100D400000F0020EDBCF01F0030EDBCF02F0040E49
:100D5000DBCF03F000C01EF001C01FF002C020F086
:100D600003C021F0050EE15C02E2E16AE552E16EAA
:100D7000E552E7CFD9FF1200D9CFE6FFE1CFD9FF87
:100D8000040EE126DE6ADD6ADECF00F0DDCF01F081
:100D9000026A036A01AE02D002680368D950FB0FF1
:100DA000E96EFF0EDA20EA6EEE50005CEE5001585C
:100DB000EE500258EE5003581DE2020EDB6A030E9D
:100DC000DB6A020EDBCF00F0030EDBCF01F0D89020
:100DD000015004E6060E005C000E015806E2020E09
:100DE000DB2A030EEEE3DB2AECD7DF2A010ECCE38D
:100DF000DB2ACAD7040EE15C02E2E16AE552E16E49
:100E0000E552E7CFD9FF1200D9CFE6FFE1CFD9FFF6
:100E10000F0E8116FE0EDB5081128186050EE66EE6
:100E2000E66AE66AE66AA8DFE552E552E552E5526F
:100E30008196050EE66EE66AE66AE66A9DDFE55291
:100E4000E552E552E552E552E7CFD9FF1200D9CF7E
:100E5000E6FFE1CFD9FF8184050EE66EE66AE66A19
:100E6000E66A8ADFE552E552E552E552FE0EDBCF37
:100E7000E6FFCADFE552FE0EDB38F00BE66EC4DF9C
:100E8000E5528194E552E7CFD9FF1200D9CFE6FFB2
:100E9000E1CFD9FF8194050EE66EE66AE66AE66A5E
:100EA0006BDFE552E552E552E552FE0EDBCFE6FF81
:100EB000ABDFE552FE0EDB38F00BE66EA5DFE55248
:100EC000E552E7CFD9FF1200D9CFE6FFE1CFD9FF36
:100ED000E652FD0EDB500F0B006EFE0EDB50010BD9
:100EE000400DF3500024DF6E7F0EDF14800FDF6EA5
:100EF000DFCFE6FFCBDFE552E552E552E7CFD9FF82
:100F00001200D9CFE6FFE1CFD9FFFE0EDBCFE6FF1F
:100F10009EDFE552E552E7CFD9FF1200D9CFE6FFB9
:100F2000E1CFD9FFE8C000F0E9C001F0040ED8908D
:100F300000360136E806FBE1A00E0026000E012275
:100F400000500001EA25E96E0150EB21EA6EFE0E29
:100F5000DBCFEFFFEA2B000EEB23E552E7CFD9FF03
:100F60001200D9CFE6FFE1CFD9FFFD0EDBCFF6FFB0
:100F7000FE0EDBCFF7FF0800F5500FE0FD0EDBCFD4
:100F8000F6FFDB2AFE0EDBCFF7FF01E3DB2A0800CA
:100F9000F550E66EB6DFE552E8D7E552E7CFD9FF68
:100FA0001200D9CFE6FFE1CFD9FF020EE126DF6ABA
:100FB000FE0EDB50010B0001E86FE96BFD0EDB500C
:100FC0000F0BEA6FEB6BF90EDBCF00F0FA0EDBCF05
:100FD00001F0FB0EDBCF02F0FC0EDBCF03F0005084
:100FE00001100210031005E1300EE66E97DFE552A6
:100FF000F4D0D950F90FE96EFF0EDA20EA6ED890DE
:10100000030EEB50000A08E6000EEE5C000EEE58F0
:10101000000EEE58000EEE5815E22D0EE66E7EDF45
:10102000E552D950F90FE96EFF0EDA20EA6E000E94
:10103000EE6CEF1EEE22EF1EEE22EF1EEF22ED52BF
:10104000ED52ED52DE52070EDD6E010EDBCF00F0E9
:10105000000EE76E0018E8AE02D0003403D0E7506F
:10106000D880005401E3B9D0010EDB04046E056A98
:1010700004BE056804C0E6FF05C0E6FF0A0EE66E82
:10108000E66A09DEE552E552E552E5521EC000F07F
:101090001FC001F020C002F021C003F01EC023F0E9
:1010A0001FC024F020C025F021C026F0F90EDBCFB0
:1010B0001EF0FA0EDBCF1FF0FB0EDBCF20F0FC0E94
:1010C000DBCF21F095EC11F01E501F1020102110E5
:1010D00041E0010EDF6EDB04086E096A08BE096894
:1010E00008C0E6FF09C0E6FF0A0EE66EE66AD3DD39
:1010F000E552E552E552E5521EC004F01FC005F06E
:1011000020C006F021C007F01EC023F01FC024F04D
:1011100020C025F021C026F0F90EDBCF1EF0FA0E1C
:10112000DBCF1FF0FB0EDBCF20F0FC0EDBCF21F07E
:1011300095EC11F01EC000F01FC001F020C002F0BD
:1011400021C003F0300E0026000E012202220322ED
:10115000005003D0DF5004E0300EE66EDFDEE552D3
:10116000010EDB04046E056A04BE056804C0E6FFD8
:1011700005C0E6FF0A0EE66EE66A8DDDE552E55231
:10118000E552E5521EC000F01FC001F020C002F081
:1011900021C003F0D950F90FE96EFF0EDA20EA6E94
:1011A0001EC023F01FC024F020C025F021C026F06F
:1011B000EECF1EF0EECF1FF0EECF20F0EFCF21F0FC
:1011C00095EC11F01DC0EDFF1CC0EDFF1BC0EDFF45
:1011D0001AC0EFFF010EDB0638D7020EE15C02E217
:1011E000E16AE552E16EE552E7CFD9FF1200D9CFAF
:1011F000E6FFE1CFD9FFE652E66AE66A65DEE55230
:10120000E552DF6A100EDF5C0CE2DF50EA6AA00FE5
:10121000E96E000EEA22EF50E66E73DEE552DF2A39
:10122000F1D7E66A010EE66E4FDEE552E552DF6A5F
:10123000100EDF5C0CE2DF50EA6AB00FE96E000EC0
:10124000EA22EF50E66E5DDEE552DF2AF1D7E55285
:10125000E552E7CFD9FF1200010EE66E17DEE55228
:10126000E66AE66A31DEE552E5521200D9CFE6FFC2
:10127000E1CFD9FFE652DF6ADFCF00F0100EE76E54
:101280000018E8AE02D0E73402D0E750005C18E264
:10129000DFCFE9FFEA6AE9BEEA68A00EE926000EA0
:1012A000EA22200EEF6EDFCFE9FFEA6AE9BEEA68C4
:1012B000B00EE926000EEA22200EEF6EDF2ADCD700
:0A12C000E552E552E7CFD9FF120016
:0612CA00199E0CD0199ED4
:1012D00021AE09D01E6C1F1E201E211EE86A1F228F
:1012E00020222122198E21C01BF020C01AF01FC01D
:1012F0002BF01EC02AF09E0E1C6E1D6AA9EF0BF08B
:10130000277E196AE5EC0BF0FDEC0BF019B68DEFBA
:101310000BF019A20AD019AA03D019BE8DEF0BF059
:1013200019A499EF0BF096EF0BF019AA05D019ACA0
:1013300099EF0BF096EF0BF019A00AD019A808D07E
:1013400019BE04D019A402D0A2EF0BF0A6EF0BF047
:101350002A6A1D6A2750225C296E10E31FC02BF0F9
:1013600020C01AF021C01BF022C028F024C01FF0BA
:1013700025C020F026C021F0193A09D024C02BF056
:1013800025C01AF026C01BF027C028F0296C199E32
:1013900019BC198E28C01CF019B0D5EF0BF01A0E2D
:1013A0002960D5EF0BF01C6A226A19A408D01F6CC3
:1013B000201E211E221EE86A20222122222219AC90
:1013C00008D02B6C1A1E1B1E1C1EE86A1A221B2238
:1013D0001C221E6A295207E02234213220321F3299
:1013E0001E32292EF9D71F502B2620501A222150A9
:1013F0001B2222501C221EC02AF0199E1CAE0BD0AC
:101400002A6C2B1E1A1E1B1E1C1EE86A2B221A2277
:101410001B221C22198E1CA006D0D8801B321A3227
:101420002B322A32282A28C01CF0A9EF0BF0196AA7
:10143000E5EC0BF0FDEC0BF019B68DEF0BF019A2FB
:1014400005D019BA8DEF0BF094EF0BF019BAA0EF9D
:101450000BF019A005D019B88DEF0BF0A0EF0BF031
:1014600019B894EF0BF01D6A7F0E22241C6EE86AF7
:101470001D2227501C5EE86A1D5A1A0E286E226A29
:101480002A6A2B6A1A6A1B6A24501F5E2550205A4A
:101490002650215A000E225A09E724501F262550B3
:1014A000202226502122000E222201D02A8AD89002
:1014B0001F36203621362236D8902A362B361A3659
:1014C0001B36282EE1D7215020101F10D8A42A8ABD
:1014D000A9EF0BF0196AE5EC0BF0FDEC0BF019B677
:1014E0008DEF0BF019A205D019B88DEF0BF094EF2A
:1014F0000BF019AA05D019B08DEF0BF094EF0BF09B
:1015000019B002D019A802D0A0EF0BF01D6A275025
:1015100022241C6EE86A1D227E0E1C5EE86A1D5A9B
:101520002A6A2B6A1A6A1B6A26502102F4CF1BF022
:10153000F3CF1AF025502102F3502B26F4501A2233
:10154000000E1B2226502002F3502B26F4501A22A4
:10155000000E1B2224502102F3502A26F4502B2285
:10156000000E1A221B2225502002F3502A26F45086
:101570002B22000E1A221B2226501F02F3502A266D
:10158000F4502B22000E1A221B2224502002F45069
:101590002A26000E2B221A221B2225501F02F4504D
:1015A0002A26000E2B221A221B22A9EF0BF0186A02
:1015B00026AEE0EF0AF0256C261EE86A2622181EE9
:1015C00021AEE8EF0AF0206C211EE86A2122181EE5
:1015D000D6EC11F021BEF8EF0AF018AE000C206C2A
:1015E000211EE86A21221C6C1D1EE86A1D22000CC7
:1015F00018BEEFEF0AF01988FF0C186A26AE08EF44
:101600000BF0246C251E261EE86A25222622181EB1
:1016100021AE12EF0BF01F6C201E211EE86A202263
:101620002122181EB9EC11F021BE25EF0BF018AEE7
:10163000000C1F6C201E211EE86A202221221B6C38
:101640001C1E1D1E1C221D22000C18BE19EF0BF0C3
:101650001988FF0C186AE86A26AE37EF0BF0236C86
:10166000241E251E261E242225222622181E21AED7
:1016700042EF0BF01E6C1F1E201E211E1F22202277
:101680002122181E95EC11F021BE59EF0BF018AE77
:10169000000C1E6C1F1E201E211EE86A1F22202225
:1016A00021221A6C1B1E1C1E1D1E1B221C221D2209
:1016B000000C18BE49EF0BF01988FF0C196AE5EC15
:1016C0000BF019B668EF0BF019A20ED019B405D0C3
:1016D0007F0E216EFF0E206E1FD0800E216E206ABD
:1016E0001BD0216A206A18D019B0FBD78F0E226058
:1016F000EDD77E0E2264F5D78E0E225C05E0D890E1
:1017000021322032222AF8D719A406D0206C211EBB
:10171000E86A212221AEE5D712007F0E226EFF0E6D
:10172000216E206E1F6E12007F0E19BEFF0E226EFC
:1017300002D07F0E226E800E216E206A1F6AF3D7C0
:1017400019AE04D0800E226E216AF7D7226A216A70
:10175000F4D71B501A102B102A10F8E01DBEF0D73A
:101760001BBE0CD01C501D10EBE0D8902A362B3637
:101770001A361B361C06D8A01D06F2D71D50D4E120
:101780001C28D2E02AAE11D07F0E2A1402E12BA031
:101790000CD02B2AE86A1A221B2207E3D8801B32BE
:1017A0001A322B321C2A1C28BFE01C50C9E02BC067
:1017B0001FF01AC020F01B34216E1C30226E213223
:1017C000229E19BE228E93EF0BF02136223602E3C1
:1017D0001984197E06E11980226A216A206A1F6A2B
:1017E0001200222803E0D88021321200D890213242
:1017F00002E119821200198612002636273602E30A
:10180000198C197E06E11988276A266A256A246AD6
:101810001200272803E0D88026321200D890263202
:06182000EAE1198A120042
:0A182600B06A810EAF6EAC8AAC947C
:10183000B886AC98AB8EAB889E9A9D8A9F9A949CF2
:10184000948E1200D9CFE6FFE1CFD9FF040EE12636
:10185000DE6ADD6ADECF00F0DDCF01F0FD0EDBCF0A
:1018600002F0FE0EDBCF03F001500318E8AE02D009
:10187000033404D00250005C035001581DE2020EF4
:10188000DB6A030EDB6A020EDBCF00F0030EDBCF58
:1018900001F0D890015004E6EE0E005C000E0158F5
:1018A00006E2020EDB2A030EEEE3DB2AECD7DF2A88
:1018B000010ED0E3DB2ACED7040EE15C02E2E16A3E
:1018C000E552E16EE552E7CFD9FF1200D9CFE6FF2E
:1018D000E1CFD9FF9EA8FED7FE0EDB50AD6E9E98DD
:1018E000E552E7CFD9FF1200D9CFE6FFE1CFD9FF0C
:1018F000FD0EDBCFE9FFFE0EDBCFEAFFEF5010E07D
:10190000FD0EDBCFE9FFFE0EDBCFEAFFEF50E66E08
:10191000DDDFE552FD0EDB2AFE0EEAE3DB2AE8D727
:10192000E552E7CFD9FF1200D9CFE6FFE1CFD9FFCB
:10193000FD0EDBCFF6FFFE0EDBCFF7FF0800F55004
:1019400015E0FD0EDBCFF6FFFE0EDBCFF7FF080044
:10195000F550E66EBBDFE552FD0EDBCFF6FFDB2A6E
:10196000FE0EDBCFF7FFE4E3DB2AE2D7E552E7CF59
:10197000D9FF1200D9CFE6FFE1CFD9FF050EE1264E
:10198000010EF36EDB6E020EDB6A030EDB6A040EE1
:10199000DB6ADF6ADFCF00F0016A00BE0168FB0E80
:1019A000DBCF02F0FC0EDBCF03F001500318E8AEF2
:1019B00002D0033404D00250005C035001582DE2E1
:1019C000FD0EDBCF00F0FE0EDBCF01F0026A036AF2
:1019D00001AE02D002680368D950010FE96EDACF78
:1019E000EAFF00C023F001C024F002C025F003C0CC
:1019F00026F0EECF1EF0EECF1FF0EECF20F0EFCFAF
:101A000021F027EC11F01DC0EDFF1CC0EDFF1BC045
:101A1000EDFF1AC0EFFFDF2ABDD7010EDBCF00F0CC
:101A2000020EDBCF01F0030EDBCF02F0040EDBCFA2
:101A300003F000C01EF001C01FF002C020F003C080
:101A400021F0050EE15C02E2E16AE552E16EE55249
:101A5000E7CFD9FF1200D9CFE6FFE1CFD9FF020EC1
:101A6000E126DF6AFB0EDBCF00F0FC0EDBCF01F0DE
:101A7000FD0EDBCF02F0FE0EDBCF03F000500110B5
:101A80000210031005E1300EE66E20DFE552F4D0BF
:101A9000D950FB0FE96EFF0EDA20EA6ED890030EE4
:101AA000EB50000A08E6000EEE5C000EEE58000E49
:101AB000EE58000EEE5815E22D0EE66E07DFE552E9
:101AC000D950FB0FE96EFF0EDA20EA6E000EEE6CC5
:101AD000EF1EEE22EF1EEE22EF1EEF22ED52ED5230
:101AE000ED52DE520A0EDD6E010EDBCF00F0000E6D
:101AF000E76E0018E8AE02D0003403D0E750D8807B
:101B0000005401E3B9D0010EDB04046E056A04BE83
:101B1000056804C0E6FF05C0E6FF0A0EE66EE66A49
:101B200029DFE552E552E552E5521EC000F01FC024
:101B300001F020C002F021C003F01EC023F01FC03E
:101B400024F020C025F021C026F0FB0EDBCF1EF0D4
:101B5000FC0EDBCF1FF0FD0EDBCF20F0FE0EDBCF47
:101B600021F095EC11F01E501F102010211041E0C3
:101B7000010EDF6EDB04086E096A08BE096808C042
:101B8000E6FF09C0E6FF0A0EE66EE66AF3DEE552FE
:101B9000E552E552E5521EC004F01FC005F020C01A
:101BA00006F021C007F01EC023F01FC024F020C0A3
:101BB00025F021C026F0FB0EDBCF1EF0FC0EDBCFA4
:101BC0001FF0FD0EDBCF20F0FE0EDBCF21F095ECF9
:101BD00011F01EC000F01FC001F020C002F021C0B3
:101BE00003F0300E0026000E0122022203220050D4
:101BF00003D0DF5004E0300EE66E68DEE552010EE1
:101C0000DB04046E056A04BE056804C0E6FF05C077
:101C1000E6FF0A0EE66EE66AADDEE552E552E552F3
:101C2000E5521EC000F01FC001F020C002F021C02C
:101C300003F0D950FB0FE96EFF0EDA20EA6E1EC0EA
:101C400023F01FC024F020C025F021C026F0EECFE5
:101C50001EF0EECF1FF0EECF20F0EFCF21F095EC8D
:101C600011F01DC0EDFF1CC0EDFF1BC0EDFF1AC041
:101C7000EFFF010EDB0638D7020EE15C02E2E16AFB
:101C8000E552E16EE552E7CFD9FF1200D9CFE6FF6A
:101C9000E1CFD9FFFB0EDBCF00F0FC0EDBCF01F074
:101CA000FD0EDBCF02F0FE0EDBCF03F0640E236EE1
:101CB000246A256A266A00C01EF001C01FF002C017
:101CC00020F003C021F02AEC0BF01EC000F01FC072
:101CD00001F020C002F021C003F01EC0E6FF1FC0CB
:101CE000E6FF20C0E6FF21C0E6FFB5DEE552E55283
:101CF000E552E5522E0EE66EE9DDE552FB0EDBCF36
:101D000000F0FC0EDBCF01F0FD0EDBCF02F0FE0E8B
:101D1000DBCF03F0640E236E246A256A266A00C0B6
:101D20001EF001C01FF002C020F003C021F02AEC19
:101D30000BF01AC000F01BC001F01CC002F01DC067
:101D400003F01AC0E6FF1BC0E6FF1CC0E6FF1DC083
:101D5000E6FF81DEE552E552E552E552E552E7CF76
:061D6000D9FF1200120081
:0A1D6600F1D8D59EFD0EDBCF80F012
:101D7000FE0EDBCF81F0D59C05D9D59AD586F28AA7
:101D8000F294F184D58EE6D0D59E1200FBD8D58E84
:101D90001200DBD8CD90FD0EDBCF82F0FE0EDBCF44
:101DA00083F0F7D89D809E909F90CD8ECD8CCD985E
:101DB000CD9ACD96CD92CD80CDD0EBD8CD801200EE
:101DC000CD901200C2D8CA94CC6AFE0EDB5000013E
:101DD000846F856BCB6E9D829E929F92CA90CA92B1
:101DE000CA84B8D084C0CBFFCA841200CA9412003F
:101DF000ACD8B190FD0EDBCF86F0FE0EDBCF87F0C6
:101E0000CFD81F50B36ECCD8B5D8B26EA082A192F5
:101E1000A292B18EB198B19AB192B1809BD0C0D844
:101E20001B50B26EBDD89ED8B36EB1801200B19077
:101E300012000001902B000E91239851905D995152
:101E4000915904E3906B916B010E886F12000001B1
:101E5000922B000E93239A51925D9B51935904E368
:101E6000926B936B010E896F12000001942B000E90
:101E700095239C51945D9D51955904E3946B956B0A
:101E8000010E8A6F12000001962B000E97239E51BF
:101E9000965D9F51975904E3966B976B010E8B6F7C
:101EA000120053D8FD0EDBCF98F0FE0EDBCF99F079
:101EB0000001906B916B886B4DD047D8FD0EDBCF46
:101EC0009AF0FE0EDBCF9BF0050E256E266A9AC0B7
:101ED00020F09BC021F0D7EC0AF020C09AF021C07E
:101EE0009BF00001926B936B896B34D02ED8FD0E62
:101EF000DBCF9EF0FE0EDBCF9FF00A0E256E266A2A
:101F00009EC020F09FC021F0D7EC0AF020C09EF0C8
:101F100021C09FF00001966B976B8B6B1BD0086AFA
:101F20000650035C006E07500458016E08500558B7
:101F3000026E246A010E256E266A00C01FF001C0E1
:101F400020F002C021F0FDEF0AF0D9CFE6FFE1CF8B
:101F5000D9FF1200E552E7CFD9FF120003680468E9
:101F6000056A12001FC000F020C001F021C002F07D
:101F70001F5012001BC000F01CC001F01DC002F079
:101F80001B50120014D81B50D66E11D8EBDFD76E41
:101F9000120014D81F50CF6E11D8ECDFCE6E120095
:101FA000DDDF86C006F087C007F08FEF0FF0D6DFC9
:101FB00080C006F081C007F08FEF0FF0CFDF82C046
:0A1FC00006F083C007F08FEF0FF06A
:061FCA00F28ED08EF28CB5
:101FD0001200F19CF292F2881200D8CFE4FFE0CF19
:101FE000E4FFE46E62D800EE18F0140EE80403E398
:101FF000EECFE4FFFBD700EE00F0180EE80403E399
:10200000EECFE4FFFBD7E652F2B477D89EB07CD88F
:10201000A1B281D8F2B2F2929EBA9E9AE55200EE37
:1020200017F0180EE80403E3E5CFEDFFFBD700EE51
:102030002BF0140EE80403E3E5CFEDFFFBD74AD8FD
:10204000E550E5CFE0FFE5CFD8FF10002ED800EE39
:1020500018F0140EE80403E3EECFE4FFFBD700EE24
:1020600000F0180EE80403E3EECFE4FFFBD7E652DE
:10207000F2B443D89EB048D8A1B24DD8F2B2F29291
:102080009EBA9E9AE55200EE17F0180EE80403E39C
:10209000E5CFEDFFFBD700EE2BF0140EE80403E3D1
:1020A000E5CFEDFFFBD716D81100DACFE4FFE2CF82
:1020B000DAFFE9CFE4FFEACFE4FFF6CFE4FFF7CFA2
:1020C000E4FFF5CFE4FFF3CFE4FFF4CFE4FFFACF72
:1020D000E4FF1200E5CFFAFFE5CFF4FFE5CFF3FF11
:1020E000E5CFF5FFE5CFF7FFE5CFF6FFE5CFEAFF58
:1020F000E5CFE9FFE5CFDAFF1200C4EC0EF0F29471
:10210000C6EC0EF019EF0FF0E0EC0EF09E90DDEC57
:102110000EF027EF0FF017EC0FF0A1920FEC0FF07D
:0421200043EF0FF08A
:0C2124001E0EF66E000EF76E000EF86E38
:1021300000010900F550E36F0900F550E46F03E179
:10214000E36701D03DD00900F550DE6F0900F5507E
:10215000DF6F0900F550E06F09000900F550E96EE6
:102160000900F550EA6E090009000900F550E16F19
:102170000900F550E26F09000900F6CFE5F0F7CF4E
:10218000E6F0F8CFE7F0DEC0F6FFDFC0F7FFE0C013
:10219000F8FF0001E15302E1E25307E00900F550C6
:1021A000EE6EE107F8E2E207F9D7E5C0F6FFE6C018
:1021B000F7FFE7C0F8FF0001E307000EE45BBFD7BD
:0221C00012000B
:0E21C2000F0E926E0B0EC16E040EC06E120058
:1021D000D9CFE6FFE1CFD9FF020EE126FE0EDB509C
:1021E000040DF350C26EC280C282C2B2FED7C45088
:1021F000DE6EDD6ADECF02F0DDCF03F0D89002366E
:102200000336D89002360336060EC3CFE7FF070B1E
:1022100004E0E742E79EE806FCE1E7500224006E96
:10222000000E032000C0DEFFDD6EDECF00F0DDCF4C
:1022300001F000C0F3FF01C0F4FF020EE15C02E216
:0E224000E16AE552E16EE552E7CFD9FF1200E8
:02224E001E5020
:102250002302F3CF1AF0F4CF1BF02402F3501B2615
:10226000000EF4201C6E1E502502F3501C26000E9A
:10227000F4201D6E1E502602F3501D261F5023020F
:10228000F3501B26F4501C22000E1D221F50240266
:10229000F3501C26F4501D221F502502F3501D261A
:1022A00020502302F3501C26F4501D2220502402FB
:0E22B000F3501D2621502302F3501D2612006C
:0222BE00206D91
:1022C000332F68200D0A00206D672F6C20464C4F7D
:1022D000573D2000206D672F6C204E4F333D20006E
:1022E0002043204E48343D2000206D672F6C205441
:1022F0004D503D2000206D672F6C204353423D2000
:10230000002070482053533D200032302E30342EB0
:1023100031362030393A31323A3037202070483D5A
:0923200020200048656C6C6F0080
:06232A001D6A1C6A1B6A1B
:102330001A6A200EE76ED8901E361F3620362136D8
:102340001A361B361C361D3623501A5C24501B5877
:1023500025501C5826501D5809E323501A5E24505E
:102360001B5A25501C5A26501D5A1E2AE72EE4D708
:02237000120059
:0E2372001D6A1C6A1B6A180EE76ED8901F3693
:10238000203621361B361C361D3624501B5C25504A
:102390001C5826501D5807E324501B5E25501C5A1C
:0C23A00026501D5A1F2AE72EEAD7120013
:0423AC001D6A1C6A20
:1023B000100EE76ED890203621361C361D3625507B
:1023C0001C5C26501D5805E325501C5E26501D5AE6
:0823D000202AE72EF0D71200CD
:0823D800800EF36E00EE00F030
:1023E0000F0E01D81200EA6002D0EE6AFCD7F3505B
:0823F000E9601200EE6AFCD75F
:0823F8001EEE00F02EEE00F0D5
:10240000F86A199C92EC10F003EC00F022EC00F05A
:04241000FBD71200E4
:0C241400000000000000000000000000BC
:1024200000000000000000000000000001000100AA
:0424300001000100A6
:0C2434002020202020202020202020201C
:10244000202020202020202020202020202020208C
:042450002020202008
:020000040030CA
:0100010002FC
:0100020003FA
:010003001EDE
:010005008179
:010006008178
:010008000FE8
:01000900C036
:01000A000FE6
:01000B00E014
:01000C000FE4
:01000D0040B2
:00000001FF
