:020000040000FA
:06000000B2EF2EF0120029
:020006001200E6
:060008001DEF2BF01200B9
:02000E000000F0
:0400100000000000EC
:0400140000000005E3
:060018009FEF2AF0120028
:02001E000900D7
:10002000045E00008000000070000000DA5D000047
:10003000320F00002A000000D85D00004C010000D3
:10004000020000001400000046010000040000004F
:10005000C05D00002001000018000000100000003A
:100060004201000004000000A05D0000000100004B
:10007000200000000E0000004A0100000200000005
:0C008000805D00005C0F0000200000000C
:04008C000A0E010156
:100090004C1901E14D5101E1E2D3090E4C1901E186
:1000A0004D5101E133D3080E4C1901E14D5101E1ED
:1000B00095D2070E4C1901E14D5101E1F7D1060E21
:1000C0004C1901E14D5101E148D1050E4C1901E1F6
:1000D0004D5101E19ED0040E4C1901E14D5101E05A
:1000E0001200000EE66EE66A5FEC2AF0E552E55279
:1000F000F3CF00F0F4CF01F0F350F41001E0BDD3E2
:10010000010EE66EE66A5FEC2AF0E552E552F3CFA7
:1001100000F0F4CF01F0F350F4100AE0050E0101F5
:100120004C6F4D6B1FEC19F0140EE66E580ED8D3C1
:10013000050EE66EE66A5FEC2AF0E552E552F3CF73
:1001400000F0F4CF01F0F350F41002E0100EE3D30E
:100150000F01E70ED8803255030E33551DE232CF22
:1001600000F033CF01F0640E256E266A32CF20F006
:1001700033CF21F08CEC2EF020C000F021C001F034
:10018000026A036A20C0E6FF21C0E6FF02C0E6FF64
:1001900003C0E6FF050E29D00E0EE66E580EE66E81
:1001A000050EE66EE66A8FEC17F0E552E552E55271
:1001B000E55232CF00F033CF01F0640E256E266A8F
:1001C00032CF20F033CF21F08CEC2EF020C000F0A5
:1001D00021C001F0026A036A20C0E6FF21C0E6FFE9
:1001E00002C0E6FF03C0E6FF060EE66EE66ABAEC62
:1001F00017F0046E060EE15E045032CF00F033CFEC
:1002000001F0640E256E266A32CF20F033CF21F044
:1002100097D0000EE66EE66A5FEC2AF0E552E552F2
:10022000F3CF00F0F4CF01F0F350F41001E025D348
:10023000010EE66EE66A5FEC2AF0E552E552F3CF76
:1002400000F0F4CF01F0F350F4100AE0060E0101C3
:100250004C6F4D6B1FEC19F0FD0EE66E570E40D340
:10026000050EE66EE66A5FEC2AF0E552E552F3CF42
:1002700000F0F4CF01F0F350F41002E0110E4BD374
:100280000F01E70ED8803455030E35551DE234CFEB
:1002900000F035CF01F0640E256E266A34CF20F0D1
:1002A00035CF21F08CEC2EF020C000F021C001F001
:1002B000026A036A20C0E6FF21C0E6FF02C0E6FF33
:1002C00003C0E6FF050E29D00E0EE66E580EE66E50
:1002D000050EE66EE66A8FEC17F0E552E552E55240
:1002E000E55234CF00F035CF01F0640E256E266A5A
:1002F00034CF20F035CF21F08CEC2EF020C000F070
:1003000021C001F0026A036A20C0E6FF21C0E6FFB7
:1003100002C0E6FF03C0E6FF060EE66EE66ABAEC30
:1003200017F0046E060EE15E045034CF00F035CFB6
:1003300001F0640E256E266A34CF20F035CF21F00F
:100340008CEC2EF01CC000F01DC001F0026A036AA4
:100350001CC0E6FF1DC0E6FF37D3000EE66EE66A5E
:100360005FEC2AF0E552E552F3CF00F0F4CF01F054
:10037000F350F41001E081D2010EE66EE66A5FEC04
:100380002AF0E552E552F3CF00F0F4CF01F0F3503C
:10039000F4100AE0070E01014C6F4D6B1FEC19F0D1
:1003A000F00EE66E570E9CD2050EE66EE66A5FEC26
:1003B0002AF0E552E552F3CF00F0F4CF01F0F3500C
:1003C000F41002E0120EA7D20F010F0ED88036559E
:1003D000270E37551DE236CF00F037CF01F0640EFF
:1003E000256E266A36CF20F037CF21F08CEC2EF028
:1003F00020C000F021C001F0026A036A20C0E6FFBD
:1004000021C0E6FF02C0E6FF03C0E6FF060E29D0CA
:100410000E0EE66E580EE66E060EE66EE66A8FEC7F
:1004200017F0E552E552E552E55236CF00F037CFEE
:1004300001F0640E256E266A36CF20F037CF21F00A
:100440008CEC2EF020C000F021C001F0026A036A9B
:1004500020C0E6FF21C0E6FF02C0E6FF03C0E6FFC2
:10046000070EE66EE66ABAEC17F0046E060EE15E61
:10047000045036CF00F037CF01F0640E256E266AA7
:1004800036CF20F037CF21F08CEC2EF01CC000F0DE
:100490001DC001F0026A036A1CC0E6FF1DC0E6FF32
:1004A00002C0E6FF03C0E6FF0A0E93D2000EE66E1E
:1004B000E66A5FEC2AF0E552E552F3CF00F0F4CFA4
:1004C00001F0F350F41001E0D8D1010EE66EE66AB7
:1004D0005FEC2AF0E552E552F3CF00F0F4CF01F0E3
:1004E000F350F4100AE0080E01014C6F4D6B1FEC45
:1004F00019F0E00EE66E570EF3D1050EE66EE66AD1
:100500005FEC2AF0E552E552F3CF00F0F4CF01F0B2
:10051000F350F41002E0130EFED10F01E70ED88065
:100520003855030E39551DE238CF00F039CF01F0B0
:10053000640E256E266A38CF20F039CF21F08CEC7E
:100540002EF020C000F021C001F0026A036A20C032
:10055000E6FF21C0E6FF02C0E6FF03C0E6FF060E8D
:1005600029D00E0EE66E580EE66E060EE66EE66AB0
:100570008FEC17F0E552E552E552E55238CF00F026
:1005800039CF01F0640E256E266A38CF20F039CFBE
:1005900021F08CEC2EF020C000F021C001F0026AA6
:1005A000036A20C0E6FF21C0E6FF02C0E6FF03C0E9
:1005B000E6FF070EE66EE66ABAEC17F0046E060E6A
:1005C000E15E045038CF00F039CF01F0640E256EA3
:1005D000266A38CF20F039CF21F02FD1000EE66EF9
:1005E000E66A5FEC2AF0E552E552F3CF00F0F4CF73
:1005F00001F0F350F41001E040D1010EE66EE66A1E
:100600005FEC2AF0E552E552F3CF00F0F4CF01F0B1
:10061000F350F4100AE0090E01014C6F4D6B1FEC12
:1006200019F0D00EE66E570E5BD1050EE66EE66A47
:100630005FEC2AF0E552E552F3CF00F0F4CF01F081
:10064000F350F41002E0140E66D10F01E70ED880CB
:100650003A55030E3B551DE23ACF00F03BCF01F077
:10066000640E256E266A3ACF20F03BCF21F08CEC49
:100670002EF020C000F021C001F0026A036A20C001
:10068000E6FF21C0E6FF02C0E6FF03C0E6FF060E5C
:1006900029D00E0EE66E580EE66E060EE66EE66A7F
:1006A0008FEC17F0E552E552E552E5523ACF00F0F3
:1006B0003BCF01F0640E256E266A3ACF20F03BCF87
:1006C00021F08CEC2EF020C000F021C001F0026A75
:1006D000036A20C0E6FF21C0E6FF02C0E6FF03C0B8
:1006E000E6FF070EE66EE66ABAEC17F0046E060E39
:1006F000E15E04503ACF00F03BCF01F0640E256E6E
:10070000266A3ACF20F03BCF21F097D0000EE66E5C
:10071000E66A5FEC2AF0E552E552F3CF00F0F4CF41
:1007200001F0F350F41001E0A8D0010EE66EE66A85
:100730005FEC2AF0E552E552F3CF00F0F4CF01F080
:10074000F350F4100AE00A0E01014C6F4D6B1FECE0
:1007500019F0C00EE66E570EC3D0050EE66EE66ABF
:100760005FEC2AF0E552E552F3CF00F0F4CF01F050
:10077000F350F41002E0150ECED00F01E70ED88032
:100780003C55030E3D551DE23CCF00F03DCF01F03E
:10079000640E256E266A3CCF20F03DCF21F08CEC14
:1007A0002EF020C000F021C001F0026A036A20C0D0
:1007B000E6FF21C0E6FF02C0E6FF03C0E6FF060E2B
:1007C00029D00E0EE66E580EE66E060EE66EE66A4E
:1007D0008FEC17F0E552E552E552E5523CCF00F0C0
:1007E0003DCF01F0640E256E266A3CCF20F03DCF50
:1007F00021F08CEC2EF020C000F021C001F0026A44
:10080000036A20C0E6FF21C0E6FF02C0E6FF03C086
:10081000E6FF070EE66EE66ABAEC17F0046E060E07
:10082000E15E04503CCF00F03DCF01F0640E256E38
:10083000266A3CCF20F03DCF21F08CEC2EF01CC07E
:1008400000F01DC001F0026A036A1CC0E6FF1DC073
:10085000E6FF02C0E6FF03C0E6FF090EBAD0000EB5
:10086000E66EE66A5FEC2AF0E552E552F3CF00F05F
:10087000F4CF01F0F350F4101CE0010E01014C6FB5
:100880004D6B1FEC19F0230EE66E580EE66EE66A0D
:10089000E66A8FEC17F0E552E552E552E552E0ECDE
:1008A00018F0C80EE66EE66A95EC19F0E552E552CE
:1008B0001200010EE66EE66A5FEC2AF0E552E552A0
:1008C000F3CF00F0F4CF01F0F350F41015E0040E74
:1008D00001014C6F4D6B1FEC19F0B70EE66E570E11
:1008E000E66EE66AE66A8FEC17F0E552E552E552ED
:1008F000E5528CEC2CF075D0050EE66EE66A5FECE6
:100900002AF0E552E552F3CF00F0F4CF01F0F350B6
:10091000F41012E0160E01014C6F4D6B100EE66ED6
:10092000580EE66EE66A010EE66E8FEC17F0E552A1
:10093000E552E552E55255D00F010F0ED8803E55D5
:10094000270E3F551DE23ECF00F03FCF01F0640E71
:10095000256E266A3ECF20F03FCF21F08CEC2EF0A2
:1009600020C000F021C001F0026A036A20C0E6FF47
:1009700021C0E6FF02C0E6FF03C0E6FF070E29D054
:100980000E0EE66E580EE66E070EE66EE66A8FEC09
:1009900017F0E552E552E552E5523ECF00F03FCF69
:1009A00001F0640E256E266A3ECF20F03FCF21F085
:1009B0008CEC2EF020C000F021C001F0026A036A26
:1009C00020C0E6FF21C0E6FF02C0E6FF03C0E6FF4D
:1009D000080EE66EE66ABAEC17F0046E060EE15EEB
:1009E0000450E0EF18F01A0E01014C1901E14D51CD
:1009F00001E125D1100E4C1901E14D5101E0120029
:100A0000000EE66EE66A5FEC2AF0E552E552F3CF9F
:100A100000F0F4CF01F0F350F4101CE0010E0101DE
:100A20004C6F4D6B1FEC19F0230EE66E580EE66E00
:100A3000E66AE66A8FEC17F0E552E552E552E552B8
:100A4000E0EC18F0C80EE66EE66A95EC19F0E55297
:100A5000E5521200010EE66EE66A5FEC2AF0E552FE
:100A6000E552F3CF00F0F4CF01F0F350F41015E0AD
:100A7000050E01014C6F4D6B1FEC19F0AE0EE66ECA
:100A8000570EE66EE66AE66A8FEC17F0E552E5521D
:100A9000E552E5528CEC2CF01FD0050EE66EE66AAE
:100AA0005FEC2AF0E552E552F3CF00F0F4CF01F00D
:100AB000F350F41013E01A0E01014C6F4D6BAA0EA7
:100AC000E66E570EE66EE66A010EE66E8FEC17F0E4
:100AD000E552E552E552E552E0EF18F0030EE66EFE
:100AE000E66A5FEC2AF0E552E552F3CF00F0F4CF6E
:100AF00001F0F350F4100DE00F016E0ED880405558
:100B0000050E415501E29AD00A0E4027000E4123FE
:100B10001200070EE66EE66A5FEC2AF0E552E55237
:100B2000F3CF00F0F4CF01F0F350F4100CE00F011C
:100B30000A0E405D000E415901E280D00A0E405F6E
:100B4000000E415B12000F01E70ED8804055030EE6
:100B500041551DE240CF00F041CF01F0640E256EFB
:100B6000266A40CF20F041CF21F08CEC2EF020C03F
:100B700000F021C001F0026A036A20C0E6FF21C034
:100B8000E6FF02C0E6FF03C0E6FF050E29D00E0E09
:100B9000E66E580EE66E050EE66EE66A8FEC17F00E
:100BA000E552E552E552E55240CF00F041CF01F069
:100BB000640E256E266A40CF20F041CF21F08CECE8
:100BC0002EF020C000F021C001F0026A036A20C0AC
:100BD000E6FF21C0E6FF02C0E6FF03C0E6FF060E07
:100BE000E66EE66ABAEC17F0046E060EE15E04509B
:100BF00040CF00F041CF01F0640E256E266A40CF51
:100C000020F041CF21F08CEC2EF01CC000F01DC074
:100C100001F0026A036A1CC0E6FF1DC0E6FF02C0C5
:100C2000E6FF03C0E6FF080EE66EE66ABAEC17F0D0
:100C3000046E060EE15E0450E0EC18F01200000EA7
:100C4000E66EE66A5FEC2AF0E552E552F3CF00F07B
:100C5000F4CF01F0F350F4101CE0010E01014C6FD1
:100C60004D6B1FEC19F0230EE66E580EE66EE66A29
:100C7000E66A8FEC17F0E552E552E552E552E0ECFA
:100C800018F0C80EE66EE66A95EC19F0E552E552EA
:100C90001200010EE66EE66A5FEC2AF0E552E552BC
:100CA000F3CF00F0F4CF01F0F350F41015E0050E8F
:100CB00001014C6F4D6B1FEC19F0140EE66E580ECF
:100CC000E66EE66AE66A8FEC17F0E552E552E55209
:100CD000E5528CEC2CF01FD0050EE66EE66A5FEC58
:100CE0002AF0E552E552F3CF00F0F4CF01F0F350D3
:100CF000F41013E0100E01014C6F4D6B100EE66EF8
:100D0000580EE66EE66A010EE66E8FEC17F0E552BD
:100D1000E552E552E552E0EF18F0030EE66EE66AA2
:100D20005FEC2AF0E552E552F3CF00F0F4CF01F08A
:100D3000F350F4100DE00F016E0ED8804255050EF1
:100D4000435501E29AD00A0E4227000E43231200B7
:100D5000070EE66EE66A5FEC2AF0E552E552F3CF45
:100D600000F0F4CF01F0F350F4100CE00F010A0E84
:100D7000425D000E435901E280D00A0E425F000E30
:100D8000435B12000F01E70ED8804255030E435516
:100D90001DE242CF00F043CF01F0640E256E266ABB
:100DA00042CF20F043CF21F08CEC2EF020C000F099
:100DB00021C001F0026A036A20C0E6FF21C0E6FFFD
:100DC00002C0E6FF03C0E6FF050E29D00E0EE66E58
:100DD000580EE66E050EE66EE66A8FEC17F0E552E9
:100DE000E552E552E55242CF00F043CF01F0640EE8
:100DF000256E266A42CF20F043CF21F08CEC2EF0F6
:100E000020C000F021C001F0026A036A20C0E6FFA2
:100E100021C0E6FF02C0E6FF03C0E6FF060EE66E55
:100E2000E66ABAEC17F0046E060EE15E045042CF9B
:100E300000F043CF01F0640E256E266A42CF20F009
:100E400043CF21F08CEC2EF01CC000F01DC001F04F
:100E5000026A036A1CC0E6FF1DC0E6FF02C0E6FF8F
:100E600003C0E6FF080EE66EE66ABAEC17F0046E01
:100E7000060EE15E0450E0EC18F012001B0E0101BA
:100E80004C1901E14D5101E125D1110E4C1901E13F
:100E90004D5101E01200000EE66EE66A5FEC2AF0AA
:100EA000E552E552F3CF00F0F4CF01F0F350F41027
:100EB0001CE0010E01014C6F4D6B1FEC19F0230E6D
:100EC000E66E580EE66EE66AE66A8FEC17F0E552BB
:100ED000E552E552E552E0EC18F0C80EE66EE66A1F
:100EE00095EC19F0E552E5521200010EE66EE66A45
:100EF0005FEC2AF0E552E552F3CF00F0F4CF01F0B9
:100F0000F350F41015E0060E01014C6F4D6B1FEC11
:100F100019F0FD0EE66E570EE66EE66AE66A8FEC95
:100F200017F0E552E552E552E5528CEC2CF01FD05B
:100F3000050EE66EE66A5FEC2AF0E552E552F3CF65
:100F400000F0F4CF01F0F350F41013E01B0E010198
:100F50004C6F4D6BAA0EE66E570EE66EE66A010EFA
:100F6000E66E8FEC17F0E552E552E552E552E0EF00
:100F700018F0030EE66EE66A5FEC2AF0E552E552E1
:100F8000F3CF00F0F4CF01F0F350F4100DE00F01B7
:100F9000480ED8804455260E455501E29AD0640E7D
:100FA0004427000E45231200070EE66EE66A5FEC4A
:100FB0002AF0E552E552F3CF00F0F4CF01F0F35000
:100FC000F4100CE00F01640E445D000E455901E27F
:100FD00080D0640E445F000E455B12000F01E70EE7
:100FE000D8804455030E45551DE244CF00F045CF4F
:100FF00001F0640E256E266A44CF20F045CF21F023
:101000008CEC2EF020C000F021C001F0026A036ACF
:1010100020C0E6FF21C0E6FF02C0E6FF03C0E6FFF6
:10102000050E29D00E0EE66E580EE66E050EE66E23
:10103000E66A8FEC17F0E552E552E552E55244CFEF
:1010400000F045CF01F0640E256E266A44CF20F0F3
:1010500045CF21F08CEC2EF020C000F021C001F033
:10106000026A036A20C0E6FF21C0E6FF02C0E6FF75
:1010700003C0E6FF060EE66EE66ABAEC17F0046EF1
:10108000060EE15E045044CF00F045CF01F0640E3F
:10109000256E266A44CF20F045CF21F08CEC2EF04F
:1010A0001CC000F01DC001F0026A036A1CC0E6FF0C
:1010B0001DC0E6FF02C0E6FF03C0E6FF080EE66EB5
:1010C000E66ABAEC17F0046E060EE15E0450E0EC3E
:1010D00018F01200000EE66EE66A5FEC2AF0E552A8
:1010E000E552F3CF00F0F4CF01F0F350F4101CE020
:1010F000010E01014C6F4D6B1FEC19F0230EE66ED3
:10110000580EE66EE66AE66A8FEC17F0E552E55295
:10111000E552E552E0EC18F0C80EE66EE66A95EC92
:1011200019F0E552E5521200010EE66EE66A5FEC38
:101130002AF0E552E552F3CF00F0F4CF01F0F3507E
:10114000F41015E0060E01014C6F4D6B1FEC19F009
:10115000FD0EE66E570EE66EE66AE66A8FEC17F055
:10116000E552E552E552E5528CEC2CF01FD0050E0D
:10117000E66EE66A5FEC2AF0E552E552F3CF00F046
:10118000F4CF01F0F350F41013E0110E01014C6F95
:101190004D6B100EE66E580EE66EE66A010EE66EB8
:1011A0008FEC17F0E552E552E552E552E0EF18F00A
:1011B000030EE66EE66A5FEC2AF0E552E552F3CFE5
:1011C00000F0F4CF01F0F350F4100DE00F01480EE1
:1011D000D8804655260E475501E29AD0640E462720
:1011E000000E47231200070EE66EE66A5FEC2AF057
:1011F000E552E552F3CF00F0F4CF01F0F350F410D4
:101200000CE00F01640E465D000E475901E280D0EC
:10121000640E465F000E475B12000F01E70ED88098
:101220004655030E47551DE246CF00F047CF01F06B
:10123000640E256E266A46CF20F047CF21F08CEC55
:101240002EF020C000F021C001F0026A036A20C025
:10125000E6FF21C0E6FF02C0E6FF03C0E6FF050E81
:1012600029D00E0EE66E580EE66E050EE66EE66AA4
:101270008FEC17F0E552E552E552E55246CF00F00B
:1012800047CF01F0640E256E266A46CF20F047CF87
:1012900021F08CEC2EF020C000F021C001F0026A99
:1012A000036A20C0E6FF21C0E6FF02C0E6FF03C0DC
:1012B000E6FF060EE66EE66ABAEC17F0046E060E5E
:1012C000E15E045046CF00F047CF01F0640E256E7A
:1012D000266A46CF20F047CF21F08CEC2EF01CC0C0
:1012E00000F01DC001F0026A036A1CC0E6FF1DC0C9
:1012F000E6FF02C0E6FF03C0E6FF080EE66EE66A00
:10130000BAEC17F0046E060EE15E0450E0EC18F043
:1013100012001C0E01014C1901E14D5101E130D1C7
:10132000120E4C1901E14D5101E01200000EE66E63
:10133000E66A5FEC2AF0E552E552F3CF00F0F4CF15
:1013400001F0F350F4101CE0010E01014C6F4D6BE5
:101350001FEC19F0230EE66E580EE66EE66AE66A9A
:101360008FEC17F0E552E552E552E552E0EC18F04B
:10137000C80EE66EE66A95EC19F0E552E5521200E9
:10138000010EE66EE66A5FEC2AF0E552E552F3CF15
:1013900000F0F4CF01F0F350F41015E0070E010156
:1013A0004C6F4D6B1FEC19F0F00EE66E570EE66EAB
:1013B000E66AE66A8FEC17F0E552E552E552E5522F
:1013C0008CEC2CF01FD0050EE66EE66A5FEC2AF07E
:1013D000E552E552F3CF00F0F4CF01F0F350F410F2
:1013E00013E01C0E01014C6F4D6BAA0EE66E570EFA
:1013F000E66EE66A010EE66E8FEC17F0E552E552F6
:10140000E552E552E0EF18F0030EE66EE66A5FEC97
:101410002AF0E552E552F3CF00F0F4CF01F0F3509B
:10142000F41018E048CF00F049CF01F0026A02340E
:10143000010E021807E6D880D80E0054850E01541C
:10144000010E025401E29BD0640E0F014827000EEA
:1014500049231200070EE66EE66A5FEC2AF0E552B9
:10146000E552F3CF00F0F4CF01F0F350F4100CE0AC
:101470000F014C0E485D040E495901E280D0640E04
:10148000485F000E495B12000F010F0ED8804855CF
:10149000270E49551DE248CF00F049CF01F0640EF8
:1014A000256E266A48CF20F049CF21F08CEC2EF033
:1014B00020C000F021C001F0026A036A20C0E6FFEC
:1014C00021C0E6FF02C0E6FF03C0E6FF060E29D0FA
:1014D0000E0EE66E580EE66E060EE66EE66A8FECAF
:1014E00017F0E552E552E552E55248CF00F049CFFA
:1014F00001F0640E256E266A48CF20F049CF21F016
:101500008CEC2EF020C000F021C001F0026A036ACA
:1015100020C0E6FF21C0E6FF02C0E6FF03C0E6FFF1
:10152000070EE66EE66ABAEC17F0046E060EE15E90
:10153000045048CF00F049CF01F0640E256E266AB2
:1015400048CF20F049CF21F08CEC2EF01CC000F0E9
:101550001DC001F0026A036A1CC0E6FF1DC0E6FF61
:1015600002C0E6FF03C0E6FF0A0EE66EE66ABAECCA
:1015700017F0046E060EE15E0450E0EC18F0120065
:10158000000EE66EE66A5FEC2AF0E552E552F3CF14
:1015900000F0F4CF01F0F350F4101CE0010E010153
:1015A0004C6F4D6B1FEC19F0230EE66E580EE66E75
:1015B000E66AE66A8FEC17F0E552E552E552E5522D
:1015C000E0EC18F0C80EE66EE66A95EC19F0E5520C
:1015D000E5521200010EE66EE66A5FEC2AF0E55273
:1015E000E552F3CF00F0F4CF01F0F350F41015E022
:1015F000070E01014C6F4D6B1FEC19F0F00EE66EFB
:10160000570EE66EE66AE66A8FEC17F0E552E55291
:10161000E552E5528CEC2CF01FD0050EE66EE66A22
:101620005FEC2AF0E552E552F3CF00F0F4CF01F081
:10163000F350F41013E0120E01014C6F4D6B100EBD
:10164000E66E580EE66EE66A010EE66E8FEC17F057
:10165000E552E552E552E552E0EF18F0030EE66E72
:10166000E66A5FEC2AF0E552E552F3CF00F0F4CFE2
:1016700001F0F350F41018E04ACF00F04BCF01F026
:10168000026A0234010E021807E6D880D80E005410
:10169000850E0154010E025401E29BD0640E0F012D
:1016A0004A27000E4B231200070EE66EE66A5FEC37
:1016B0002AF0E552E552F3CF00F0F4CF01F0F350F9
:1016C000F4100CE00F014C0E4A5D040E4B5901E280
:1016D00080D0640E4A5F000E4B5B12000F010F0EAC
:1016E000D8804A55270E4B551DE24ACF00F04BCF0C
:1016F00001F0640E256E266A4ACF20F04BCF21F010
:101700008CEC2EF020C000F021C001F0026A036AC8
:1017100020C0E6FF21C0E6FF02C0E6FF03C0E6FFEF
:10172000060E29D00E0EE66E580EE66E060EE66E1A
:10173000E66A8FEC17F0E552E552E552E5524ACFE2
:1017400000F04BCF01F0640E256E266A4ACF20F0E0
:101750004BCF21F08CEC2EF020C000F021C001F026
:10176000026A036A20C0E6FF21C0E6FF02C0E6FF6E
:1017700003C0E6FF070EE66EE66ABAEC17F0046EE9
:10178000060EE15E04504ACF00F04BCF01F0640E2C
:10179000256E266A4ACF20F04BCF21F08CEC2EF03C
:1017A0001CC000F01DC001F0026A036A1CC0E6FF05
:1017B0001DC0E6FF02C0E6FF03C0E6FF0A0EE66EAC
:1017C000E66ABAEC17F0046E060EE15E0450E0EC37
:1017D00018F012001D0E01014C1901E14D5101E1FB
:1017E00025D1130E4C1901E14D5101E01200000EFC
:1017F000E66EE66A5FEC2AF0E552E552F3CF00F0C0
:10180000F4CF01F0F350F4101CE0010E01014C6F15
:101810004D6B1FEC19F0230EE66E580EE66EE66A6D
:10182000E66A8FEC17F0E552E552E552E552E0EC3E
:1018300018F0C80EE66EE66A95EC19F0E552E5522E
:101840001200010EE66EE66A5FEC2AF0E552E55200
:10185000F3CF00F0F4CF01F0F350F41015E0080ED0
:1018600001014C6F4D6B1FEC19F0E00EE66E570E48
:10187000E66EE66AE66A8FEC17F0E552E552E5524D
:10188000E5528CEC2CF01FD0050EE66EE66A5FEC9C
:101890002AF0E552E552F3CF00F0F4CF01F0F35017
:1018A000F41013E01D0E01014C6F4D6BAA0EE66E95
:1018B000570EE66EE66A010EE66E8FEC17F0E55203
:1018C000E552E552E552E0EF18F0030EE66EE66AE7
:1018D0005FEC2AF0E552E552F3CF00F0F4CF01F0CF
:1018E000F350F4100DE00F01480ED8804C55260E31
:1018F0004D5501E29AD0640E4C27000E4D23120084
:10190000070EE66EE66A5FEC2AF0E552E552F3CF89
:1019100000F0F4CF01F0F350F4100CE00F01640E6E
:101920004C5D000E4D5901E280D0640E4C5F000EFC
:101930004D5B12000F01E70ED8804C55030E4D553C
:101940001DE24CCF00F04DCF01F0640E256E266AEB
:101950004CCF20F04DCF21F08CEC2EF020C000F0C9
:1019600021C001F0026A036A20C0E6FF21C0E6FF41
:1019700002C0E6FF03C0E6FF060E29D00E0EE66E9B
:10198000580EE66E060EE66EE66A8FEC17F0E5522C
:10199000E552E552E5524CCF00F04DCF01F0640E18
:1019A000256E266A4CCF20F04DCF21F08CEC2EF026
:1019B00020C000F021C001F0026A036A20C0E6FFE7
:1019C00021C0E6FF02C0E6FF03C0E6FF070EE66E99
:1019D000E66ABAEC17F0046E060EE15E04504CCFD6
:1019E00000F04DCF01F0640E256E266A4CCF20F03A
:1019F0004DCF21F08CEC2EF01CC000F01DC001F08A
:101A0000026A036A1CC0E6FF1DC0E6FF02C0E6FFD3
:101A100003C0E6FF090EE66EE66ABAEC17F0046E44
:101A2000060EE15E0450E0EC18F01200000EE66EC7
:101A3000E66A5FEC2AF0E552E552F3CF00F0F4CF0E
:101A400001F0F350F4101CE0010E01014C6F4D6BDE
:101A50001FEC19F0230EE66E580EE66EE66AE66A93
:101A60008FEC17F0E552E552E552E552E0EC18F044
:101A7000C80EE66EE66A95EC19F0E552E5521200E2
:101A8000010EE66EE66A5FEC2AF0E552E552F3CF0E
:101A900000F0F4CF01F0F350F41015E0080E01014E
:101AA0004C6F4D6B1FEC19F0E00EE66E570EE66EB4
:101AB000E66AE66A8FEC17F0E552E552E552E55228
:101AC0008CEC2CF01FD0050EE66EE66A5FEC2AF077
:101AD000E552E552F3CF00F0F4CF01F0F350F410EB
:101AE00013E0130E01014C6F4D6B100EE66E580E95
:101AF000E66EE66A010EE66E8FEC17F0E552E552EF
:101B0000E552E552E0EF18F0030EE66EE66A5FEC90
:101B10002AF0E552E552F3CF00F0F4CF01F0F35094
:101B2000F4100DE00F01480ED8804E55260E4F558B
:101B300001E29AD0640E4E27000E4F231200070ECA
:101B4000E66EE66A5FEC2AF0E552E552F3CF00F06C
:101B5000F4CF01F0F350F4100CE00F01640E4E5D71
:101B6000000E4F5901E280D0640E4E5F000E4F5BB5
:101B700012000F01E70ED8804C55030E4D551DE2A3
:101B80004ECF00F04FCF01F0640E256E266A4ECF87
:101B900020F04FCF21F08CEC2EF020C000F021C0BF
:101BA00001F0026A036A20C0E6FF21C0E6FF02C01E
:101BB000E6FF03C0E6FF060E29D00E0EE66E580EB5
:101BC000E66E060EE66EE66A8FEC17F0E552E55219
:101BD000E552E5524ECF00F04FCF01F0640E256E76
:101BE000266A4ECF20F04FCF21F08CEC2EF020C093
:101BF00000F021C001F0026A036A20C0E6FF21C0A4
:101C0000E6FF02C0E6FF03C0E6FF070EE66EE66AE7
:101C1000BAEC17F0046E060EE15E04504ECF00F0F1
:101C20004FCF01F0640E256E266A4ECF20F04FCFC5
:101C300021F08CEC2EF01CC000F01DC001F0026AF7
:101C4000036A1CC0E6FF1DC0E6FF02C0E6FF03C03A
:101C5000E6FF090EE66EE66ABAEC17F0046E060EB1
:101C6000E15E0450E0EC18F012001E0E01014C1968
:101C700001E14D5101E125D1140E4C1901E14D5105
:101C800001E01200000EE66EE66A5FEC2AF0E55213
:101C9000E552F3CF00F0F4CF01F0F350F4101CE064
:101CA000010E01014C6F4D6B1FEC19F0230EE66E17
:101CB000580EE66EE66AE66A8FEC17F0E552E552DA
:101CC000E552E552E0EC18F0C80EE66EE66A95ECD7
:101CD00019F0E552E5521200010EE66EE66A5FEC7D
:101CE0002AF0E552E552F3CF00F0F4CF01F0F350C3
:101CF000F41015E0090E01014C6F4D6B1FEC19F04B
:101D0000D00EE66E570EE66EE66AE66A8FEC17F0C6
:101D1000E552E552E552E5528CEC2CF01FD0050E51
:101D2000E66EE66A5FEC2AF0E552E552F3CF00F08A
:101D3000F4CF01F0F350F41013E01E0E01014C6FCC
:101D40004D6BAA0EE66E570EE66EE66A010EE66E63
:101D50008FEC17F0E552E552E552E552E0EF18F04E
:101D6000030EE66EE66A5FEC2AF0E552E552F3CF29
:101D700000F0F4CF01F0F350F4100DE00F01C60EA7
:101D8000D8805055070E515501E29AD00A0E5027BF
:101D9000000E51231200070EE66EE66A5FEC2AF091
:101DA000E552E552F3CF00F0F4CF01F0F350F41018
:101DB0000CE00F010A0E505D000E515901E280D077
:101DC0000A0E505F000E515B12000F01E70ED88023
:101DD0005055030E51551DE250CF00F051CF01F088
:101DE000640E256E266A50CF20F051CF21F08CEC86
:101DF0002EF020C000F021C001F0026A036A20C06A
:101E0000E6FF21C0E6FF02C0E6FF03C0E6FF060EC4
:101E100029D00E0EE66E580EE66E060EE66EE66AE7
:101E20008FEC17F0E552E552E552E55250CF00F045
:101E300051CF01F0640E256E266A50CF20F051CFAD
:101E400021F08CEC2EF020C000F021C001F0026ADD
:101E5000036A20C0E6FF21C0E6FF02C0E6FF03C020
:101E6000E6FF070EE66EE66ABAEC17F0046E060EA1
:101E7000E15E045050CF00F051CF01F0640E256EAA
:101E8000266A50CF20F051CF21F08CEC2EF01CC0F0
:101E900000F01DC001F0026A036A1CC0E6FF1DC00D
:101EA000E6FF02C0E6FF03C0E6FF090EE66EE66A43
:101EB000BAEC17F0046E060EE15E0450E0EC18F088
:101EC0001200000EE66EE66A5FEC2AF0E552E5527B
:101ED000F3CF00F0F4CF01F0F350F4101CE0010E4A
:101EE00001014C6F4D6B1FEC19F0230EE66E580E7E
:101EF000E66EE66AE66A8FEC17F0E552E552E552C7
:101F0000E552E0EC18F0C80EE66EE66A95EC19F0C2
:101F1000E552E5521200010EE66EE66A5FEC2AF029
:101F2000E552E552F3CF00F0F4CF01F0F350F41096
:101F300015E0090E01014C6F4D6B1FEC19F0D00E2E
:101F4000E66E570EE66EE66AE66A8FEC17F0E5522B
:101F5000E552E552E5528CEC2CF01FD0050EE66EF2
:101F6000E66A5FEC2AF0E552E552F3CF00F0F4CFD9
:101F700001F0F350F41013E0140E01014C6F4D6B9F
:101F8000100EE66E580EE66EE66A010EE66E8FECF7
:101F900017F0E552E552E552E552E0EF18F0030E76
:101FA000E66EE66A5FEC2AF0E552E552F3CF00F008
:101FB000F4CF01F0F350F4100DE00F01C60ED880FD
:101FC0005255070E535501E29AD00A0E5227000EC1
:101FD00053231200070EE66EE66A5FEC2AF0E55224
:101FE000E552F3CF00F0F4CF01F0F350F4100CE021
:101FF0000F010A0E525D000E535901E280D00A0E05
:10200000525F000E535B12000F01E70ED88052554D
:10201000030E53551DE252CF00F053CF01F0640E72
:10202000256E266A52CF20F053CF21F08CEC2EF093
:1020300020C000F021C001F0026A036A20C0E6FF60
:1020400021C0E6FF02C0E6FF03C0E6FF060E29D06E
:102050000E0EE66E580EE66E060EE66EE66A8FEC23
:1020600017F0E552E552E552E55252CF00F053CF5A
:1020700001F0640E256E266A52CF20F053CF21F076
:102080008CEC2EF020C000F021C001F0026A036A3F
:1020900020C0E6FF21C0E6FF02C0E6FF03C0E6FF66
:1020A000070EE66EE66ABAEC17F0046E060EE15E05
:1020B000045052CF00F053CF01F0640E256E266A13
:1020C00052CF20F053CF21F08CEC2EF01CC000F04A
:1020D0001DC001F0026A036A1CC0E6FF1DC0E6FFD6
:1020E00002C0E6FF03C0E6FF090EE66EE66ABAEC40
:1020F00017F0046E060EE15E0450E0EC18F01200DA
:102100001F0E01014C1901E14D5101E125D1150EC0
:102110004C1901E14D5101E01200000EE66EE66A35
:102120005FEC2AF0E552E552F3CF00F0F4CF01F076
:10213000F350F4101CE0010E01014C6F4D6B1FECCD
:1021400019F0230EE66E580EE66EE66AE66A8FEC2C
:1021500017F0E552E552E552E552E0EC18F0C80EF2
:10216000E66EE66A95EC19F0E552E5521200010EB2
:10217000E66EE66A5FEC2AF0E552E552F3CF00F036
:10218000F4CF01F0F350F41015E00A0E01014C6F8A
:102190004D6B1FEC19F0C00EE66E570EE66EE66A48
:1021A000E66A8FEC17F0E552E552E552E5528CEC09
:1021B0002CF01FD0050EE66EE66A5FEC2AF0E552C1
:1021C000E552F3CF00F0F4CF01F0F350F41013E038
:1021D0001F0E01014C6F4D6BAA0EE66E570EE66E98
:1021E000E66A010EE66E8FEC17F0E552E552E55215
:1021F000E552E0EF18F0030EE66EE66A5FEC2AF0B7
:10220000E552E552F3CF00F0F4CF01F0F350F410B3
:102210000DE00F01C60ED8805455070E555501E24A
:102220009AD00A0E5427000E55231200070EE66EB0
:10223000E66A5FEC2AF0E552E552F3CF00F0F4CF06
:1022400001F0F350F4100CE00F010A0E545D000E83
:10225000555901E280D00A0E545F000E555B120002
:102260000F01E70ED8805455030E55551DE254CF8B
:1022700000F055CF01F0640E256E266A54CF20F091
:1022800055CF21F08CEC2EF020C000F021C001F0E1
:10229000026A036A20C0E6FF21C0E6FF02C0E6FF33
:1022A00003C0E6FF060E29D00E0EE66E580EE66E4F
:1022B000060EE66EE66A8FEC17F0E552E552E5523F
:1022C000E55254CF00F055CF01F0640E256E266A1A
:1022D00054CF20F055CF21F08CEC2EF020C000F030
:1022E00021C001F0026A036A20C0E6FF21C0E6FFB8
:1022F00002C0E6FF03C0E6FF070EE66EE66ABAEC30
:1023000017F0046E060EE15E045054CF00F055CF76
:1023100001F0640E256E266A54CF20F055CF21F0CF
:102320008CEC2EF01CC000F01DC001F0026A036AA4
:102330001CC0E6FF1DC0E6FF02C0E6FF03C0E6FFCB
:10234000090EE66EE66ABAEC17F0046E060EE15E60
:102350000450E0EC18F01200000EE66EE66A5FEC46
:102360002AF0E552E552F3CF00F0F4CF01F0F3503C
:10237000F4101CE0010E01014C6F4D6B1FEC19F0C5
:10238000230EE66E580EE66EE66AE66A8FEC17F0EC
:10239000E552E552E552E552E0EC18F0C80EE66E63
:1023A000E66A95EC19F0E552E5521200010EE66E70
:1023B000E66A5FEC2AF0E552E552F3CF00F0F4CF85
:1023C00001F0F350F41015E00A0E01014C6F4D6B53
:1023D0001FEC19F0C00EE66E570EE66EE66AE66A6E
:1023E0008FEC17F0E552E552E552E5528CEC2CF0FB
:1023F0001FD0050EE66EE66A5FEC2AF0E552E55264
:10240000F3CF00F0F4CF01F0F350F41013E0150E09
:1024100001014C6F4D6B100EE66E580EE66EE66ACB
:10242000010EE66E8FEC17F0E552E552E552E552EB
:10243000E0EF18F0030EE66EE66A5FEC2AF0E55274
:10244000E552F3CF00F0F4CF01F0F350F4100DE0BB
:102450000F01C60ED8805655070E575501E29AD087
:102460000A0E5627000E57231200070EE66EE66A84
:102470005FEC2AF0E552E552F3CF00F0F4CF01F023
:10248000F350F4100CE00F010A0E565D000E575980
:1024900001E280D00A0E565F000E575B12000F015A
:1024A000E70ED8805655030E57551DE256CF00F063
:1024B00057CF01F0640E256E266A56CF20F057CF15
:1024C00021F08CEC2EF020C000F021C001F0026A57
:1024D000036A20C0E6FF21C0E6FF02C0E6FF03C09A
:1024E000E6FF060E29D00E0EE66E580EE66E060EBC
:1024F000E66EE66A8FEC17F0E552E552E552E552DA
:1025000056CF00F057CF01F0640E256E266A56CFE5
:1025100020F057CF21F08CEC2EF020C000F021C02D
:1025200001F0026A036A20C0E6FF21C0E6FF02C094
:10253000E6FF03C0E6FF070EE66EE66ABAEC17F0A8
:10254000046E060EE15E045056CF00F057CF01F046
:10255000640E256E266A56CF20F057CF21F08CEC02
:102560002EF01CC000F01DC001F0026A036A1CC0FE
:10257000E6FF1DC0E6FF02C0E6FF03C0E6FF090E4E
:10258000E66EE66ABAEC17F0046E060EE15E0450E1
:10259000E0EC18F01200200E01014C1901E14D5140
:1025A00001E10AD1160E4C1901E14D5101E0120072
:1025B000000EE66EE66A5FEC2AF0E552E552F3CFD4
:1025C00000F0F4CF01F0F350F4101CE0010E010113
:1025D0004C6F4D6B1FEC19F0230EE66E580EE66E35
:1025E000E66AE66A8FEC17F0E552E552E552E552ED
:1025F000E0EC18F0C80EE66EE66A95EC19F0E552CC
:10260000E5521200010EE66EE66A5FEC2AF0E55232
:10261000E552F3CF00F0F4CF01F0F350F41015E0E1
:10262000040E01014C6F4D6B1FEC19F0B70EE66EF6
:10263000570EE66EE66AE66A8FEC17F0E552E55251
:10264000E552E5528CEC2CF01FD0050EE66EE66AE2
:102650005FEC2AF0E552E552F3CF00F0F4CF01F041
:10266000F350F41013E0200E01014C6F4D6BAA0ED5
:10267000E66E570EE66EE66A010EE66E8FEC17F018
:10268000E552E552E552E552E0EF18F0030EE66E32
:10269000E66A5FEC2AF0E552E552F3CF00F0F4CFA2
:1026A00001F0F350F41017E058CF00F059CF01F0CB
:1026B000026A0234010E021807E6D880D80E0054D0
:1026C000850E0154010E025476E3640E0F01582763
:1026D000000E59231200070EE66EE66A5FEC2AF040
:1026E000E552E552F3CF00F0F4CF01F0F350F410CF
:1026F0000BE00F014C0E585D040E59595CE3640E5B
:10270000585F000E595B12000F010F0ED88058550C
:10271000270E59551DE258CF00F059CF01F0640E35
:10272000256E266A58CF20F059CF21F08CEC2EF080
:1027300020C000F021C001F0026A036A20C0E6FF59
:1027400021C0E6FF02C0E6FF03C0E6FF070E29D066
:102750000E0EE66E580EE66E070EE66EE66A8FEC1B
:1027600017F0E552E552E552E55258CF00F059CF47
:1027700001F0640E256E266A58CF20F059CF21F063
:102780008CEC2EF020C000F021C001F0026A036A38
:1027900020C0E6FF21C0E6FF02C0E6FF03C0E6FF5F
:1027A000080EE66EE66ABAEC17F0046E060EE15EFD
:1027B0000450E0EC18F01200000EE66EE66A5FECE2
:1027C0002AF0E552E552F3CF00F0F4CF01F0F350D8
:1027D000F4101CE0010E01014C6F4D6B1FEC19F061
:1027E000230EE66E580EE66EE66AE66A8FEC17F088
:1027F000E552E552E552E552E0EC18F0C80EE66EFF
:10280000E66A95EC19F0E552E5521200010EE66E0B
:10281000E66A5FEC2AF0E552E552F3CF00F0F4CF20
:1028200001F0F350F41015E0040E01014C6F4D6BF4
:102830001FEC19F0B70EE66E570EE66EE66AE66A12
:102840008FEC17F0E552E552E552E5528CEC2CF096
:102850001FD0050EE66EE66A5FEC2AF0E552E552FF
:10286000F3CF00F0F4CF01F0F350F41013E0160EA4
:1028700001014C6F4D6B100EE66E580EE66EE66A67
:10288000010EE66E8FEC17F0E552E552E552E55287
:10289000E0EF18F0030EE66EE66A5FEC2AF0E55210
:1028A000E552F3CF00F0F4CF01F0F350F41017E04D
:1028B0005ACF00F05BCF01F0026A0234010E021819
:1028C00007E6D880D80E0054850E0154010E02543C
:1028D00076E3640E0F015A27000E5B231200070EE9
:1028E000E66EE66A5FEC2AF0E552E552F3CF00F0BF
:1028F000F4CF01F0F350F4100BE00F014C0E5A5DD1
:10290000040E5B595CE3640E5A5F000E5B5B1200C1
:102910000F010F0ED8805A55270E5B551DE25ACF76
:1029200000F05BCF01F0640E256E266A5ACF20F0CE
:102930005BCF21F08CEC2EF020C000F021C001F024
:10294000026A036A20C0E6FF21C0E6FF02C0E6FF7C
:1029500003C0E6FF070E29D00E0EE66E580EE66E97
:10296000070EE66EE66A8FEC17F0E552E552E55287
:10297000E5525ACF00F05BCF01F0640E256E266A57
:102980005ACF20F05BCF21F08CEC2EF020C000F06D
:1029900021C001F0026A036A20C0E6FF21C0E6FF01
:1029A00002C0E6FF03C0E6FF080EE66EE66ABAEC78
:1029B00017F0046E060EE15E0450E0EC18F0120011
:1029C000D9CFE6FFE1CFD9FF040EE126DE6ADD6A4A
:1029D000DECF00F0DDCF01F0026A036A01AE02D063
:1029E00002680368D950FB0FE96EFF0EDA20EA6E29
:1029F000EE50005CEE500158EE500258EE50035875
:102A00001DE2020EDB6A030EDB6A020EDBCF00F072
:102A1000030EDBCF01F0D890015004E6EE0E005C0F
:102A2000000E015806E2020EDB2A030EEEE3DB2A5B
:102A3000ECD7DF2A010ECCE3DB2ACAD7040EE15C17
:102A400002E2E16AE552E16EE552E7CFD9FF1200FA
:102A5000D9CFE6FFE1CFD9FFE652190EE66EE66A5E
:102A6000E66AE66AADDFE552E552E552E5520F0E41
:102A70008116F80E81160F0E8116300E8112818696
:102A8000010EE66EE66AE66AE66A9ADFE552E5520C
:102A9000E552E5528196010EE66EE66AE66AE66A5E
:102AA0008FDFE552E552E552E5520F0E8116300EEA
:102AB00081128186010EE66EE66AE66AE66A80DFCA
:102AC000E552E552E552E5528196010EE66EE66A60
:102AD000E66AE66A75DFE552E552E552E5520F0E09
:102AE0008116300E81128186010EE66EE66AE66A74
:102AF000E66A66DFE552E552E552E5528196010E3F
:102B0000E66EE66AE66AE66A5BDFE552E552E552A2
:102B1000E5520F0E8116818A8186010EE66EE66A05
:102B2000E66AE66A4DDFE552E552E552E5528196E6
:102B3000010EE66EE66AE66AE66A42DFE552E552B3
:102B4000E552E552280EE66E0AD8E5520C0EE66E06
:102B500006D8E552E552E552E7CFD9FF1200D9CFAA
:102B6000E6FFE1CFD9FF0F0E8116FE0EDB50F00B12
:102B700081128186010EE66EE66AE66AE66A20DF69
:102B8000E552E552E552E5528196010EE66EE66A9F
:102B9000E66AE66A15DFE552E552E552E5520F0EA8
:102BA0008116FE0EDB38F00B81128186010EE66E77
:102BB000E66AE66AE66A04DFE552E552E552E55266
:102BC0008196010EE66EE66AE66AE66AF9DEE5528D
:102BD000E552E552E552E552E7CFD9FF1200D9CFD1
:102BE000E6FFE1CFD9FF050EE126010EF36EDB6EA5
:102BF000020EDB6A030EDB6A040EDB6ADF6ADFCFDC
:102C000000F0016A00BE0168FB0EDBCF02F0FC0E93
:102C1000DBCF03F001500318E8AE02D0033404D038
:102C20000250005C035001582DE2FD0EDBCF00F096
:102C3000FE0EDBCF01F0026A036A01AE02D0026829
:102C40000368D950010FE96EDACFEAFF00C023F024
:102C500001C024F002C025F003C026F0EECF1EF024
:102C6000EECF1FF0EECF20F0EFCF21F0F8EC2DF0FB
:102C70001DC0EDFF1CC0EDFF1BC0EDFF1AC0EFFF34
:102C8000DF2ABDD7010EDBCF00F0020EDBCF01F053
:102C9000030EDBCF02F0040EDBCF03F000C01EF00A
:102CA00001C01FF002C020F003C021F0050EE15C5E
:102CB00002E2E16AE552E16EE552E7CFD9FF120088
:102CC000D9CFE6FFE1CFD9FF040EE126DE6ADD6A47
:102CD000DECF00F0DDCF01F0026A036A01AE02D060
:102CE00002680368D950FB0FE96EFF0EDA20EA6E26
:102CF000EE50005CEE500158EE500258EE50035872
:102D00001DE2020EDB6A030EDB6A020EDBCF00F06F
:102D1000030EDBCF01F0D890015004E6060E005CF4
:102D2000000E015806E2020EDB2A030EEEE3DB2A58
:102D3000ECD7DF2A010ECCE3DB2ACAD7040EE15C14
:102D400002E2E16AE552E16EE552E7CFD9FF1200F7
:102D5000D9CFE6FFE1CFD9FF0F0E8116FE0EDB5073
:102D600081128186050EE66EE66AE66AE66AA8DFEB
:102D7000E552E552E552E5528196050EE66EE66AA9
:102D8000E66AE66A9DDFE552E552E552E552E55214
:102D9000E7CFD9FF1200D9CFE6FFE1CFD9FF818479
:102DA000050EE66EE66AE66AE66A8ADFE552E552F5
:102DB000E552E552FE0EDBCFE6FFCADFE552FE0E1E
:102DC000DB38F00BE66EC4DFE5528194E552E7CFC5
:102DD000D9FF1200D9CFE6FFE1CFD9FF8194050ECC
:102DE000E66EE66AE66AE66A6BDFE552E552E552B0
:102DF000E552FE0EDBCFE6FFABDFE552FE0EDB3821
:102E0000F00BE66EA5DFE552E552E7CFD9FF1200E1
:102E1000D9CFE6FFE1CFD9FFE652FD0EDB500F0B15
:102E2000006EFE0EDB50010B400DF3500024DF6EF0
:102E30007F0EDF14800FDF6EDFCFE6FFCBDFE552C2
:102E4000E552E552E7CFD9FF1200D9CFE6FFE1CF37
:102E5000D9FFFE0EDBCFE6FF9EDFE552E552E7CF5E
:102E6000D9FF1200D9CFE6FFE1CFD9FF7CCF00F028
:102E70007DCF01F0040ED89000360136E806FBE164
:102E8000000E0026010E012200500F017E25E96E82
:102E900001507F21EA6EFE0EDBCFEFFF7E2B000E8E
:102EA0007F23E552E7CFD9FF1200D9CFE6FFE1CF6C
:102EB000D9FFFD0EDBCFF6FFFE0EDBCFF7FF0800DC
:102EC000F5500FE0FD0EDBCFF6FFDB2AFE0EDBCF69
:102ED000F7FF01E3DB2A0800F550E66EB6DFE552A6
:102EE000E8D7E552E7CFD9FF1200D9CFE6FFE1CF0F
:102EF000D9FFFD0EDBCFE6FFFE0EDBCFE6FF88DF5E
:102F0000E552E552FB0EDBCFE6FFFC0EDBCFE6FF22
:102F1000CCDFE552E552E552E7CFD9FF1200D9CF19
:102F2000E6FFE1CFD9FFFE0EDB50010B0F017C6FF6
:102F30007D6BFD0EDB500F0B7E6F7F6BFB0EDBCFCF
:102F4000F6FFFC0EDBCFF7FF0800F5500FE0FB0E9D
:102F5000DBCFF6FFDB2AFC0EDBCFF7FF01E3DB2A3A
:102F60000800F550E66E7EDFE552E8D7E552E7CF80
:102F7000D9FF1200D9CFE6FFE1CFD9FF020EE1263B
:102F8000DF6AFE0EDB50010B0F017C6F7D6BFD0EC7
:102F9000DB500F0B7E6F7F6BF90EDBCF00F0FA0E6C
:102FA000DBCF01F0FB0EDBCF02F0FC0EDBCF03F03A
:102FB000005001100210031005E1300EE66E52DFE2
:102FC000E552F4D0D950F90FE96EFF0EDA20EA6E1F
:102FD000D890030EEB50000A08E6000EEE5C000EDF
:102FE000EE58000EEE58000EEE5815E22D0EE66E6D
:102FF00039DFE552D950F90FE96EFF0EDA20EA6E9B
:10300000000EEE6CEF1EEE22EF1EEE22EF1EEF2200
:10301000ED52ED52ED52DE52070EDD6E010EDBCFAA
:1030200000F0000EE76E0018E8AE02D0003403D0C6
:10303000E750D880005401E3B9D0010EDB04046EE0
:10304000056A04BE056804C0E6FF05C0E6FF0A0E77
:10305000E66EE66AC4DDE552E552E552E5521EC071
:1030600000F01FC001F020C002F021C003F01EC01C
:1030700023F01FC024F020C025F021C026F0F90E57
:10308000DBCF1EF0FA0EDBCF1FF0FB0EDBCF20F004
:10309000FC0EDBCF21F030EC2EF01E501F10201064
:1030A000211041E0010EDF6EDB04086E096A08BEE4
:1030B000096808C0E6FF09C0E6FF0A0EE66EE66A88
:1030C0008EDDE552E552E552E5521EC004F01FC008
:1030D00005F020C006F021C007F01EC023F01FC07D
:1030E00024F020C025F021C026F0F90EDBCF1EF021
:1030F000FA0EDBCF1FF0FB0EDBCF20F0FC0EDBCF98
:1031000021F030EC2EF01EC000F01FC001F020C0F6
:1031100002F021C003F0300E0026000E0122022230
:103120000322005003D0DF5004E0300EE66E9ADE3A
:10313000E552010EDB04046E056A04BE056804C096
:10314000E6FF05C0E6FF0A0EE66EE66A48DDE552D8
:10315000E552E552E5521EC000F01FC001F020C04C
:1031600002F021C003F0D950F90FE96EFF0EDA200A
:10317000EA6E1EC023F01FC024F020C025F021C03D
:1031800026F0EECF1EF0EECF1FF0EECF20F0EFCF07
:1031900021F030EC2EF01DC0EDFF1CC0EDFF1BC078
:1031A000EDFF1AC0EFFF010EDB0638D7020EE15C1F
:1031B00002E2E16AE552E16EE552E7CFD9FF120083
:1031C000D9CFE6FFE1CFD9FFE652E66AE66A20DE14
:1031D000E552E552DF6A100EDF5C0CE2DF50EA6A6E
:1031E000000FE96E010EEA22EF50E66E2EDEE55288
:1031F000DF2AF1D7E66A010EE66E0ADEE552E552F5
:10320000DF6A100EDF5C0CE2DF50EA6A100FE96E35
:10321000010EEA22EF50E66E18DEE552DF2AF1D702
:10322000E552E552E7CFD9FF1200010EE66ED2DD7E
:10323000E552E66AE66AECDDE552E5521200D9CFC6
:10324000E6FFE1CFD9FFE652DF6ADFCF00F0100ED4
:10325000E76E0018E8AE02D0E73402D0E750005C19
:1032600018E2DFCFE9FFEA6AE9BEEA68000EE92664
:10327000010EEA22200EEF6EDFCFE9FFEA6AE9BE17
:10328000EA68100EE926010EEA22200EEF6EDF2A10
:0C329000DCD7E552E552E7CFD9FF120071
:04329C001FD80F0127
:1032A0006751FDE0676B85D8C5D8F5DACEDBB9ECA0
:1032B00028F0E5EC2CF046EC00F09FEC1DF0F3EC70
:1032C00004F03EEC07F089EC09F0EAEC0BF035EC89
:1032D0000EF080EC10F0CBEC12F0E1D7936A28EC02
:1032E00015F015EC19F01FEC19F097EC2AF0B2EC80
:1032F0002DF0660EE66EB70EE66E85EC27F0E55211
:10330000E552320EE66EE66A91EC28F0E552E5529F
:1033100081EC23F0B4EC28F071EC2EF0C80EE66ED0
:10332000E66A03D8E552E5521200D9CFE6FFE1CFB5
:10333000D9FF040EE126DE6ADD6ADECF00F0DDCFC4
:1033400001F0FD0EDBCF02F0FE0EDBCF03F00150EB
:103350000318E8AE02D0033404D00250005C0350DE
:1033600001581DE2020EDB6A030EDB6A020EDBCFA0
:1033700000F0030EDBCF01F0D890015004E6EE0E12
:10338000005C000E015806E2020EDB2A030EEEE39B
:10339000DB2AECD7DF2A010ED0E3DB2ACED7040EDE
:1033A000E15C02E2E16AE552E16EE552E7CFD9FF66
:1033B0001200D9CFE6FFE1CFD9FF020EE126DE6A87
:1033C000DD6ADECF00F0DDCF01F0D890015004E6D9
:1033D000070E005C000E015823E2DFCFE6FFB9ECD8
:1033E0002DF0E552F3CF00F0F4CF01F0DECFE9FF8E
:1033F000DDCFEAFFD890E936EA36F00EE926000E76
:10340000EA22F3CFEEFF01C0EDFF140EE66EE66A8E
:103410008CDFE552E552DF2A010ED3E3DB2AD1D758
:10342000020EE15C02E2E16AE552E16EE552E7CFAD
:10343000D9FF1200F0C00CF0F1C00DF00E6A0F6A57
:10344000F0C01EF0F1C01FF00EC020F00FC021F040
:10345000D5EC20F01FC008F020C009F021C00AF010
:1034600022C00BF0246A256A600E266E410E276E7C
:10347000D8EC21F01FC004F020C005F021C006F0F8
:1034800022C007F0246AC00E256E7F0E266E440E01
:10349000276E85EC21F01FC000F020C001F021C094
:1034A00002F022C003F0246A256AC80E266E420E7E
:1034B000276ED8EC21F0CCEC22F020C032FF21C0E6
:1034C00033FFF2C00CF0F3C00DF00E6A0F6AF2C0C9
:1034D0001EF0F3C01FF00EC020F00FC021F0D5EC9D
:1034E00020F01FC008F020C009F021C00AF022C05F
:1034F0000BF0246A256AA00E266E420E276ED8ECC9
:1035000021F01FC004F020C005F021C006F022C049
:1035100007F0246AC00E256E7F0E266E440E276EBD
:1035200085EC21F01FC000F020C001F021C002F0A6
:1035300022C003F0246A256AC80E266E420E276E4A
:10354000D8EC21F0CCEC22F020C034FF21C035FFB4
:10355000046A056A200E066E420E076EF4C014F06F
:10356000F5C015F0166A176AF4C01EF0F5C01FF01A
:1035700016C020F017C021F0D5EC20F01FC010F0CD
:1035800020C011F021C012F022C013F0246A256A75
:10359000520E266E430E276ED8EC21F01FC00CF0A1
:1035A00020C00DF021C00EF022C00FF0246AC00E22
:1035B000256E7F0E266E440E276E85EC21F01FC00F
:1035C00008F020C009F021C00AF022C00BF01FC093
:1035D00024F020C025F021C026F022C027F004C02E
:1035E0001FF005C020F006C021F007C022F0EFEC6C
:1035F00020F01FC000F020C001F021C002F022C066
:1036000003F0246A256AC80E266E420E276ED8EC97
:1036100021F0CCEC22F020C036FF21C037FFF6C0ED
:103620000CF0F7C00DF00E6A0F6AF6C01EF0F7C07E
:103630001FF00EC020F00FC021F0D5EC20F01FC00D
:1036400008F020C009F021C00AF022C00BF0246A63
:10365000256A700E266E420E276ED8EC21F01FC030
:1036600004F020C005F021C006F022C007F0246A53
:10367000C00E256E7F0E266E440E276E85EC21F05F
:103680001FC000F020C001F021C002F022C003F0F2
:10369000246A256AC80E266E420E276ED8EC21F0E9
:1036A000CCEC22F020C038FF21C039FFF8C00CF06C
:1036B000F9C00DF00E6A0F6AF8C01EF0F9C01FF0D5
:1036C0000EC020F00FC021F0D5EC20F01FC008F094
:1036D00020C009F021C00AF022C00BF0246A256A3C
:1036E000400E266E410E276ED8EC21F01FC004F06C
:1036F00020C005F021C006F022C007F0246A256A28
:10370000AC0E266E420E276E85EC21F01FC000F035
:1037100020C001F021C002F022C003F0246A256A13
:10372000C80E266E420E276ED8EC21F0CCEC22F0AB
:1037300020C03AFF21C03BFFFAC00CF0FBC00DF0E7
:103740000E6A0F6AFAC01EF0FBC01FF00EC020F018
:103750000FC021F0D5EC20F01FC008F020C009F008
:1037600021C00AF022C00BF0246A256A400E266EA2
:10377000410E276ED8EC21F01FC004F020C005F0E8
:1037800021C006F022C007F0246AC00E256E7F0E0D
:10379000266E440E276E85EC21F01FC000F020C07D
:1037A00001F021C002F022C003F0246A256AC80E8D
:1037B000266E420E276ED8EC21F0CCEC22F020C011
:1037C0003CFF21C03DFF046A056AB40E066E420E3E
:1037D000076EFCC014F0FDC015F0166A176AFCC035
:1037E0001EF0FDC01FF016C020F017C021F0D5EC70
:1037F00020F01FC010F020C011F021C012F022C034
:1038000013F0246A256A9B0E266E430E276ED8ECB1
:1038100021F01FC00CF020C00DF021C00EF022C01E
:103820000FF0246AC00E256E7F0E266E440E276EA2
:1038300085EC21F01FC008F020C009F021C00AF07B
:1038400022C00BF01FC024F020C025F021C026F0BC
:1038500022C027F004C01FF005C020F006C021F0F0
:1038600007C022F0EFEC20F01FC000F020C001F0F4
:1038700021C002F022C003F0246A256AC80E266E19
:10388000420E276ED8EC21F0CCEC22F020C03EFF97
:1038900021C03FFF1200010E0001FE25FE6F000E49
:1038A000FF21FF6B030EFE17FE51FF1101E0120016
:1038B0006E0EE66E570EE66E02EC24F0E552E5520F
:1038C00032CF00F033CF01F0026A036A32CFE6FF55
:1038D00033CFE6FF02C0E6FF03C0E6FFB4EC25F0FD
:1038E000E552E552E552E552650EE66E570EE66E7C
:1038F00002EC24F0E552E55234CF00F035CF01F070
:10390000026A036A34CFE6FF35CFE6FF02C0E6FF66
:1039100003C0E6FFB4EC25F0E552E552E552E5526E
:10392000590EE66E570EE66E02EC24F0E552E552B3
:1039300036CF00F037CF01F0026A036A36CFE6FFD8
:1039400037CFE6FF02C0E6FF03C0E6FFB4EC25F088
:10395000E552E552E552E5524D0EE66E570EE66E23
:1039600002EC24F0E552E55238CF00F039CF01F0F7
:10397000026A036A38CFE6FF39CFE6FF02C0E6FFEE
:1039800003C0E6FFB4EC25F0E552E552E552E552FE
:10399000440EE66E570EE66E02EC24F0E552E55258
:1039A0003ACF00F03BCF01F0026A036A3ACFE6FF5C
:1039B0003BCFE6FF02C0E6FF03C0E6FFB4EC25F014
:1039C000E552E552E552E552380EE66E570EE66EC8
:1039D00002EC24F0E552E5523CCF00F03DCF01F07F
:1039E000026A036A3CCFE6FF3DCFE6FF02C0E6FF76
:1039F00003C0E6FFB4EC25F0E552E552E552E5528E
:103A00002B0EE66E570EE66E02EC24F0E552E55200
:103A10003ECF00F03FCF01F0026A036A3ECFE6FFDF
:103A20003FCFE6FF02C0E6FF03C0E6FFB4EC25F09F
:103A3000E552E552E552E552220EE66E570EE66E6D
:103A400002EC24F0E552E55212000101470576E14F
:103A5000476B0F01045172E10051060A61E0030A4D
:103A600051E0010A41E0070A31E0010A21E0030ABE
:103A700011E0010A01E012000A0E0103F3500F01E8
:103A8000406F416B0A0E0F010203F3500F01426FAA
:103A9000436B1200640E0103F3500F01446F456B3A
:103AA000640E0F010203F3500F01466F476B1200C3
:103AB000640E0103F3500F01486F496B640E0F0150
:103AC0000203F3500F014A6F4B6B1200640E0103A7
:103AD000F3500F014C6F4D6B640E0F010203F35056
:103AE0000F014E6F4F6B12000A0E0103F3500F01CE
:103AF000506F516B0A0E0F010203F3500F01526F0A
:103B0000536B12000A0E0103F3500F01546F556BF3
:103B10000A0E0F010203F3500F01566F576B12008C
:103B2000640E0103F3500F01586F596B640E0F01BF
:0E3B30000203F3500F015A6F5B6B120012007C
:023B3E00240E53
:103B400001014C1901E14D5140E0230E4C1901E1F6
:103B50004D5101E01200000EE66EE66A5FEC2AF0BD
:103B6000E552E552F3CF00F0F4CF01F0F350F4103A
:103B70000BE0020E01014C6F4D6B0101366B376B90
:103B8000E66A81EC2EF0E55232D9F3CF00F0F4CFA3
:103B900001F0F350F41009E0240E01014C6F4D6B5D
:103BA000010E0101366F376B12001FEC19F0580E31
:103BB000E66E580EE66EE66AE66A8FEC17F0E5529E
:103BC000E552E552E552E0EF18F0000EE66EE66AC7
:103BD0005FEC2AF0E552E552F3CF00F0F4CF01F0AC
:103BE000F350F4100BE0020E01014C6F4D6B01011C
:103BF000366B376BE66A81EC2EF0E552F8D8F3CFDE
:103C000000F0F4CF01F0F350F4100FE1230E0101A6
:103C10004C6F4D6B0101306B316B2E6B2F6B366B24
:103C2000376BE66A81EC2EF0E552ACDA01013651D1
:103C3000371103E0190EE66E01D0E66A81EC2EF032
:103C4000E552D5D8F3CF00F0F4CF01F0010EF31810
:103C500001E101500AE0CBD8F3CF02F0F4CF03F03A
:103C6000030EF31858E1035056E11FEC19F0510E02
:103C7000E66E580EE66EE66AE66A8FEC17F0E552DD
:103C8000E552E552E552060E0101306F316B2E6BA5
:103C90002F6B326B336B070E325D000E335919E216
:103CA00032C1E9FF33C1EAFF010ED890E936EA36A6
:103CB000E806FBE1200EE926010EEA22010EEE18CD
:103CC00003E1ED5001E1ECD90101322B000E332369
:103CD000E2D7E0EC18F00101346B356B100E345D67
:103CE000E50E355918E2000EE66EE66A5FEC2AF042
:103CF000E552E552F3CF00F0F4CF01F0F350F410A9
:103D000005E0020E01014C6F4D6B05D00101342B13
:103D1000000E3523E3D76BD8F3CF00F0F4CF01F0DA
:103D2000020EF31801E101500AE061D8F3CF02F06E
:103D3000F4CF03F0030EF31858E1035057E11FECE2
:103D400019F04B0EE66E580EE66EE66AE66A8FECE8
:103D500017F0E552E552E552E552050E0101306FCC
:103D6000316B2E6B2F6B326B336B070E325D000E97
:103D7000335919E232C1E9FF33C1EAFF010ED8908D
:103D8000E936EA36E806FBE1200EE926010EEA22D2
:103D9000020EEE1803E1ED5001E182D90101322B50
:103DA000000E3323E2D7E0EC18F00101346B356BE1
:103DB000100E345DE50E355919E2000EE66EE66A26
:103DC0005FEC2AF0E552E552F3CF00F0F4CF01F0BA
:103DD000F350F41005E0020E01014C6F4D6B120020
:103DE0000101342B000E3523E3D712001200D9CF86
:103DF000E6FFE1CFD9FF020EE126DE6ADD6A0F01A0
:103E000032510F01425D0F0133510F01435902E25C
:103E1000010E0AD00F0140510F01325D0F014151D7
:103E20000F01335904E2020E0101206F02D001019B
:103E3000206B216B0F0134510F01465D0F0135518D
:103E40000F01475902E2010E0AD00F0144510F0140
:103E5000345D0F0145510F01355904E2020E010195
:103E6000226F02D00101226B236B0F0136510F012B
:103E70004A5D0F0137510F014B5902E2010E0AD082
:103E80000F0148510F01365D0F0149510F0137599C
:103E900004E2020E0101246F02D00101246B256BA4
:103EA0000F0138510F014E5D0F0139510F014F596C
:103EB00002E2010E0AD00F014C510F01385D0F01D3
:103EC0004D510F01395904E2020E0101266F02D053
:103ED0000101266B276B0F013A510F01525D0F0153
:103EE0003B510F01535902E2010E0AD00F0150510C
:103EF0000F013A5D0F0151510F013B5904E2020ECF
:103F00000101286F02D00101286B296B0F013C5180
:103F10000F01565D0F013D510F01575902E2010E8D
:103F20000AD00F0154510F013C5D0F0155510F0193
:103F30003D5904E2020E01012A6F02D001012A6BF1
:103F40002B6B0F013E510F015A5D0F013F510F01C5
:103F50005B5902E2010E0AD00F0158510F013E5D7C
:103F60000F0159510F013F5904E2020E01012C6F5C
:103F700002D001012C6B2D6B326B336B070E325D5F
:103F8000000E335901E37AD032C1E9FF33C1EAFFB1
:103F9000010ED890E936EA36E806FBE1200EE92664
:103FA000010EEA22010EEE180BE1ED5009E1D9CF26
:103FB000E9FFDACFEAFFEE50ED1002E1010E57D033
:103FC00032C1E9FF33C1EAFF010ED890E936EA3683
:103FD000E806FBE1200EE926010EEA22010EEE18AA
:103FE0000DE1ED500BE1D9CFE9FFDACFEAFF020E88
:103FF000EE1804E1ED5002E1030E39D032C1E9FFC1
:1040000033C1EAFF010ED890E936EA36E806FBE153
:10401000200EE926010EEA22020EEE180BE1ED5009
:1040200009E1D9CFE9FFDACFEAFFEE50ED1002E166
:10403000020E1DD032C1E9FF33C1EAFF010ED89054
:10404000E936EA36E806FBE1200EE926010EEA220F
:10405000020EEE180EE1ED500CE1D9CFE9FFDACFF8
:10406000EAFF010EEE1805E1ED5003E1030EDE6EEE
:10407000DD6A0101322B000E332380D7DECF00F042
:10408000DDCF01F000C0F3FF01C0F4FF020EE15CE0
:1040900002E2E16AE552E16EE552E7CFD9FF120094
:1040A000060E0101321901E133514DE0050E3219BE
:1040B00001E1335138E0040E321901E133512FE0B0
:1040C000030E321901E1335126E0020E321901E1EB
:1040D00033511DE0010E321901E1335108E0325134
:1040E00045E1335143E1480EE66E580E03D0450ECC
:1040F000E66E580EE66E30C1E6FF2EC1E6FF8FEC8D
:1041000017F0E552E552E552E552030E2BD0410E71
:10411000E66E580E0BD03D0EE66E580E07D0390EE7
:10412000E66E580E03D0350EE66E580EE66E30C1C0
:10413000E6FF2EC1E6FF8FEC17F0E552E552E5529F
:10414000E552040E0FD0300EE66E580EE66E30C10A
:10415000E6FF2EC1E6FF8FEC17F0E552E552E5527F
:10416000E552050E01013027000E31230F0ED880D5
:104170003055000E315503E2010E2E6F01D02E6B2B
:104180002F6B1200040EE66EE66A5FEC2AF0E55231
:10419000E552F350F41006E00101010ED8803657C5
:0641A000000E375712006B
:0A41A600199E0CD0199E21AE09D01D
:1041B0001E6C1F1E201E211EE86A1F2220222122A3
:1041C000198E21C01BF020C01AF01FC02BF01EC09A
:1041D0002AF09E0E1C6E1D6A17EF23F0277E196AC7
:1041E00053EC23F06BEC23F019B6FBEF22F019A28D
:1041F0000AD019AA03D019BEFBEF22F019A407EFC9
:1042000023F004EF23F019AA05D019AC07EF23F02F
:1042100004EF23F019A00AD019A808D019BE04D0C1
:1042200019A402D010EF23F014EF23F02A6A1D6ABC
:104230002750225C296E10E31FC02BF020C01AF01B
:1042400021C01BF022C028F024C01FF025C020F0A0
:1042500026C021F0193A09D024C02BF025C01AF04D
:1042600026C01BF027C028F0296C199E19BC198E96
:1042700028C01CF019B043EF23F01A0E296043EF59
:1042800023F01C6A226A19A408D01F6C201E211E6C
:10429000221EE86A20222122222219AC08D02B6C8F
:1042A0001A1E1B1E1C1EE86A1A221B221C221E6AD2
:1042B000295207E02234213220321F321E32292EA9
:1042C000F9D71F502B2620501A2221501B22225092
:1042D0001C221EC02AF0199E1CAE0BD02A6C2B1E6D
:1042E0001A1E1B1E1C1EE86A2B221A221B221C22CD
:1042F000198E1CA006D0D8801B321A322B322A32DB
:10430000282A28C01CF017EF23F0196A53EC23F079
:104310006BEC23F019B6FBEF22F019A205D019BA05
:10432000FBEF22F002EF23F019BA0EEF23F019A0F1
:1043300005D019B8FBEF22F00EEF23F019B802EF09
:1043400023F01D6A7F0E22241C6EE86A1D2227506E
:104350001C5EE86A1D5A1A0E286E226A2A6A2B6AA7
:104360001A6A1B6A24501F5E2550205A2650215A73
:10437000000E225A09E724501F26255020222650DD
:104380002122000E222201D02A8AD8901F36203600
:1043900021362236D8902A362B361A361B36282E4E
:1043A000E1D7215020101F10D8A42A8A17EF23F03C
:1043B000196A53EC23F06BEC23F019B6FBEF22F0F3
:1043C00019A205D019B8FBEF22F002EF23F019AAC9
:1043D00005D019B0FBEF22F002EF23F019B002D0A4
:1043E00019A802D00EEF23F01D6A275022241C6E5C
:1043F000E86A1D227E0E1C5EE86A1D5A2A6A2B6A34
:104400001A6A1B6A26502102F4CF1BF0F3CF1AF070
:1044100025502102F3502B26F4501A22000E1B22A5
:1044200026502002F3502B26F4501A22000E1B2295
:1044300024502102F3502A26F4502B22000E1A2277
:104440001B2225502002F3502A26F4502B22000E66
:104450001A221B2226501F02F3502A26F4502B2228
:10446000000E1A221B2224502002F4502A26000E8D
:104470002B221A221B2225501F02F4502A26000E3E
:104480002B221A221B2217EF23F0186A26AE4EEFBA
:1044900022F0256C261EE86A2622181E21AE56EF51
:1044A00022F0206C211EE86A2122181E8CEC2EF0CE
:1044B00021BE66EF22F018AE000C206C211EE86AC7
:1044C00021221C6C1D1EE86A1D22000C18BE5DEF27
:1044D00022F01988FF0C186A26AE76EF22F0246CC1
:1044E000251E261EE86A25222622181E21AE80EFF0
:1044F00022F01F6C201E211EE86A20222122181E95
:1045000054EC2EF021BE93EF22F018AE000C1F6C7D
:10451000201E211EE86A202221221B6C1C1E1D1E4B
:104520001C221D22000C18BE87EF22F01988FF0CF8
:10453000186AE86A26AEA5EF22F0236C241E251E19
:10454000261E242225222622181E21AEB0EF22F09C
:104550001E6C1F1E201E211E1F2220222122181E1B
:1045600030EC2EF021BEC7EF22F018AE000C1E6C0E
:104570001F1E201E211EE86A1F22202221221A6CE3
:104580001B1E1C1E1D1E1B221C221D22000C18BEE1
:10459000B7EF22F01988FF0C196A53EC23F019B613
:1045A000D6EF22F019A20ED019B405D07F0E216EDD
:1045B000FF0E206E1FD0800E216E206A1BD0216A54
:1045C000206A18D019B0FBD78F0E2260EDD77E0E6F
:1045D0002264F5D78E0E225C05E0D890213220327D
:1045E000222AF8D719A406D0206C211EE86A2122BD
:1045F00021AEE5D712007F0E226EFF0E216E206ED7
:104600001F6E12007F0E19BEFF0E226E02D07F0EAB
:10461000226E800E216E206A1F6AF3D719AE04D075
:10462000800E226E216AF7D7226A216AF4D71B50C6
:104630001A102B102A10F8E01DBEF0D71BBE0CD0AC
:104640001C501D10EBE0D8902A362B361A361B363C
:104650001C06D8A01D06F2D71D50D4E11C28D2E0BC
:104660002AAE11D07F0E2A1402E12BA00CD02B2AE7
:10467000E86A1A221B2207E3D8801B321A322B3237
:104680001C2A1C28BFE01C50C9E02BC01FF01AC018
:1046900020F01B34216E1C30226E2132229E19BE66
:1046A000228E01EF23F02136223602E31984197E8F
:1046B00006E11980226A216A206A1F6A12002228F4
:1046C00003E0D88021321200D890213202E1198211
:1046D0001200198612002636273602E3198C197E3D
:1046E00006E11988276A266A256A246A12002728A3
:1046F00003E0D88026321200D8902632EAE1198AE7
:024700001200A5
:0E470200B06A810EAF6EAC8AAC94B886AC98EB
:10471000AB8EAB889E9A9D8A9F9A949C948E120031
:10472000D9CFE6FFE1CFD9FF040EE126DE6ADD6ACC
:10473000DECF00F0DDCF01F0FD0EDBCF02F0FE0E8C
:10474000DBCF03F001500318E8AE02D0033404D0ED
:104750000250005C035001581DE2020EDB6A030E9A
:10476000DB6A020EDBCF00F0030EDBCF01F0D89046
:10477000015004E6EE0E005C000E015806E2020E47
:10478000DB2A030EEEE3DB2AECD7DF2A010ED0E3AF
:10479000DB2ACED7040EE15C02E2E16AE552E16E6B
:1047A000E552E7CFD9FF1200D9CFE6FFE1CFD9FF1D
:1047B0009EA8FED7FE0EDB50AD6E9E98E552E7CF69
:1047C000D9FF1200D9CFE6FFE1CFD9FFFD0EDBCF35
:1047D000E9FFFE0EDBCFEAFFEF5010E0FD0EDBCF6E
:1047E000E9FFFE0EDBCFEAFFEF50E66EDDDFE552BC
:1047F000FD0EDB2AFE0EEAE3DB2AE8D7E552E7CF1F
:10480000D9FF1200D9CFE6FFE1CFD9FFFD0EDBCFF4
:10481000F6FFFE0EDBCFF7FF0800F55015E0FD0EAA
:10482000DBCFF6FFFE0EDBCFF7FF0800F550E66E9C
:10483000BBDFE552FD0EDBCFF6FFDB2AFE0EDBCF42
:10484000F7FFE4E3DB2AE2D7E552E7CFD9FF120016
:10485000D9CFE6FFE1CFD9FF050EE126010EF36EB9
:10486000DB6E020EDB6A030EDB6A040EDB6ADF6AB4
:10487000DFCF00F0016A00BE0168FB0EDBCF02F063
:10488000FC0EDBCF03F001500318E8AE02D0033476
:1048900004D00250005C035001582DE2FD0EDBCF26
:1048A00000F0FE0EDBCF01F0026A036A01AE02D017
:1048B00002680368D950010FE96EDACFEAFF00C041
:1048C00023F001C024F002C025F003C026F0EECF93
:1048D0001EF0EECF1FF0EECF20F0EFCF21F0F8EC7E
:1048E0002DF01DC0EDFF1CC0EDFF1BC0EDFF1AC079
:1048F000EFFFDF2ABDD7010EDBCF00F0020EDBCFCA
:1049000001F0030EDBCF02F0040EDBCF03F000C09A
:104910001EF001C01FF002C020F003C021F0050E00
:10492000E15C02E2E16AE552E16EE552E7CFD9FFD0
:104930001200D9CFE6FFE1CFD9FF020EE126DF6AF0
:10494000FB0EDBCF00F0FC0EDBCF01F0FD0EDBCF6A
:1049500002F0FE0EDBCF03F0005001100210031036
:1049600005E1300EE66E20DFE552F4D0D950FB0FA2
:10497000E96EFF0EDA20EA6ED890030EEB50000AC3
:1049800008E6000EEE5C000EEE58000EEE58000E2B
:10499000EE5815E22D0EE66E07DFE552D950FB0FFB
:1049A000E96EFF0EDA20EA6E000EEE6CEF1EEE22CC
:1049B000EF1EEE22EF1EEF22ED52ED52ED52DE52CF
:1049C0000A0EDD6E010EDBCF00F0000EE76E001860
:1049D000E8AE02D0003403D0E750D880005401E3A1
:1049E000B9D0010EDB04046E056A04BE056804C07C
:1049F000E6FF05C0E6FF0A0EE66EE66A29DFE5522D
:104A0000E552E552E5521EC000F01FC001F020C083
:104A100002F021C003F01EC023F01FC024F020C00C
:104A200025F021C026F0FB0EDBCF1EF0FC0EDBCF05
:104A30001FF0FD0EDBCF20F0FE0EDBCF21F030ECBF
:104A40002EF01E501F102010211041E0010EDF6ECD
:104A5000DB04086E096A08BE096808C0E6FF09C0E1
:104A6000E6FF0A0EE66EE66AF3DEE552E552E5522F
:104A7000E5521EC004F01FC005F020C006F021C0A2
:104A800007F01EC023F01FC024F020C025F021C075
:104A900026F0FB0EDBCF1EF0FC0EDBCF1FF0FD0E71
:104AA000DBCF20F0FE0EDBCF21F030EC2EF01EC06D
:104AB00000F01FC001F020C002F021C003F0300E52
:104AC0000026000E012202220322005003D0DF50F4
:104AD00004E0300EE66E68DEE552010EDB04046E83
:104AE000056A04BE056804C0E6FF05C0E6FF0A0EBD
:104AF000E66EE66AADDEE552E552E552E5521EC0CD
:104B000000F01FC001F020C002F021C003F0D95016
:104B1000FB0FE96EFF0EDA20EA6E1EC023F01FC005
:104B200024F020C025F021C026F0EECF1EF0EECFFD
:104B30001FF0EECF20F0EFCF21F030EC2EF01DC0B3
:104B4000EDFF1CC0EDFF1BC0EDFF1AC0EFFF010E13
:104B5000DB0638D7020EE15C02E2E16AE552E16E63
:104B6000E552E7CFD9FF1200D9CFE6FFE1CFD9FF59
:104B7000FB0EDBCF00F0FC0EDBCF01F0FD0EDBCF38
:104B800002F0FE0EDBCF03F0640E236E246A256A6A
:104B9000266A00C01EF001C01FF002C020F003C052
:104BA00021F098EC22F01EC000F01FC001F020C0E0
:104BB00002F021C003F01EC0E6FF1FC0E6FF20C0C8
:104BC000E6FF21C0E6FFB5DEE552E552E552E552CB
:104BD0002E0EE66EE9DDE552FB0EDBCF00F0FC0E9B
:104BE000DBCF01F0FD0EDBCF02F0FE0EDBCF03F0DA
:104BF000640E236E246A256A266A00C01EF001C076
:104C00001FF002C020F003C021F098EC22F01AC07F
:104C100000F01BC001F01CC002F01DC003F01AC060
:104C2000E6FF1BC0E6FF1CC0E6FF1DC0E6FF81DEFD
:104C3000E552E552E552E552E552E7CFD9FF1200C1
:044C400042EF2CF023
:0C4C4400D9CFE6FFE1CFD9FFD59EFD0ED1
:104C5000DBCF5CFFFE0EDBCF5DFFD59C03680468F5
:104C6000056A5CCF06F05DCF07F0086A0650035C6A
:104C7000006E07500458016E08500558026E246AF1
:104C8000010E256E266A00C01FF001C020F002C090
:104C900021F06BEC22F01B50D66E03680468056AA5
:104CA0005CCF06F05DCF07F0086A0650035C006E2B
:104CB00007500458016E08500558026E246A010E10
:104CC000256E266A00C01FF001C020F002C021F04E
:104CD0006BEC22F01FC000F020C001F021C002F0F8
:104CE0001F50D76ED59AD586F28AF294F184D58E6C
:104CF000E552E7CFD9FF1200D59E12000368046881
:104D0000056A5CCF06F05DCF07F0086A0650035CC9
:104D1000006E07500458016E08500558026E246A50
:104D2000010E256E266A00C01FF001C020F002C0EF
:104D300021F06BEC22F01B50D66E03680468056A04
:104D40005CCF06F05DCF07F0086A0650035C006E8A
:104D500007500458016E08500558026E246A010E6F
:104D6000256E266A00C01FF001C020F002C021F0AD
:104D70006BEC22F01FC000F020C001F021C002F057
:104D80001F50D76ED58E1200D9CFE6FFE1CFD9FFE5
:104D9000CD90FD0EDBCF5EFFFE0EDBCF5FFF036825
:104DA0000468056A5ECF06F05FCF07F0086A065018
:104DB000035C006E07500458016E08500558026EDF
:104DC000246A010E256E266A00C01FF001C020F083
:104DD00002C021F06BEC22F01F50CF6E0368046814
:104DE000056A5ECF06F05FCF07F0086A0650035CE5
:104DF000006E07500458016E08500558026E246A70
:104E0000010E256E266A00C01FF001C020F002C00E
:104E100021F06BEC22F01BC000F01CC001F01DC0A3
:104E200002F01B50CE6E9D809E909F90CD8ECD8CBB
:104E3000CD98CD9ACD96CD92CD80E552E7CFD9FFD2
:104E4000120003680468056A5ECF06F05FCF07F0C2
:104E5000086A0650035C006E07500458016E085043
:104E60000558026E246A010E256E266A00C01FF0E6
:104E700001C020F002C021F06BEC22F01F50CF6E79
:104E800003680468056A5ECF06F05FCF07F0086A22
:104E90000650035C006E07500458016E0850055818
:104EA000026E246A010E256E266A00C01FF001C042
:104EB00020F002C021F06BEC22F01BC000F01CC0FF
:104EC00001F01DC002F01B50CE6ECD801200CD90BF
:104ED0001200D9CFE6FFE1CFD9FFCA94CC6AFE0E0B
:104EE000DB500F01606F616BCB6E9D829E929F9233
:104EF000CA90CA92CA84E552E7CFD9FF120060CFA8
:104F0000CBFFCA841200CA941200D9CFE6FFE1CFCA
:104F1000D9FFB190FD0EDBCF62FFFE0EDBCF63FF4A
:104F200003680468056A62CF06F063CF07F0086A79
:104F30000650035C006E07500458016E0850055877
:104F4000026E246A010E256E266A00C01FF001C0A1
:104F500020F002C021F06BEC22F01F50B36E03680A
:104F60000468056A62CF06F063CF07F0086A06504E
:104F7000035C006E07500458016E08500558026E1D
:104F8000246A010E256E266A00C01FF001C020F0C1
:104F900002C021F06BEC22F01BC000F01CC001F03D
:104FA0001DC002F01B50B26EA082A192A292B18EDF
:104FB000B198B19AB192B180E552E7CFD9FF120012
:104FC00003680468056A62CF06F063CF07F0086AD9
:104FD0000650035C006E07500458016E08500558D7
:104FE000026E246A010E256E266A00C01FF001C001
:104FF00020F002C021F06BEC22F01B50B26E03686F
:105000000468056A62CF06F063CF07F0086A0650AD
:10501000035C006E07500458016E08500558026E7C
:10502000246A010E256E266A00C01FF001C020F020
:1050300002C021F06BEC22F01FC000F020C001F094
:1050400021C002F01F50B36EB1801200B190120067
:105050000F016C2B000E6D2374516C5D75516D59F1
:1050600004E36C6B6D6B010E646F12000F016E2B0D
:10507000000E6F2376516E5D77516F5904E36E6BAE
:105080006F6B010E656F12000F01702B000E712304
:105090007851705D7951715904E3706B716B010E39
:1050A000666F12000F01722B000E73237A51725D2E
:1050B0007B51735904E3726B736B010E676F1200BF
:1050C000D9CFE6FFE1CFD9FFFD0EDBCF74FFFE0E97
:1050D000DBCF75FF0F016C6B6D6B646BE552E7CF37
:1050E000D9FF1200D9CFE6FFE1CFD9FFFD0EDBCF0C
:1050F00076FFFE0EDBCF77FF050E256E266A76CF94
:1051000020F077CF21F045EC22F020C076FF21C0BF
:1051100077FF0F016E6B6F6B656BE552E7CFD9FFC1
:105120001200D9CFE6FFE1CFD9FFFD0EDBCF7AFF2A
:10513000FE0EDBCF7BFF0A0E256E266A7ACF20F0AB
:105140007BCF21F045EC22F020C07AFF21C07BFF0D
:105150000F01726B736B676BE552E7CFD9FF1200DB
:105160000F0E946E82681200CF0E9414946E8268B3
:105170001200D9CFE6FFE1CFD9FF040EE126DE6AA7
:10518000DD6ADECF00F0DDCF01F0D890015004E6FB
:10519000040E005C000E015801E390D0DECFE9FF61
:1051A000DDCFEAFFE00EE926000EEA22EF1C826E58
:1051B000020EDB6A030EDB6A020EDBCF00F0030E89
:1051C000DBCF01F0D890015004E6040E005C000E25
:1051D00001586EE2020EDBCFE9FF030EDBCFEAFFE0
:1051E000E40EE926000EEA22EF5082143FE1DECF02
:1051F00004F0DDCF05F0D89004360536D89004369B
:105200000536020EDB500424E96E030EDB50052048
:10521000EA6ED890E936EA36800EE926000EEA22D8
:10522000EECF02F0EFCF03F0010E0226000E0322B4
:10523000DECF00F0DDCF01F0D89000360136D890F7
:1052400000360136020EDB500024E96E030EDB50FF
:105250000120EA6ED890E936EA36800EE926000E83
:10526000EA2202C0EEFF03C0EDFF1BD0DECF00F04C
:10527000DDCF01F0D89000360136D89000360136E7
:10528000020EDB500024E96E030EDB500120EA6EB3
:10529000D890E936EA36800EE926000EEA22EE6A58
:1052A000ED6A020EDB2A030E01E286D7DB2A84D7E1
:1052B000DF2A010E01E265D7DB2A63D7040EE15C29
:1052C00002E2E16AE552E16EE552E7CFD9FF120052
:1052D000D9CFE6FFE1CFD9FF040EE126DE6ADD6A11
:1052E000DECF00F0DDCF01F0D890015004E6020ED1
:1052F000005C000E015801E394D0DECFE9FFDDCF62
:10530000EAFFE00EE926000EEA22EF1C8214826E0C
:105310000F0E8210826E020EDB6A030EDB6A020E33
:10532000DBCF00F0030EDBCF01F0D890015004E694
:10533000040E005C000E01586EE2020EDBCFE9FFA6
:10534000030EDBCFEAFFE40EE926000EEA22EF505F
:1053500082143FE1DECF04F0DDCF05F0D8900436B3
:105360000536D89004360536020EDB500424E96E6B
:10537000030EDB500520EA6ED890E936EA36800E3F
:10538000E926000EEA22EECF02F0EFCF03F0010E85
:105390000226000E0322DECF00F0DDCF01F0D89010
:1053A00000360136D89000360136020EDB5000245C
:1053B000E96E030EDB500120EA6ED890E936EA363A
:1053C000800EE926000EEA2202C0EEFF03C0EDFFC8
:1053D0001BD0DECF00F0DDCF01F0D89000360136D3
:1053E000D89000360136020EDB500024E96E030E21
:1053F000DB500120EA6ED890E936EA36800EE926C5
:10540000000EEA22EE6AED6A020EDB2A030E01E2CA
:1054100086D7DB2A84D7DF2A010E01E261D7DB2A97
:105420005FD7040EE15C02E2E16AE552E16EE5520B
:10543000E7CFD9FF1200D9CFE6FFE1CFD9FF040EA5
:10544000E126DE6ADD6ADECF00F0DDCF01F0FD0E81
:10545000DBCF02F0FE0EDBCF03F001500318E8AE05
:1054600002D0033404D00250005C035001581DE206
:10547000020EDB6A030EDB6A020EDBCF00F0030EC6
:10548000DBCF01F0D890015004E6EE0E005C000E78
:10549000015806E2020EDB2A030EEEE3DB2AECD70C
:1054A000DF2A010ED0E3DB2ACED7040EE15C02E254
:1054B000E16AE552E16EE552E7CFD9FF1200D9CF9C
:1054C000E6FFE1CFD9FFFD0EDBCFE9FFFE0EDBCF1C
:1054D000EAFF010ED890E936EA36E806FBE1800ED5
:1054E000E926000EEA22EE50ED101BE0FD0EDBCFA8
:1054F000E9FFFE0EDBCFEAFF010ED890E936EA366F
:10550000E806FBE1800EE926000EEA22EE6AED6A6B
:10551000C80EE66EE66A8FDFE552E552010EF36EC5
:0E55200001D0F36AF46AE552E7CFD9FF12001A
:02552E00F28EFB
:10553000D08EF28C1200F19CF292F2881200D8CF39
:10554000E4FFE0CFE4FFE46EDACFE4FFE2CFDAFF7E
:10555000E9CFE4FFEACFE4FFF6CFE4FFF7CFE4FFC3
:10556000F5CFE4FFF3CFE4FFF4CFE4FFFACFE4FF9D
:1055700000EE18F0140EE80403E3EECFE4FFFBD7CF
:1055800000EE00F0180EE80403E3EECFE4FFFBD7D3
:10559000E652F2A407D07CEC26F0F2947EEC26F0E2
:1055A00028EC28F09EA007D067EC27F09E9021EC15
:1055B00027F036EC28F09EA207D083EC27F09E92CD
:1055C0007FEC27F044EC28F0A1A207D026EC28F0CD
:1055D000A192E0EC27F052EC28F0F2B2F2929EAAEF
:1055E00003D09E9A20EC26F0E55200EE17F0180E3C
:1055F000E80403E3E5CFEDFFFBD700EE2BF0140E3C
:10560000E80403E3E5CFEDFFFBD7E5CFFAFFE5CFF5
:10561000F4FFE5CFF3FFE5CFF5FFE5CFF7FFE5CFEB
:10562000F6FFE5CFEAFFE5CFE9FFE5CFDAFFE5508A
:10563000E5CFE0FFE5CFD8FF1000DACFE4FFE2CFFF
:10564000DAFFE9CFE4FFEACFE4FFF6CFE4FFF7CFDC
:10565000E4FFF5CFE4FFF3CFE4FFF4CFE4FFFACFAC
:10566000E4FF00EE18F0140EE80403E3EECFE4FFCD
:10567000FBD700EE00F0180EE80403E3EECFE4FFE2
:10568000FBD7E652F2A407D07CEC26F0F2947EEC35
:1056900026F028EC28F09EA007D067EC27F09E901B
:1056A00021EC27F036EC28F09EA207D083EC27F0FF
:1056B0009E927FEC27F044EC28F0A1A207D026ECC4
:1056C00028F0A192E0EC27F052EC28F0F2B2F2922E
:1056D0009EAA03D09E9A20EC26F0E55200EE17F029
:1056E000180EE80403E3E5CFEDFFFBD700EE2BF047
:1056F000140EE80403E3E5CFEDFFFBD7E5CFFAFF97
:10570000E5CFF4FFE5CFF3FFE5CFF5FFE5CFF7FFFA
:10571000E5CFF6FFE5CFEAFFE5CFE9FFE5CFDAFF1A
:02572000110076
:0E572200206D332F68200D0A00206D672F6C5C
:1057300020464C4F573D2000206D672F6C204E4F68
:10574000333D20002043204E48343D2000206D672B
:105750002F6C20544D503D2000206D672F6C20434E
:1057600053423D20002070482053533D20003230EA
:105770002E30342E31362030393A31323A3037201B
:105780002070483D202000444953504C4159204D41
:105790004F4445007048203D2020202E00574152A4
:1057A0004E494E47204D4F4445006D61780053539C
:1057B000203D2020202E007048203D2020202E005B
:1057C000464C4F57203D20202020206D332F68006D
:1057D0004E4F33203D2020202E20206D672F4C007F
:1057E0004E4834203D2020202E20206D672F4C0075
:1057F000544D50203D2020202E20204300434F4474
:10580000203D202020202E20206D672F4C002000DE
:105810006D696E005353203D2020202E20206D679F
:105820002F4C005741524E494E47204D4F444500A2
:10583000464C4F57004E4F33004E483400544D50A5
:1058400000434F44005353007048004C4F573A20D8
:1058500000484947483A2000414C4C2050415241B1
:105860004D45544552532020415245204E4F524DF4
:10587000414C0020202020202020202020202020FB
:0458800020202000C4
:0C588400D9CFE6FFE1CFD9FFE652AE50CD
:10589000DF6EDFCFE6FFD4EC23F0E5520101465185
:1058A000050A2AE0010A21E0070A11E0010A0AE0DC
:1058B000020A02E0010A2AE1FE0EDF5C28E1486BE1
:1058C000020E22D0FE0EDF5C15E1030E1DD0485102
:1058D000EA6A000FE96E0F0EEA22DFCFEFFF482BD6
:1058E0004951485D14E3040E0FD0FF0EDF5C02E166
:1058F000050E0AD0010E08D0FF0EDF5C04E1010E98
:10590000476F466B04D0010E466F01D0466BE552DF
:10591000E552E7CFD9FF1200D9CFE6FFE1CFD9FF9B
:10592000E652010147054CE1730EE66E580EE66E35
:10593000050EE66E010EE66E8FEC17F0E552E552AD
:10594000E552E552DF6A01014951DF5C22E2DF5096
:10595000EA6A000FE96E0F0EEA22EFCF00F0016A4B
:10596000026A036A00C0E6FF01C0E6FF02C0E6FF6C
:1059700003C0E6FF030EDF02F350040FE66E010ED4
:10598000E66EBAEC17F0046E060EE15E0450DF2AF4
:10599000DAD746C100F0016A026A036A46C1E6FF2F
:1059A00001C0E6FF02C0E6FF03C0E6FF0F0EE66E91
:1059B000010EE66EBAEC17F0046E060EE15E0450BE
:0A59C000E552E552E7CFD9FF1200CF
:0659CA00020E01014C1960
:1059D00001E14D5126E0010E4C1901E14D5109E064
:1059E0004C5101E14D5101E01200010E4C6F4D6B25
:1059F0001200230E4C6F4D6B1FEC19F09D0EE66EDE
:105A0000570EE66EE66AE66A8FEC17F0E552E5524D
:105A1000E552E552E0EC18F0E80EE66E030EE66E95
:105A200025D0000EE66EE66A5FEC2AF0E552E552FC
:105A3000F3CF00F0F4CF01F0F350F4101CE0010EAE
:105A400001014C6F4D6B1FEC19F09D0EE66E570E69
:105A5000E66EE66AE66A8FEC17F0E552E552E5522B
:105A6000E552E0EC18F0C80EE66EE66A95EC19F027
:105A7000E552E5521200010EE66EE66A5FEC2AF08E
:105A8000E552E552F3CF00F0F4CF01F0F350F410FB
