:020000040000FA
:0600000080EF2CF012005D
:020006001200E6
:06000800BFEF29F0120019
:02000E000000F0
:0400100000000000EC
:020014000000EA
:060018004DEF29F012007B
:02001E000800D8
:100020009C59000080000000700000007259000020
:10003000000F00002A00000014000000140100005E
:10004000020000005C5900006A0F0000160000006A
:10005000100000000E010000040000003C590000E8
:100060004A0F0000200000000E00000012010000F6
:10007000020000001C5900002A0F000020000000B0
:100080000A0E0101141901E1155101E1E2D3090E33
:10009000141901E1155101E133D3080E141901E1DE
:1000A000155101E195D2070E141901E1155101E135
:1000B000F7D1060E141901E1155101E148D1050EE1
:1000C000141901E1155101E19ED0040E141901E14A
:1000D000155101E01200000EE66EE66A0DEC29F003
:1000E000E552E552F3CF00F0F4CF01F0F350F410F5
:1000F00001E0BDD3010EE66EE66A0DEC29F0E55293
:10010000E552F3CF00F0F4CF01F0F350F4100AE021
:10011000050E0101146F156B83EC18F0400EE66EAE
:10012000550ED6D3020EE66EE66A0DEC29F0E552C6
:10013000E552F3CF00F0F4CF01F0F350F41002E0F9
:10014000100ED9D30F01E70ED8800055030E0155CC
:100150001DE200CF00F001CF01F0640E256E266A8B
:1001600000CF20F001CF21F05AEC2CF020C000F09D
:1001700021C001F0026A036A20C0E6FF21C0E6FF49
:1001800002C0E6FF03C0E6FF050E29D03A0EE66E78
:10019000550EE66E050EE66EE66AF3EC16F0E552D5
:1001A000E552E552E55200CF00F001CF01F0640EB8
:1001B000256E266A00CF20F001CF21F05AEC2CF0FA
:1001C00020C000F021C001F0026A036A20C0E6FFEF
:1001D00021C0E6FF02C0E6FF03C0E6FF060EE66EA2
:1001E000E66A1EEC17F0046E060EE15E045000CFC6
:1001F00000F001CF01F0640E256E266A00CF20F0DA
:1002000001CF21F097D0000EE66EE66A0DEC29F0E2
:10021000E552E552F3CF00F0F4CF01F0F350F410C3
:1002200001E025D3010EE66EE66A0DEC29F0E552F9
:10023000E552F3CF00F0F4CF01F0F350F4100AE0F0
:10024000060E0101146F156B83EC18F0290EE66E93
:10025000550E3ED3020EE66EE66A0DEC29F0E5522D
:10026000E552F3CF00F0F4CF01F0F350F41002E0C8
:10027000110E41D30F01E70ED8800255030E03552E
:100280001DE202CF00F003CF01F0640E256E266A56
:1002900002CF20F003CF21F05AEC2CF020C000F068
:1002A00021C001F0026A036A20C0E6FF21C0E6FF18
:1002B00002C0E6FF03C0E6FF050E29D03A0EE66E47
:1002C000550EE66E050EE66EE66AF3EC16F0E552A4
:1002D000E552E552E55202CF00F003CF01F0640E83
:1002E000256E266A02CF20F003CF21F05AEC2CF0C5
:1002F00020C000F021C001F0026A036A20C0E6FFBE
:1003000021C0E6FF02C0E6FF03C0E6FF060EE66E70
:10031000E66A1EEC17F0046E060EE15E045002CF92
:1003200000F003CF01F0640E256E266A02CF20F0A4
:1003300003CF21F05AEC2CF01CC000F01DC001F0DE
:10034000026A036A1CC0E6FF1DC0E6FF2DD3000E43
:10035000E66EE66A0DEC29F0E552E552F3CF00F0C7
:10036000F4CF01F0F350F41001E081D2010EE66EFB
:10037000E66A0DEC29F0E552E552F3CF00F0F4CF38
:1003800001F0F350F4100AE0070E0101146F156B31
:1003900083EC18F01C0EE66E550E9AD2020EE66E35
:1003A000E66A0DEC29F0E552E552F3CF00F0F4CF08
:1003B00001F0F350F41002E0120E9DD20F010F0E67
:1003C000D8800455270E05551DE204CF00F005CF57
:1003D00001F0640E256E266A04CF20F005CF21F0CF
:1003E0005AEC2CF020C000F021C001F0026A036A30
:1003F00020C0E6FF21C0E6FF02C0E6FF03C0E6FF23
:10040000060E29D03A0EE66E550EE66E060EE66E24
:10041000E66AF3EC16F0E552E552E552E55204CFF8
:1004200000F005CF01F0640E256E266A04CF20F09F
:1004300005CF21F05AEC2CF020C000F021C001F0D3
:10044000026A036A20C0E6FF21C0E6FF02C0E6FFA1
:1004500003C0E6FF070EE66EE66A1EEC17F0046EB8
:10046000060EE15E045004CF00F005CF01F0640EEB
:10047000256E266A04CF20F005CF21F05AEC2CF02F
:100480001CC000F01DC001F0026A036A1CC0E6FF38
:100490001DC0E6FF02C0E6FF03C0E6FF0A0E89D2D8
:1004A000000EE66EE66A0DEC29F0E552E552F3CF58
:1004B00000F0F4CF01F0F350F41001E0D8D1010EB8
:1004C000E66EE66A0DEC29F0E552E552F3CF00F056
:1004D000F4CF01F0F350F4100AE0080E0101146F9C
:1004E000156B83EC18F00C0EE66E550EF1D1020E72
:1004F000E66EE66A0DEC29F0E552E552F3CF00F026
:10050000F4CF01F0F350F41002E0130EF4D10F0118
:10051000E70ED8800655030E07551DE206CF00F002
:1005200007CF01F0640E256E266A06CF20F007CFB4
:1005300021F05AEC2CF020C000F021C001F0026A3A
:10054000036A20C0E6FF21C0E6FF02C0E6FF03C049
:10055000E6FF060E29D03A0EE66E550EE66E060E42
:10056000E66EE66AF3EC16F0E552E552E552E55226
:1005700006CF00F007CF01F0640E256E266A06CF85
:1005800020F007CF21F05AEC2CF020C000F021C061
:1005900001F0026A036A20C0E6FF21C0E6FF02C044
:1005A000E6FF03C0E6FF070EE66EE66A1EEC17F0F4
:1005B000046E060EE15E045006CF00F007CF01F096
:1005C000640E256E266A06CF20F007CF21F02FD1CA
:1005D000000EE66EE66A0DEC29F0E552E552F3CF27
:1005E00000F0F4CF01F0F350F41001E040D1010E1F
:1005F000E66EE66A0DEC29F0E552E552F3CF00F025
:10060000F4CF01F0F350F4100AE0090E0101146F69
:10061000156B83EC18F0FC0EE66E540E59D1020EE9
:10062000E66EE66A0DEC29F0E552E552F3CF00F0F4
:10063000F4CF01F0F350F41002E0140E5CD10F017E
:10064000E70ED8800855030E09551DE208CF00F0CB
:1006500009CF01F0640E256E266A08CF20F009CF7D
:1006600021F05AEC2CF020C000F021C001F0026A09
:10067000036A20C0E6FF21C0E6FF02C0E6FF03C018
:10068000E6FF060E29D03A0EE66E550EE66E060E11
:10069000E66EE66AF3EC16F0E552E552E552E552F5
:1006A00008CF00F009CF01F0640E256E266A08CF4E
:1006B00020F009CF21F05AEC2CF020C000F021C02E
:1006C00001F0026A036A20C0E6FF21C0E6FF02C013
:1006D000E6FF03C0E6FF070EE66EE66A1EEC17F0C3
:1006E000046E060EE15E045008CF00F009CF01F061
:1006F000640E256E266A08CF20F009CF21F097D02E
:10070000000EE66EE66A0DEC29F0E552E552F3CFF5
:1007100000F0F4CF01F0F350F41001E0A8D0010E86
:10072000E66EE66A0DEC29F0E552E552F3CF00F0F3
:10073000F4CF01F0F350F4100AE00A0E0101146F37
:10074000156B83EC18F0EC0EE66E540EC1D0020E61
:10075000E66EE66A0DEC29F0E552E552F3CF00F0C3
:10076000F4CF01F0F350F41002E0150EC4D00F01E5
:10077000E70ED8800A55030E0B551DE20ACF00F094
:100780000BCF01F0640E256E266A0ACF20F00BCF46
:1007900021F05AEC2CF020C000F021C001F0026AD8
:1007A000036A20C0E6FF21C0E6FF02C0E6FF03C0E7
:1007B000E6FF060E29D03A0EE66E550EE66E060EE0
:1007C000E66EE66AF3EC16F0E552E552E552E552C4
:1007D0000ACF00F00BCF01F0640E256E266A0ACF17
:1007E00020F00BCF21F05AEC2CF020C000F021C0FB
:1007F00001F0026A036A20C0E6FF21C0E6FF02C0E2
:10080000E6FF03C0E6FF070EE66EE66A1EEC17F091
:10081000046E060EE15E04500ACF00F00BCF01F02B
:10082000640E256E266A0ACF20F00BCF21F05AEC19
:100830002CF01CC000F01DC001F0026A036A1CC04D
:10084000E6FF1DC0E6FF02C0E6FF03C0E6FF090E9B
:10085000B0D0000EE66EE66A0DEC29F0E552E552E6
:10086000F3CF00F0F4CF01F0F350F4101AE0010ED2
:100870000101146F156B4F0EE66E550EE66EE66ABB
:10088000E66AF3EC16F0E552E552E552E55244EC27
:1008900018F0C80EE66EE66AF6EC18F0E552E5527E
:1008A0001200010EE66EE66A0DEC29F0E552E55203
:1008B000F3CF00F0F4CF01F0F350F4100DE0040E8C
:1008C0000101146F156B83EC18F0E30EE66E540E05
:1008D000E66EE66AE66A19D0020EE66EE66A0DEC8E
:1008E00029F0E552E552F3CF00F0F4CF01F0F350D8
:1008F000F41012E0160E0101146F156B3C0EE66E3B
:10090000550EE66EE66A010EE66EF3EC16F0E55261
:10091000E552E552E55255D00F010F0ED8800C5527
:10092000270E0D551DE20CCF00F00DCF01F0640E27
:10093000256E266A0CCF20F00DCF21F05AEC2CF05A
:1009400020C000F021C001F0026A036A20C0E6FF67
:1009500021C0E6FF02C0E6FF03C0E6FF070E29D074
:100960003A0EE66E550EE66E070EE66EE66AF3EC9C
:1009700016F0E552E552E552E5520CCF00F00DCFEE
:1009800001F0640E256E266A0CCF20F00DCF21F009
:100990005AEC2CF020C000F021C001F0026A036A7A
:1009A00020C0E6FF21C0E6FF02C0E6FF03C0E6FF6D
:1009B000080EE66EE66A1EEC17F0046E060EE15EA7
:1009C000045044EF18F01A0E0101141901E11551F9
:1009D00001E11BD1100E141901E1155101E01200C3
:1009E000000EE66EE66A0DEC29F0E552E552F3CF13
:1009F00000F0F4CF01F0F350F4101AE0010E010101
:100A0000146F156B4F0EE66E550EE66EE66AE66ADB
:100A1000F3EC16F0E552E552E552E55244EC18F0DD
:100A2000C80EE66EE66AF6EC18F0E552E5521200E2
:100A3000010EE66EE66A0DEC29F0E552E552F3CFC1
:100A400000F0F4CF01F0F350F4100DE0050E0101B9
:100A5000146F156B83EC18F0DA0EE66E540EE66E2A
:100A6000E66AE66A19D0020EE66EE66A0DEC29F037
:100A7000E552E552F3CF00F0F4CF01F0F350F4105B
:100A800013E01A0E0101146F156BD60EE66E540EAC
:100A9000E66EE66A010EE66EF3EC16F0E552E552FC
:100AA000E552E55244EF18F0030EE66EE66A0DECEF
:100AB00029F0E552E552F3CF00F0F4CF01F0F35006
:100AC000F4100DE00F016E0ED8800E55050E0F5577
:100AD00001E29AD00A0E0E27000E0F231200070E15
:100AE000E66EE66A0DEC29F0E552E552F3CF00F030
:100AF000F4CF01F0F350F4100CE00F010A0E0E5D7C
:100B0000000E0F5901E280D00A0E0E5F000E0F5B3F
:100B100012000F01E70ED8800E55030E0F551DE28F
:100B20000ECF00F00FCF01F0640E256E266A0ECFB7
:100B300020F00FCF21F05AEC2CF020C000F021C0A3
:100B400001F0026A036A20C0E6FF21C0E6FF02C08E
:100B5000E6FF03C0E6FF050E29D03A0EE66E550EFD
:100B6000E66E050EE66EE66AF3EC16F0E552E55227
:100B7000E552E5520ECF00F00FCF01F0640E256E66
:100B8000266A0ECF20F00FCF21F05AEC2CF020C0B7
:100B900000F021C001F0026A036A20C0E6FF21C014
:100BA000E6FF02C0E6FF03C0E6FF060EE66EE66A59
:100BB0001EEC17F0046E060EE15E04500ECF00F03E
:100BC0000FCF01F0640E256E266A0ECF20F00FCFF6
:100BD00021F05AEC2CF01CC000F01DC001F0026A9C
:100BE000036A1CC0E6FF1DC0E6FF02C0E6FF03C0AB
:100BF000E6FF080EE66EE66A1EEC17F0046E060EBF
:100C0000E15E045044EC18F01200000EE66EE66A55
:100C10000DEC29F0E552E552F3CF00F0F4CF01F0EE
:100C2000F350F4101AE0010E0101146F156B4F0E12
:100C3000E66E550EE66EE66AE66AF3EC16F0E552ED
:100C4000E552E552E55244EC18F0C80EE66EE66A4D
:100C5000F6EC18F0E552E5521200010EE66EE66A77
:100C60000DEC29F0E552E552F3CF00F0F4CF01F09E
:100C7000F350F4100DE0050E0101146F156B83ECB9
:100C800018F0400EE66E550EE66EE66AE66A19D07A
:100C9000020EE66EE66A0DEC29F0E552E552F3CF5E
:100CA00000F0F4CF01F0F350F41013E0100E010146
:100CB000146F156B3C0EE66E550EE66EE66A010E7D
:100CC000E66EF3EC16F0E552E552E552E55244EFDC
:100CD00018F0030EE66EE66A0DEC29F0E552E552D7
:100CE000F3CF00F0F4CF01F0F350F4100DE00F015A
:100CF0006E0ED8801055050E115501E29AD00A0EDD
:100D00001027000E11231200070EE66EE66A0DECA6
:100D100029F0E552E552F3CF00F0F4CF01F0F350A3
:100D2000F4100CE00F010A0E105D000E115901E2E3
:100D300080D00A0E105F000E115B12000F01E70E4B
:100D4000D8801055030E11551DE210CF00F011CFC1
:100D500001F0640E256E266A10CF20F011CF21F02D
:100D60005AEC2CF020C000F021C001F0026A036AA6
:100D700020C0E6FF21C0E6FF02C0E6FF03C0E6FF99
:100D8000050E29D03A0EE66E550EE66E050EE66E9D
:100D9000E66AF3EC16F0E552E552E552E55210CF63
:100DA00000F011CF01F0640E256E266A10CF20F0FE
:100DB00011CF21F05AEC2CF020C000F021C001F03E
:100DC000026A036A20C0E6FF21C0E6FF02C0E6FF18
:100DD00003C0E6FF060EE66EE66A1EEC17F0046E30
:100DE000060EE15E045010CF00F011CF01F0640E4A
:100DF000256E266A10CF20F011CF21F05AEC2CF08E
:100E00001CC000F01DC001F0026A036A1CC0E6FFAE
:100E10001DC0E6FF02C0E6FF03C0E6FF080EE66E57
:100E2000E66A1EEC17F0046E060EE15E045044EC18
:100E300018F012001B0E0101141901E1155101E116
:100E40001BD1110E141901E1155101E01200000E21
:100E5000E66EE66A0DEC29F0E552E552F3CF00F0BC
:100E6000F4CF01F0F350F4101AE0010E0101146FF9
:100E7000156B4F0EE66E550EE66EE66AE66AF3EC0B
:100E800016F0E552E552E552E55244EC18F0C80E72
:100E9000E66EE66AF6EC18F0E552E5521200010E35
:100EA000E66EE66A0DEC29F0E552E552F3CF00F06C
:100EB000F4CF01F0F350F4100DE0060E0101146FB1
:100EC000156B83EC18F0290EE66E550EE66EE66A99
:100ED000E66A19D0020EE66EE66A0DEC29F0E552DC
:100EE000E552F3CF00F0F4CF01F0F350F41013E02B
:100EF0001B0E0101146F156BD60EE66E540EE66ED6
:100F0000E66A010EE66EF3EC16F0E552E552E552A4
:100F1000E55244EF18F0030EE66EE66A0DEC29F098
:100F2000E552E552F3CF00F0F4CF01F0F350F410A6
:100F30000DE00F01480ED8801255260E135501E220
:100F40009AD0640E1227000E13231200070EE66ECD
:100F5000E66A0DEC29F0E552E552F3CF00F0F4CF4C
:100F600001F0F350F4100CE00F01640E125D000E5E
:100F7000135901E280D0640E125F000E135B120061
:100F80000F01E70ED8801255030E13551DE212CF44
:100F900000F013CF01F0640E256E266A12CF20F008
:100FA00013CF21F05AEC2CF020C000F021C001F04A
:100FB000026A036A20C0E6FF21C0E6FF02C0E6FF26
:100FC00003C0E6FF050E29D03A0EE66E550EE66E1A
:100FD000050EE66EE66AF3EC16F0E552E552E552D0
:100FE000E55212CF00F013CF01F0640E256E266A91
:100FF00012CF20F013CF21F05AEC2CF020C000F0DB
:1010000021C001F0026A036A20C0E6FF21C0E6FFAA
:1010100002C0E6FF03C0E6FF060EE66EE66A1EECBF
:1010200017F0046E060EE15E045012CF00F013CFED
:1010300001F0640E256E266A12CF20F013CF21F046
:101040005AEC2CF01CC000F01DC001F0026A036ACB
:101050001CC0E6FF1DC0E6FF02C0E6FF03C0E6FFBE
:10106000080EE66EE66A1EEC17F0046E060EE15EF0
:10107000045044EC18F01200000EE66EE66A0DEC27
:1010800029F0E552E552F3CF00F0F4CF01F0F35030
:10109000F4101AE0010E0101146F156B4F0EE66E8D
:1010A000550EE66EE66AE66AF3EC16F0E552E55296
:1010B000E552E55244EC18F0C80EE66EE66AF6EC2E
:1010C00018F0E552E5521200010EE66EE66A0DECEC
:1010D00029F0E552E552F3CF00F0F4CF01F0F350E0
:1010E000F4100DE0060E0101146F156B83EC18F07F
:1010F000290EE66E550EE66EE66AE66A19D0020E15
:10110000E66EE66A0DEC29F0E552E552F3CF00F009
:10111000F4CF01F0F350F41013E0110E0101146F3D
:10112000156B3C0EE66E550EE66EE66A010EE66E37
:10113000F3EC16F0E552E552E552E55244EF18F0B3
:10114000030EE66EE66A0DEC29F0E552E552F3CFA8
:1011500000F0F4CF01F0F350F4100DE00F01480E51
:10116000D8801455260E155501E29AD0640E142726
:10117000000E15231200070EE66EE66A0DEC29F04C
:10118000E552E552F3CF00F0F4CF01F0F350F41044
:101190000CE00F01640E145D000E155901E280D0C1
:1011A000640E145F000E155B12000F01E70ED8806D
:1011B0001455030E15551DE214CF00F015CF01F0A4
:1011C000640E256E266A14CF20F015CF21F05AEC5C
:1011D0002CF020C000F021C001F0026A036A20C098
:1011E000E6FF21C0E6FF02C0E6FF03C0E6FF050EF2
:1011F00029D03A0EE66E550EE66E050EE66EE66AEC
:10120000F3EC16F0E552E552E552E55214CF00F04A
:1012100015CF01F0640E256E266A14CF20F015CF8D
:1012200021F05AEC2CF020C000F021C001F0026A3D
:10123000036A20C0E6FF21C0E6FF02C0E6FF03C04C
:10124000E6FF060EE66EE66A1EEC17F0046E060E6A
:10125000E15E045014CF00F015CF01F0640E256E4E
:10126000266A14CF20F015CF21F05AEC2CF01CC0C8
:1012700000F01DC001F0026A036A1CC0E6FF1DC039
:10128000E6FF02C0E6FF03C0E6FF080EE66EE66A70
:101290001EEC17F0046E060EE15E045044EC18F0EC
:1012A00012001C0E0101141901E1155101E126D1B2
:1012B000120E141901E1155101E01200000EE66E44
:1012C000E66A0DEC29F0E552E552F3CF00F0F4CFD9
:1012D00001F0F350F4101AE0010E0101146F156BC8
:1012E0004F0EE66E550EE66EE66AE66AF3EC16F011
:1012F000E552E552E552E55244EC18F0C80EE66EB0
:10130000E66AF6EC18F0E552E5521200010EE66EC0
:10131000E66A0DEC29F0E552E552F3CF00F0F4CF88
:1013200001F0F350F4100DE0070E0101146F156B7E
:1013300083EC18F01C0EE66E550EE66EE66AE66A61
:1013400019D0020EE66EE66A0DEC29F0E552E55280
:10135000F3CF00F0F4CF01F0F350F41013E01C0EC3
:101360000101146F156BD60EE66E540EE66EE66A3A
:10137000010EE66EF3EC16F0E552E552E552E55249
:1013800044EF18F0030EE66EE66A0DEC29F0E55224
:10139000E552F3CF00F0F4CF01F0F350F41018E071
:1013A00016CF00F017CF01F0026A0234010E0218C6
:1013B00007E6D880D80E0054850E0154010E025461
:1013C00001E29BD0640E0F011627000E17231200B6
:1013D000070EE66EE66A0DEC29F0E552E552F3CF12
:1013E00000F0F4CF01F0F350F4100CE00F014C0EBC
:1013F000165D040E175901E280D0640E165F000ED0
:10140000175B12000F010F0ED8801655270E1755C7
:101410001DE216CF00F017CF01F0640E256E266A8C
:1014200016CF20F017CF21F05AEC2CF020C000F09E
:1014300021C001F0026A036A20C0E6FF21C0E6FF76
:1014400002C0E6FF03C0E6FF060E29D03A0EE66EA4
:10145000550EE66E060EE66EE66AF3EC16F0E55201
:10146000E552E552E55216CF00F017CF01F0640EB9
:10147000256E266A16CF20F017CF21F05AEC2CF0FB
:1014800020C000F021C001F0026A036A20C0E6FF1C
:1014900021C0E6FF02C0E6FF03C0E6FF070EE66ECE
:1014A000E66A1EEC17F0046E060EE15E045016CFDD
:1014B00000F017CF01F0640E256E266A16CF20F0DB
:1014C00017CF21F05AEC2CF01CC000F01DC001F029
:1014D000026A036A1CC0E6FF1DC0E6FF02C0E6FF09
:1014E00003C0E6FF0A0EE66EE66A1EEC17F0046E15
:1014F000060EE15E045044EC18F01200000EE66E99
:10150000E66A0DEC29F0E552E552F3CF00F0F4CF96
:1015100001F0F350F4101AE0010E0101146F156B85
:101520004F0EE66E550EE66EE66AE66AF3EC16F0CE
:10153000E552E552E552E55244EC18F0C80EE66E6D
:10154000E66AF6EC18F0E552E5521200010EE66E7E
:10155000E66A0DEC29F0E552E552F3CF00F0F4CF46
:1015600001F0F350F4100DE0070E0101146F156B3C
:1015700083EC18F01C0EE66E550EE66EE66AE66A1F
:1015800019D0020EE66EE66A0DEC29F0E552E5523E
:10159000F3CF00F0F4CF01F0F350F41013E0120E8B
:1015A0000101146F156B3C0EE66E550EE66EE66A91
:1015B000010EE66EF3EC16F0E552E552E552E55207
:1015C00044EF18F0030EE66EE66A0DEC29F0E552E2
:1015D000E552F3CF00F0F4CF01F0F350F41018E02F
:1015E00018CF00F019CF01F0026A0234010E021880
:1015F00007E6D880D80E0054850E0154010E02541F
:1016000001E29BD0640E0F011827000E192312006F
:10161000070EE66EE66A0DEC29F0E552E552F3CFCF
:1016200000F0F4CF01F0F350F4100CE00F014C0E79
:10163000185D040E195901E280D0640E185F000E87
:10164000195B12000F010F0ED8801855270E19557F
:101650001DE218CF00F019CF01F0640E256E266A46
:1016600018CF20F019CF21F05AEC2CF020C000F058
:1016700021C001F0026A036A20C0E6FF21C0E6FF34
:1016800002C0E6FF03C0E6FF060E29D03A0EE66E62
:10169000550EE66E060EE66EE66AF3EC16F0E552BF
:1016A000E552E552E55218CF00F019CF01F0640E73
:1016B000256E266A18CF20F019CF21F05AEC2CF0B5
:1016C00020C000F021C001F0026A036A20C0E6FFDA
:1016D00021C0E6FF02C0E6FF03C0E6FF070EE66E8C
:1016E000E66A1EEC17F0046E060EE15E045018CF99
:1016F00000F019CF01F0640E256E266A18CF20F095
:1017000019CF21F05AEC2CF01CC000F01DC001F0E4
:10171000026A036A1CC0E6FF1DC0E6FF02C0E6FFC6
:1017200003C0E6FF0A0EE66EE66A1EEC17F0046ED2
:10173000060EE15E045044EC18F012001D0E01018B
:10174000141901E1155101E11BD1130E141901E126
:10175000155101E01200000EE66EE66A0DEC29F06C
:10176000E552E552F3CF00F0F4CF01F0F350F4105E
:101770001AE0010E0101146F156B4F0EE66E550E47
:10178000E66EE66AE66AF3EC16F0E552E552E552DB
:10179000E55244EC18F0C80EE66EE66AF6EC18F076
:1017A000E552E5521200010EE66EE66A0DEC29F0F4
:1017B000E552E552F3CF00F0F4CF01F0F350F4100E
:1017C0000DE0080E0101146F156B83EC18F00C0E80
:1017D000E66E550EE66EE66AE66A19D0020EE66E11
:1017E000E66A0DEC29F0E552E552F3CF00F0F4CFB4
:1017F00001F0F350F41013E01D0E0101146F156B8E
:10180000D60EE66E540EE66EE66A010EE66EF3EC58
:1018100016F0E552E552E552E55244EF18F0030E9A
:10182000E66EE66A0DEC29F0E552E552F3CF00F0E2
:10183000F4CF01F0F350F4100DE00F01480ED88002
:101840001A55260E1B5501E29AD0640E1A27000E77
:101850001B231200070EE66EE66A0DEC29F0E55236
:10186000E552F3CF00F0F4CF01F0F350F4100CE0A8
:101870000F01640E1A5D000E1B5901E280D0640E48
:101880001A5F000E1B5B12000F01E70ED8801A557D
:10189000030E1B551DE21ACF00F01BCF01F0640EA2
:1018A000256E266A1ACF20F01BCF21F05AEC2CF0BF
:1018B00020C000F021C001F0026A036A20C0E6FFE8
:1018C00021C0E6FF02C0E6FF03C0E6FF060E29D0F6
:1018D0003A0EE66E550EE66E060EE66EE66AF3EC1E
:1018E00016F0E552E552E552E5521ACF00F01BCF53
:1018F00001F0640E256E266A1ACF20F01BCF21F06E
:101900005AEC2CF020C000F021C001F0026A036AFA
:1019100020C0E6FF21C0E6FF02C0E6FF03C0E6FFED
:10192000070EE66EE66A1EEC17F0046E060EE15E28
:1019300004501ACF00F01BCF01F0640E256E266A0A
:101940001ACF20F01BCF21F05AEC2CF01CC000F075
:101950001DC001F0026A036A1CC0E6FF1DC0E6FF5D
:1019600002C0E6FF03C0E6FF090EE66EE66A1EEC63
:1019700017F0046E060EE15E045044EC18F01200FD
:10198000000EE66EE66A0DEC29F0E552E552F3CF63
:1019900000F0F4CF01F0F350F4101AE0010E010151
:1019A000146F156B4F0EE66E550EE66EE66AE66A2C
:1019B000F3EC16F0E552E552E552E55244EC18F02E
:1019C000C80EE66EE66AF6EC18F0E552E552120033
:1019D000010EE66EE66A0DEC29F0E552E552F3CF12
:1019E00000F0F4CF01F0F350F4100DE0080E010107
:1019F000146F156B83EC18F00C0EE66E550EE66E48
:101A0000E66AE66A19D0020EE66EE66A0DEC29F087
:101A1000E552E552F3CF00F0F4CF01F0F350F410AB
:101A200013E0130E0101146F156B3C0EE66E550E9C
:101A3000E66EE66A010EE66EF3EC16F0E552E5524C
:101A4000E552E55244EF18F0030EE66EE66A0DEC3F
:101A500029F0E552E552F3CF00F0F4CF01F0F35056
:101A6000F4100DE00F01480ED8801C55260E1D55B0
:101A700001E29AD0640E1C27000E1D231200070EEF
:101A8000E66EE66A0DEC29F0E552E552F3CF00F080
:101A9000F4CF01F0F350F4100CE00F01640E1C5D64
:101AA000000E1D5901E280D0640E1C5F000E1D5B0C
:101AB00012000F01E70ED8801A55030E1B551DE2C8
:101AC0001CCF00F01DCF01F0640E256E266A1CCFDE
:101AD00020F01DCF21F05AEC2CF020C000F021C0E6
:101AE00001F0026A036A20C0E6FF21C0E6FF02C0DF
:101AF000E6FF03C0E6FF060E29D03A0EE66E550E4D
:101B0000E66E060EE66EE66AF3EC16F0E552E55276
:101B1000E552E5521CCF00F01DCF01F0640E256E9A
:101B2000266A1CCF20F01DCF21F05AEC2CF020C0EB
:101B300000F021C001F0026A036A20C0E6FF21C064
:101B4000E6FF02C0E6FF03C0E6FF070EE66EE66AA8
:101B50001EEC17F0046E060EE15E04501CCF00F080
:101B60001DCF01F0640E256E266A1CCF20F01DCF1C
:101B700021F05AEC2CF01CC000F01DC001F0026AEC
:101B8000036A1CC0E6FF1DC0E6FF02C0E6FF03C0FB
:101B9000E6FF090EE66EE66A1EEC17F0046E060E0E
:101BA000E15E045044EC18F012001E0E01011419FD
:101BB00001E1155101E11BD1140E141901E1155178
:101BC00001E01200000EE66EE66A0DEC29F0E55227
:101BD000E552F3CF00F0F4CF01F0F350F4101AE027
:101BE000010E0101146F156B4F0EE66E550EE66E79
:101BF000E66AE66AF3EC16F0E552E552E552E55284
:101C000044EC18F0C80EE66EE66AF6EC18F0E55201
:101C1000E5521200010EE66EE66A0DEC29F0E5527F
:101C2000E552F3CF00F0F4CF01F0F350F4100DE0E3
:101C3000090E0101146F156B83EC18F0FC0EE66EB3
:101C4000540EE66EE66AE66A19D0020EE66EE66AA1
:101C50000DEC29F0E552E552F3CF00F0F4CF01F09E
:101C6000F350F41013E01E0E0101146F156BD60E25
:101C7000E66E540EE66EE66A010EE66EF3EC16F0C2
:101C8000E552E552E552E55244EF18F0030EE66ED8
:101C9000E66A0DEC29F0E552E552F3CF00F0F4CFFF
:101CA00001F0F350F4100DE00F01C60ED8801E5560
:101CB000070E1F5501E29AD00A0E1E27000E1F23A1
:101CC0001200070EE66EE66A0DEC29F0E552E552C9
:101CD000F3CF00F0F4CF01F0F350F4100CE00F015B
:101CE0000A0E1E5D000E1F5901E280D00A0E1E5F13
:101CF000000E1F5B12000F01E70ED8801E55030E69
:101D00001F551DE21ECF00F01FCF01F0640E256E9F
:101D1000266A1ECF20F01FCF21F05AEC2CF020C0F5
:101D200000F021C001F0026A036A20C0E6FF21C072
:101D3000E6FF02C0E6FF03C0E6FF060E29D03A0E1A
:101D4000E66E550EE66E060EE66EE66AF3EC16F0EB
:101D5000E552E552E552E5521ECF00F01FCF01F0EB
:101D6000640E256E266A1ECF20F01FCF21F05AEC9C
:101D70002CF020C000F021C001F0026A036A20C0EC
:101D8000E6FF21C0E6FF02C0E6FF03C0E6FF070E44
:101D9000E66EE66A1EEC17F0046E060EE15E045075
:101DA0001ECF00F01FCF01F0640E256E266A1ECFF5
:101DB00020F01FCF21F05AEC2CF01CC000F01DC009
:101DC00001F0026A036A1CC0E6FF1DC0E6FF02C004
:101DD000E6FF03C0E6FF090EE66EE66A1EEC17F0AA
:101DE000046E060EE15E045044EC18F01200000E82
:101DF000E66EE66A0DEC29F0E552E552F3CF00F00D
:101E0000F4CF01F0F350F4101AE0010E0101146F49
:101E1000156B4F0EE66E550EE66EE66AE66AF3EC5B
:101E200016F0E552E552E552E55244EC18F0C80EC2
:101E3000E66EE66AF6EC18F0E552E5521200010E85
:101E4000E66EE66A0DEC29F0E552E552F3CF00F0BC
:101E5000F4CF01F0F350F4100DE0090E0101146FFE
:101E6000156B83EC18F0FC0EE66E540EE66EE66A17
:101E7000E66A19D0020EE66EE66A0DEC29F0E5522C
:101E8000E552F3CF00F0F4CF01F0F350F41013E07B
:101E9000140E0101146F156B3C0EE66E550EE66EC6
:101EA000E66A010EE66EF3EC16F0E552E552E552F5
:101EB000E55244EF18F0030EE66EE66A0DEC29F0E9
:101EC000E552E552F3CF00F0F4CF01F0F350F410F7
:101ED0000DE00F01C60ED8802055070E215501E2F6
:101EE0009AD00A0E2027000E21231200070EE66E5C
:101EF000E66A0DEC29F0E552E552F3CF00F0F4CF9D
:101F000001F0F350F4100CE00F010A0E205D000EFA
:101F1000215901E280D00A0E205F000E215B1200E1
:101F20000F01E70ED8802055030E21551DE220CF6A
:101F300000F021CF01F0640E256E266A20CF20F03C
:101F400021CF21F05AEC2CF020C000F021C001F08C
:101F5000026A036A20C0E6FF21C0E6FF02C0E6FF76
:101F600003C0E6FF060E29D03A0EE66E550EE66E69
:101F7000060EE66EE66AF3EC16F0E552E552E5521F
:101F8000E55220CF00F021CF01F0640E256E266AC5
:101F900020CF20F021CF21F05AEC2CF020C000F00F
:101FA00021C001F0026A036A20C0E6FF21C0E6FFFB
:101FB00002C0E6FF03C0E6FF070EE66EE66A1EEC0F
:101FC00017F0046E060EE15E045020CF00F021CF22
:101FD00001F0640E256E266A20CF20F021CF21F07B
:101FE0005AEC2CF01CC000F01DC001F0026A036A1C
:101FF0001CC0E6FF1DC0E6FF02C0E6FF03C0E6FF0F
:10200000090EE66EE66A1EEC17F0046E060EE15E3F
:10201000045044EC18F012001F0E0101141901E1E4
:10202000155101E11BD1150E141901E1155101E003
:102030001200000EE66EE66A0DEC29F0E552E5525C
:10204000F3CF00F0F4CF01F0F350F4101AE0010EDA
:102050000101146F156B4F0EE66E550EE66EE66AC3
:10206000E66AF3EC16F0E552E552E552E55244EC2F
:1020700018F0C80EE66EE66AF6EC18F0E552E55286
:102080001200010EE66EE66A0DEC29F0E552E5520B
:10209000F3CF00F0F4CF01F0F350F4100DE00A0E8E
:1020A0000101146F156B83EC18F0EC0EE66E540E04
:1020B000E66EE66AE66A19D0020EE66EE66A0DEC96
:1020C00029F0E552E552F3CF00F0F4CF01F0F350E0
:1020D000F41013E01F0E0101146F156BD60EE66E9F
:1020E000540EE66EE66A010EE66EF3EC16F0E5526B
:1020F000E552E552E55244EF18F0030EE66EE66A4B
:102100000DEC29F0E552E552F3CF00F0F4CF01F0E9
:10211000F350F4100DE00F01C60ED8802255070EC3
:10212000235501E29AD00A0E2227000E2323120023
:10213000070EE66EE66A0DEC29F0E552E552F3CFA4
:1021400000F0F4CF01F0F350F4100CE00F010A0E90
:10215000225D000E235901E280D00A0E225F000E9C
:10216000235B12000F01E70ED8802255030E235582
:102170001DE222CF00F023CF01F0640E256E266A07
:1021800022CF20F023CF21F05AEC2CF020C000F019
:1021900021C001F0026A036A20C0E6FF21C0E6FF09
:1021A00002C0E6FF03C0E6FF060E29D03A0EE66E37
:1021B000550EE66E060EE66EE66AF3EC16F0E55294
:1021C000E552E552E55222CF00F023CF01F0640E34
:1021D000256E266A22CF20F023CF21F05AEC2CF076
:1021E00020C000F021C001F0026A036A20C0E6FFAF
:1021F00021C0E6FF02C0E6FF03C0E6FF070EE66E61
:10220000E66A1EEC17F0046E060EE15E045022CF63
:1022100000F023CF01F0640E256E266A22CF20F055
:1022200023CF21F05AEC2CF01CC000F01DC001F0AF
:10223000026A036A1CC0E6FF1DC0E6FF02C0E6FF9B
:1022400003C0E6FF090EE66EE66A1EEC17F0046EA8
:10225000060EE15E045044EC18F01200000EE66E2B
:10226000E66A0DEC29F0E552E552F3CF00F0F4CF29
:1022700001F0F350F4101AE0010E0101146F156B18
:102280004F0EE66E550EE66EE66AE66AF3EC16F061
:10229000E552E552E552E55244EC18F0C80EE66E00
:1022A000E66AF6EC18F0E552E5521200010EE66E11
:1022B000E66A0DEC29F0E552E552F3CF00F0F4CFD9
:1022C00001F0F350F4100DE00A0E0101146F156BCC
:1022D00083EC18F0EC0EE66E540EE66EE66AE66AE3
:1022E00019D0020EE66EE66A0DEC29F0E552E552D1
:1022F000F3CF00F0F4CF01F0F350F41013E0150E1B
:102300000101146F156B3C0EE66E550EE66EE66A23
:10231000010EE66EF3EC16F0E552E552E552E55299
:1023200044EF18F0030EE66EE66A0DEC29F0E55274
:10233000E552F3CF00F0F4CF01F0F350F4100DE0CC
:102340000F01C60ED8802455070E255501E29AD0FC
:102350000A0E2427000E25231200070EE66EE66AF9
:102360000DEC29F0E552E552F3CF00F0F4CF01F087
:10237000F350F4100CE00F010A0E245D000E2559F5
:1023800001E280D00A0E245F000E255B12000F01CF
:10239000E70ED8802455030E25551DE224CF00F00A
:1023A00025CF01F0640E256E266A24CF20F025CFBC
:1023B00021F05AEC2CF020C000F021C001F0026A9C
:1023C000036A20C0E6FF21C0E6FF02C0E6FF03C0AB
:1023D000E6FF060E29D03A0EE66E550EE66E060EA4
:1023E000E66EE66AF3EC16F0E552E552E552E55288
:1023F00024CF00F025CF01F0640E256E266A24CF8D
:1024000020F025CF21F05AEC2CF020C000F021C0A4
:1024100001F0026A036A20C0E6FF21C0E6FF02C0A5
:10242000E6FF03C0E6FF070EE66EE66A1EEC17F055
:10243000046E060EE15E045024CF00F025CF01F0BB
:10244000640E256E266A24CF20F025CF21F05AECA9
:102450002CF01CC000F01DC001F0026A036A1CC011
:10246000E6FF1DC0E6FF02C0E6FF03C0E6FF090E5F
:10247000E66EE66A1EEC17F0046E060EE15E04508E
:1024800044EC18F01200200E0101141901E115515D
:1024900001E100D1160E141901E1155101E01200FD
:1024A000000EE66EE66A0DEC29F0E552E552F3CF38
:1024B00000F0F4CF01F0F350F4101AE0010E010126
:1024C000146F156B4F0EE66E550EE66EE66AE66A01
:1024D000F3EC16F0E552E552E552E55244EC18F003
:1024E000C80EE66EE66AF6EC18F0E552E552120008
:1024F000010EE66EE66A0DEC29F0E552E552F3CFE7
:1025000000F0F4CF01F0F350F4100DE0040E0101DF
:10251000146F156B83EC18F0E30EE66E540EE66E46
:10252000E66AE66A19D0020EE66EE66A0DEC29F05C
:10253000E552E552F3CF00F0F4CF01F0F350F41080
:1025400013E0200E0101146F156BD60EE66E540ECB
:10255000E66EE66A010EE66EF3EC16F0E552E55221
:10256000E552E55244EF18F0030EE66EE66A0DEC14
:1025700029F0E552E552F3CF00F0F4CF01F0F3502B
:10258000F41017E026CF00F027CF01F0026A0234E2
:10259000010E021807E6D880D80E0054850E0154AB
:1025A000010E025476E3640E0F012627000E272346
:1025B0001200070EE66EE66A0DEC29F0E552E552D0
:1025C000F3CF00F0F4CF01F0F350F4100BE00F0163
:1025D0004C0E265D040E27595CE3640E265F000E48
:1025E000275B12000F010F0ED8802655270E2755A6
:1025F0001DE226CF00F027CF01F0640E256E266A7B
:1026000026CF20F027CF21F05AEC2CF020C000F08C
:1026100021C001F0026A036A20C0E6FF21C0E6FF84
:1026200002C0E6FF03C0E6FF070E29D03A0EE66EB1
:10263000550EE66E070EE66EE66AF3EC16F0E5520E
:10264000E552E552E55226CF00F027CF01F0640EA7
:10265000256E266A26CF20F027CF21F05AEC2CF0E9
:1026600020C000F021C001F0026A036A20C0E6FF2A
:1026700021C0E6FF02C0E6FF03C0E6FF080EE66EDB
:10268000E66A1EEC17F0046E060EE15E045044ECA0
:1026900018F01200000EE66EE66A0DEC29F0E55225
:1026A000E552F3CF00F0F4CF01F0F350F4101AE04C
:1026B000010E0101146F156B4F0EE66E550EE66E9E
:1026C000E66AE66AF3EC16F0E552E552E552E552A9
:1026D00044EC18F0C80EE66EE66AF6EC18F0E55227
:1026E000E5521200010EE66EE66A0DEC29F0E552A5
:1026F000E552F3CF00F0F4CF01F0F350F4100DE009
:10270000040E0101146F156B83EC18F0E30EE66EF6
:10271000540EE66EE66AE66A19D0020EE66EE66AC6
:102720000DEC29F0E552E552F3CF00F0F4CF01F0C3
:10273000F350F41013E0160E0101146F156B3C0EEC
:10274000E66E550EE66EE66A010EE66EF3EC16F0E6
:10275000E552E552E552E55244EF18F0030EE66EFD
:10276000E66A0DEC29F0E552E552F3CF00F0F4CF24
:1027700001F0F350F41017E028CF00F029CF01F05A
:10278000026A0234010E021807E6D880D80E0054FF
:10279000850E0154010E025476E3640E0F012827C2
:1027A000000E29231200070EE66EE66A0DEC29F0F2
:1027B000E552E552F3CF00F0F4CF01F0F350F410FE
:1027C0000BE00F014C0E285D040E29595CE3640EEA
:1027D000285F000E295B12000F010F0ED8802855CC
:1027E000270E29551DE228CF00F029CF01F0640EF5
:1027F000256E266A28CF20F029CF21F05AEC2CF044
:1028000020C000F021C001F0026A036A20C0E6FF88
:1028100021C0E6FF02C0E6FF03C0E6FF070E29D095
:102820003A0EE66E550EE66E070EE66EE66AF3ECBD
:1028300016F0E552E552E552E55228CF00F029CFD7
:1028400001F0640E256E266A28CF20F029CF21F0F2
:102850005AEC2CF020C000F021C001F0026A036A9B
:1028600020C0E6FF21C0E6FF02C0E6FF03C0E6FF8E
:10287000080EE66EE66A1EEC17F0046E060EE15EC8
:08288000045044EC18F01200B2
:08288800D9CFE6FFE1CFD9FF33
:10289000040EE126DE6ADD6ADECF00F0DDCF01F056
:1028A000026A036A01AE02D002680368D950FB0FC6
:1028B000E96EFF0EDA20EA6EEE50005CEE50015831
:1028C000EE500258EE5003581DE2020EDB6A030E72
:1028D000DB6A020EDBCF00F0030EDBCF01F0D890F5
:1028E000015004E6EE0E005C000E015806E2020EF6
:1028F000DB2A030EEEE3DB2AECD7DF2A010ECCE362
:10290000DB2ACAD7040EE15C02E2E16AE552E16E1D
:10291000E552E7CFD9FF1200D9CFE6FFE1CFD9FFCB
:10292000E652190EE66EE66AE66AE66AADDFE55241
:10293000E552E552E5520F0E8116F80E81160F0E84
:102940008116300E81128186010EE66EE66AE66A15
:10295000E66A9ADFE552E552E552E5528196010EAC
:10296000E66EE66AE66AE66A8FDFE552E552E55210
:10297000E5520F0E8116300E81128186010EE66E31
:10298000E66AE66AE66A80DFE552E552E552E5521C
:102990008196010EE66EE66AE66AE66A75DFE55242
:1029A000E552E552E5520F0E8116300E81128186F6
:1029B000010EE66EE66AE66AE66A66DFE552E55211
:1029C000E552E5528196010EE66EE66AE66AE66A2F
:1029D0005BDFE552E552E552E5520F0E8116818A22
:1029E0008186010EE66EE66AE66AE66A4DDFE5522A
:1029F000E552E552E5528196010EE66EE66AE66A18
:102A0000E66A42DFE552E552E552E552280EE66EEF
:102A10000AD8E5520C0EE66E06D8E552E552E552AC
:102A2000E7CFD9FF1200D9CFE6FFE1CFD9FF0F0ED4
:102A30008116FE0EDB50F00B81128186010EE66ED0
:102A4000E66AE66AE66A20DFE552E552E552E552BB
:102A50008196010EE66EE66AE66AE66A15DFE552E1
:102A6000E552E552E5520F0E8116FE0EDB38F00BF3
:102A700081128186010EE66EE66AE66AE66A04DF86
:102A8000E552E552E552E5528196010EE66EE66AA0
:102A9000E66AE66AF9DEE552E552E552E552E552AC
:102AA000E7CFD9FF1200D9CFE6FFE1CFD9FF050E5E
:102AB000E126010EF36EDB6E020EDB6A030EDB6AAB
:102AC000040EDB6ADF6ADFCF00F0016A00BE016836
:102AD000FB0EDBCF02F0FC0EDBCF03F0015003183E
:102AE000E8AE02D0033404D00250005C0350015819
:102AF0002DE2FD0EDBCF00F0FE0EDBCF01F0026A0F
:102B0000036A01AE02D002680368D950010FE96E72
:102B1000DACFEAFF00C023F001C024F002C025F0A4
:102B200003C026F0EECF1EF0EECF1FF0EECF20F068
:102B3000EFCF21F0E1EC2BF01DC0EDFF1CC0EDFF4D
:102B40001BC0EDFF1AC0EFFFDF2ABDD7010EDBCFA0
:102B500000F0020EDBCF01F0030EDBCF02F0040E1B
:102B6000DBCF03F000C01EF001C01FF002C020F058
:102B700003C021F0050EE15C02E2E16AE552E16E7C
:102B8000E552E7CFD9FF1200D9CFE6FFE1CFD9FF59
:102B9000040EE126DE6ADD6ADECF00F0DDCF01F053
:102BA000026A036A01AE02D002680368D950FB0FC3
:102BB000E96EFF0EDA20EA6EEE50005CEE5001582E
:102BC000EE500258EE5003581DE2020EDB6A030E6F
:102BD000DB6A020EDBCF00F0030EDBCF01F0D890F2
:102BE000015004E6060E005C000E015806E2020EDB
:102BF000DB2A030EEEE3DB2AECD7DF2A010ECCE35F
:102C0000DB2ACAD7040EE15C02E2E16AE552E16E1A
:102C1000E552E7CFD9FF1200D9CFE6FFE1CFD9FFC8
:102C20000F0E8116FE0EDB5081128186050EE66EB8
:102C3000E66AE66AE66AA8DFE552E552E552E55241
:102C40008196050EE66EE66AE66AE66A9DDFE55263
:102C5000E552E552E552E552E7CFD9FF1200D9CF50
:102C6000E6FFE1CFD9FF8184050EE66EE66AE66AEB
:102C7000E66A8ADFE552E552E552E552FE0EDBCF09
:102C8000E6FFCADFE552FE0EDB38F00BE66EC4DF6E
:102C9000E5528194E552E7CFD9FF1200D9CFE6FF84
:102CA000E1CFD9FF8194050EE66EE66AE66AE66A30
:102CB0006BDFE552E552E552E552FE0EDBCFE6FF53
:102CC000ABDFE552FE0EDB38F00BE66EA5DFE5521A
:102CD000E552E7CFD9FF1200D9CFE6FFE1CFD9FF08
:102CE000E652FD0EDB500F0B006EFE0EDB50010BAB
:102CF000400DF3500024DF6E7F0EDF14800FDF6E77
:102D0000DFCFE6FFCBDFE552E552E552E7CFD9FF53
:102D10001200D9CFE6FFE1CFD9FFFE0EDBCFE6FFF1
:102D20009EDFE552E552E7CFD9FF1200D9CFE6FF8B
:102D3000E1CFD9FF0AC100F00BC101F0040ED89019
:102D400000360136E806FBE14A0E00260F0E01228E
:102D5000005001010C25E96E01500D21EA6EFE0EB6
:102D6000DBCFEFFF0C2B000E0D23E552E7CFD9FF91
:102D70001200D9CFE6FFE1CFD9FFFD0EDBCFF6FF82
:102D8000FE0EDBCFF7FF0800F5500FE0FD0EDBCFA6
:102D9000F6FFDB2AFE0EDBCFF7FF01E3DB2A08009C
:102DA000F550E66EB6DFE552E8D7E552E7CFD9FF3A
:102DB0001200D9CFE6FFE1CFD9FFFD0EDBCFE6FF52
:102DC000FE0EDBCFE6FF88DFE552E552FB0EDBCFE0
:102DD000E6FFFC0EDBCFE6FFCCDFE552E552E55225
:102DE000E7CFD9FF1200D9CFE6FFE1CFD9FFFE0E22
:102DF000DB50010B01010A6F0B6BFD0EDB500F0B5B
:102E00000C6F0D6BFB0EDBCFF6FFFC0EDBCFF7FF7D
:102E10000800F5500FE0FB0EDBCFF6FFDB2AFC0EBF
:102E2000DBCFF7FF01E3DB2A0800F550E66E7EDF1B
:102E3000E552E8D7E552E7CFD9FF1200D9CFE6FF38
:102E4000E1CFD9FF020EE126DF6AFE0EDB50010B57
:102E500001010A6F0B6BFD0EDB500F0B0C6F0D6B3E
:102E6000F90EDBCF00F0FA0EDBCF01F0FB0EDBCF6B
:102E700002F0FC0EDBCF03F0005001100210031033
:102E800005E1300EE66E52DFE552F4D0D950F90F6D
:102E9000E96EFF0EDA20EA6ED890030EEB50000ABE
:102EA00008E6000EEE5C000EEE58000EEE58000E26
:102EB000EE5815E22D0EE66E39DFE552D950F90FC6
:102EC000E96EFF0EDA20EA6E000EEE6CEF1EEE22C7
:102ED000EF1EEE22EF1EEF22ED52ED52ED52DE52CA
:102EE000070EDD6E010EDBCF00F0000EE76E00185E
:102EF000E8AE02D0003403D0E750D880005401E39C
:102F0000B9D0010EDB04046E056A04BE056804C076
:102F1000E6FF05C0E6FF0A0EE66EE66AC4DDE5528E
:102F2000E552E552E5521EC000F01FC001F020C07E
:102F300002F021C003F01EC023F01FC024F020C007
:102F400025F021C026F0F90EDBCF1EF0FA0EDBCF04
:102F50001FF0FB0EDBCF20F0FC0EDBCF21F019ECD5
:102F60002CF01E501F102010211041E0010EDF6ECA
:102F7000DB04086E096A08BE096808C0E6FF09C0DC
:102F8000E6FF0A0EE66EE66A8EDDE552E552E55290
:102F9000E5521EC004F01FC005F020C006F021C09D
:102FA00007F01EC023F01FC024F020C025F021C070
:102FB00026F0F90EDBCF1EF0FA0EDBCF1FF0FB0E72
:102FC000DBCF20F0FC0EDBCF21F019EC2CF01EC083
:102FD00000F01FC001F020C002F021C003F0300E4D
:102FE0000026000E012202220322005003D0DF50EF
:102FF00004E0300EE66E9ADEE552010EDB04046E4C
:10300000056A04BE056804C0E6FF05C0E6FF0A0EB7
:10301000E66EE66A48DDE552E552E552E5521EC02D
:1030200000F01FC001F020C002F021C003F0D95011
:10303000F90FE96EFF0EDA20EA6E1EC023F01FC002
:1030400024F020C025F021C026F0EECF1EF0EECFF8
:103050001FF0EECF20F0EFCF21F019EC2CF01DC0C7
:10306000EDFF1CC0EDFF1BC0EDFF1AC0EFFF010E0E
:10307000DB0638D7020EE15C02E2E16AE552E16E5E
:10308000E552E7CFD9FF1200D9CFE6FFE1CFD9FF54
:10309000E652E66AE66A20DEE552E552DF6A100E85
:1030A000DF5C0CE2DF50EA6A4A0FE96E0F0EEA229B
:1030B000EF50E66E2EDEE552DF2AF1D7E66A010E0A
:1030C000E66E0ADEE552E552DF6A100EDF5C0CE2C6
:1030D000DF50EA6A5A0FE96E0F0EEA22EF50E66EF1
:1030E00018DEE552DF2AF1D7E552E552E7CFD9FFE6
:1030F0001200010EE66ED2DDE552E66AE66AECDD0C
:10310000E552E5521200D9CFE6FFE1CFD9FFE652F2
:10311000DF6ADFCF00F0100EE76E0018E8AE02D0D5
:10312000E73402D0E750005C18E2DFCFE9FFEA6A3B
:10313000E9BEEA684A0EE9260F0EEA22200EEF6E7B
:10314000DFCFE9FFEA6AE9BEEA685A0EE9260F0E08
:10315000EA22200EEF6EDF2ADCD7E552E552E7CFF8
:04316000D9FF120081
:0C3164001ED80F013551FDE0356B82D8FC
:10317000C2D8F2DA67EC27F0D0EC2AF040EC00F08D
:1031800086EC1CF0E3EC04F01AEC07F051EC09F0CB
:103190009EEC0BF0D5EC0DF00CEC10F043EC12F0C3
:1031A000E2D7936A8CEC14F079EC18F083EC18F009
:1031B00045EC29F09BEC2BF0660EE66EB70EE66E42
:1031C00033EC26F0E552E552320EE66EE66A3FEC4D
:1031D00027F0E552E55230EC22F05EEC27F0C80E05
:1031E000E66EE66A03D8E552E5521200D9CFE6FF53
:1031F000E1CFD9FF040EE126DE6ADD6ADECF00F002
:10320000DDCF01F0FD0EDBCF02F0FE0EDBCF03F0D1
:1032100001500318E8AE02D0033404D00250005C21
:10322000035001581DE2020EDB6A030EDB6A020E38
:10323000DBCF00F0030EDBCF01F0D890015004E6A5
:10324000EE0E005C000E015806E2020EDB2A030EB1
:10325000EEE3DB2AECD7DF2A010ED0E3DB2ACED760
:10326000040EE15C02E2E16AE552E16EE552E7CF6D
:10327000D9FF1200D9CFE6FFE1CFD9FF020EE12638
:10328000DE6ADD6ADECF00F0DDCF01F0D8900150BC
:1032900004E6070E005C000E015823E2DFCFE6FFD4
:1032A000A2EC2BF0E552F3CF00F0F4CF01F0DECF2B
:1032B000E9FFDDCFEAFFD890E936EA36F00EE926DD
:1032C000000EEA22F3CFEEFF01C0EDFF140EE66E12
:1032D000E66A8CDFE552E552DF2A010ED3E3DB2AF2
:1032E000D1D7020EE15C02E2E16AE552E16EE552FD
:1032F000E7CFD9FF1200F0C00CF0F1C00DF00E6A5C
:103300000F6AF0C01EF0F1C01FF00EC020F00FC019
:1033100021F084EC1FF01FC008F020C009F021C08C
:103320000AF022C00BF0246A256A600E266E410E58
:10333000276E87EC20F01FC004F020C005F021C0EC
:1033400006F022C007F0246AC00E256E7F0E266E9E
:10335000440E276E34EC20F01FC000F020C001F0B6
:1033600021C002F022C003F0246A256AC80E266E2E
:10337000420E276E87EC20F07BEC21F020C000FF8E
:1033800021C001FFF2C00CF0F3C00DF00E6A0F6A0D
:10339000F2C01EF0F3C01FF00EC020F00FC021F0ED
:1033A00084EC1FF01FC008F020C009F021C00AF013
:1033B00022C00BF0246A256AA00E266E420E276EEC
:1033C00087EC20F01FC004F020C005F021C006F0FB
:1033D00022C007F0246AC00E256E7F0E266E440EB2
:1033E000276E34EC20F01FC000F020C001F021C097
:1033F00002F022C003F0246A256AC80E266E420E2F
:10340000276E87EC20F07BEC21F020C002FF21C06A
:1034100003FF046A056A200E066E420E076EF4C0B2
:1034200014F0F5C015F0166A176AF4C01EF0F5C066
:103430001FF016C020F017C021F084EC1FF01FC051
:1034400010F020C011F021C012F022C013F0246A45
:10345000256A520E266E430E276E87EC20F01FC0A1
:103460000CF020C00DF021C00EF022C00FF0246A35
:10347000C00E256E7F0E266E440E276E34EC20F0B3
:103480001FC008F020C009F021C00AF022C00BF0D4
:103490001FC024F020C025F021C026F022C027F054
:1034A00004C01FF005C020F006C021F007C022F0C4
:1034B0009EEC1FF01FC000F020C001F021C002F000
:1034C00022C003F0246A256AC80E266E420E276EBB
:1034D00087EC20F07BEC21F020C004FF21C005FF29
:1034E000F6C00CF0F7C00DF00E6A0F6AF6C01EF0C1
:1034F000F7C01FF00EC020F00FC021F084EC1FF0C9
:103500001FC008F020C009F021C00AF022C00BF053
:10351000246A256A700E266E420E276E87EC20F014
:103520001FC004F020C005F021C006F022C007F043
:10353000246AC00E256E7F0E266E440E276E34EC74
:1035400020F01FC000F020C001F021C002F022C016
:1035500003F0246A256AC80E266E420E276E87EC99
:1035600020F07BEC21F020C006FF21C007FFF8C04F
:103570000CF0F9C00DF00E6A0F6AF8C01EF0F9C029
:103580001FF00EC020F00FC021F084EC1FF01FC010
:1035900008F020C009F021C00AF022C00BF0246A14
:1035A000256A400E266E410E276E87EC20F01FC064
:1035B00004F020C005F021C006F022C007F0246A04
:1035C000256AAC0E266E420E276E34EC20F01FC02A
:1035D00000F020C001F021C002F022C003F0246AF4
:1035E000256AC80E266E420E276E87EC20F07BEC13
:1035F00021F020C008FF21C009FFFAC00CF0FBC079
:103600000DF00E6A0F6AFAC01EF0FBC01FF00EC06C
:1036100020F00FC021F084EC1FF01FC008F020C084
:1036200009F021C00AF022C00BF0246A256A400E7E
:10363000266E410E276E87EC20F01FC004F020C0DC
:1036400005F021C006F022C007F0246AC00E256EE6
:103650007F0E266E440E276E34EC20F01FC000F063
:1036600020C001F021C002F022C003F0246A256AC4
:10367000C80E266E420E276E87EC20F07BEC21F000
:1036800020C00AFF21C00BFF046A056AB40E066E53
:10369000420E076EFCC014F0FDC015F0166A176AE2
:1036A000FCC01EF0FDC01FF016C020F017C021F0B6
:1036B00084EC1FF01FC010F020C011F021C012F0E8
:1036C00022C013F0246A256A9B0E266E430E276ED5
:1036D00087EC20F01FC00CF020C00DF021C00EF0D0
:1036E00022C00FF0246AC00E256E7F0E266E440E97
:1036F000276E34EC20F01FC008F020C009F021C074
:103700000AF022C00BF01FC024F020C025F021C019
:1037100026F022C027F004C01FF005C020F006C02C
:1037200021F007C022F09EEC1FF01FC000F020C067
:1037300001F021C002F022C003F0246A256AC80EFD
:10374000266E420E276E87EC20F07BEC21F020C025
:103750000CFF21C00DFF1200010E0001FE25FE6FBF
:10376000000EFF21FF6B030EFE17FE51FF1101E05B
:1037700012009A0EE66E540EE66EB1EC22F0E5529F
:10378000E55200CF00F001CF01F0026A036A00CFDA
:10379000E6FF01CFE6FF02C0E6FF03C0E6FF63ECF1
:1037A00024F0E552E552E552E552910EE66E540ED4
:1037B000E66EB1EC22F0E552E55202CF00F003CF05
:1037C00001F0026A036A02CFE6FF03CFE6FF02C000
:1037D000E6FF03C0E6FF63EC24F0E552E552E55254
:1037E000E552850EE66E540EE66EB1EC22F0E5521F
:1037F000E55204CF00F005CF01F0026A036A04CF5E
:10380000E6FF05CFE6FF02C0E6FF03C0E6FF63EC7C
:1038100024F0E552E552E552E552790EE66E540E7B
:10382000E66EB1EC22F0E552E55206CF00F007CF8C
:1038300001F0026A036A06CFE6FF07CFE6FF02C087
:10384000E6FF03C0E6FF63EC24F0E552E552E552E3
:10385000E552700EE66E540EE66EB1EC22F0E552C3
:10386000E55208CF00F009CF01F0026A036A08CFE1
:10387000E6FF09CFE6FF02C0E6FF03C0E6FF63EC08
:1038800024F0E552E552E552E552640EE66E540E20
:10389000E66EB1EC22F0E552E5520ACF00F00BCF14
:1038A00001F0026A036A0ACFE6FF0BCFE6FF02C00F
:1038B000E6FF03C0E6FF63EC24F0E552E552E55273
:1038C000E552570EE66E540EE66EB1EC22F0E5526C
:1038D000E5520CCF00F00DCF01F0026A036A0CCF65
:1038E000E6FF0DCFE6FF02C0E6FF03C0E6FF63EC94
:1038F00024F0E552E552E552E5524E0EE66E540EC6
:0C390000E66EB1EC22F0E552E552120038
:04390C00240E010183
:10391000141901E1155132E0230E141901E115517A
:1039200001E01200000EE66EE66A0DEC29F0E552A9
:10393000E552F3CF00F0F4CF01F0F350F41004E0BF
:10394000020E0101146F156B12D9F3CF00F0F4CF02
:1039500001F0F350F41002E0240EFED083EC18F0D6
:10396000840EE66E550EE66EE66AE66AF3EC16F035
:10397000E552E552E552E55244EF18F0000EE66ECE
:10398000E66A0DEC29F0E552E552F3CF00F0F4CFF2
:1039900001F0F350F41004E0020E0101146F156BF6
:1039A000E6D8F3CF00F0F4CF01F0F350F41009E1C2
:1039B000230E0101146F156B0F017A6B7B6B786B13
:1039C000796BD5D8F3CF00F0F4CF01F0010EF318E6
:1039D00001E101500AE0CBD8F3CF02F0F4CF03F0BD
:1039E000030EF31858E1035056E183EC18F07D0EF6
:1039F000E66E550EE66EE66AE66AF3EC16F0E55200
:103A0000E552E552E552060E0F017A6F7B6B786B3B
:103A1000796B7C6B7D6B070E7C5D000E7D5919E226
:103A20007CCFE9FF7DCFEAFF010ED890E936EA3678
:103A3000E806FBE16A0EE9260F0EEA22010EEE18F7
:103A400003E1ED5001E1ECD90F017C2B000E7D2349
:103A5000E2D744EC18F00F017E6B7F6B100E7E5D99
:103A6000E50E7F5918E2000EE66EE66A0DEC29F0CD
:103A7000E552E552F3CF00F0F4CF01F0F350F4102B
:103A800005E0020E0101146F156B05D00F017E2BAE
:103A9000000E7F23E3D76BD8F3CF00F0F4CF01F013
:103AA000020EF31801E101500AE061D8F3CF02F0F1
:103AB000F4CF03F0030EF31858E1035057E183EC01
:103AC00018F0770EE66E550EE66EE66AE66AF3ECDF
:103AD00016F0E552E552E552E552050E0F017A6FF8
:103AE0007B6B786B796B7C6B7D6B070E7C5D000E5E
:103AF0007D5919E27CCFE9FF7DCFEAFF010ED89016
:103B0000E936EA36E806FBE16A0EE9260F0EEA22FC
:103B1000020EEE1803E1ED5001E182D90F017C2B7A
:103B2000000E7D23E2D744EC18F00F017E6B7F6B13
:103B3000100E7E5DE50E7F5919E2000EE66EE66A14
:103B40000DEC29F0E552E552F3CF00F0F4CF01F08F
:103B5000F350F41005E0020E0101146F156B120012
:103B60000F017E2B000E7F23E3D712001200D9CF66
:103B7000E6FFE1CFD9FF020EE126DE6ADD6A0F0122
:103B800000510F01105D0F0101510F01115902E2A7
:103B9000010E0AD00F010E510F01005D0F010F51F0
:103BA0000F01015904E2020E0F016A6F02D00F01EA
:103BB0006A6B6B6B0F0102510F01145D0F01035112
:103BC0000F01155902E2010E0AD00F0112510F0127
:103BD000025D0F0113510F01035904E2020E0F01A0
:103BE0006C6F02D00F016C6B6D6B0F0104510F01F4
:103BF000185D0F0105510F01195902E2010E0AD09B
:103C00000F0116510F01045D0F0117510F010559E6
:103C100004E2020E0F016E6F02D00F016E6B6F6B2C
:103C20000F0106510F011C5D0F0107510F011D59B6
:103C300002E2010E0AD00F011A510F01065D0F01B9
:103C40001B510F01075904E2020E0F01706F02D0E1
:103C50000F01706B716B0F0108510F01205D0F0197
:103C600009510F01215902E2010E0AD00F011E5124
:103C70000F01085D0F011F510F01095904E2020EE7
:103C80000F01726F02D00F01726B736B0F010A513B
:103C90000F01245D0F010B510F01255902E2010EA6
:103CA0000AD00F0122510F010A5D0F0123510F01AC
:103CB0000B5904E2020E0F01746F02D00F01746BF6
:103CC000756B0F010C510F01285D0F010D510F0194
:103CD000295902E2010E0AD00F0126510F010C5D95
:103CE0000F0127510F010D5904E2020E0F01766FEB
:103CF00002D00F01766B776B7C6B7D6B070E7C5D62
:103D0000000E7D5901E37AD07CCFE9FF7DCFEAFF39
:103D1000010ED890E936EA36E806FBE16A0EE9269C
:103D20000F0EEA22010EEE180BE1ED5009E1D9CF9A
:103D3000E9FFDACFEAFFEE50ED1002E1010E57D0B5
:103D40007CCFE9FF7DCFEAFF010ED890E936EA3655
:103D5000E806FBE16A0EE9260F0EEA22010EEE18D4
:103D60000DE1ED500BE1D9CFE9FFDACFEAFF020E0A
:103D7000EE1804E1ED5002E1030E39D07CCFE9FFEB
:103D80007DCFEAFF010ED890E936EA36E806FBE17E
:103D90006A0EE9260F0EEA22020EEE180BE1ED5034
:103DA00009E1D9CFE9FFDACFEAFFEE50ED1002E1E9
:103DB000020E1DD07CCFE9FF7DCFEAFF010ED89027
:103DC000E936EA36E806FBE16A0EE9260F0EEA223A
:103DD000020EEE180EE1ED500CE1D9CFE9FFDACF7B
:103DE000EAFF010EEE1805E1ED5003E1030EDE6E71
:103DF000DD6A0F017C2B000E7D2380D7DECF00F023
:103E0000DDCF01F000C0F3FF01C0F4FF020EE15C62
:103E100002E2E16AE552E16EE552E7CFD9FF120016
:103E2000060E0F017C1901E17D514DE0050E7C1954
:103E300001E17D5138E0040E7C1901E17D512FE054
:103E4000030E7C1901E17D5126E0020E7C1901E18F
:103E50007D511DE0010E7C1901E17D5108E07C518E
:103E600045E17D5143E1740EE66E550E03D0710EAF
:103E7000E66E550EE66E7ACFE6FF78CFE6FFF3ECFE
:103E800016F0E552E552E552E552030E2BD06D0EC9
:103E9000E66E550E0BD0690EE66E550E07D0650E18
:103EA000E66E550E03D0610EE66E550EE66E7ACFC5
:103EB000E6FF78CFE6FFF3EC16F0E552E552E55267
:103EC000E552040E0FD05C0EE66E550EE66E7ACF0C
:103ED000E6FF78CFE6FFF3EC16F0E552E552E55247
:103EE000E552050E0F017A27000E7B230F0ED880B6
:103EF0007A55000E7B5503E2010E786F01D0786B86
:043F0000796B1200C7
:0C3F0400199E0CD0199E21AE09D01E6C35
:103F10001F1E201E211EE86A1F2220222122198E28
:103F200021C01BF020C01AF01FC02BF01EC02AF0C9
:103F30009E0E1C6E1D6AC6EF21F0277E196A02ECE8
:103F400022F01AEC22F019B6AAEF21F019A20AD039
:103F500019AA03D019BEAAEF21F019A4B6EF21F0D7
:103F6000B3EF21F019AA05D019ACB6EF21F0B3EFE9
:103F700021F019A00AD019A808D019BE04D019A49C
:103F800002D0BFEF21F0C3EF21F02A6A1D6A27504B
:103F9000225C296E10E31FC02BF020C01AF021C054
:103FA0001BF022C028F024C01FF025C020F026C03E
:103FB00021F0193A09D024C02BF025C01AF026C0F0
:103FC0001BF027C028F0296C199E19BC198E28C037
:103FD0001CF019B0F2EF21F01A0E2960F2EF21F077
:103FE0001C6A226A19A408D01F6C201E211E221EE2
:103FF000E86A20222122222219AC08D02B6C1A1E3A
:104000001B1E1C1EE86A1A221B221C221E6A295231
:1040100007E02234213220321F321E32292EF9D7F6
:104020001F502B2620501A2221501B2222501C22C6
:104030001EC02AF0199E1CAE0BD02A6C2B1E1A1E15
:104040001B1E1C1EE86A2B221A221B221C22198E00
:104050001CA006D0D8801B321A322B322A32282AD2
:1040600028C01CF0C6EF21F0196A02EC22F01AEC0D
:1040700022F019B6AAEF21F019A205D019BAAAEFB9
:1040800021F0B1EF21F019BABDEF21F019A005D050
:1040900019B8AAEF21F0BDEF21F019B8B1EF21F066
:1040A0001D6A7F0E22241C6EE86A1D2227501C5EAA
:1040B000E86A1D5A1A0E286E226A2A6A2B6A1A6A40
:1040C0001B6A24501F5E2550205A2650215A000E8C
:1040D000225A09E724501F2625502022265021224B
:1040E000000E222201D02A8AD8901F36203621368F
:1040F0002236D8902A362B361A361B36282EE1D790
:10410000215020101F10D8A42A8AC6EF21F0196A66
:1041100002EC22F01AEC22F019B6AAEF21F019A253
:1041200005D019B8AAEF21F0B1EF21F019AA05D0F6
:1041300019B0AAEF21F0B1EF21F019B002D019A8FF
:1041400002D0BDEF21F01D6A275022241C6EE86AC0
:104150001D227E0E1C5EE86A1D5A2A6A2B6A1A6AA4
:104160001B6A26502102F4CF1BF0F3CF1AF0255022
:104170002102F3502B26F4501A22000E1B22265047
:104180002002F3502B26F4501A22000E1B2224503A
:104190002102F3502A26F4502B22000E1A221B2251
:1041A00025502002F3502A26F4502B22000E1A220A
:1041B0001B2226501F02F3502A26F4502B22000EF9
:1041C0001A221B2224502002F4502A26000E2B22F1
:1041D0001A221B2225501F02F4502A26000E2B22E1
:1041E0001A221B22C6EF21F0186A26AEFDEF20F03E
:1041F000256C261EE86A2622181E21AE05EF21F046
:10420000206C211EE86A2122181E5AEC2CF021BED7
:1042100015EF21F018AE000C206C211EE86A212257
:104220001C6C1D1EE86A1D22000C18BE0CEF21F04C
:104230001988FF0C186A26AE25EF21F0246C251E84
:10424000261EE86A25222622181E21AE2FEF21F015
:104250001F6C201E211EE86A20222122181E3DEC20
:104260002CF021BE42EF21F018AE000C1F6C201E76
:10427000211EE86A202221221B6C1C1E1D1E1C22EE
:104280001D22000C18BE36EF21F01988FF0C186AA9
:10429000E86A26AE54EF21F0236C241E251E261E4C
:1042A000242225222622181E21AE5FEF21F01E6C4B
:1042B0001F1E201E211E1F2220222122181E19EC43
:1042C0002CF021BE76EF21F018AE000C1E6C1F1EE4
:1042D000201E211EE86A1F22202221221A6C1B1E8A
:1042E0001C1E1D1E1B221C221D22000C18BE66EF68
:1042F00021F01988FF0C196A02EC22F019B685EF3B
:1043000021F019A20ED019B405D07F0E216EFF0E38
:10431000206E1FD0800E216E206A1BD0216A206A79
:1043200018D019B0FBD78F0E2260EDD77E0E226415
:10433000F5D78E0E225C05E0D89021322032222A59
:10434000F8D719A406D0206C211EE86A212221AEDC
:10435000E5D712007F0E226EFF0E216E206E1F6EBB
:1043600012007F0E19BEFF0E226E02D07F0E226E4B
:10437000800E216E206A1F6AF3D719AE04D0800E1A
:10438000226E216AF7D7226A216AF4D71B501A10CD
:104390002B102A10F8E01DBEF0D71BBE0CD01C500D
:1043A0001D10EBE0D8902A362B361A361B361C0629
:1043B000D8A01D06F2D71D50D4E11C28D2E02AAEA9
:1043C00011D07F0E2A1402E12BA00CD02B2AE86A10
:1043D0001A221B2207E3D8801B321A322B321C2AE6
:1043E0001C28BFE01C50C9E02BC01FF01AC020F0F1
:1043F0001B34216E1C30226E2132229E19BE228E69
:10440000B0EF21F02136223602E31984197E06E14D
:104410001980226A216A206A1F6A1200222803E09A
:10442000D88021321200D890213202E11982120084
:10443000198612002636273602E3198C197E06E10A
:104440001988276A266A256A246A1200272803E049
:10445000D88026321200D8902632EAE1198A12005A
:10446000B06A810EAF6EAC8AAC94B886AC98AB8E55
:10447000AB889E9A9D8A9F9A949C948E1200D9CF65
:10448000E6FFE1CFD9FF040EE126DE6ADD6ADECF6A
:1044900000F0DDCF01F0FD0EDBCF02F0FE0EDBCF32
:1044A00003F001500318E8AE02D0033404D00250E8
:1044B000005C035001581DE2020EDB6A030EDB6A4A
:1044C000020EDBCF00F0030EDBCF01F0D8900150DD
:1044D00004E6EE0E005C000E015806E2020EDB2A36
:1044E000030EEEE3DB2AECD7DF2A010ED0E3DB2A52
:1044F000CED7040EE15C02E2E16AE552E16EE552DC
:10450000E7CFD9FF1200D9CFE6FFE1CFD9FF9EA8B0
:10451000FED7FE0EDB50AD6E9E98E552E7CFD9FF79
:104520001200D9CFE6FFE1CFD9FFFD0EDBCFE9FFC7
:10453000FE0EDBCFEAFFEF5010E0FD0EDBCFE9FF10
:10454000FE0EDBCFEAFFEF50E66EDDDFE552FD0E3B
:10455000DB2AFE0EEAE3DB2AE8D7E552E7CFD9FFF4
:104560001200D9CFE6FFE1CFD9FFFD0EDBCFF6FF7A
:10457000FE0EDBCFF7FF0800F55015E0FD0EDBCF98
:10458000F6FFFE0EDBCFF7FF0800F550E66EBBDF4F
:10459000E552FD0EDBCFF6FFDB2AFE0EDBCFF7FF89
:1045A000E4E3DB2AE2D7E552E7CFD9FF1200D9CF07
:1045B000E6FFE1CFD9FF050EE126010EF36EDB6EBB
:1045C000020EDB6A030EDB6A040EDB6ADF6ADFCFF2
:1045D00000F0016A00BE0168FB0EDBCF02F0FC0EAA
:1045E000DBCF03F001500318E8AE02D0033404D04F
:1045F0000250005C035001582DE2FD0EDBCF00F0AD
:10460000FE0EDBCF01F0026A036A01AE02D002683F
:104610000368D950010FE96EDACFEAFF00C023F03A
:1046200001C024F002C025F003C026F0EECF1EF03A
:10463000EECF1FF0EECF20F0EFCF21F0E1EC2BF02A
:104640001DC0EDFF1CC0EDFF1BC0EDFF1AC0EFFF4A
:10465000DF2ABDD7010EDBCF00F0020EDBCF01F069
:10466000030EDBCF02F0040EDBCF03F000C01EF020
:1046700001C01FF002C020F003C021F0050EE15C74
:1046800002E2E16AE552E16EE552E7CFD9FF12009E
:10469000D9CFE6FFE1CFD9FF020EE126DF6AFB0E9C
:1046A000DBCF00F0FC0EDBCF01F0FD0EDBCF02F024
:1046B000FE0EDBCF03F0005001100210031005E1E5
:1046C000300EE66E20DFE552F4D0D950FB0FE96ED4
:1046D000FF0EDA20EA6ED890030EEB50000A08E6CF
:1046E000000EEE5C000EEE58000EEE58000EEE5876
:1046F00015E22D0EE66E07DFE552D950FB0FE96E8D
:10470000FF0EDA20EA6E000EEE6CEF1EEE22EF1EB8
:10471000EE22EF1EEF22ED52ED52ED52DE520A0E66
:10472000DD6E010EDBCF00F0000EE76E0018E8AE84
:1047300002D0003403D0E750D880005401E3B9D050
:10474000010EDB04046E056A04BE056804C0E6FFC2
:1047500005C0E6FF0A0EE66EE66A29DFE552E5527D
:10476000E552E5521EC000F01FC001F020C002F06B
:1047700021C003F01EC023F01FC024F020C025F08C
:1047800021C026F0FB0EDBCF1EF0FC0EDBCF1FF0AE
:10479000FD0EDBCF20F0FE0EDBCF21F019EC2CF06C
:1047A0001E501F102010211041E0010EDF6EDB04AF
:1047B000086E096A08BE096808C0E6FF09C0E6FF7E
:1047C0000A0EE66EE66AF3DEE552E552E552E55280
:1047D0001EC004F01FC005F020C006F021C007F085
:1047E0001EC023F01FC024F020C025F021C026F0F9
:1047F000FB0EDBCF1EF0FC0EDBCF1FF0FD0EDBCF80
:1048000020F0FE0EDBCF21F019EC2CF01EC000F0E2
:104810001FC001F020C002F021C003F0300E0026BE
:10482000000E012202220322005003D0DF5004E0D8
:10483000300EE66E68DEE552010EDB04046E056A9A
:1048400004BE056804C0E6FF05C0E6FF0A0EE66E7A
:10485000E66AADDEE552E552E552E5521EC000F0D3
:104860001FC001F020C002F021C003F0D950FB0F9F
:10487000E96EFF0EDA20EA6E1EC023F01FC024F09E
:1048800020C025F021C026F0EECF1EF0EECF1FF0A5
:10489000EECF20F0EFCF21F019EC2CF01DC0EDFF92
:1048A0001CC0EDFF1BC0EDFF1AC0EFFF010EDB06C1
:1048B00038D7020EE15C02E2E16AE552E16EE552B0
:1048C000E7CFD9FF1200D9CFE6FFE1CFD9FFFB0E2A
:1048D000DBCF00F0FC0EDBCF01F0FD0EDBCF02F0F2
:1048E000FE0EDBCF03F0640E236E246A256A266A6F
:1048F00000C01EF001C01FF002C020F003C021F074
:1049000047EC21F01EC000F01FC001F020C002F0F3
:1049100021C003F01EC0E6FF1FC0E6FF20C0E6FF77
:1049200021C0E6FFB5DEE552E552E552E5522E0E16
:10493000E66EE9DDE552FB0EDBCF00F0FC0EDBCFCF
:1049400001F0FD0EDBCF02F0FE0EDBCF03F0640EB4
:10495000236E246A256A266A00C01EF001C01FF07B
:1049600002C020F003C021F047EC21F01AC000F093
:104970001BC001F01CC002F01DC003F01AC0E6FF0E
:104980001BC0E6FF1CC0E6FF1DC0E6FF81DEE5524E
:10499000E552E552E552E552E7CFD9FF1200120089
:1049A000D9CFE6FFE1CFD9FFD59EFD0EDBCF2AFFA1
:1049B000FE0EDBCF2BFFD59C03680468056A2ACF67
:1049C00006F02BCF07F0086A0650035C006E075014
:1049D0000458016E08500558026E246A010E256EB7
:1049E000266A00C01FF001C020F002C021F01AECBE
:1049F00021F01B50D66E03680468056A2ACF06F0C2
:104A00002BCF07F0086A0650035C006E075004586D
:104A1000016E08500558026E246A010E256E266A42
:104A200000C01FF001C020F002C021F01AEC21F0FC
:104A30001FC000F020C001F021C002F01F50D76E4F
:104A4000D59AD586F28AF294F184D58EE552E7CFD5
:104A5000D9FF1200D59E120003680468056A2ACFA8
:104A600006F02BCF07F0086A0650035C006E075073
:104A70000458016E08500558026E246A010E256E16
:104A8000266A00C01FF001C020F002C021F01AEC1D
:104A900021F01B50D66E03680468056A2ACF06F021
:104AA0002BCF07F0086A0650035C006E07500458CD
:104AB000016E08500558026E246A010E256E266AA2
:104AC00000C01FF001C020F002C021F01AEC21F05C
:104AD0001FC000F020C001F021C002F01F50D76EAF
:104AE000D58E1200D9CFE6FFE1CFD9FFCD90FD0ED4
:104AF000DBCF2CFFFE0EDBCF2DFF03680468056AB9
:104B00002CCF06F02DCF07F0086A0650035C006E2C
:104B100007500458016E08500558026E246A010EB1
:104B2000256E266A00C01FF001C020F002C021F0EF
:104B30001AEC21F01F50CF6E03680468056A2CCF71
:104B400006F02DCF07F0086A0650035C006E075090
:104B50000458016E08500558026E246A010E256E35
:104B6000266A00C01FF001C020F002C021F01AEC3C
:104B700021F01BC000F01CC001F01DC002F01B5052
:104B8000CE6E9D809E909F90CD8ECD8CCD98CD9AEF
:104B9000CD96CD92CD80E552E7CFD9FF12000368C4
:104BA0000468056A2CCF06F02DCF07F0086A06507E
:104BB000035C006E07500458016E08500558026EE1
:104BC000246A010E256E266A00C01FF001C020F085
:104BD00002C021F01AEC21F01F50CF6E0368046868
:104BE000056A2CCF06F02DCF07F0086A0650035C4B
:104BF000006E07500458016E08500558026E246A72
:104C0000010E256E266A00C01FF001C020F002C010
:104C100021F01AEC21F01BC000F01CC001F01DC0F7
:104C200002F01B50CE6ECD801200CD901200D9CF75
:104C3000E6FFE1CFD9FFCA94CC6AFE0EDB500F012C
:104C40002E6F2F6BCB6E9D829E929F92CA90CA92BE
:104C5000CA84E552E7CFD9FF12002ECFCBFFCA841A
:104C60001200CA941200D9CFE6FFE1CFD9FFB1906C
:104C7000FD0EDBCF30FFFE0EDBCF31FF0368046893
:104C8000056A30CF06F031CF07F0086A0650035CA2
:104C9000006E07500458016E08500558026E246AD1
:104CA000010E256E266A00C01FF001C020F002C070
:104CB00021F01AEC21F01F50B36E03680468056AF6
:104CC00030CF06F031CF07F0086A0650035C006E63
:104CD00007500458016E08500558026E246A010EF0
:104CE000256E266A00C01FF001C020F002C021F02E
:104CF0001AEC21F01BC000F01CC001F01DC002F036
:104D00001B50B26EA082A192A292B18EB198B19ABC
:104D1000B192B180E552E7CFD9FF12000368046871
:104D2000056A30CF06F031CF07F0086A0650035C01
:104D3000006E07500458016E08500558026E246A30
:104D4000010E256E266A00C01FF001C020F002C0CF
:104D500021F01AEC21F01B50B26E03680468056A5A
:104D600030CF06F031CF07F0086A0650035C006EC2
:104D700007500458016E08500558026E246A010E4F
:104D8000256E266A00C01FF001C020F002C021F08D
:104D90001AEC21F01FC000F020C001F021C002F089
:104DA0001F50B36EB1801200B19012000F013A2B68
:104DB000000E3B2342513A5D43513B5904E33A6BA9
:104DC0003B6B010E326F12000F013C2B000E3D2396
:104DD00044513C5D45513D5904E33C6B3D6B010E34
:104DE000336F12000F013E2B000E3F2346513E5DF4
:104DF00047513F5904E33E6B3F6B010E346F120085
:104E00000F01402B000E41234851405D495141594B
:104E100004E3406B416B010E356F1200D9CFE6FF02
:104E2000E1CFD9FFFD0EDBCF42FFFE0EDBCF43FF0C
:104E30000F013A6B3B6B326BE552E7CFD9FF1200A3
:104E4000D9CFE6FFE1CFD9FFFD0EDBCF44FFFE0E49
:104E5000DBCF45FF050E256E266A44CF20F045CFF7
:104E600021F0F4EC20F020C044FF21C045FF0F01E9
:104E70003C6B3D6B336BE552E7CFD9FF1200D9CFC6
:104E8000E6FFE1CFD9FFFD0EDBCF48FFFE0EDBCF03
:104E900049FF0A0E256E266A48CF20F049CF21F03F
:104EA000F4EC20F020C048FF21C049FF0F01406B07
:0C4EB000416B356BE552E7CFD9FF1200D3
:044EBC000F0E946ED3
:104EC00082681200CF0E9414946E82681200D9CFBB
:104ED000E6FFE1CFD9FF040EE126DE6ADD6ADECF10
:104EE00000F0DDCF01F0D890015004E6040E005C24
:104EF000000E015801E390D0DECFE9FFDDCFEAFFDD
:104F0000E00EE926000EEA22EF1C826E020EDB6A3A
:104F1000030EDB6A020EDBCF00F0030EDBCF01F0E5
:104F2000D890015004E6040E005C000E01586EE2B9
:104F3000020EDBCFE9FF030EDBCFEAFFE40EE9262A
:104F4000000EEA22EF5082143FE1DECF04F0DDCF05
:104F500005F0D89004360536D89004360536020E92
:104F6000DB500424E96E030EDB500520EA6ED89076
:104F7000E936EA36800EE926000EEA22EECF02F08C
:104F8000EFCF03F0010E0226000E0322DECF00F069
:104F9000DDCF01F0D89000360136D89000360136CA
:104FA000020EDB500024E96E030EDB500120EA6E96
:104FB000D890E936EA36800EE926000EEA2202C0D1
:104FC000EEFF03C0EDFF1BD0DECF00F0DDCF01F020
:104FD000D89000360136D89000360136020EDB50EC
:104FE0000024E96E030EDB500120EA6ED890E9360A
:104FF000EA36800EE926000EEA22EE6AED6A020E1B
:10500000DB2A030E01E286D7DB2A84D7DF2A010ED2
:1050100001E265D7DB2A63D7040EE15C02E2E16AB4
:10502000E552E16EE552E7CFD9FF1200D9CFE6FF96
:10503000E1CFD9FF040EE126DE6ADD6ADECF00F0A3
:10504000DDCF01F0D890015004E6020E005C000EA6
:10505000015801E394D0DECFE9FFDDCFEAFFE00E97
:10506000E926000EEA22EF1C8214826E0F0E8210D7
:10507000826E020EDB6A030EDB6A020EDBCF00F0EB
:10508000030EDBCF01F0D890015004E6040E005C63
:10509000000E01586EE2020EDBCFE9FF030EDBCFFC
:1050A000EAFFE40EE926000EEA22EF5082143FE107
:1050B000DECF04F0DDCF05F0D89004360536D89069
:1050C00004360536020EDB500424E96E030EDB5075
:1050D0000520EA6ED890E936EA36800EE926000E01
:1050E000EA22EECF02F0EFCF03F0010E0226000E0F
:1050F0000322DECF00F0DDCF01F0D890003601367C
:10510000D89000360136020EDB500024E96E030E03
:10511000DB500120EA6ED890E936EA36800EE926A7
:10512000000EEA2202C0EEFF03C0EDFF1BD0DECF6F
:1051300000F0DDCF01F0D89000360136D89000366F
:105140000136020EDB500024E96E030EDB50012015
:10515000EA6ED890E936EA36800EE926000EEA2299
:10516000EE6AED6A020EDB2A030E01E286D7DB2A25
:1051700084D7DF2A010E01E261D7DB2A5FD7040E54
:10518000E15C02E2E16AE552E16EE552E7CFD9FF68
:105190001200D9CFE6FFE1CFD9FF040EE126DE6A87
:1051A000DD6ADECF00F0DDCF01F0FD0EDBCF02F0D7
:1051B000FE0EDBCF03F001500318E8AE02D003343B
:1051C00004D00250005C035001581DE2020EDB6A5D
:1051D000030EDB6A020EDBCF00F0030EDBCF01F023
:1051E000D890015004E6EE0E005C000E015806E275
:1051F000020EDB2A030EEEE3DB2AECD7DF2A010ED8
:10520000D0E3DB2ACED7040EE15C02E2E16AE5528C
:10521000E16EE552E7CFD9FF1200D9CFE6FFE1CF2B
:10522000D9FFFD0EDBCFE9FFFE0EDBCFEAFF010E5B
:10523000D890E936EA36E806FBE1800EE926000E52
:10524000EA22EE50ED101BE0FD0EDBCFE9FFFE0E73
:10525000DBCFEAFF010ED890E936EA36E806FBE13B
:10526000800EE926000EEA22EE6AED6AC80EE66EAE
:10527000E66A8FDFE552E552010EF36E01D0F36A64
:0A528000F46AE552E7CFD9FF1200EF
:06528A00F28ED08EF28CC2
:105290001200F19CF292F2881200D8CFE4FFE0CF26
:1052A000E4FFE46EDACFE4FFE2CFDAFFE9CFE4FF18
:1052B000EACFE4FFF6CFE4FFF7CFE4FFF5CFE4FF5A
:1052C000F3CFE4FFF4CFE4FFFACFE4FF00EE18F0F1
:1052D000140EE80403E3EECFE4FFFBD700EE00F08A
:1052E000180EE80403E3EECFE4FFFBD7E652F2A486
:1052F00007D02AEC25F0F2942CEC25F0D6EC26F021
:105300009EA007D015EC26F09E90CFEC25F0E4ECA3
:1053100026F0A1A207D0D4EC26F0A1928EEC26F0C4
:1053200000EC27F0F2B2F2929EBA9E9AE55200EE9D
:1053300017F0180EE80403E3E5CFEDFFFBD700EE0E
:105340002BF0140EE80403E3E5CFEDFFFBD7E5CF28
:10535000FAFFE5CFF4FFE5CFF3FFE5CFF5FFE5CFAB
:10536000F7FFE5CFF6FFE5CFEAFFE5CFE9FFE5CFB1
:10537000DAFFE550E5CFE0FFE5CFD8FF1000DACF48
:10538000E4FFE2CFDAFFE9CFE4FFEACFE4FFF6CFB4
:10539000E4FFF7CFE4FFF5CFE4FFF3CFE4FFF4CF72
:1053A000E4FFFACFE4FF00EE18F0140EE80403E384
:1053B000EECFE4FFFBD700EE00F0180EE80403E3A5
:1053C000EECFE4FFFBD7E652F2A407D02AEC25F09B
:1053D000F2942CEC25F0D6EC26F09EA007D015EC2C
:1053E00026F09E90CFEC25F0E4EC26F0A1A207D0A9
:1053F000D4EC26F0A1928EEC26F000EC27F0F2B26D
:10540000F2929EBA9E9AE55200EE17F0180EE8044A
:1054100003E3E5CFEDFFFBD700EE2BF0140EE8041D
:1054200003E3E5CFEDFFFBD7E5CFFAFFE5CFF4FFD0
:10543000E5CFF3FFE5CFF5FFE5CFF7FFE5CFF6FFCB
:0E544000E5CFEAFFE5CFE9FFE5CFDAFF110087
:02544E00206DCF
:10545000332F68200D0A00206D672F6C20464C4FBB
:10546000573D2000206D672F6C204E4F333D2000AC
:105470002043204E48343D2000206D672F6C20547F
:105480004D503D2000206D672F6C204353423D203E
:10549000002070482053533D200032302E30342EEF
:1054A00031362030393A31323A3037202070483D99
:1054B000202000444953504C4159204D4F44450051
:1054C0007048203D2020202E005741524E494E4723
:1054D000204D4F4445006D6178005353203D2020FE
:1054E000202E007048203D2020202E00464C4F5793
:1054F000203D20202020206D332F68004E4F332088
:105500003D2020202E20206D672F4C004E48342057
:105510003D2020202E20206D672F4C00544D502020
:105520003D2020202E20204300434F44203D2020BA
:1055300020202E20206D672F4C0020006D696E000A
:105540005353203D2020202E20206D672F4C0057E4
:1055500041524E494E47204D4F444500464C4F570F
:10556000004E4F33004E483400544D5000434F44DA
:10557000005353007048004C4F573A2000484947A9
:10558000483A2000414C4C20504152414D45544531
:0F55900052532020415245204E4F524D414C0066
:1055A000020E0101141901E1155126E0010E141932
:1055B00001E1155109E0145101E1155101E012001A
:1055C000010E146F156B1200230E146F156B83EC14
:1055D00018F0C90EE66E540EE66EE66AE66AF3EC63
:1055E00016F0E552E552E552E55244EC18F0E80EAB
:1055F000E66E030EE66E23D0000EE66EE66A0DEC54
:1056000029F0E552E552F3CF00F0F4CF01F0F3506A
:10561000F4101AE0010E0101146F156BC90EE66E4D
:10562000540EE66EE66AE66AF3EC16F0E552E552D1
:10563000E552E55244EC18F0C80EE66EE66AF6EC68
:1056400018F0E552E5521200010EE66EE66A0DEC26
:1056500029F0E552E552F3CF00F0F4CF01F0F3501A
:10566000F4100AE0040E0101146F156B83EC18F0BE
:10567000C00EE66E540E05D083EC18F0B30EE66E45
:10568000540EE66EE66AE66AF3EC16F0E552E55271
:08569000E552E55244EF18F069
:085698001E0EF66E000EF76E07
:1056A000000EF86E01010900F550056F0900F55074
:1056B000066F03E1056701D03DD00900F550006F8A
:1056C0000900F550016F0900F550026F090009004B
:1056D000F550E96E0900F550EA6E0900090009006D
:1056E000F550036F0900F550046F09000900F6CF6B
:1056F00007F1F7CF08F1F8CF09F100C1F6FF01C1BA
:10570000F7FF02C1F8FF0101035302E1045307E070
:105710000900F550EE6E0307F8E20407F9D707C158
:10572000F6FF08C1F7FF09C1F8FF01010507000EE8
:06573000065BBFD712006A
:0A5736000F0E926E0B0EC16E040EF2
:10574000C06E1200D9CFE6FFE1CFD9FF020EE126ED
:10575000FE0EDB50040DF350C26EC280C282C2B294
:10576000FED7C450DE6EDD6ADECF02F0DDCF03F07F
:10577000D89002360336D89002360336060EC3CFD1
:10578000E7FF070B04E0E742E79EE806FCE1E7508D
:105790000224006E000E032000C0DEFFDD6EDECFAF
:1057A00000F0DDCF01F000C0F3FF01C0F4FF020EF6
:1057B000E15C02E2E16AE552E16EE552E7CFD9FF32
:0257C0001200D5
:0E57C2001E502302F3CF1AF0F4CF1BF0240286
:1057D000F3501B26000EF4201C6E1E502502F350C1
:1057E0001C26000EF4201D6E1E502602F3501D26AE
:1057F0001F502302F3501B26F4501C22000E1D22C2
:105800001F502402F3501C26F4501D221F50250265
:10581000F3501D2620502302F3501C26F4501D2265
:1058200020502402F3501D2621502302F3501D2640
:02583000120064
:0E5832001D6A1C6A1B6A1A6A200EE76ED89067
:105840001E361F36203621361A361B361C361D36BC
:1058500023501A5C24501B5825501C5826501D58A4
:1058600009E323501A5E24501B5A25501C5A265017
:0A5870001D5A1E2AE72EE4D712008D
:06587A001D6A1C6A1B6A96
:10588000180EE76ED8901F36203621361B361C3690
:105890001D3624501B5C25501C5826501D5807E30C
:1058A00024501B5E25501C5A26501D5A1F2AE72ED5
:0458B000EAD7120021
:0C58B4001D6A1C6A100EE76ED8902036AA
:1058C00021361C361D3625501C5C26501D5805E31C
:1058D00025501C5E26501D5A202AE72EF0D71200B4
:1058E000800EF36E00EE00F00F0E01D81200EA6099
:1058F00002D0EE6AFCD7F350E9601200EE6AFCD7E2
:105900001EEE00F02EEE00F0F86A199C4CEC2BF025
:0C59100003EC00F0B2EC18F0FBD7120022
:04591C000000000087
:105920000000000000000000000000000000000077
:0C59300000000000010001000100010067
:04593C0020202020E7
:105940002020202020202020202020202020202057
:0C595000202020202020202020202020CB
:04595C000000000047
:105960000000000000000000000000000000000037
:02597000000035
:0E597200EE02AC0DE02EB80B90019001204E1D
:10598000B2020C03F00A941128235046C409E40C17
:0C599000D2001C0296002602803EA86196
:04599C000000000007
:1059A00000000000000000000000000000000000F7
:1059B00000000000000000000000000000000000E7
:1059C00000000000000000000000000000000000D7
:1059D00000000000000000000000000000000000C7
:1059E00000000000000000000000000000000000B7
:1059F00000000000000000000000000010204080B7
:0C5A00000102040801020408102040808C
:020000040030CA
:0100010002FC
:0100020003FA
:010003001EDE
:010005008179
:010006008178
:010008000FE8
:01000900C036
:01000A000FE6
:01000B00E014
:01000C000FE4
:01000D0040B2
:00000001FF
