:020000040000FA
:0600000028EF08F01200D9
:020006001200E6
:0600080078EF05F0120084
:02000E00486543
:040010006C6C6F00A5
:0400140000000000E8
:060018003FEF05F01200AD
:02001E000300DD
:1000200014000000CE000000040000008C1000004E
:10003000A0000000200000006C1000008000000004
:04004000200000009C
:0C004400B6DA76DA15AE02D0166817683E
:100050002DDA13E283DA4CDA04E6EE0E145C000EBD
:10006000155806E2020EDB2A030EF5E3DB2AF3D76E
:10007000DF2A010EE8E3DB2AE6D7040EE15C02E2A8
:10008000E16AE552E16EF1D1EBD9E652190E6FDA71
:100090000F0E8116F80E81160F0E8116300E6DDAD6
:1000A000300E6BDA300E69DA818AD3D9280EE66E0B
:1000B00007D8E5520C0EE66E03D8E552E552D5D1CD
:1000C0007EDAF00B5ADAFE0EDB38F00B8112C1D962
:1000D000CCD1C6D9050EE126010EF36EDB6E3EDAF9
:1000E000040EDB6ADF6ADFCF14F0156A14BE1568F0
:1000F00028DA15501718E8AE02D0173404D016507D
:10010000145C175015581FE2FD0EDBCF14F0FE0EE5
:10011000DBCF15F0166A176A15AE02D0166817689D
:10012000D950010FE96EDACFEAFF14C00BF015C009
:100130000CF016C00DF017C00EF0E3D989EC07F0F3
:10014000E9D9DF2AD0D7010EDBCF14F0020EDBCFC6
:1001500015F0030EDBCF16F0040EDBCF17F014C042
:1001600006F015C007F016C008F017C009F0050E1C
:10017000E15C02E2E16AE552E16E77D11ADADAD99E
:1001800015AE02D01668176891D913E2E7D9B0D935
:1001900004E6060E145C000E155806E2020EDB2A79
:1001A000030EF5E3DB2AF3D7DF2A010EE8E3DB2AAF
:1001B000E6D7040EE15C02E2E16AE552E16E55D158
:1001C000FED98112818655D9819653D94ED148D90D
:1001D00081844FD97AD9819448D142D9819449D91F
:1001E00074D943D13DD9E652FD0EDB500F0B146E8E
:1001F000FE0EDB50010B400DF3501424DF6E7F0E1A
:10020000DF14800FDF6EDFCFE6FFE7DFE552E55258
:100210002CD126D9FE0EDBCFE6FFD9DFE55225D162
:100220001FD9CAC014F0CBC015F0040ED8901436F4
:100230001536E806FBE1A00E1426000E1522145018
:100240000001CC25E96E1550CD21EA6EFE0EDBCF04
:10025000EFFFCC2B000ECD2308D102D9FD0EDBCF52
:10026000F6FFFE0EDBCFF7FF0800F5500FE0FD0EA6
:10027000DBCFF6FFDB2AFE0EDBCFF7FF01E3DB2A45
:100280000800F550E66EC5DFE552E8D7EED0E8D8B5
:10029000020EE126DF6AFE0EDB50010B0001CA6F81
:1002A000CB6BFD0EDB500F0BCC6FCD6BF90EDBCFA4
:1002B00014F0FA0EDBCF15F044D9145015101610B7
:1002C000171003E1300E4FD96DD00BD9D890030E23
:1002D000EB50000A08E6000EEE5C000EEE58000E31
:1002E000EE58000EEE580EE22D0E3DD9FAD8000E53
:1002F000EE6CEF1EEE22EF1EEE22EF1EEF22ED520D
:10030000ED52ED52DE52070EDD6E010EDBCF14F022
:10031000000EE76E1418E8AE02D0143403D0E75094
:10032000D88014543FE2010EDB04186E196A18BE1F
:100330001968B5D8A5D806500710081009101EE096
:10034000010EDF6EDB041C6E1D6A1CBE1D681CC026
:10035000E6FF1DC0E6FF16D906C018F007C019F069
:1003600008C01AF009C01BF08BD811D9300E142622
:10037000000E152216221722145003D0DF5002E07F
:10038000300EF1D8010EDB04186E196A18BE196818
:1003900086D8A7D805D9B5D8C1EC07F0BBD8010ECF
:1003A000DB06B3D7020EE15C02E2E16AE552E16EE0
:1003B0005CD056D8E652CCD8DF6A100EDF5C07E27C
:1003C000DF50EA6AA00FE96E000EADD8F6D7E66AF4
:1003D000010EE66E07DFE552E552DF6A100EDF5CC4
:1003E00007E2DF50EA6AB00FE96E000E9CD8F6D73C
:1003F000E5523BD0010EE66EF0DEE552A8EF02F0CA
:100400002FD8E652DF6ADFCF14F0100EE76E141813
:10041000E8AE02D0E73402D0E750145C18E2DFCF38
:10042000E9FFEA6AE9BEEA68A00EE926000EEA22C0
:10043000200EEF6EDFCFE9FFEA6AE9BEEA68B00E90
:10044000E926000EEA22200EEF6EDF2ADCD7E55205
:100450000CD08186010E8BD88196010EB7EF02F089
:10046000D9CFE6FFE1CFD9FF1200E552E7CFD9FFA0
:100470001200050EE66EE66AE66AE66A7FDEA5D041
:100480008FD8F90EDBCF06F0FA0EDBCF07F0FB0EAC
:10049000DBCF08F0FC0EDBCF09F0C1EF07F018C08E
:1004A000E6FF19C0E6FF6ED8C7EF02F0D950FB0F88
:1004B000E96EFF0EDA20EA6EEE50145CEE5015582D
:1004C000EE501658EE5017581200FE0EDBCFE6FF26
:1004D00077DEE552FE0EDB38F00BE66E71DEE5529C
:1004E0001200D950F90FE96EFF0EDA20EA6E120001
:1004F000020EDBCF14F0030EDBCF15F0D8901550B1
:100500001200EECF06F0EECF07F0EECF08F0EFCFFF
:1005100009F0120005C0EDFF04C0EDFF03C0EDFFC0
:1005200002C0EFFF1200EA22EF50E66E72DEE552E3
:10053000DF2A1200DECF14F0DDCF15F0166A176A3D
:100540001200FB0EDBCF16F0FC0EDBCF17F0120013
:10055000E66AE66A47DEE552E5521200020EDB6A01
:10056000030EDB6A1200E66E5BDEE5521200E66EF9
:10057000E66AE66AE66A66DD28D081126ADF0F0E57
:10058000811612000A0EE66EE66AA3DD1ED006C0D2
:1005900014F007C015F008C016F009C017F01200DB
:1005A00006C00BF007C00CF008C00DF009C00EF03B
:1005B000120056DF040EE126DE6ADD6A120050DF0B
:1005C0000F0E8116FE0EDB501200E552E552E55289
:0405D000E5521200DE
:0C05D400F1D8D59EFD0EDBCF80F0FE0EAE
:1005E000DBCF81F0D59C05D9D59AD586F28AF294D5
:1005F000F184D58EE6D0D59E1200FBD8D58E1200A0
:10060000DBD8CD90FD0EDBCF82F0FE0EDBCF83F08A
:10061000F7D89D809E909F90CD8ECD8CCD98CD9A11
:10062000CD96CD92CD80CDD0EBD8CD801200CD909F
:100630001200C2D8CA94CC6AFE0EDB500001846F4F
:10064000856BCB6E9D829E929F92CA90CA92CA84FD
:10065000B8D084C0CBFFCA841200CA941200ACD8B0
:10066000B190FD0EDBCF86F0FE0EDBCF87F0CFD84A
:100670000750B36ECCD8B5D8B26EA082A192A29228
:10068000B18EB198B19AB192B1809BD0C0D80350CD
:10069000B26EBDD89ED8B36EB1801200B190120078
:1006A0000001902B000E91239851905D9951915922
:1006B00004E3906B916B010E886F12000001922B86
:1006C000000E93239A51925D9B51935904E3926BD0
:1006D000936B010E896F12000001942B000E95237D
:1006E0009C51945D9D51955904E3946B956B010E5B
:1006F0008A6F12000001962B000E97239E51965D83
:100700009F51975904E3966B976B010E8B6F120004
:1007100053D8FD0EDBCF98F0FE0EDBCF99F0000131
:10072000906B916B886B4DD047D8FD0EDBCF9AF064
:10073000FE0EDBCF9BF0050E0D6E0E6A9AC008F020
:100740009BC009F074EC06F008C09AF009C09BF059
:100750000001926B936B896B34D02ED8FD0EDBCFEA
:100760009EF0FE0EDBCF9FF00A0E0D6E0E6A9EC04D
:1007700008F09FC009F074EC06F008C09EF009C0B4
:100780009FF00001966B976B8B6B1BD01C6A1A5005
:10079000175C146E1B501858156E1C501958166EA5
:1007A0000C6A010E0D6E0E6A14C007F015C008F039
:1007B00016C009F09AEF06F0D9CFE6FFE1CFD9FFD6
:1007C0001200E552E7CFD9FF120017681868196ABE
:1007D000120007C014F008C015F009C016F0075049
:1007E000120003C014F004C015F005C016F0035049
:1007F000120014D80350D66E11D8EBDFD76E12005A
:1008000014D80750CF6E11D8ECDFCE6E1200DDDFAA
:1008100086C01AF087C01BF0C6EF03F0D6DF80C099
:100820001AF081C01BF0C6EF03F0CFDF82C01AF0D0
:0808300083C01BF0C6EF03F0CA
:0808380018D80E0EE66E000E4A
:10084000E66E2DEC01F0E552E552E80EE66E030E81
:10085000E66EFAD800018B51FDE000EC02F00001D9
:100860008B6B67D8D9EC01F0F5D7936A44EC00F0B4
:10087000FAEC01F000EC02F0F40EE66E010EE66E0A
:10088000E3D837EC05F043EC07F0660EE66EB70EE2
:10089000E66E2FEC03F0E552E552320EE66EE66AA4
:1008A000ADEC03F0E552E5521200D9CFE6FFE1CFFF
:1008B000D9FF040EE126DE6ADD6ADECF14F0DDCF5B
:1008C00015F0FD0EDBCF16F0FE0EDBCF17F0155046
:1008D0001718E8AE02D0173404D01650145C175025
:1008E00015581DE2020EDB6A030EDB6A020EDBCF37
:1008F00014F0030EDBCF15F0D890155004E6EE0E81
:10090000145C000E155806E2020EDB2A030EEEE31D
:10091000DB2AECD7DF2A010ED0E3DB2ACED7040E88
:10092000E15C02E2E16AE552E16EE552E7CFD9FF10
:100930001200D9CFE6FFE1CFD9FF0E0EE1260C0E53
:10094000DB6A0D0EDB6A0C0EDBCF14F00D0EDBCF75
:1009500015F0D890155004E6060E145C000E1558DC
:100960002DE20C0EDBCFE6FF4AEC07F0E552F3CFA9
:1009700016F0F4CF17F0D9CF14F0DACF15F0020E3D
:10098000086E096A0C0EDBCF0DF00D0EDBCF0EF0FA
:10099000C7EC06F014500624E96E15500720EA6EE5
:1009A00016C0EEFF17C0EDFF0A0EE66EE66A4CD8E1
:1009B0000C0EDB2A0D0EC7E3DB2AC5D7DECF14F001
:1009C000DDCF15F045D8E66AE66A37D8020EDBCFF0
:1009D00014F0030E2ED8060EE66EE66A2ED8040E2C
:1009E000DBCF14F0050E25D80C0EE66EE66A25D88E
:1009F000060EDBCF14F0070E1CD8E66A34D8080EBA
:100A0000DBCF14F0090E15D8060EE66E2CD80A0EB0
:100A1000DBCF14F00B0E0DD80C0EE66E24D80E0EA4
:100A2000E15C02E2E16AE552E16EE552E7CFD9FF0F
:100A30001200DBCF15F028EF05F047EC01F0186E3F
:100A4000060EE15E1850120030DFE552E55212004A
:100A5000166A176A14C0E6FF15C0E6FF16C0E6FF67
:0E0A600017C0E6FF1200010EE66E1DEF05F056
:020A6E00F28E06
:100A7000D08EF28C1200F19CF292F2881200D8CF44
:100A8000E4FFE0CFE4FFE46E62D800EE00F0140E65
:100A9000E80403E3EECFE4FFFBD700EE14F00A0E08
:100AA000E80403E3EECFE4FFFBD7E652F2B477D8D5
:100AB0009EB07CD8A1B281D8F2B2F2929EBA9E9A30
:100AC000E55200EE1DF00A0EE80403E3E5CFEDFF6A
:100AD000FBD700EE13F0140EE80403E3E5CFEDFFBF
:100AE000FBD74AD8E550E5CFE0FFE5CFD8FF1000AF
:100AF0002ED800EE00F0140EE80403E3EECFE4FF7E
:100B0000FBD700EE14F00A0EE80403E3EECFE4FF97
:100B1000FBD7E652F2B443D89EB048D8A1B24DD824
:100B2000F2B2F2929EBA9E9AE55200EE1DF00A0EC3
:100B3000E80403E3E5CFEDFFFBD700EE13F0140E5E
:100B4000E80403E3E5CFEDFFFBD716D81100DACFB9
:100B5000E4FFE2CFDAFFE9CFE4FFEACFE4FFF6CF2C
:100B6000E4FFF7CFE4FFF5CFE4FFF3CFE4FFF4CFEA
:100B7000E4FFFACFE4FF1200E5CFFAFFE5CFF4FF80
:100B8000E5CFF3FFE5CFF5FFE5CFF7FFE5CFF6FFC4
:100B9000E5CFEAFFE5CFE9FFE5CFDAFF1200FBEC96
:100BA00002F0F294FDEC02F050EF03F017EC03F0CA
:100BB0009E9014EC03F05EEF03F04EEC03F0A19274
:080BC00046EC03F07AEF03F0AC
:080BC800B06A810EAF6EAC8A29
:100BD000AC94B886AC98AB8EAB889E9A9D8A9F9A4F
:100BE000949C948E12006FD8040EE126DE6ADD6AB2
:100BF000DECF14F0DDCF15F0FD0EDBCF16F0FE0ECC
:100C0000DBCF17F015501718E8AE02D0173404D018
:100C10001650145C175015581DE2020EDB6A030EC5
:100C2000DB6A020EDBCF14F0030EDBCF15F0D89099
:100C3000155004E6EE0E145C000E155806E2020E86
:100C4000DB2A030EEEE3DB2AECD7DF2A010ED0E32A
:100C5000DB2ACED7040EE15C02E2E16AE552E16EE6
:100C600037D031D89EA8FED7FE0EDB50AD6E9E98D1
:100C70002FD029D831D80AE02FD8E66EF2DFE5521E
:100C8000FD0EDB2AFE0EF6E3DB2AF4D721D01BD8BB
:100C900011D80EE00FD8E66EE4DFE552FD0EDBCF93
:100CA000F6FFDB2AFE0EDBCFF7FFF2E3DB2AF0D7FD
:100CB0000FD01200FD0EDBCFF6FFFE0EDBCFF7FFED
:100CC0000800F5501200D9CFE6FFE1CFD9FF12009E
:100CD000E552E7CFD9FF1200FD0EDBCFE9FFFE0E94
:080CE000DBCFEAFFEF50120028
:080CE800006A0EAE7DEF06F07C
:100CF0000D6C0E1EE86A0E22001E09AE85EF06F08E
:100D0000086C091EE86A0922001E02EC08F009BE00
:100D100095EF06F000AE000C086C091EE86A092287
:100D2000046C051EE86A0522000C00BE8CEF06F07C
:100D30000188FF0C006A0EAEA5EF06F00C6C0D1ECC
:100D40000E1EE86A0D220E22001E09AEAFEF06F05D
:100D5000076C081E091EE86A08220922001EE5EC3D
:100D600007F009BEC2EF06F000AE000C076C081ECB
:100D7000091EE86A08220922036C041E051E0422CB
:100D80000522000C00BEB6EF06F00188FF0C09C07A
:100D900013F008C012F008500D02F4CF07F0F3CFA3
:100DA00006F009500E02F4CF09F0F3CF08F00D025F
:100DB000F3500726F4500822E86A092212500E0266
:100DC000F3500726F4500822E86A09220EAEEDEF30
:100DD00006F01250085E1350095A13AE000C0D5065
:080DE000085E0E50095A000CD8
:080DE8001E0EF66E000EF76E00
:100DF000000EF86E00010900F550C56F0900F550AE
:100E0000C66F03E1C56701D03DD00900F550C06F42
:100E10000900F550C16F0900F550C26F09000900C3
:100E2000F550E96E0900F550EA6E09000900090065
:100E3000F550C36F0900F550C46F09000900F6CFE3
:100E4000C7F0F7CFC8F0F8CFC9F0C0C0F6FFC1C0F7
:100E5000F7FFC2C0F8FF0001C35302E1C45307E02B
:100E60000900F550EE6EC307F8E2C407F9D7C7C012
:100E7000F6FFC8C0F7FFC9C0F8FF0001C507000EA4
:060E8000C65BBFD71200A3
:0A0E86000F0E926E0B0EC16E040EEB
:100E9000C06E1200D9CFE6FFE1CFD9FF020EE126E6
:100EA000FE0EDB50040DF350C26EC280C282C2B28D
:100EB000FED7C450DE6EDD6ADECF16F0DDCF17F050
:100EC000D89016361736D89016361736060EC3CF7A
:100ED000E7FF070B04E0E742E79EE806FCE1E75086
:100EE0001624146E000E172014C0DEFFDD6EDECF58
:100EF00014F0DDCF15F014C0F3FF15C0F4FF020E9F
:100F0000E15C02E2E16AE552E16EE552E7CFD9FF2A
:020F10001200CD
:0E0F120006500B02F3CF02F0F4CF03F00C02F6
:100F2000F3500326000EF420046E06500D02F35019
:100F30000426000EF420056E06500E02F35005261E
:100F400007500B02F3500326F4500422000E052232
:100F500007500C02F3500426F450052207500D02EE
:100F6000F350052608500B02F3500426F4500522D6
:100F700008500C02F350052609500B02F3500526C9
:020F800012005D
:0E0F8200056A046A036A026A200EE76ED890C0
:100F90000636073608360936023603360436053675
:100FA0000B50025C0C5003580D5004580E5005585D
:100FB00009E30B50025E0C50035A0D50045A0E50B8
:0A0FC000055A062AE72EE4D71200B6
:060FCA00056A046A036AD7
:100FD000180EE76ED8900736083609360336043601
:100FE00005360C50035C0D5004580E50055807E3AD
:100FF0000C50035E0D50045A0E50055A072AE72E76
:04100000EAD7120019
:0C100400056A046A100EE76ED8900836EA
:101010000936043605360D50045C0E50055805E3BC
:101020000D50045E0E50055A082AE72EF0D7120024
:10103000800EF36E00EE00F00F0E01D81200EA6091
:1010400002D0EE6AFCD7F350E9601200EE6AFCD7DA
:101050001EEE00F02EEE00F0F86A019CF4EC06F0B3
:0C10600003EC00F01CEC04F0FBD71200C5
:04106C000000000080
:101070000000000000000000000000000000000070
:0C10800000000000010001000100010060
:04108C0020202020E0
:101090002020202020202020202020202020202050
:0C10A000202020202020202020202020C4
:020000040030CA
:0100010002FC
:0100020003FA
:010003001EDE
:010005008179
:010006008178
:010008000FE8
:01000900C036
:01000A000FE6
:01000B00E014
:01000C000FE4
:01000D0040B2
:00000001FF
